{
  "contractName": "AToken",
  "abi": [
    {
      "constant": true,
      "inputs": [],
      "name": "name",
      "outputs": [
        {
          "name": "",
          "type": "string"
        }
      ],
      "payable": false,
      "stateMutability": "view",
      "type": "function"
    },
    {
      "constant": false,
      "inputs": [
        {
          "name": "spender",
          "type": "address"
        },
        {
          "name": "amount",
          "type": "uint256"
        }
      ],
      "name": "approve",
      "outputs": [
        {
          "name": "",
          "type": "bool"
        }
      ],
      "payable": false,
      "stateMutability": "nonpayable",
      "type": "function"
    },
    {
      "constant": true,
      "inputs": [],
      "name": "totalSupply",
      "outputs": [
        {
          "name": "",
          "type": "uint256"
        }
      ],
      "payable": false,
      "stateMutability": "view",
      "type": "function"
    },
    {
      "constant": false,
      "inputs": [
        {
          "name": "sender",
          "type": "address"
        },
        {
          "name": "recipient",
          "type": "address"
        },
        {
          "name": "amount",
          "type": "uint256"
        }
      ],
      "name": "transferFrom",
      "outputs": [
        {
          "name": "",
          "type": "bool"
        }
      ],
      "payable": false,
      "stateMutability": "nonpayable",
      "type": "function"
    },
    {
      "constant": true,
      "inputs": [],
      "name": "decimals",
      "outputs": [
        {
          "name": "",
          "type": "uint8"
        }
      ],
      "payable": false,
      "stateMutability": "view",
      "type": "function"
    },
    {
      "constant": false,
      "inputs": [
        {
          "name": "spender",
          "type": "address"
        },
        {
          "name": "addedValue",
          "type": "uint256"
        }
      ],
      "name": "increaseAllowance",
      "outputs": [
        {
          "name": "",
          "type": "bool"
        }
      ],
      "payable": false,
      "stateMutability": "nonpayable",
      "type": "function"
    },
    {
      "constant": true,
      "inputs": [],
      "name": "initialExchangeRate",
      "outputs": [
        {
          "name": "",
          "type": "uint256"
        }
      ],
      "payable": false,
      "stateMutability": "view",
      "type": "function"
    },
    {
      "constant": true,
      "inputs": [
        {
          "name": "account",
          "type": "address"
        }
      ],
      "name": "balanceOf",
      "outputs": [
        {
          "name": "",
          "type": "uint256"
        }
      ],
      "payable": false,
      "stateMutability": "view",
      "type": "function"
    },
    {
      "constant": true,
      "inputs": [],
      "name": "underlyingAssetAddress",
      "outputs": [
        {
          "name": "",
          "type": "address"
        }
      ],
      "payable": false,
      "stateMutability": "view",
      "type": "function"
    },
    {
      "constant": true,
      "inputs": [],
      "name": "symbol",
      "outputs": [
        {
          "name": "",
          "type": "string"
        }
      ],
      "payable": false,
      "stateMutability": "view",
      "type": "function"
    },
    {
      "constant": true,
      "inputs": [],
      "name": "underlyingAssetDecimals",
      "outputs": [
        {
          "name": "",
          "type": "uint256"
        }
      ],
      "payable": false,
      "stateMutability": "view",
      "type": "function"
    },
    {
      "constant": false,
      "inputs": [
        {
          "name": "spender",
          "type": "address"
        },
        {
          "name": "subtractedValue",
          "type": "uint256"
        }
      ],
      "name": "decreaseAllowance",
      "outputs": [
        {
          "name": "",
          "type": "bool"
        }
      ],
      "payable": false,
      "stateMutability": "nonpayable",
      "type": "function"
    },
    {
      "constant": false,
      "inputs": [
        {
          "name": "recipient",
          "type": "address"
        },
        {
          "name": "amount",
          "type": "uint256"
        }
      ],
      "name": "transfer",
      "outputs": [
        {
          "name": "",
          "type": "bool"
        }
      ],
      "payable": false,
      "stateMutability": "nonpayable",
      "type": "function"
    },
    {
      "constant": true,
      "inputs": [
        {
          "name": "owner",
          "type": "address"
        },
        {
          "name": "spender",
          "type": "address"
        }
      ],
      "name": "allowance",
      "outputs": [
        {
          "name": "",
          "type": "uint256"
        }
      ],
      "payable": false,
      "stateMutability": "view",
      "type": "function"
    },
    {
      "inputs": [
        {
          "name": "_addressesProvider",
          "type": "address"
        },
        {
          "name": "_underlyingAsset",
          "type": "address"
        },
        {
          "name": "_underlyingAssetDecimals",
          "type": "uint256"
        },
        {
          "name": "_name",
          "type": "string"
        },
        {
          "name": "_symbol",
          "type": "string"
        },
        {
          "name": "_decimals",
          "type": "uint8"
        },
        {
          "name": "_initialExchangeRate",
          "type": "uint256"
        }
      ],
      "payable": false,
      "stateMutability": "nonpayable",
      "type": "constructor"
    },
    {
      "anonymous": false,
      "inputs": [
        {
          "indexed": true,
          "name": "_from",
          "type": "address"
        },
        {
          "indexed": false,
          "name": "_value",
          "type": "uint256"
        },
        {
          "indexed": false,
          "name": "_underlyingValue",
          "type": "uint256"
        },
        {
          "indexed": false,
          "name": "_fromBalance",
          "type": "uint256"
        }
      ],
      "name": "Redeem",
      "type": "event"
    },
    {
      "anonymous": false,
      "inputs": [
        {
          "indexed": true,
          "name": "_from",
          "type": "address"
        },
        {
          "indexed": false,
          "name": "_value",
          "type": "uint256"
        },
        {
          "indexed": false,
          "name": "_underlyingValue",
          "type": "uint256"
        },
        {
          "indexed": false,
          "name": "_fromBalance",
          "type": "uint256"
        }
      ],
      "name": "MintOnDeposit",
      "type": "event"
    },
    {
      "anonymous": false,
      "inputs": [
        {
          "indexed": true,
          "name": "_from",
          "type": "address"
        },
        {
          "indexed": false,
          "name": "_value",
          "type": "uint256"
        },
        {
          "indexed": false,
          "name": "_underlyingValue",
          "type": "uint256"
        },
        {
          "indexed": false,
          "name": "_fromBalance",
          "type": "uint256"
        }
      ],
      "name": "BurnOnLiquidation",
      "type": "event"
    },
    {
      "anonymous": false,
      "inputs": [
        {
          "indexed": true,
          "name": "_from",
          "type": "address"
        },
        {
          "indexed": true,
          "name": "_to",
          "type": "address"
        },
        {
          "indexed": false,
          "name": "_value",
          "type": "uint256"
        },
        {
          "indexed": false,
          "name": "_underlyingValue",
          "type": "uint256"
        },
        {
          "indexed": false,
          "name": "_fromBalance",
          "type": "uint256"
        },
        {
          "indexed": false,
          "name": "_toBalance",
          "type": "uint256"
        }
      ],
      "name": "TransferOnLiquidation",
      "type": "event"
    },
    {
      "anonymous": false,
      "inputs": [
        {
          "indexed": true,
          "name": "_from",
          "type": "address"
        },
        {
          "indexed": true,
          "name": "_to",
          "type": "address"
        },
        {
          "indexed": false,
          "name": "_value",
          "type": "uint256"
        },
        {
          "indexed": false,
          "name": "_underlyingValue",
          "type": "uint256"
        },
        {
          "indexed": false,
          "name": "_fromBalance",
          "type": "uint256"
        },
        {
          "indexed": false,
          "name": "_toBalance",
          "type": "uint256"
        }
      ],
      "name": "BalanceTransfer",
      "type": "event"
    },
    {
      "anonymous": false,
      "inputs": [
        {
          "indexed": true,
          "name": "from",
          "type": "address"
        },
        {
          "indexed": true,
          "name": "to",
          "type": "address"
        },
        {
          "indexed": false,
          "name": "value",
          "type": "uint256"
        }
      ],
      "name": "Transfer",
      "type": "event"
    },
    {
      "anonymous": false,
      "inputs": [
        {
          "indexed": true,
          "name": "owner",
          "type": "address"
        },
        {
          "indexed": true,
          "name": "spender",
          "type": "address"
        },
        {
          "indexed": false,
          "name": "value",
          "type": "uint256"
        }
      ],
      "name": "Approval",
      "type": "event"
    },
    {
      "constant": false,
      "inputs": [
        {
          "name": "_amount",
          "type": "uint256"
        }
      ],
      "name": "redeem",
      "outputs": [],
      "payable": false,
      "stateMutability": "nonpayable",
      "type": "function"
    },
    {
      "constant": false,
      "inputs": [
        {
          "name": "_account",
          "type": "address"
        },
        {
          "name": "_underlyingAmount",
          "type": "uint256"
        }
      ],
      "name": "mintOnDeposit",
      "outputs": [],
      "payable": false,
      "stateMutability": "nonpayable",
      "type": "function"
    },
    {
      "constant": false,
      "inputs": [
        {
          "name": "account",
          "type": "address"
        },
        {
          "name": "value",
          "type": "uint256"
        }
      ],
      "name": "burnOnLiquidation",
      "outputs": [],
      "payable": false,
      "stateMutability": "nonpayable",
      "type": "function"
    },
    {
      "constant": false,
      "inputs": [
        {
          "name": "from",
          "type": "address"
        },
        {
          "name": "to",
          "type": "address"
        },
        {
          "name": "value",
          "type": "uint256"
        }
      ],
      "name": "transferOnLiquidation",
      "outputs": [],
      "payable": false,
      "stateMutability": "nonpayable",
      "type": "function"
    },
    {
      "constant": true,
      "inputs": [],
      "name": "getExchangeRate",
      "outputs": [
        {
          "name": "",
          "type": "uint256"
        }
      ],
      "payable": false,
      "stateMutability": "view",
      "type": "function"
    },
    {
      "constant": true,
      "inputs": [
        {
          "name": "_user",
          "type": "address"
        }
      ],
      "name": "balanceOfUnderlying",
      "outputs": [
        {
          "name": "",
          "type": "uint256"
        }
      ],
      "payable": false,
      "stateMutability": "view",
      "type": "function"
    },
    {
      "constant": true,
      "inputs": [
        {
          "name": "_amount",
          "type": "uint256"
        }
      ],
      "name": "aTokenAmountToUnderlyingAmount",
      "outputs": [
        {
          "name": "",
          "type": "uint256"
        }
      ],
      "payable": false,
      "stateMutability": "view",
      "type": "function"
    },
    {
      "constant": true,
      "inputs": [
        {
          "name": "_from",
          "type": "address"
        },
        {
          "name": "_amount",
          "type": "uint256"
        }
      ],
      "name": "isTransferAllowed",
      "outputs": [
        {
          "name": "",
          "type": "bool"
        }
      ],
      "payable": false,
      "stateMutability": "view",
      "type": "function"
    },
    {
      "constant": true,
      "inputs": [
        {
          "name": "_amount",
          "type": "uint256"
        }
      ],
      "name": "underlyingAmountToATokenAmount",
      "outputs": [
        {
          "name": "",
          "type": "uint256"
        }
      ],
      "payable": false,
      "stateMutability": "view",
      "type": "function"
    }
  ],
  "bytecode": "0x60806040523480156200001157600080fd5b5060405162002bc338038062002bc3833981018060405260e08110156200003757600080fd5b8101908080519060200190929190805190602001909291908051906020019092919080516401000000008111156200006e57600080fd5b828101905060208101848111156200008557600080fd5b8151856001820283011164010000000082111715620000a357600080fd5b50509291906020018051640100000000811115620000c057600080fd5b82810190506020810184811115620000d757600080fd5b8151856001820283011164010000000082111715620000f557600080fd5b5050929190602001805190602001909291908051906020019092919050505083838382600390805190602001906200012f929190620002ea565b50816004908051906020019062000148929190620002ea565b5080600560006101000a81548160ff021916908360ff16021790555050505086600860006101000a81548173ffffffffffffffffffffffffffffffffffffffff021916908373ffffffffffffffffffffffffffffffffffffffff160217905550600860009054906101000a900473ffffffffffffffffffffffffffffffffffffffff1673ffffffffffffffffffffffffffffffffffffffff1663ed6ff7606040518163ffffffff1660e01b815260040160206040518083038186803b1580156200021157600080fd5b505afa15801562000226573d6000803e3d6000fd5b505050506040513d60208110156200023d57600080fd5b8101908080519060200190929190505050600960006101000a81548173ffffffffffffffffffffffffffffffffffffffff021916908373ffffffffffffffffffffffffffffffffffffffff1602179055508060078190555085600560016101000a81548173ffffffffffffffffffffffffffffffffffffffff021916908373ffffffffffffffffffffffffffffffffffffffff160217905550846006819055505050505050505062000399565b828054600181600116156101000203166002900490600052602060002090601f016020900481019282601f106200032d57805160ff19168380011785556200035e565b828001600101855582156200035e579182015b828111156200035d57825182559160200191906001019062000340565b5b5090506200036d919062000371565b5090565b6200039691905b808211156200039257600081600090555060010162000378565b5090565b90565b61281a80620003a96000396000f3fe608060405234801561001057600080fd5b506004361061014d5760003560e01c806370a08231116100c3578063a9059cbb1161007c578063a9059cbb146106cc578063b32d461014610732578063db006a7514610774578063dd62ed3e146107a2578063e6aa216c1461081a578063f866c319146108385761014d565b806370a08231146104d557806389d1a0fc1461052d57806394362e8b1461057757806395d89b41146105c55780639a32c20714610648578063a457c2d7146106665761014d565b8063313ce56711610115578063313ce5671461032157806339509351146103455780633af9e669146103ab5780633edb7cb8146104035780635eae177c146104515780636d019f35146104b75761014d565b806306fdde0314610152578063095ea7b3146101d55780630ece1a5f1461023b57806318160ddd1461027d57806323b872dd1461029b575b600080fd5b61015a6108a6565b6040518080602001828103825283818151815260200191508051906020019080838360005b8381101561019a57808201518184015260208101905061017f565b50505050905090810190601f1680156101c75780820380516001836020036101000a031916815260200191505b509250505060405180910390f35b610221600480360360408110156101eb57600080fd5b81019080803573ffffffffffffffffffffffffffffffffffffffff16906020019092919080359060200190929190505050610948565b604051808215151515815260200191505060405180910390f35b6102676004803603602081101561025157600080fd5b8101908080359060200190929190505050610966565b6040518082815260200191505060405180910390f35b6102856109e7565b6040518082815260200191505060405180910390f35b610307600480360360608110156102b157600080fd5b81019080803573ffffffffffffffffffffffffffffffffffffffff169060200190929190803573ffffffffffffffffffffffffffffffffffffffff169060200190929190803590602001909291905050506109f1565b604051808215151515815260200191505060405180910390f35b610329610aca565b604051808260ff1660ff16815260200191505060405180910390f35b6103916004803603604081101561035b57600080fd5b81019080803573ffffffffffffffffffffffffffffffffffffffff16906020019092919080359060200190929190505050610ae1565b604051808215151515815260200191505060405180910390f35b6103ed600480360360208110156103c157600080fd5b81019080803573ffffffffffffffffffffffffffffffffffffffff169060200190929190505050610b94565b6040518082815260200191505060405180910390f35b61044f6004803603604081101561041957600080fd5b81019080803573ffffffffffffffffffffffffffffffffffffffff16906020019092919080359060200190929190505050610bae565b005b61049d6004803603604081101561046757600080fd5b81019080803573ffffffffffffffffffffffffffffffffffffffff16906020019092919080359060200190929190505050610d50565b604051808215151515815260200191505060405180910390f35b6104bf610f25565b6040518082815260200191505060405180910390f35b610517600480360360208110156104eb57600080fd5b81019080803573ffffffffffffffffffffffffffffffffffffffff169060200190929190505050610f2b565b6040518082815260200191505060405180910390f35b610535610f73565b604051808273ffffffffffffffffffffffffffffffffffffffff1673ffffffffffffffffffffffffffffffffffffffff16815260200191505060405180910390f35b6105c36004803603604081101561058d57600080fd5b81019080803573ffffffffffffffffffffffffffffffffffffffff16906020019092919080359060200190929190505050610f99565b005b6105cd611141565b6040518080602001828103825283818151815260200191508051906020019080838360005b8381101561060d5780820151818401526020810190506105f2565b50505050905090810190601f16801561063a5780820380516001836020036101000a031916815260200191505b509250505060405180910390f35b6106506111e3565b6040518082815260200191505060405180910390f35b6106b26004803603604081101561067c57600080fd5b81019080803573ffffffffffffffffffffffffffffffffffffffff169060200190929190803590602001909291905050506111e9565b604051808215151515815260200191505060405180910390f35b610718600480360360408110156106e257600080fd5b81019080803573ffffffffffffffffffffffffffffffffffffffff169060200190929190803590602001909291905050506112b6565b604051808215151515815260200191505060405180910390f35b61075e6004803603602081101561074857600080fd5b81019080803590602001909291905050506112d4565b6040518082815260200191505060405180910390f35b6107a06004803603602081101561078a57600080fd5b8101908080359060200190929190505050611328565b005b610804600480360360408110156107b857600080fd5b81019080803573ffffffffffffffffffffffffffffffffffffffff169060200190929190803573ffffffffffffffffffffffffffffffffffffffff1690602001909291905050506115c6565b6040518082815260200191505060405180910390f35b61082261164d565b6040518082815260200191505060405180910390f35b6108a46004803603606081101561084e57600080fd5b81019080803573ffffffffffffffffffffffffffffffffffffffff169060200190929190803573ffffffffffffffffffffffffffffffffffffffff16906020019092919080359060200190929190505050611769565b005b606060038054600181600116156101000203166002900480601f01602080910402602001604051908101604052809291908181526020018280546001816001161561010002031660029004801561093e5780601f106109135761010080835404028352916020019161093e565b820191906000526020600020905b81548152906001019060200180831161092157829003601f168201915b5050505050905090565b600061095c610955611934565b848461193c565b6001905092915050565b60008082141561097957600090506109e2565b6000610983610aca565b60ff16600a0a90506109de6109d9826109cb600654600a0a6109bd6109a661164d565b6109af8a611b33565b611b5390919063ffffffff16565b611baf90919063ffffffff16565b611c3590919063ffffffff16565b611c7f565b9150505b919050565b6000600254905090565b60006109fe848484611c9f565b610abf84610a0a611934565b610aba8560405180606001604052806028815260200161273860289139600160008b73ffffffffffffffffffffffffffffffffffffffff1673ffffffffffffffffffffffffffffffffffffffff1681526020019081526020016000206000610a70611934565b73ffffffffffffffffffffffffffffffffffffffff1673ffffffffffffffffffffffffffffffffffffffff16815260200190815260200160002054611dc49092919063ffffffff16565b61193c565b600190509392505050565b6000600560009054906101000a900460ff16905090565b6000610b8a610aee611934565b84610b858560016000610aff611934565b73ffffffffffffffffffffffffffffffffffffffff1673ffffffffffffffffffffffffffffffffffffffff16815260200190815260200160002060008973ffffffffffffffffffffffffffffffffffffffff1673ffffffffffffffffffffffffffffffffffffffff16815260200190815260200160002054611e8490919063ffffffff16565b61193c565b6001905092915050565b6000610ba7610ba283610f2b565b610966565b9050919050565b600860009054906101000a900473ffffffffffffffffffffffffffffffffffffffff1673ffffffffffffffffffffffffffffffffffffffff16630261bf8b6040518163ffffffff1660e01b815260040160206040518083038186803b158015610c1657600080fd5b505afa158015610c2a573d6000803e3d6000fd5b505050506040513d6020811015610c4057600080fd5b810190808051906020019092919050505073ffffffffffffffffffffffffffffffffffffffff163373ffffffffffffffffffffffffffffffffffffffff1614610cd4576040517f08c379a00000000000000000000000000000000000000000000000000000000081526004018080602001828103825260368152602001806127026036913960400191505060405180910390fd5b610cde8282611f0c565b8173ffffffffffffffffffffffffffffffffffffffff167f90e5d3d68ec162d9c7de393037a3ede04dd44f68e051bf2ace4a73c299dbc4db82610d2084610966565b610d2986610f2b565b60405180848152602001838152602001828152602001935050505060405180910390a25050565b600080600860009054906101000a900473ffffffffffffffffffffffffffffffffffffffff1673ffffffffffffffffffffffffffffffffffffffff16632f58b80d6040518163ffffffff1660e01b815260040160206040518083038186803b158015610dbb57600080fd5b505afa158015610dcf573d6000803e3d6000fd5b505050506040513d6020811015610de557600080fd5b810190808051906020019092919050505090506000610e0384610966565b90508173ffffffffffffffffffffffffffffffffffffffff166376e9d615600560019054906101000a900473ffffffffffffffffffffffffffffffffffffffff1687846040518463ffffffff1660e01b8152600401808473ffffffffffffffffffffffffffffffffffffffff1673ffffffffffffffffffffffffffffffffffffffff1681526020018373ffffffffffffffffffffffffffffffffffffffff1673ffffffffffffffffffffffffffffffffffffffff168152602001828152602001935050505060206040518083038186803b158015610ee057600080fd5b505afa158015610ef4573d6000803e3d6000fd5b505050506040513d6020811015610f0a57600080fd5b81019080805190602001909291905050509250505092915050565b60075481565b60008060008373ffffffffffffffffffffffffffffffffffffffff1673ffffffffffffffffffffffffffffffffffffffff168152602001908152602001600020549050919050565b600560019054906101000a900473ffffffffffffffffffffffffffffffffffffffff1681565b600860009054906101000a900473ffffffffffffffffffffffffffffffffffffffff1673ffffffffffffffffffffffffffffffffffffffff16630261bf8b6040518163ffffffff1660e01b815260040160206040518083038186803b15801561100157600080fd5b505afa158015611015573d6000803e3d6000fd5b505050506040513d602081101561102b57600080fd5b810190808051906020019092919050505073ffffffffffffffffffffffffffffffffffffffff163373ffffffffffffffffffffffffffffffffffffffff16146110bf576040517f08c379a00000000000000000000000000000000000000000000000000000000081526004018080602001828103825260368152602001806127026036913960400191505060405180910390fd5b60006110ca826112d4565b90506110d683826120c4565b8273ffffffffffffffffffffffffffffffffffffffff167fbe7799898ca2d813ff902b487c1b434ab45b47edd8f38b77ad5e99aae8341b7a828461111987610f2b565b60405180848152602001838152602001828152602001935050505060405180910390a2505050565b606060048054600181600116156101000203166002900480601f0160208091040260200160405190810160405280929190818152602001828054600181600116156101000203166002900480156111d95780601f106111ae576101008083540402835291602001916111d9565b820191906000526020600020905b8154815290600101906020018083116111bc57829003601f168201915b5050505050905090565b60065481565b60006112ac6111f6611934565b846112a7856040518060600160405280602581526020016127ca6025913960016000611220611934565b73ffffffffffffffffffffffffffffffffffffffff1673ffffffffffffffffffffffffffffffffffffffff16815260200190815260200160002060008a73ffffffffffffffffffffffffffffffffffffffff1673ffffffffffffffffffffffffffffffffffffffff16815260200190815260200160002054611dc49092919063ffffffff16565b61193c565b6001905092915050565b60006112ca6112c3611934565b8484611c9f565b6001905092915050565b6000808214156112e75760009050611323565b61132061131b600654600a0a61130d6112fe61164d565b86611baf90919063ffffffff16565b611c3590919063ffffffff16565b611c7f565b90505b919050565b33816113348282610d50565b6113a6576040517f08c379a000000000000000000000000000000000000000000000000000000000815260040180806020018281038252601b8152602001807f5472616e736665722063616e6e6f7420626520616c6c6f7765642e000000000081525060200191505060405180910390fd5b60006113b184610966565b90506113bd338561227f565b6000600860009054906101000a900473ffffffffffffffffffffffffffffffffffffffff1673ffffffffffffffffffffffffffffffffffffffff16630261bf8b6040518163ffffffff1660e01b815260040160206040518083038186803b15801561142757600080fd5b505afa15801561143b573d6000803e3d6000fd5b505050506040513d602081101561145157600080fd5b810190808051906020019092919050505090508073ffffffffffffffffffffffffffffffffffffffff1663935642cf600560019054906101000a900473ffffffffffffffffffffffffffffffffffffffff1633856040518463ffffffff1660e01b8152600401808473ffffffffffffffffffffffffffffffffffffffff1673ffffffffffffffffffffffffffffffffffffffff1681526020018373ffffffffffffffffffffffffffffffffffffffff1673ffffffffffffffffffffffffffffffffffffffff1681526020018281526020019350505050600060405180830381600087803b15801561154157600080fd5b505af1158015611555573d6000803e3d6000fd5b505050503373ffffffffffffffffffffffffffffffffffffffff167fbd5034ffbd47e4e72a94baa2cdb74c6fad73cb3bcdc13036b72ec8306f5a7646868461159c33610f2b565b60405180848152602001838152602001828152602001935050505060405180910390a25050505050565b6000600160008473ffffffffffffffffffffffffffffffffffffffff1673ffffffffffffffffffffffffffffffffffffffff16815260200190815260200160002060008373ffffffffffffffffffffffffffffffffffffffff1673ffffffffffffffffffffffffffffffffffffffff16815260200190815260200160002054905092915050565b600080600960009054906101000a900473ffffffffffffffffffffffffffffffffffffffff1673ffffffffffffffffffffffffffffffffffffffff1663d15e0053600560019054906101000a900473ffffffffffffffffffffffffffffffffffffffff166040518263ffffffff1660e01b8152600401808273ffffffffffffffffffffffffffffffffffffffff1673ffffffffffffffffffffffffffffffffffffffff16815260200191505060206040518083038186803b15801561171157600080fd5b505afa158015611725573d6000803e3d6000fd5b505050506040513d602081101561173b57600080fd5b8101908080519060200190929190505050905061176381600754611b5390919063ffffffff16565b91505090565b600860009054906101000a900473ffffffffffffffffffffffffffffffffffffffff1673ffffffffffffffffffffffffffffffffffffffff16630261bf8b6040518163ffffffff1660e01b815260040160206040518083038186803b1580156117d157600080fd5b505afa1580156117e5573d6000803e3d6000fd5b505050506040513d60208110156117fb57600080fd5b810190808051906020019092919050505073ffffffffffffffffffffffffffffffffffffffff163373ffffffffffffffffffffffffffffffffffffffff161461188f576040517f08c379a00000000000000000000000000000000000000000000000000000000081526004018080602001828103825260368152602001806127026036913960400191505060405180910390fd5b61189a83838361228d565b8173ffffffffffffffffffffffffffffffffffffffff168373ffffffffffffffffffffffffffffffffffffffff167f2c335084544f8f7476a1c2e460962cd7e50d03d52a940d3d09e6f25894c75df3836118f385610966565b6118fc88610f2b565b61190588610f2b565b6040518085815260200184815260200183815260200182815260200194505050505060405180910390a3505050565b600033905090565b600073ffffffffffffffffffffffffffffffffffffffff168373ffffffffffffffffffffffffffffffffffffffff1614156119c2576040517f08c379a00000000000000000000000000000000000000000000000000000000081526004018080602001828103825260248152602001806127a66024913960400191505060405180910390fd5b600073ffffffffffffffffffffffffffffffffffffffff168273ffffffffffffffffffffffffffffffffffffffff161415611a48576040517f08c379a00000000000000000000000000000000000000000000000000000000081526004018080602001828103825260228152602001806126996022913960400191505060405180910390fd5b80600160008573ffffffffffffffffffffffffffffffffffffffff1673ffffffffffffffffffffffffffffffffffffffff16815260200190815260200160002060008473ffffffffffffffffffffffffffffffffffffffff1673ffffffffffffffffffffffffffffffffffffffff168152602001908152602001600020819055508173ffffffffffffffffffffffffffffffffffffffff168373ffffffffffffffffffffffffffffffffffffffff167f8c5be1e5ebec7d5bd14f71427d1e84f3dd0314c0f7b2291e5b200ac8c7c3b925836040518082815260200191505060405180910390a3505050565b6000611b4c633b9aca0083611baf90919063ffffffff16565b9050919050565b60008060028381611b6057fe5b049050611ba683611b98611b896b033b2e3c9fd0803ce800000088611baf90919063ffffffff16565b84611e8490919063ffffffff16565b611c3590919063ffffffff16565b91505092915050565b600080831415611bc25760009050611c2f565b6000828402905082848281611bd357fe5b0414611c2a576040517f08c379a00000000000000000000000000000000000000000000000000000000081526004018080602001828103825260218152602001806126e16021913960400191505060405180910390fd5b809150505b92915050565b6000611c7783836040518060400160405280601a81526020017f536166654d6174683a206469766973696f6e206279207a65726f000000000000815250612543565b905092915050565b6000611c98633b9aca0083611c3590919063ffffffff16565b9050919050565b8281611cab8282610d50565b611d1d576040517f08c379a000000000000000000000000000000000000000000000000000000000815260040180806020018281038252601b8152602001807f5472616e736665722063616e6e6f7420626520616c6c6f7765642e000000000081525060200191505060405180910390fd5b611d2885858561228d565b8373ffffffffffffffffffffffffffffffffffffffff168573ffffffffffffffffffffffffffffffffffffffff167fbf553f39591e51c9524a30865d4a5590424976ba75d2046a6c7ce15d6321b62485611d8187610966565b611d8a8a610f2b565b611d938a610f2b565b6040518085815260200184815260200183815260200182815260200194505050505060405180910390a35050505050565b6000838311158290611e71576040517f08c379a00000000000000000000000000000000000000000000000000000000081526004018080602001828103825283818151815260200191508051906020019080838360005b83811015611e36578082015181840152602081019050611e1b565b50505050905090810190601f168015611e635780820380516001836020036101000a031916815260200191505b509250505060405180910390fd5b5060008385039050809150509392505050565b600080828401905083811015611f02576040517f08c379a000000000000000000000000000000000000000000000000000000000815260040180806020018281038252601b8152602001807f536166654d6174683a206164646974696f6e206f766572666c6f77000000000081525060200191505060405180910390fd5b8091505092915050565b600073ffffffffffffffffffffffffffffffffffffffff168273ffffffffffffffffffffffffffffffffffffffff161415611f92576040517f08c379a00000000000000000000000000000000000000000000000000000000081526004018080602001828103825260218152602001806127606021913960400191505060405180910390fd5b611ffd81604051806060016040528060228152602001612677602291396000808673ffffffffffffffffffffffffffffffffffffffff1673ffffffffffffffffffffffffffffffffffffffff16815260200190815260200160002054611dc49092919063ffffffff16565b6000808473ffffffffffffffffffffffffffffffffffffffff1673ffffffffffffffffffffffffffffffffffffffff168152602001908152602001600020819055506120548160025461260990919063ffffffff16565b600281905550600073ffffffffffffffffffffffffffffffffffffffff168273ffffffffffffffffffffffffffffffffffffffff167fddf252ad1be2c89b69c2b068fc378daa952ba7f163c4a11628f55a4df523b3ef836040518082815260200191505060405180910390a35050565b600073ffffffffffffffffffffffffffffffffffffffff168273ffffffffffffffffffffffffffffffffffffffff161415612167576040517f08c379a000000000000000000000000000000000000000000000000000000000815260040180806020018281038252601f8152602001807f45524332303a206d696e7420746f20746865207a65726f20616464726573730081525060200191505060405180910390fd5b61217c81600254611e8490919063ffffffff16565b6002819055506121d3816000808573ffffffffffffffffffffffffffffffffffffffff1673ffffffffffffffffffffffffffffffffffffffff16815260200190815260200160002054611e8490919063ffffffff16565b6000808473ffffffffffffffffffffffffffffffffffffffff1673ffffffffffffffffffffffffffffffffffffffff168152602001908152602001600020819055508173ffffffffffffffffffffffffffffffffffffffff16600073ffffffffffffffffffffffffffffffffffffffff167fddf252ad1be2c89b69c2b068fc378daa952ba7f163c4a11628f55a4df523b3ef836040518082815260200191505060405180910390a35050565b6122898282611f0c565b5050565b600073ffffffffffffffffffffffffffffffffffffffff168373ffffffffffffffffffffffffffffffffffffffff161415612313576040517f08c379a00000000000000000000000000000000000000000000000000000000081526004018080602001828103825260258152602001806127816025913960400191505060405180910390fd5b600073ffffffffffffffffffffffffffffffffffffffff168273ffffffffffffffffffffffffffffffffffffffff161415612399576040517f08c379a00000000000000000000000000000000000000000000000000000000081526004018080602001828103825260238152602001806126546023913960400191505060405180910390fd5b612404816040518060600160405280602681526020016126bb602691396000808773ffffffffffffffffffffffffffffffffffffffff1673ffffffffffffffffffffffffffffffffffffffff16815260200190815260200160002054611dc49092919063ffffffff16565b6000808573ffffffffffffffffffffffffffffffffffffffff1673ffffffffffffffffffffffffffffffffffffffff16815260200190815260200160002081905550612497816000808573ffffffffffffffffffffffffffffffffffffffff1673ffffffffffffffffffffffffffffffffffffffff16815260200190815260200160002054611e8490919063ffffffff16565b6000808473ffffffffffffffffffffffffffffffffffffffff1673ffffffffffffffffffffffffffffffffffffffff168152602001908152602001600020819055508173ffffffffffffffffffffffffffffffffffffffff168373ffffffffffffffffffffffffffffffffffffffff167fddf252ad1be2c89b69c2b068fc378daa952ba7f163c4a11628f55a4df523b3ef836040518082815260200191505060405180910390a3505050565b600080831182906125ef576040517f08c379a00000000000000000000000000000000000000000000000000000000081526004018080602001828103825283818151815260200191508051906020019080838360005b838110156125b4578082015181840152602081019050612599565b50505050905090810190601f1680156125e15780820380516001836020036101000a031916815260200191505b509250505060405180910390fd5b5060008385816125fb57fe5b049050809150509392505050565b600061264b83836040518060400160405280601e81526020017f536166654d6174683a207375627472616374696f6e206f766572666c6f770000815250611dc4565b90509291505056fe45524332303a207472616e7366657220746f20746865207a65726f206164647265737345524332303a206275726e20616d6f756e7420657863656564732062616c616e636545524332303a20617070726f766520746f20746865207a65726f206164647265737345524332303a207472616e7366657220616d6f756e7420657863656564732062616c616e6365536166654d6174683a206d756c7469706c69636174696f6e206f766572666c6f775468652063616c6c6572206f6620746869732066756e6374696f6e2063616e206f6e6c792062652061206c656e64696e6720706f6f6c45524332303a207472616e7366657220616d6f756e74206578636565647320616c6c6f77616e636545524332303a206275726e2066726f6d20746865207a65726f206164647265737345524332303a207472616e736665722066726f6d20746865207a65726f206164647265737345524332303a20617070726f76652066726f6d20746865207a65726f206164647265737345524332303a2064656372656173656420616c6c6f77616e63652062656c6f77207a65726fa165627a7a723058204a0bed3ae55c5673e00e38acc740d939f148a1b9c8a8f608b3b3212a756b93980029",
  "source": "pragma solidity ^0.5.0;\n\nimport \"openzeppelin-solidity/contracts/math/SafeMath.sol\";\nimport \"openzeppelin-solidity/contracts/token/ERC20/ERC20.sol\";\nimport \"openzeppelin-solidity/contracts/token/ERC20/ERC20Detailed.sol\";\n\nimport \"../configuration/LendingPoolAddressesProvider.sol\";\nimport \"../lendingpool/LendingPool.sol\";\nimport \"../lendingpool/LendingPoolDataProvider.sol\";\nimport \"../lendingpool/LendingPoolCore.sol\";\nimport \"../libraries/WadRayMath.sol\";\n\n/**\n * @title Aave ERC20 AToken\n *\n * @dev Implementation of the interest bearing token for the DLP protocol.\n */\ncontract AToken is ERC20, ERC20Detailed {\n    using WadRayMath for uint256;\n\n    event Redeem(\n        address indexed _from,\n        uint256 _value,\n        uint256 _underlyingValue,\n        uint256 _fromBalance\n    );\n\n    event MintOnDeposit(address indexed _from, uint256 _value, uint256 _underlyingValue, uint256 _fromBalance);\n    event BurnOnLiquidation(address indexed _from, uint256 _value, uint256 _underlyingValue, uint256 _fromBalance);\n    event TransferOnLiquidation(\n        address indexed _from,\n        address indexed _to,\n        uint256 _value,\n        uint256 _underlyingValue,\n        uint256 _fromBalance,\n        uint256 _toBalance\n    );\n\n\n    event BalanceTransfer(\n        address indexed _from,\n        address indexed _to,\n        uint256 _value,\n        uint256 _underlyingValue,\n        uint256 _fromBalance,\n        uint256 _toBalance\n    );\n\n    address public underlyingAssetAddress;\n    uint256 public underlyingAssetDecimals;\n    uint256 public initialExchangeRate;\n\n    LendingPoolAddressesProvider private addressesProvider;\n    LendingPoolCore private core;\n\n    modifier onlyLendingPool {\n        require(\n            msg.sender == addressesProvider.getLendingPool(),\n            \"The caller of this function can only be a lending pool\"\n        );\n        _;\n    }\n\n    modifier whenTranferAllowed(address _from, uint256 _amount) {\n        require(isTransferAllowed(_from, _amount), \"Transfer cannot be allowed.\");\n        _;\n    }\n\n    constructor(\n        LendingPoolAddressesProvider _addressesProvider,\n        address _underlyingAsset,\n        uint256 _underlyingAssetDecimals,\n        string memory _name,\n        string memory _symbol,\n        uint8 _decimals,\n        uint256 _initialExchangeRate\n    ) public ERC20Detailed(_name, _symbol, _decimals) {\n        addressesProvider = _addressesProvider;\n        core = LendingPoolCore(addressesProvider.getLendingPoolCore());\n        initialExchangeRate = _initialExchangeRate;\n        underlyingAssetAddress = _underlyingAsset;\n        underlyingAssetDecimals = _underlyingAssetDecimals;\n    }\n\n    /**\n     * @notice ERC20 implementation internal function backing transfer() and transferFrom()\n     * @dev validates the transfer before allowing it. NOTE: This is not standard ERC20 behavior\n     */\n    function _transfer(address from, address to, uint256 amount) internal whenTranferAllowed(from, amount) {\n        super._transfer(from, to, amount);\n        emit BalanceTransfer(from, to, amount, aTokenAmountToUnderlyingAmount(amount), balanceOf(from), balanceOf(to));\n    }\n\n    /**\n     * @notice redeems aToken for the undelying asset.\n     */\n    function redeem(uint256 _amount) external whenTranferAllowed(msg.sender, _amount) {\n        // calculate underlying to redeem\n        uint256 underlyingAmountToRedeem = aTokenAmountToUnderlyingAmount(_amount);\n\n        // burns tokens equivalent to the amount requested\n        burnOnRedeemInternal(msg.sender, _amount);\n\n        // executes redeem of the underlying asset\n        LendingPool pool = LendingPool(addressesProvider.getLendingPool());\n        pool.redeemUnderlying(underlyingAssetAddress, msg.sender, underlyingAmountToRedeem);\n        emit Redeem(msg.sender, _amount, underlyingAmountToRedeem, balanceOf(msg.sender));\n    }\n\n    /**\n     * @notice mints token in the event of users depositing the underlying asset into the lending pool\n     * @dev only lending pools can call this function\n     */\n    function mintOnDeposit(address _account, uint256 _underlyingAmount) external onlyLendingPool {\n        uint256 aTokensToMint = underlyingAmountToATokenAmount(_underlyingAmount);\n\n        _mint(_account, aTokensToMint);\n        emit MintOnDeposit(_account, aTokensToMint, _underlyingAmount, balanceOf(_account));\n    }\n\n    /**\n     * @dev burns token in the event of a borrow being liquidated, in case the liquidators reclaims the underlying asset\n     * @dev only lending pools can call this function\n     */\n    function burnOnLiquidation(address account, uint256 value) external onlyLendingPool {\n        _burn(account, value);\n        emit BurnOnLiquidation(account, value, aTokenAmountToUnderlyingAmount(value), balanceOf(account));\n    }\n\n    /**\n     * @dev transfers tokens in the event of a borrow being liquidated, in case the liquidators reclaims the aToken\n     * @dev only lending pools can call this function\n     */\n    function transferOnLiquidation(address from, address to, uint256 value) external onlyLendingPool {\n        super._transfer(from, to, value);\n        emit TransferOnLiquidation(from, to, value, aTokenAmountToUnderlyingAmount(value), balanceOf(from), balanceOf(to));\n    }\n\n    /**\n     * @dev returns the exchange rate of the aToken to the underlying asset\n     */\n    function getExchangeRate() public view returns (uint256) {\n        uint256 currentNormalizedCumulatedInterest = core.getReserveNormalizedIncome(underlyingAssetAddress);\n\n        return initialExchangeRate.rayDiv(currentNormalizedCumulatedInterest);\n    }\n\n    function balanceOfUnderlying(address _user) public view returns (uint256) {\n        return aTokenAmountToUnderlyingAmount(balanceOf(_user));\n    }\n\n    function aTokenAmountToUnderlyingAmount(uint256 _amount) public view returns (uint256) {\n        if (_amount == 0) {\n            // Optmization\n            return 0;\n        }\n\n        uint256 overlyingDecimals = 10 ** uint256(decimals());\n\n        return _amount\n            .wadToRay()\n            .rayDiv(getExchangeRate())\n            .mul(10 ** underlyingAssetDecimals)\n            .div(overlyingDecimals)\n            .rayToWad();\n    }\n\n    /**\n     * @notice Used to validate transfers before actually executing them.\n     **/\n    function isTransferAllowed(address _from, uint256 _amount) public view returns (bool) {\n        LendingPoolDataProvider dataProvider = LendingPoolDataProvider(addressesProvider.getLendingPoolDataProvider());\n        uint256 amountUnderlying = aTokenAmountToUnderlyingAmount(_amount);\n        return dataProvider.balanceDecreaseAllowed(underlyingAssetAddress, _from, amountUnderlying);\n    }\n\n    function underlyingAmountToATokenAmount(uint256 _amount) public view returns (uint256) {\n        if (_amount == 0) {\n            // Optmization\n            return 0;\n        }\n\n        return _amount.mul(getExchangeRate()).div(10 ** underlyingAssetDecimals).rayToWad();\n    }\n\n    /**\n     * @dev burns token in the event of users redeeming the underlying asset from the lending pool\n     * @dev only lending pools can call this function\n     */\n    function burnOnRedeemInternal(address account, uint256 value) internal {\n        _burn(account, value);\n    }\n}\n",
  "sourcePath": "/Users/jg/Documents/aaveBot/contracts/tokenization/AToken.sol",
  "compiler": {
    "name": "solc",
    "version": "0.5.8+commit.23d335f2.Emscripten.clang"
  },
  "schemaVersion": "3.0.16",
  "updatedAt": "2019-11-07T20:00:22.414Z",
  "devdoc": {
    "details": "Implementation of the interest bearing token for the DLP protocol.",
    "methods": {
      "allowance(address,address)": {
        "details": "See {IERC20-allowance}."
      },
      "approve(address,uint256)": {
        "details": "See {IERC20-approve}.     * Requirements:     * - `spender` cannot be the zero address."
      },
      "balanceOf(address)": {
        "details": "See {IERC20-balanceOf}."
      },
      "burnOnLiquidation(address,uint256)": {
        "details": "burns token in the event of a borrow being liquidated, in case the liquidators reclaims the underlying assetonly lending pools can call this function"
      },
      "decimals()": {
        "details": "Returns the number of decimals used to get its user representation. For example, if `decimals` equals `2`, a balance of `505` tokens should be displayed to a user as `5,05` (`505 / 10 ** 2`).     * Tokens usually opt for a value of 18, imitating the relationship between Ether and Wei.     * NOTE: This information is only used for _display_ purposes: it in no way affects any of the arithmetic of the contract, including {IERC20-balanceOf} and {IERC20-transfer}."
      },
      "decreaseAllowance(address,uint256)": {
        "details": "Atomically decreases the allowance granted to `spender` by the caller.     * This is an alternative to {approve} that can be used as a mitigation for problems described in {IERC20-approve}.     * Emits an {Approval} event indicating the updated allowance.     * Requirements:     * - `spender` cannot be the zero address. - `spender` must have allowance for the caller of at least `subtractedValue`."
      },
      "getExchangeRate()": {
        "details": "returns the exchange rate of the aToken to the underlying asset"
      },
      "increaseAllowance(address,uint256)": {
        "details": "Atomically increases the allowance granted to `spender` by the caller.     * This is an alternative to {approve} that can be used as a mitigation for problems described in {IERC20-approve}.     * Emits an {Approval} event indicating the updated allowance.     * Requirements:     * - `spender` cannot be the zero address."
      },
      "mintOnDeposit(address,uint256)": {
        "details": "only lending pools can call this function"
      },
      "name()": {
        "details": "Returns the name of the token."
      },
      "symbol()": {
        "details": "Returns the symbol of the token, usually a shorter version of the name."
      },
      "totalSupply()": {
        "details": "See {IERC20-totalSupply}."
      },
      "transfer(address,uint256)": {
        "details": "See {IERC20-transfer}.     * Requirements:     * - `recipient` cannot be the zero address. - the caller must have a balance of at least `amount`."
      },
      "transferFrom(address,address,uint256)": {
        "details": "See {IERC20-transferFrom}.     * Emits an {Approval} event indicating the updated allowance. This is not required by the EIP. See the note at the beginning of {ERC20};     * Requirements: - `sender` and `recipient` cannot be the zero address. - `sender` must have a balance of at least `amount`. - the caller must have allowance for `sender`'s tokens of at least `amount`."
      },
      "transferOnLiquidation(address,address,uint256)": {
        "details": "transfers tokens in the event of a borrow being liquidated, in case the liquidators reclaims the aTokenonly lending pools can call this function"
      }
    },
    "title": "Aave ERC20 AToken"
  },
  "userdoc": {
    "methods": {
      "isTransferAllowed(address,uint256)": {
        "notice": "Used to validate transfers before actually executing them.*"
      },
      "mintOnDeposit(address,uint256)": {
        "notice": "mints token in the event of users depositing the underlying asset into the lending pool"
      },
      "redeem(uint256)": {
        "notice": "redeems aToken for the undelying asset."
      }
    }
  }
}