{
  "contractName": "DefaultReserveInterestRateStrategy",
  "abi": [
    {
      "inputs": [
        {
          "name": "_reserve",
          "type": "address"
        },
        {
          "name": "_provider",
          "type": "address"
        },
        {
          "name": "_baseVariableBorrowRate",
          "type": "uint256"
        },
        {
          "name": "_variableBorrowRateScaling",
          "type": "uint256"
        },
        {
          "name": "_fixedBorrowRateScaling",
          "type": "uint256"
        },
        {
          "name": "_borrowToLiquidityRateDelta",
          "type": "uint256"
        }
      ],
      "payable": false,
      "stateMutability": "nonpayable",
      "type": "constructor"
    },
    {
      "constant": true,
      "inputs": [],
      "name": "getBaseVariableBorrowRate",
      "outputs": [
        {
          "name": "",
          "type": "uint256"
        }
      ],
      "payable": false,
      "stateMutability": "view",
      "type": "function"
    },
    {
      "constant": true,
      "inputs": [],
      "name": "getVariableBorrowRateScaling",
      "outputs": [
        {
          "name": "",
          "type": "uint256"
        }
      ],
      "payable": false,
      "stateMutability": "view",
      "type": "function"
    },
    {
      "constant": true,
      "inputs": [],
      "name": "getFixedBorrowRateScaling",
      "outputs": [
        {
          "name": "",
          "type": "uint256"
        }
      ],
      "payable": false,
      "stateMutability": "view",
      "type": "function"
    },
    {
      "constant": true,
      "inputs": [],
      "name": "getBorrowToLiquidityRateDelta",
      "outputs": [
        {
          "name": "",
          "type": "uint256"
        }
      ],
      "payable": false,
      "stateMutability": "view",
      "type": "function"
    },
    {
      "constant": true,
      "inputs": [
        {
          "name": "_reserve",
          "type": "address"
        },
        {
          "name": "_utilizationRate",
          "type": "uint256"
        },
        {
          "name": "_totalBorrowsFixed",
          "type": "uint256"
        },
        {
          "name": "_totalBorrowsVariable",
          "type": "uint256"
        },
        {
          "name": "_averageFixedBorrowRate",
          "type": "uint256"
        }
      ],
      "name": "calculateInterestRates",
      "outputs": [
        {
          "name": "currentLiquidityRate",
          "type": "uint256"
        },
        {
          "name": "currentFixedBorrowRate",
          "type": "uint256"
        },
        {
          "name": "currentVariableBorrowRate",
          "type": "uint256"
        }
      ],
      "payable": false,
      "stateMutability": "view",
      "type": "function"
    }
  ],
  "bytecode": "0x608060405234801561001057600080fd5b5060405160c080610a7f833981018060405260c081101561003057600080fd5b810190808051906020019092919080519060200190929190805190602001909291908051906020019092919080519060200190929190805190602001909291905050508473ffffffffffffffffffffffffffffffffffffffff1663ed6ff7606040518163ffffffff1660e01b815260040160206040518083038186803b1580156100b957600080fd5b505afa1580156100cd573d6000803e3d6000fd5b505050506040513d60208110156100e357600080fd5b81019080805190602001909291905050506000806101000a81548173ffffffffffffffffffffffffffffffffffffffff021916908373ffffffffffffffffffffffffffffffffffffffff1602179055508473ffffffffffffffffffffffffffffffffffffffff16633618abba6040518163ffffffff1660e01b815260040160206040518083038186803b15801561017957600080fd5b505afa15801561018d573d6000803e3d6000fd5b505050506040513d60208110156101a357600080fd5b8101908080519060200190929190505050600160006101000a81548173ffffffffffffffffffffffffffffffffffffffff021916908373ffffffffffffffffffffffffffffffffffffffff1602179055508360028190555082600381905550816004819055508060058190555085600660006101000a81548173ffffffffffffffffffffffffffffffffffffffff021916908373ffffffffffffffffffffffffffffffffffffffff160217905550505050505050610819806102666000396000f3fe608060405234801561001057600080fd5b50600436106100575760003560e01c806334762ca51461005c57806345e8e1431461007a57806357e37af014610098578063a26a88d314610126578063d7b0c19714610144575b600080fd5b610064610162565b6040518082815260200191505060405180910390f35b61008261016c565b6040518082815260200191505060405180910390f35b610102600480360360a08110156100ae57600080fd5b81019080803573ffffffffffffffffffffffffffffffffffffffff16906020019092919080359060200190929190803590602001909291908035906020019092919080359060200190929190505050610176565b60405180848152602001838152602001828152602001935050505060405180910390f35b61012e610307565b6040518082815260200191505060405180910390f35b61014c610311565b6040518082815260200191505060405180910390f35b6000600254905090565b6000600454905090565b6000806000600160009054906101000a900473ffffffffffffffffffffffffffffffffffffffff1673ffffffffffffffffffffffffffffffffffffffff1663bb85c0bb896040518263ffffffff1660e01b8152600401808273ffffffffffffffffffffffffffffffffffffffff1673ffffffffffffffffffffffffffffffffffffffff16815260200191505060206040518083038186803b15801561021a57600080fd5b505afa15801561022e573d6000803e3d6000fd5b505050506040513d602081101561024457600080fd5b810190808051906020019092919050505091506acecb8f27f4200f3a0000008711156102b1576102ae61029f61028e6acecb8f27f4200f3a0000008a61031b90919063ffffffff16565b60045461036590919063ffffffff16565b836103c890919063ffffffff16565b91505b6102da6002546102cc6003548a61036590919063ffffffff16565b6103c890919063ffffffff16565b90506102fa876102ec88888589610450565b61036590919063ffffffff16565b9250955095509592505050565b6000600354905090565b6000600554905090565b600061035d83836040518060400160405280601e81526020017f536166654d6174683a207375627472616374696f6e206f766572666c6f7700008152506104fa565b905092915050565b60006103c06b033b2e3c9fd0803ce80000006103b261038d85876105ba90919063ffffffff16565b60026b033b2e3c9fd0803ce8000000816103a357fe5b046103c890919063ffffffff16565b61064090919063ffffffff16565b905092915050565b600080828401905083811015610446576040517f08c379a000000000000000000000000000000000000000000000000000000000815260040180806020018281038252601b8152602001807f536166654d6174683a206164646974696f6e206f766572666c6f77000000000081525060200191505060405180910390fd5b8091505092915050565b60008061046685876103c890919063ffffffff16565b9050600081141561047b5760009150506104f2565b60006104988561048a8861068a565b61036590919063ffffffff16565b905060006104b7856104a98a61068a565b61036590919063ffffffff16565b905060006104e86104c78561068a565b6104da84866103c890919063ffffffff16565b6106aa90919063ffffffff16565b9050809450505050505b949350505050565b60008383111582906105a7576040517f08c379a00000000000000000000000000000000000000000000000000000000081526004018080602001828103825283818151815260200191508051906020019080838360005b8381101561056c578082015181840152602081019050610551565b50505050905090810190601f1680156105995780820380516001836020036101000a031916815260200191505b509250505060405180910390fd5b5060008385039050809150509392505050565b6000808314156105cd576000905061063a565b60008284029050828482816105de57fe5b0414610635576040517f08c379a00000000000000000000000000000000000000000000000000000000081526004018080602001828103825260218152602001806107cd6021913960400191505060405180910390fd5b809150505b92915050565b600061068283836040518060400160405280601a81526020017f536166654d6174683a206469766973696f6e206279207a65726f000000000000815250610706565b905092915050565b60006106a3633b9aca00836105ba90919063ffffffff16565b9050919050565b600080600283816106b757fe5b0490506106fd836106ef6106e06b033b2e3c9fd0803ce8000000886105ba90919063ffffffff16565b846103c890919063ffffffff16565b61064090919063ffffffff16565b91505092915050565b600080831182906107b2576040517f08c379a00000000000000000000000000000000000000000000000000000000081526004018080602001828103825283818151815260200191508051906020019080838360005b8381101561077757808201518184015260208101905061075c565b50505050905090810190601f1680156107a45780820380516001836020036101000a031916815260200191505b509250505060405180910390fd5b5060008385816107be57fe5b04905080915050939250505056fe536166654d6174683a206d756c7469706c69636174696f6e206f766572666c6f77a165627a7a723058203e8e5c3163bdef0026fcde83e74efc05a803183b3b08ad1370c4383bfbfa7d900029",
  "source": "pragma solidity ^0.5.0;\n\nimport \"../interfaces/IReserveInterestRateStrategy.sol\";\nimport \"../libraries/WadRayMath.sol\";\nimport \"../configuration/LendingPoolAddressesProvider.sol\";\nimport \"./LendingPoolCore.sol\";\nimport \"../interfaces/ILendingRateOracle.sol\";\n\n\nimport \"openzeppelin-solidity/contracts/math/SafeMath.sol\";\n\n\n\n/**\n@title DefaultReserveInterestRateStrategy contract\n@notice implements the calculation of the interest rates based on the reserve parameters.\n*/\n\ncontract DefaultReserveInterestRateStrategy is IReserveInterestRateStrategy {\n\n    using WadRayMath for uint256;\n    using SafeMath for uint256;\n\n    uint256 constant FIXED_RATE_INCREASE_THRESHOLD = (1e27)/4; // 0.25 ray, 25% of the utilization rate\n\n    LendingPoolCore core;\n    ILendingRateOracle lendingRateOracle;\n\n    uint256 baseVariableBorrowRate;\n    uint256 variableBorrowRateScaling;\n    uint256 fixedBorrowRateScaling;\n    uint256 borrowToLiquidityRateDelta;\n    address reserve;\n\n    constructor(\n        address _reserve,\n        LendingPoolAddressesProvider _provider,\n        uint256 _baseVariableBorrowRate,\n        uint256 _variableBorrowRateScaling,\n        uint256 _fixedBorrowRateScaling,\n        uint256 _borrowToLiquidityRateDelta) public {\n\n        core = LendingPoolCore(_provider.getLendingPoolCore());\n        lendingRateOracle = ILendingRateOracle(_provider.getLendingRateOracle());\n        baseVariableBorrowRate = _baseVariableBorrowRate;\n        variableBorrowRateScaling = _variableBorrowRateScaling;\n        fixedBorrowRateScaling = _fixedBorrowRateScaling;\n        borrowToLiquidityRateDelta = _borrowToLiquidityRateDelta;\n        reserve = _reserve;\n    }\n\n    /**\n    @dev accessors\n     */\n\n    function getBaseVariableBorrowRate() external view returns(uint256) {\n        return baseVariableBorrowRate;\n    }\n\n    function getVariableBorrowRateScaling() external view returns(uint256) {\n        return variableBorrowRateScaling;\n    }\n\n    function getFixedBorrowRateScaling() external view returns(uint256) {\n        return fixedBorrowRateScaling;\n    }\n\n    function getBorrowToLiquidityRateDelta() external view returns(uint256) {\n        return borrowToLiquidityRateDelta;\n    }\n\n\n\n    /**\n    @dev returns the interest rates, in rays\n     */\n    function calculateInterestRates(\n        address _reserve,\n        uint256 _utilizationRate,\n        uint256 _totalBorrowsFixed,\n        uint256 _totalBorrowsVariable,\n        uint256 _averageFixedBorrowRate\n        ) external view returns (uint256 currentLiquidityRate, uint256 currentFixedBorrowRate, uint256 currentVariableBorrowRate) {\n\n        currentFixedBorrowRate = lendingRateOracle.getMarketBorrowRate(_reserve);\n\n        if(_utilizationRate > FIXED_RATE_INCREASE_THRESHOLD){\n            currentFixedBorrowRate = currentFixedBorrowRate.add(fixedBorrowRateScaling.rayMul(_utilizationRate.sub(FIXED_RATE_INCREASE_THRESHOLD)));\n        }\n\n        currentVariableBorrowRate = _utilizationRate.rayMul(variableBorrowRateScaling).add(\n             baseVariableBorrowRate\n        );\n\n        currentLiquidityRate = getOverallBorrowRateInternal(\n            _totalBorrowsFixed,\n            _totalBorrowsVariable,\n            currentVariableBorrowRate,\n            _averageFixedBorrowRate).rayMul(_utilizationRate);\n\n    }\n\n    /**\n    @dev the weighted average between the fixed interest part and the variable interest part\n     */\n    function getOverallBorrowRateInternal(\n        uint256 _totalBorrowsFixed,\n        uint256 _totalBorrowsVariable,\n        uint256 _currentVariableBorrowRate,\n        uint256 _currentAverageFixedBorrowRate) internal pure returns (uint256) {\n\n        uint256 totalBorrows = _totalBorrowsFixed.add(_totalBorrowsVariable);\n\n        if (totalBorrows == 0) return 0;\n\n        uint256 weightedVariableRate = _totalBorrowsVariable.wadToRay().rayMul(\n            _currentVariableBorrowRate\n        );\n\n        uint256 weightedFixedRate = _totalBorrowsFixed.wadToRay().rayMul(_currentAverageFixedBorrowRate);\n\n        uint256 overallBorrowRate = weightedVariableRate.add(weightedFixedRate).rayDiv(totalBorrows.wadToRay());\n\n        return overallBorrowRate;\n    }\n}\n",
  "sourcePath": "/Users/jg/Documents/aaveBot/contracts/lendingpool/DefaultReserveInterestRateStrategy.sol",
  "compiler": {
    "name": "solc",
    "version": "0.5.8+commit.23d335f2.Emscripten.clang"
  },
  "schemaVersion": "3.0.16",
  "updatedAt": "2019-11-07T20:00:22.192Z",
  "devdoc": {
    "methods": {
      "calculateInterestRates(address,uint256,uint256,uint256,uint256)": {
        "details": "returns the interest rates, in rays"
      },
      "getBaseVariableBorrowRate()": {
        "details": "accessors"
      }
    },
    "title": "DefaultReserveInterestRateStrategy contract"
  },
  "userdoc": {
    "methods": {},
    "notice": "implements the calculation of the interest rates based on the reserve parameters."
  }
}