{
  "contractName": "FeeProvider",
  "abi": [
    {
      "constant": false,
      "inputs": [],
      "name": "renounceOwnership",
      "outputs": [],
      "payable": false,
      "stateMutability": "nonpayable",
      "type": "function"
    },
    {
      "constant": true,
      "inputs": [],
      "name": "owner",
      "outputs": [
        {
          "name": "",
          "type": "address"
        }
      ],
      "payable": false,
      "stateMutability": "view",
      "type": "function"
    },
    {
      "constant": true,
      "inputs": [],
      "name": "isOwner",
      "outputs": [
        {
          "name": "",
          "type": "bool"
        }
      ],
      "payable": false,
      "stateMutability": "view",
      "type": "function"
    },
    {
      "constant": false,
      "inputs": [
        {
          "name": "newOwner",
          "type": "address"
        }
      ],
      "name": "transferOwnership",
      "outputs": [],
      "payable": false,
      "stateMutability": "nonpayable",
      "type": "function"
    },
    {
      "inputs": [
        {
          "name": "_feesCollectionAddress",
          "type": "address"
        }
      ],
      "payable": false,
      "stateMutability": "nonpayable",
      "type": "constructor"
    },
    {
      "anonymous": false,
      "inputs": [
        {
          "indexed": true,
          "name": "previousOwner",
          "type": "address"
        },
        {
          "indexed": true,
          "name": "newOwner",
          "type": "address"
        }
      ],
      "name": "OwnershipTransferred",
      "type": "event"
    },
    {
      "constant": true,
      "inputs": [
        {
          "name": "_user",
          "type": "address"
        },
        {
          "name": "_amount",
          "type": "uint256"
        }
      ],
      "name": "calculateLoanOriginationFee",
      "outputs": [
        {
          "name": "",
          "type": "uint256"
        }
      ],
      "payable": false,
      "stateMutability": "view",
      "type": "function"
    },
    {
      "constant": false,
      "inputs": [
        {
          "name": "_percentage",
          "type": "uint256"
        }
      ],
      "name": "setLoanOriginationFeePercentage",
      "outputs": [],
      "payable": false,
      "stateMutability": "nonpayable",
      "type": "function"
    },
    {
      "constant": true,
      "inputs": [],
      "name": "getLoanOriginationFeePercentage",
      "outputs": [
        {
          "name": "",
          "type": "uint256"
        }
      ],
      "payable": false,
      "stateMutability": "view",
      "type": "function"
    },
    {
      "constant": false,
      "inputs": [
        {
          "name": "_feesCollectionAddress",
          "type": "address"
        }
      ],
      "name": "setFeesCollectionAddress",
      "outputs": [],
      "payable": false,
      "stateMutability": "nonpayable",
      "type": "function"
    },
    {
      "constant": true,
      "inputs": [],
      "name": "getFeesCollectionAddress",
      "outputs": [
        {
          "name": "",
          "type": "address"
        }
      ],
      "payable": false,
      "stateMutability": "view",
      "type": "function"
    }
  ],
  "bytecode": "0x608060405234801561001057600080fd5b50604051602080610c178339810180604052602081101561003057600080fd5b810190808051906020019092919050505061004f61015f60201b60201c565b6000806101000a81548173ffffffffffffffffffffffffffffffffffffffff021916908373ffffffffffffffffffffffffffffffffffffffff1602179055506000809054906101000a900473ffffffffffffffffffffffffffffffffffffffff1673ffffffffffffffffffffffffffffffffffffffff16600073ffffffffffffffffffffffffffffffffffffffff167f8be0079c531659141344cd1fd0a4f28419497f9722a3daafe3b4186f6b6457e060405160405180910390a380600260006101000a81548173ffffffffffffffffffffffffffffffffffffffff021916908373ffffffffffffffffffffffffffffffffffffffff1602179055506608e1bc9bf0400060018190555050610167565b600033905090565b610aa1806101766000396000f3fe608060405234801561001057600080fd5b50600436106100935760003560e01c8063c211f9a411610066578063c211f9a414610158578063c26a533914610176578063e1518136146101a4578063e563a7d0146101e8578063f2fde38b1461024a57610093565b8063715018a6146100985780638da5cb5b146100a25780638f32d59b146100ec578063bc6156681461010e575b600080fd5b6100a061028e565b005b6100aa6103c7565b604051808273ffffffffffffffffffffffffffffffffffffffff1673ffffffffffffffffffffffffffffffffffffffff16815260200191505060405180910390f35b6100f46103f0565b604051808215151515815260200191505060405180910390f35b61011661044e565b604051808273ffffffffffffffffffffffffffffffffffffffff1673ffffffffffffffffffffffffffffffffffffffff16815260200191505060405180910390f35b610160610478565b6040518082815260200191505060405180910390f35b6101a26004803603602081101561018c57600080fd5b8101908080359060200190929190505050610482565b005b6101e6600480360360208110156101ba57600080fd5b81019080803573ffffffffffffffffffffffffffffffffffffffff169060200190929190505050610506565b005b610234600480360360408110156101fe57600080fd5b81019080803573ffffffffffffffffffffffffffffffffffffffff169060200190929190803590602001909291905050506105c4565b6040518082815260200191505060405180910390f35b61028c6004803603602081101561026057600080fd5b81019080803573ffffffffffffffffffffffffffffffffffffffff1690602001909291905050506105e3565b005b6102966103f0565b610308576040517f08c379a00000000000000000000000000000000000000000000000000000000081526004018080602001828103825260208152602001807f4f776e61626c653a2063616c6c6572206973206e6f7420746865206f776e657281525060200191505060405180910390fd5b600073ffffffffffffffffffffffffffffffffffffffff166000809054906101000a900473ffffffffffffffffffffffffffffffffffffffff1673ffffffffffffffffffffffffffffffffffffffff167f8be0079c531659141344cd1fd0a4f28419497f9722a3daafe3b4186f6b6457e060405160405180910390a360008060006101000a81548173ffffffffffffffffffffffffffffffffffffffff021916908373ffffffffffffffffffffffffffffffffffffffff160217905550565b60008060009054906101000a900473ffffffffffffffffffffffffffffffffffffffff16905090565b60008060009054906101000a900473ffffffffffffffffffffffffffffffffffffffff1673ffffffffffffffffffffffffffffffffffffffff16610432610669565b73ffffffffffffffffffffffffffffffffffffffff1614905090565b6000600260009054906101000a900473ffffffffffffffffffffffffffffffffffffffff16905090565b6000600154905090565b61048a6103f0565b6104fc576040517f08c379a00000000000000000000000000000000000000000000000000000000081526004018080602001828103825260208152602001807f4f776e61626c653a2063616c6c6572206973206e6f7420746865206f776e657281525060200191505060405180910390fd5b8060018190555050565b61050e6103f0565b610580576040517f08c379a00000000000000000000000000000000000000000000000000000000081526004018080602001828103825260208152602001807f4f776e61626c653a2063616c6c6572206973206e6f7420746865206f776e657281525060200191505060405180910390fd5b80600260006101000a81548173ffffffffffffffffffffffffffffffffffffffff021916908373ffffffffffffffffffffffffffffffffffffffff16021790555050565b60006105db6001548361067190919063ffffffff16565b905092915050565b6105eb6103f0565b61065d576040517f08c379a00000000000000000000000000000000000000000000000000000000081526004018080602001828103825260208152602001807f4f776e61626c653a2063616c6c6572206973206e6f7420746865206f776e657281525060200191505060405180910390fd5b610666816106cc565b50565b600033905090565b60006106c4670de0b6b3a76400006106b6610695858761081090919063ffffffff16565b6002670de0b6b3a7640000816106a757fe5b0461089690919063ffffffff16565b61091e90919063ffffffff16565b905092915050565b600073ffffffffffffffffffffffffffffffffffffffff168173ffffffffffffffffffffffffffffffffffffffff161415610752576040517f08c379a0000000000000000000000000000000000000000000000000000000008152600401808060200182810382526026815260200180610a2f6026913960400191505060405180910390fd5b8073ffffffffffffffffffffffffffffffffffffffff166000809054906101000a900473ffffffffffffffffffffffffffffffffffffffff1673ffffffffffffffffffffffffffffffffffffffff167f8be0079c531659141344cd1fd0a4f28419497f9722a3daafe3b4186f6b6457e060405160405180910390a3806000806101000a81548173ffffffffffffffffffffffffffffffffffffffff021916908373ffffffffffffffffffffffffffffffffffffffff16021790555050565b6000808314156108235760009050610890565b600082840290508284828161083457fe5b041461088b576040517f08c379a0000000000000000000000000000000000000000000000000000000008152600401808060200182810382526021815260200180610a556021913960400191505060405180910390fd5b809150505b92915050565b600080828401905083811015610914576040517f08c379a000000000000000000000000000000000000000000000000000000000815260040180806020018281038252601b8152602001807f536166654d6174683a206164646974696f6e206f766572666c6f77000000000081525060200191505060405180910390fd5b8091505092915050565b600061096083836040518060400160405280601a81526020017f536166654d6174683a206469766973696f6e206279207a65726f000000000000815250610968565b905092915050565b60008083118290610a14576040517f08c379a00000000000000000000000000000000000000000000000000000000081526004018080602001828103825283818151815260200191508051906020019080838360005b838110156109d95780820151818401526020810190506109be565b50505050905090810190601f168015610a065780820380516001836020036101000a031916815260200191505b509250505060405180910390fd5b506000838581610a2057fe5b04905080915050939250505056fe4f776e61626c653a206e6577206f776e657220697320746865207a65726f2061646472657373536166654d6174683a206d756c7469706c69636174696f6e206f766572666c6f77a165627a7a72305820aaf62aa5edf6b201479191951b924e63fe4821153aeb9f48712d5a1ddb36e79e0029",
  "source": "pragma solidity ^0.5.0;\n\nimport \"openzeppelin-solidity/contracts/ownership/Ownable.sol\";\nimport \"../interfaces/IFeeProvider.sol\";\nimport \"../libraries/WadRayMath.sol\";\n\n// TODO: move Ownable to governance based ACR\ncontract FeeProvider is IFeeProvider, Ownable {\n    using WadRayMath for uint256;\n\n    uint256 originationFeePercentage;\n    address feesCollectionAddress;\n\n    constructor(address _feesCollectionAddress) public {\n        feesCollectionAddress = _feesCollectionAddress;\n\n        /**\n        @notice origination fee is set as default as 25 basis points of the loan amount (0.0025%)\n        */\n        originationFeePercentage = 0.0025 * 1e18;\n    }\n\n    /**\n    @dev _user can be used in the future to apply discount to the origination fee based on the\n    _user account (eg. stake AAVE tokens in the lending pool, or deposit > 1M USD etc.)\n     */\n    function calculateLoanOriginationFee(address _user, uint256 _amount) external view returns (uint256) {\n        return _amount.wadMul(originationFeePercentage);\n    }\n\n    function setLoanOriginationFeePercentage(uint256 _percentage) external onlyOwner {\n        originationFeePercentage = _percentage;\n    }\n\n    function getLoanOriginationFeePercentage() external view returns (uint256) {\n        return originationFeePercentage;\n    }\n\n    function setFeesCollectionAddress(address _feesCollectionAddress) external onlyOwner {\n        feesCollectionAddress = _feesCollectionAddress;\n    }\n\n    function getFeesCollectionAddress() external view returns (address) {\n        return feesCollectionAddress;\n    }\n\n}\n",
  "sourcePath": "/Users/jg/Documents/aaveBot/contracts/fees/FeeProvider.sol",
  "compiler": {
    "name": "solc",
    "version": "0.5.8+commit.23d335f2.Emscripten.clang"
  },
  "schemaVersion": "3.0.16",
  "updatedAt": "2019-11-07T20:00:22.181Z",
  "devdoc": {
    "methods": {
      "calculateLoanOriginationFee(address,uint256)": {
        "details": "_user can be used in the future to apply discount to the origination fee based on the _user account (eg. stake AAVE tokens in the lending pool, or deposit > 1M USD etc.)"
      },
      "isOwner()": {
        "details": "Returns true if the caller is the current owner."
      },
      "owner()": {
        "details": "Returns the address of the current owner."
      },
      "renounceOwnership()": {
        "details": "Leaves the contract without owner. It will not be possible to call `onlyOwner` functions anymore. Can only be called by the current owner.     * NOTE: Renouncing ownership will leave the contract without an owner, thereby removing any functionality that is only available to the owner."
      },
      "transferOwnership(address)": {
        "details": "Transfers ownership of the contract to a new account (`newOwner`). Can only be called by the current owner."
      }
    }
  },
  "userdoc": {
    "methods": {}
  }
}