{
  "contractName": "FlashLoanReceiverArb",
  "abi": [
    {
      "inputs": [
        {
          "name": "_provider",
          "type": "address"
        }
      ],
      "payable": false,
      "stateMutability": "nonpayable",
      "type": "constructor"
    },
    {
      "payable": true,
      "stateMutability": "payable",
      "type": "fallback"
    },
    {
      "anonymous": false,
      "inputs": [
        {
          "indexed": false,
          "name": "_reserve",
          "type": "address"
        },
        {
          "indexed": false,
          "name": "_amount",
          "type": "uint256"
        },
        {
          "indexed": false,
          "name": "_value",
          "type": "uint256"
        }
      ],
      "name": "borrowMade",
      "type": "event"
    },
    {
      "anonymous": false,
      "inputs": [
        {
          "indexed": false,
          "name": "_amount",
          "type": "uint256"
        }
      ],
      "name": "tradeMade",
      "type": "event"
    },
    {
      "constant": false,
      "inputs": [],
      "name": "pullBalance",
      "outputs": [],
      "payable": false,
      "stateMutability": "nonpayable",
      "type": "function"
    },
    {
      "constant": false,
      "inputs": [
        {
          "name": "_reserve",
          "type": "address"
        },
        {
          "name": "_amount",
          "type": "uint256"
        },
        {
          "name": "_fee",
          "type": "uint256"
        }
      ],
      "name": "executeOperation",
      "outputs": [
        {
          "name": "returnedAmount",
          "type": "uint256"
        }
      ],
      "payable": false,
      "stateMutability": "nonpayable",
      "type": "function"
    }
  ],
  "bytecode": "0x608060405234801561001057600080fd5b506040516020806111288339810180604052602081101561003057600080fd5b810190808051906020019092919050505080806000806101000a81548173ffffffffffffffffffffffffffffffffffffffff021916908373ffffffffffffffffffffffffffffffffffffffff1602179055505050611095806100936000396000f3fe6080604052600436106100295760003560e01c80638b514f8c1461002b578063b45aff16146100a4575b005b34801561003757600080fd5b5061008e6004803603606081101561004e57600080fd5b81019080803573ffffffffffffffffffffffffffffffffffffffff16906020019092919080359060200190929190803590602001909291905050506100bb565b6040518082815260200191505060405180910390f35b3480156100b057600080fd5b506100b96105fb565b005b60006100c73085610791565b83111561013c576040517f08c379a00000000000000000000000000000000000000000000000000000000081526004018080602001828103825260208152602001807f496e76616c69642062616c616e636520666f722074686520636f6e747261637481525060200191505060405180910390fd5b600073ff795577d9ac8bd7d90ee22b6c1703490b6512fd90507fcd8f01cf11df8ac6e385851ab2495f5370eff19deb3c99a29b542b49d32ba0ba85858373ffffffffffffffffffffffffffffffffffffffff166370a08231306040518263ffffffff1660e01b8152600401808273ffffffffffffffffffffffffffffffffffffffff1673ffffffffffffffffffffffffffffffffffffffff16815260200191505060206040518083038186803b1580156101f557600080fd5b505afa158015610209573d6000803e3d6000fd5b505050506040513d602081101561021f57600080fd5b8101908080519060200190929190505050604051808473ffffffffffffffffffffffffffffffffffffffff1673ffffffffffffffffffffffffffffffffffffffff168152602001838152602001828152602001935050505060405180910390a18073ffffffffffffffffffffffffffffffffffffffff1663095ea7b373b4ca10f43caf503b7aa0a77757b99c78212d6b92866040518363ffffffff1660e01b8152600401808373ffffffffffffffffffffffffffffffffffffffff1673ffffffffffffffffffffffffffffffffffffffff16815260200182815260200192505050602060405180830381600087803b15801561031a57600080fd5b505af115801561032e573d6000803e3d6000fd5b505050506040513d602081101561034457600080fd5b810190808051906020019092919050505050600073b4ca10f43caf503b7aa0a77757b99c78212d6b929050600061012c4201905060008273ffffffffffffffffffffffffffffffffffffffff166395e3c50b886000856040518463ffffffff1660e01b8152600401808481526020018381526020018281526020019350505050602060405180830381600087803b1580156103de57600080fd5b505af11580156103f2573d6000803e3d6000fd5b505050506040513d602081101561040857600080fd5b81019080805190602001909291905050509050600073274bbbbd9bf7cab50fc8f62f5bb61d4ff297b362905060008173ffffffffffffffffffffffffffffffffffffffff1663f39b5b9b848b876040518463ffffffff1660e01b815260040180838152602001828152602001925050506020604051808303818588803b15801561049157600080fd5b505af11580156104a5573d6000803e3d6000fd5b50505050506040513d60208110156104bc57600080fd5b810190808051906020019092919050505090507ffe94c5aba7ab62637d0f86536cc1e8f7d3650c78fc65a37e09506fdd075bf0078673ffffffffffffffffffffffffffffffffffffffff166370a08231306040518263ffffffff1660e01b8152600401808273ffffffffffffffffffffffffffffffffffffffff1673ffffffffffffffffffffffffffffffffffffffff16815260200191505060206040518083038186803b15801561056d57600080fd5b505afa158015610581573d6000803e3d6000fd5b505050506040513d602081101561059757600080fd5b81019080805190602001909291905050506040518082815260200191505060405180910390a16105d98a6105d48a8c6109c890919063ffffffff16565b610a50565b6105ec888a6109c890919063ffffffff16565b96505050505050509392505050565b600073ff795577d9ac8bd7d90ee22b6c1703490b6512fd90508073ffffffffffffffffffffffffffffffffffffffff1663a9059cbb338373ffffffffffffffffffffffffffffffffffffffff166370a08231306040518263ffffffff1660e01b8152600401808273ffffffffffffffffffffffffffffffffffffffff1673ffffffffffffffffffffffffffffffffffffffff16815260200191505060206040518083038186803b1580156106ae57600080fd5b505afa1580156106c2573d6000803e3d6000fd5b505050506040513d60208110156106d857600080fd5b81019080805190602001909291905050506040518363ffffffff1660e01b8152600401808373ffffffffffffffffffffffffffffffffffffffff1673ffffffffffffffffffffffffffffffffffffffff16815260200182815260200192505050602060405180830381600087803b15801561075257600080fd5b505af1158015610766573d6000803e3d6000fd5b505050506040513d602081101561077c57600080fd5b81019080805190602001909291905050505050565b60008060009054906101000a900473ffffffffffffffffffffffffffffffffffffffff1673ffffffffffffffffffffffffffffffffffffffff1663b5722bb56040518163ffffffff1660e01b815260040160206040518083038186803b1580156107fa57600080fd5b505afa15801561080e573d6000803e3d6000fd5b505050506040513d602081101561082457600080fd5b810190808051906020019092919050505073ffffffffffffffffffffffffffffffffffffffff166317bfdd576040518163ffffffff1660e01b815260040160206040518083038186803b15801561087a57600080fd5b505afa15801561088e573d6000803e3d6000fd5b505050506040513d60208110156108a457600080fd5b810190808051906020019092919050505073ffffffffffffffffffffffffffffffffffffffff168273ffffffffffffffffffffffffffffffffffffffff161415610907578273ffffffffffffffffffffffffffffffffffffffff163190506109c2565b8173ffffffffffffffffffffffffffffffffffffffff166370a08231846040518263ffffffff1660e01b8152600401808273ffffffffffffffffffffffffffffffffffffffff1673ffffffffffffffffffffffffffffffffffffffff16815260200191505060206040518083038186803b15801561098457600080fd5b505afa158015610998573d6000803e3d6000fd5b505050506040513d60208110156109ae57600080fd5b810190808051906020019092919050505090505b92915050565b600080828401905083811015610a46576040517f08c379a000000000000000000000000000000000000000000000000000000000815260040180806020018281038252601b8152602001807f536166654d6174683a206164646974696f6e206f766572666c6f77000000000081525060200191505060405180910390fd5b8091505092915050565b60008060009054906101000a900473ffffffffffffffffffffffffffffffffffffffff1673ffffffffffffffffffffffffffffffffffffffff1663ed6ff7606040518163ffffffff1660e01b815260040160206040518083038186803b158015610ab957600080fd5b505afa158015610acd573d6000803e3d6000fd5b505050506040513d6020811015610ae357600080fd5b81019080805190602001909291905050509050610b01818484610b06565b505050565b6000809054906101000a900473ffffffffffffffffffffffffffffffffffffffff1673ffffffffffffffffffffffffffffffffffffffff1663b5722bb56040518163ffffffff1660e01b815260040160206040518083038186803b158015610b6d57600080fd5b505afa158015610b81573d6000803e3d6000fd5b505050506040513d6020811015610b9757600080fd5b810190808051906020019092919050505073ffffffffffffffffffffffffffffffffffffffff166317bfdd576040518163ffffffff1660e01b815260040160206040518083038186803b158015610bed57600080fd5b505afa158015610c01573d6000803e3d6000fd5b505050506040513d6020811015610c1757600080fd5b810190808051906020019092919050505073ffffffffffffffffffffffffffffffffffffffff168273ffffffffffffffffffffffffffffffffffffffff161415610ca7578273ffffffffffffffffffffffffffffffffffffffff166108fc829081150290604051600060405180830381858888f19350505050158015610ca1573d6000803e3d6000fd5b50610cd3565b610cd283828473ffffffffffffffffffffffffffffffffffffffff16610cd89092919063ffffffff16565b5b505050565b610da4838473ffffffffffffffffffffffffffffffffffffffff1663a9059cbb905060e01b8484604051602401808373ffffffffffffffffffffffffffffffffffffffff1673ffffffffffffffffffffffffffffffffffffffff16815260200182815260200192505050604051602081830303815290604052907bffffffffffffffffffffffffffffffffffffffffffffffffffffffff19166020820180517bffffffffffffffffffffffffffffffffffffffffffffffffffffffff8381831617835250505050610da9565b505050565b610dc88273ffffffffffffffffffffffffffffffffffffffff16610ff4565b610e3a576040517f08c379a000000000000000000000000000000000000000000000000000000000815260040180806020018281038252601f8152602001807f5361666545524332303a2063616c6c20746f206e6f6e2d636f6e74726163740081525060200191505060405180910390fd5b600060608373ffffffffffffffffffffffffffffffffffffffff16836040518082805190602001908083835b60208310610e895780518252602082019150602081019050602083039250610e66565b6001836020036101000a0380198251168184511680821785525050505050509050019150506000604051808303816000865af19150503d8060008114610eeb576040519150601f19603f3d011682016040523d82523d6000602084013e610ef0565b606091505b509150915081610f68576040517f08c379a00000000000000000000000000000000000000000000000000000000081526004018080602001828103825260208152602001807f5361666545524332303a206c6f772d6c6576656c2063616c6c206661696c656481525060200191505060405180910390fd5b600081511115610fee57808060200190516020811015610f8757600080fd5b8101908080519060200190929190505050610fed576040517f08c379a000000000000000000000000000000000000000000000000000000000815260040180806020018281038252602a815260200180611040602a913960400191505060405180910390fd5b5b50505050565b60008060007fc5d2460186f7233c927e7db2dcc703c0e500b653ca82273b7bfad8045d85a47060001b9050833f91506000801b82141580156110365750808214155b9250505091905056fe5361666545524332303a204552433230206f7065726174696f6e20646964206e6f742073756363656564a165627a7a72305820507e08f91052c1e7c10a73284c36e617e817b1af220a16bb006a71f49d2161c10029",
  "source": "pragma solidity ^0.5.0;\n\nimport \"openzeppelin-solidity/contracts/math/SafeMath.sol\";\n\nimport \"./mocks/tokens/MintableERC20.sol\";\nimport \"./flashloan/base/FlashLoanReceiverBase.sol\";\nimport \"./configuration/LendingPoolAddressesProvider.sol\";\nimport \"./configuration/NetworkMetadataProvider.sol\";\n\nimport \"./UniswapExchange.sol\";\n\ncontract FlashLoanReceiverArb is FlashLoanReceiverBase {\n\n    using SafeMath for uint256;\n\n    // Events\n    event borrowMade(address _reserve, uint256 _amount , uint256 _value);\n    event tradeMade(uint256 _amount);\n\n\n    constructor(LendingPoolAddressesProvider _provider) FlashLoanReceiverBase(_provider)\n        public {}\n\n    function pullBalance() public{\n      // This is terrible but just a quick hack for Hackathon!\n      ERC20 token = ERC20(0xFf795577d9AC8bD7D90Ee22b6C1703490b6512FD);\n\n      token.transfer(msg.sender, token.balanceOf(address(this)));\n    }\n\n    function executeOperation(\n        address _reserve,\n        uint256 _amount,\n        uint256 _fee) external returns(uint256 returnedAmount) {\n\n        //check the contract has the specified balance\n        require(_amount <= getBalanceInternal(address(this), _reserve),\n            \"Invalid balance for the contract\");\n\n        //emit borrowMade(_reserve, _amount , address(this).balance);\n\n        // NEED TO APPROVE Token\n        ERC20 token = ERC20(0xFf795577d9AC8bD7D90Ee22b6C1703490b6512FD);\n\n        emit borrowMade(_reserve, _amount , token.balanceOf(address(this)));\n\n        // Approve exchange to take tokens for token -> Eth trade\n        token.approve(0xB4ca10f43caF503b7Aa0a77757B99c78212D6b92, _amount);\n        // Exchange for token -> eth\n        UniswapExchange followerUniSwapExchange = UniswapExchange(0xB4ca10f43caF503b7Aa0a77757B99c78212D6b92);\n\n        uint256 DEADLINE = block.timestamp + 300;\n        // Swap token -> Eth\n        uint256 eth_bought = followerUniSwapExchange.tokenToEthSwapInput(_amount, 0, DEADLINE);\n        // Exchange for Eth -> token\n        UniswapExchange leaderUniSwapExchange = UniswapExchange(0x274bBBBd9bf7Cab50fC8F62F5bb61d4FF297b362);\n        // Swap Eth -> Token\n        uint256 token_bought = leaderUniSwapExchange.ethToTokenSwapInput.value(eth_bought)(_amount, DEADLINE);\n\n        emit tradeMade(token.balanceOf(address(this)));\n        // Pays back\n        transferFundsBackToPoolInternal(_reserve, _amount.add(_fee));\n        return _amount.add(_fee);\n    }\n}\n",
  "sourcePath": "/Users/jg/Documents/aaveBot/contracts/FlashLoanReceiverArb.sol",
  "compiler": {
    "name": "solc",
    "version": "0.5.8+commit.23d335f2.Emscripten.clang"
  },
  "schemaVersion": "3.0.16",
  "updatedAt": "2019-11-08T10:19:44.859Z",
  "devdoc": {
    "methods": {}
  },
  "userdoc": {
    "methods": {}
  }
}