{
  "contractName": "FlashLoanReceiverExample",
  "abi": [
    {
      "inputs": [
        {
          "name": "_provider",
          "type": "address"
        }
      ],
      "payable": false,
      "stateMutability": "nonpayable",
      "type": "constructor"
    },
    {
      "payable": true,
      "stateMutability": "payable",
      "type": "fallback"
    },
    {
      "anonymous": false,
      "inputs": [
        {
          "indexed": false,
          "name": "_reserve",
          "type": "address"
        },
        {
          "indexed": false,
          "name": "_amount",
          "type": "uint256"
        },
        {
          "indexed": false,
          "name": "_value",
          "type": "uint256"
        }
      ],
      "name": "borrowMade",
      "type": "event"
    },
    {
      "constant": false,
      "inputs": [
        {
          "name": "_reserve",
          "type": "address"
        },
        {
          "name": "_amount",
          "type": "uint256"
        },
        {
          "name": "_fee",
          "type": "uint256"
        }
      ],
      "name": "executeOperation",
      "outputs": [
        {
          "name": "returnedAmount",
          "type": "uint256"
        }
      ],
      "payable": false,
      "stateMutability": "nonpayable",
      "type": "function"
    }
  ],
  "bytecode": "0x608060405234801561001057600080fd5b50604051602080610b738339810180604052602081101561003057600080fd5b810190808051906020019092919050505080806000806101000a81548173ffffffffffffffffffffffffffffffffffffffff021916908373ffffffffffffffffffffffffffffffffffffffff1602179055505050610ae0806100936000396000f3fe60806040526004361061001e5760003560e01c80638b514f8c14610020575b005b34801561002c57600080fd5b506100836004803603606081101561004357600080fd5b81019080803573ffffffffffffffffffffffffffffffffffffffff1690602001909291908035906020019092919080359060200190929190505050610099565b6040518082815260200191505060405180910390f35b60006100a530856101dc565b83111561011a576040517f08c379a00000000000000000000000000000000000000000000000000000000081526004018080602001828103825260208152602001807f496e76616c69642062616c616e636520666f722074686520636f6e747261637481525060200191505060405180910390fd5b7fcd8f01cf11df8ac6e385851ab2495f5370eff19deb3c99a29b542b49d32ba0ba84843073ffffffffffffffffffffffffffffffffffffffff1631604051808473ffffffffffffffffffffffffffffffffffffffff1673ffffffffffffffffffffffffffffffffffffffff168152602001838152602001828152602001935050505060405180910390a16101c0846101bb848661041390919063ffffffff16565b61049b565b6101d3828461041390919063ffffffff16565b90509392505050565b60008060009054906101000a900473ffffffffffffffffffffffffffffffffffffffff1673ffffffffffffffffffffffffffffffffffffffff1663b5722bb56040518163ffffffff1660e01b815260040160206040518083038186803b15801561024557600080fd5b505afa158015610259573d6000803e3d6000fd5b505050506040513d602081101561026f57600080fd5b810190808051906020019092919050505073ffffffffffffffffffffffffffffffffffffffff166317bfdd576040518163ffffffff1660e01b815260040160206040518083038186803b1580156102c557600080fd5b505afa1580156102d9573d6000803e3d6000fd5b505050506040513d60208110156102ef57600080fd5b810190808051906020019092919050505073ffffffffffffffffffffffffffffffffffffffff168273ffffffffffffffffffffffffffffffffffffffff161415610352578273ffffffffffffffffffffffffffffffffffffffff1631905061040d565b8173ffffffffffffffffffffffffffffffffffffffff166370a08231846040518263ffffffff1660e01b8152600401808273ffffffffffffffffffffffffffffffffffffffff1673ffffffffffffffffffffffffffffffffffffffff16815260200191505060206040518083038186803b1580156103cf57600080fd5b505afa1580156103e3573d6000803e3d6000fd5b505050506040513d60208110156103f957600080fd5b810190808051906020019092919050505090505b92915050565b600080828401905083811015610491576040517f08c379a000000000000000000000000000000000000000000000000000000000815260040180806020018281038252601b8152602001807f536166654d6174683a206164646974696f6e206f766572666c6f77000000000081525060200191505060405180910390fd5b8091505092915050565b60008060009054906101000a900473ffffffffffffffffffffffffffffffffffffffff1673ffffffffffffffffffffffffffffffffffffffff1663ed6ff7606040518163ffffffff1660e01b815260040160206040518083038186803b15801561050457600080fd5b505afa158015610518573d6000803e3d6000fd5b505050506040513d602081101561052e57600080fd5b8101908080519060200190929190505050905061054c818484610551565b505050565b6000809054906101000a900473ffffffffffffffffffffffffffffffffffffffff1673ffffffffffffffffffffffffffffffffffffffff1663b5722bb56040518163ffffffff1660e01b815260040160206040518083038186803b1580156105b857600080fd5b505afa1580156105cc573d6000803e3d6000fd5b505050506040513d60208110156105e257600080fd5b810190808051906020019092919050505073ffffffffffffffffffffffffffffffffffffffff166317bfdd576040518163ffffffff1660e01b815260040160206040518083038186803b15801561063857600080fd5b505afa15801561064c573d6000803e3d6000fd5b505050506040513d602081101561066257600080fd5b810190808051906020019092919050505073ffffffffffffffffffffffffffffffffffffffff168273ffffffffffffffffffffffffffffffffffffffff1614156106f2578273ffffffffffffffffffffffffffffffffffffffff166108fc829081150290604051600060405180830381858888f193505050501580156106ec573d6000803e3d6000fd5b5061071e565b61071d83828473ffffffffffffffffffffffffffffffffffffffff166107239092919063ffffffff16565b5b505050565b6107ef838473ffffffffffffffffffffffffffffffffffffffff1663a9059cbb905060e01b8484604051602401808373ffffffffffffffffffffffffffffffffffffffff1673ffffffffffffffffffffffffffffffffffffffff16815260200182815260200192505050604051602081830303815290604052907bffffffffffffffffffffffffffffffffffffffffffffffffffffffff19166020820180517bffffffffffffffffffffffffffffffffffffffffffffffffffffffff83818316178352505050506107f4565b505050565b6108138273ffffffffffffffffffffffffffffffffffffffff16610a3f565b610885576040517f08c379a000000000000000000000000000000000000000000000000000000000815260040180806020018281038252601f8152602001807f5361666545524332303a2063616c6c20746f206e6f6e2d636f6e74726163740081525060200191505060405180910390fd5b600060608373ffffffffffffffffffffffffffffffffffffffff16836040518082805190602001908083835b602083106108d457805182526020820191506020810190506020830392506108b1565b6001836020036101000a0380198251168184511680821785525050505050509050019150506000604051808303816000865af19150503d8060008114610936576040519150601f19603f3d011682016040523d82523d6000602084013e61093b565b606091505b5091509150816109b3576040517f08c379a00000000000000000000000000000000000000000000000000000000081526004018080602001828103825260208152602001807f5361666545524332303a206c6f772d6c6576656c2063616c6c206661696c656481525060200191505060405180910390fd5b600081511115610a39578080602001905160208110156109d257600080fd5b8101908080519060200190929190505050610a38576040517f08c379a000000000000000000000000000000000000000000000000000000000815260040180806020018281038252602a815260200180610a8b602a913960400191505060405180910390fd5b5b50505050565b60008060007fc5d2460186f7233c927e7db2dcc703c0e500b653ca82273b7bfad8045d85a47060001b9050833f91506000801b8214158015610a815750808214155b9250505091905056fe5361666545524332303a204552433230206f7065726174696f6e20646964206e6f742073756363656564a165627a7a72305820e64a0003cedcb75bf531d1d01eee07219361068080e5d8463dc21afcbfdf56150029",
  "source": "pragma solidity ^0.5.0;\n\nimport \"openzeppelin-solidity/contracts/math/SafeMath.sol\";\n\nimport \"./mocks/tokens/MintableERC20.sol\";\nimport \"./flashloan/base/FlashLoanReceiverBase.sol\";\nimport \"./configuration/LendingPoolAddressesProvider.sol\";\nimport \"./configuration/NetworkMetadataProvider.sol\";\n\ncontract FlashLoanReceiverExample is FlashLoanReceiverBase {\n\n    using SafeMath for uint256;\n\n    // Events\n    event borrowMade(address _reserve, uint256 _amount , uint256 _value);\n\n\n    constructor(LendingPoolAddressesProvider _provider) FlashLoanReceiverBase(_provider)\n        public {}\n\n\n    function executeOperation(\n        address _reserve,\n        uint256 _amount,\n        uint256 _fee) external returns(uint256 returnedAmount) {\n\n        //check the contract has the specified balance\n        require(_amount <= getBalanceInternal(address(this), _reserve),\n            \"Invalid balance for the contract\");\n\n        /**\n\n        CUSTOM ACTION TO PERFORM WITH THE BORROWED LIQUIDITY\n\n        */\n        emit borrowMade(_reserve, _amount , address(this).balance);\n\n        transferFundsBackToPoolInternal(_reserve, _amount.add(_fee));\n        return _amount.add(_fee);\n    }\n}\n",
  "sourcePath": "/Users/jg/Documents/aaveBot/contracts/FlashLoanReceiverExample.sol",
  "compiler": {
    "name": "solc",
    "version": "0.5.8+commit.23d335f2.Emscripten.clang"
  },
  "schemaVersion": "3.0.16",
  "updatedAt": "2019-11-08T10:19:44.818Z",
  "devdoc": {
    "methods": {}
  },
  "userdoc": {
    "methods": {}
  }
}