{
  "contractName": "KyberUniArbContract",
  "abi": [
    {
      "constant": true,
      "inputs": [],
      "name": "owner",
      "outputs": [
        {
          "name": "",
          "type": "address"
        }
      ],
      "payable": false,
      "stateMutability": "view",
      "type": "function"
    },
    {
      "inputs": [],
      "payable": false,
      "stateMutability": "nonpayable",
      "type": "constructor"
    },
    {
      "anonymous": false,
      "inputs": [
        {
          "indexed": false,
          "name": "trader",
          "type": "address"
        },
        {
          "indexed": false,
          "name": "tokens",
          "type": "uint256"
        },
        {
          "indexed": false,
          "name": "token_bought",
          "type": "uint256"
        }
      ],
      "name": "ethToToken",
      "type": "event"
    },
    {
      "anonymous": false,
      "inputs": [
        {
          "indexed": false,
          "name": "trader",
          "type": "address"
        },
        {
          "indexed": false,
          "name": "ethToBuy",
          "type": "uint256"
        },
        {
          "indexed": false,
          "name": "maxTokensSell",
          "type": "uint256"
        },
        {
          "indexed": false,
          "name": "tokens_sold",
          "type": "uint256"
        }
      ],
      "name": "tokenToEth",
      "type": "event"
    },
    {
      "constant": false,
      "inputs": [
        {
          "name": "tokenAddress",
          "type": "address"
        },
        {
          "name": "exchangeAddress",
          "type": "address"
        },
        {
          "name": "amount",
          "type": "uint256"
        }
      ],
      "name": "approveToken",
      "outputs": [],
      "payable": false,
      "stateMutability": "nonpayable",
      "type": "function"
    },
    {
      "constant": false,
      "inputs": [
        {
          "name": "kyberExchangeAddress",
          "type": "address"
        },
        {
          "name": "tokenAddress",
          "type": "address"
        },
        {
          "name": "kyberMinConversionRate",
          "type": "uint256"
        },
        {
          "name": "uniSwapExchangeAddress",
          "type": "address"
        },
        {
          "name": "ethToSell",
          "type": "uint256"
        },
        {
          "name": "maxTokensSell",
          "type": "uint256"
        },
        {
          "name": "sellDeadline",
          "type": "uint256"
        },
        {
          "name": "ethToBuy",
          "type": "uint256"
        }
      ],
      "name": "trade",
      "outputs": [],
      "payable": true,
      "stateMutability": "payable",
      "type": "function"
    }
  ],
  "bytecode": "0x608060405234801561001057600080fd5b50336000806101000a81548173ffffffffffffffffffffffffffffffffffffffff021916908373ffffffffffffffffffffffffffffffffffffffff1602179055506106c2806100606000396000f3fe6080604052600436106100345760003560e01c80635a1b2c78146100395780638da5cb5b146100f0578063da3e339714610147575b600080fd5b6100ee600480360361010081101561005057600080fd5b81019080803573ffffffffffffffffffffffffffffffffffffffff169060200190929190803573ffffffffffffffffffffffffffffffffffffffff16906020019092919080359060200190929190803573ffffffffffffffffffffffffffffffffffffffff169060200190929190803590602001909291908035906020019092919080359060200190929190803590602001909291905050506101c2565b005b3480156100fc57600080fd5b506101056104e1565b604051808273ffffffffffffffffffffffffffffffffffffffff1673ffffffffffffffffffffffffffffffffffffffff16815260200191505060405180910390f35b34801561015357600080fd5b506101c06004803603606081101561016a57600080fd5b81019080803573ffffffffffffffffffffffffffffffffffffffff169060200190929190803573ffffffffffffffffffffffffffffffffffffffff16906020019092919080359060200190929190505050610506565b005b83341015610238576040517f08c379a00000000000000000000000000000000000000000000000000000000081526004018080602001828103825260138152602001807f4e6f7420456e6f756768204574682053656e740000000000000000000000000081525060200191505060405180910390fd5b6000889050600088905060008273ffffffffffffffffffffffffffffffffffffffff16637a2a045688848c6040518463ffffffff1660e01b8152600401808373ffffffffffffffffffffffffffffffffffffffff1673ffffffffffffffffffffffffffffffffffffffff168152602001828152602001925050506020604051808303818588803b1580156102cb57600080fd5b505af11580156102df573d6000803e3d6000fd5b50505050506040513d60208110156102f657600080fd5b810190808051906020019092919050505090507fef501080e89b7bbe29cfb8e1eb48a349f22c4777a3c85d770104c8a80f45b68d338883604051808473ffffffffffffffffffffffffffffffffffffffff1673ffffffffffffffffffffffffffffffffffffffff168152602001838152602001828152602001935050505060405180910390a1600088905060008173ffffffffffffffffffffffffffffffffffffffff1663d4e4841d878a8a336040518563ffffffff1660e01b8152600401808581526020018481526020018381526020018273ffffffffffffffffffffffffffffffffffffffff1673ffffffffffffffffffffffffffffffffffffffff168152602001945050505050602060405180830381600087803b15801561041a57600080fd5b505af115801561042e573d6000803e3d6000fd5b505050506040513d602081101561044457600080fd5b810190808051906020019092919050505090507fe9c245f1c1a4a7a621218231e7ed679594b1c02c80e4fe05a465ecb46dc37f4733878a84604051808573ffffffffffffffffffffffffffffffffffffffff1673ffffffffffffffffffffffffffffffffffffffff16815260200184815260200183815260200182815260200194505050505060405180910390a150505050505050505050505050565b6000809054906101000a900473ffffffffffffffffffffffffffffffffffffffff1681565b6000809054906101000a900473ffffffffffffffffffffffffffffffffffffffff1673ffffffffffffffffffffffffffffffffffffffff163373ffffffffffffffffffffffffffffffffffffffff16146105c8576040517f08c379a00000000000000000000000000000000000000000000000000000000081526004018080602001828103825260168152602001807f4f6e6c79204f776e65722043616e20417070726f76650000000000000000000081525060200191505060405180910390fd5b60008390508073ffffffffffffffffffffffffffffffffffffffff1663095ea7b384846040518363ffffffff1660e01b8152600401808373ffffffffffffffffffffffffffffffffffffffff1673ffffffffffffffffffffffffffffffffffffffff16815260200182815260200192505050602060405180830381600087803b15801561065457600080fd5b505af1158015610668573d6000803e3d6000fd5b505050506040513d602081101561067e57600080fd5b8101908080519060200190929190505050505050505056fea165627a7a7230582022a23b80193dd2aaa8f3a88fa68862ddf54b0b9e430fea47dbc18d8d382cdd680029",
  "source": "pragma solidity ^0.5.0;\n\nimport \"./UniswapExchange.sol\";\nimport \"./ERC20Token.sol\";\nimport \"./KyberNetworkProxy.sol\";\n\ncontract KyberUniArbContract {\n  // Variable to hold owner of contract. Set on deploy.\n  address public owner;\n\n  // Events\n  event ethToToken(address trader, uint256 tokens, uint256 token_bought);\n  event tokenToEth(address trader, uint256 ethToBuy, uint256 maxTokensSell, uint256 tokens_sold);\n\n  /**\n   * @dev Contract constructor. Set owner of contract as deployer.\n   */\n  constructor() public {\n    owner = msg.sender;\n  }\n\n  /**\n   * @dev Approves UniSwap exchange to transfer tokens from contract.\n   * @param tokenAddress Address of the token to approve\n   * @param exchangeAddress UniSwap Exchange address\n   * @param amount Token amount to approve\n   */\n  function approveToken(address tokenAddress, address exchangeAddress, uint amount) public {\n    require(msg.sender == owner, \"Only Owner Can Approve\");\n    ERC20Token token = ERC20Token(tokenAddress);\n    token.approve(exchangeAddress, amount);\n  }\n\n  /**\n   * @dev Executes trade.\n   * @param kyberExchangeAddress Kyber network address\n   * @param tokenAddress Address of the token that is being traded\n   * @param kyberMinConversionRate Min conversion rate for Kyber\n   * @param uniSwapExchangeAddress UniSwap exchange address\n   * @param ethToSell Amount of Eth that is being traded via Kyber. Should be sent as value too.\n   * @param maxTokensSell Maximum ERC20 tokens sold in Uniswap trade.\n   * @param sellDeadline Uniswap transaction deadline.\n   * @param ethToBuy Amount of Eth bought in Uniswap trade.\n   */\n  function trade(\n    address kyberExchangeAddress,\n    address tokenAddress,\n    uint256 kyberMinConversionRate,\n    address uniSwapExchangeAddress,\n    uint256 ethToSell,\n    uint256 maxTokensSell,\n    uint256 sellDeadline,\n    uint256 ethToBuy\n  ) public\n    payable\n  {\n    require(msg.value >= ethToSell, \"Not Enough Eth Sent\");\n    // check approval\n\n    KyberNetworkProxy kyberExchange = KyberNetworkProxy(kyberExchangeAddress);\n    ERC20Token token = ERC20Token(tokenAddress);\n\n    // Swaps Eth for Token via Kyber Exchange\n    uint256 token_bought = kyberExchange.swapEtherToToken.value(ethToSell)(token, kyberMinConversionRate);\n    emit ethToToken(msg.sender, ethToSell, token_bought);\n\n    // Swaps token to Eth and transfers Eth to msg sender address\n    UniswapExchange uniSwapExchange = UniswapExchange(uniSwapExchangeAddress);\n    uint256 tokens_sold = uniSwapExchange.tokenToEthTransferOutput(ethToBuy, maxTokensSell, sellDeadline, msg.sender);\n    emit tokenToEth(msg.sender, ethToBuy, maxTokensSell, tokens_sold);\n  }\n}\n",
  "sourcePath": "/Users/jg/Documents/aaveBot/contracts/KyberUniArbContract.sol",
  "compiler": {
    "name": "solc",
    "version": "0.5.8+commit.23d335f2.Emscripten.clang"
  },
  "schemaVersion": "3.0.16",
  "updatedAt": "2019-11-04T18:56:07.476Z",
  "devdoc": {
    "methods": {
      "approveToken(address,address,uint256)": {
        "details": "Approves UniSwap exchange to transfer tokens from contract.",
        "params": {
          "amount": "Token amount to approve",
          "exchangeAddress": "UniSwap Exchange address",
          "tokenAddress": "Address of the token to approve"
        }
      },
      "constructor": {
        "details": "Contract constructor. Set owner of contract as deployer."
      },
      "trade(address,address,uint256,address,uint256,uint256,uint256,uint256)": {
        "details": "Executes trade.",
        "params": {
          "ethToBuy": "Amount of Eth bought in Uniswap trade.",
          "ethToSell": "Amount of Eth that is being traded via Kyber. Should be sent as value too.",
          "kyberExchangeAddress": "Kyber network address",
          "kyberMinConversionRate": "Min conversion rate for Kyber",
          "maxTokensSell": "Maximum ERC20 tokens sold in Uniswap trade.",
          "sellDeadline": "Uniswap transaction deadline.",
          "tokenAddress": "Address of the token that is being traded",
          "uniSwapExchangeAddress": "UniSwap exchange address"
        }
      }
    }
  },
  "userdoc": {
    "methods": {}
  }
}