{
  "contractName": "LendingPoolLiquidationManager",
  "abi": [
    {
      "constant": true,
      "inputs": [],
      "name": "addressesProvider",
      "outputs": [
        {
          "name": "",
          "type": "address"
        }
      ],
      "payable": false,
      "stateMutability": "view",
      "type": "function"
    },
    {
      "anonymous": false,
      "inputs": [],
      "name": "LiquidationCompleted",
      "type": "event"
    },
    {
      "constant": false,
      "inputs": [
        {
          "name": "_collateral",
          "type": "address"
        },
        {
          "name": "_reserve",
          "type": "address"
        },
        {
          "name": "_user",
          "type": "address"
        },
        {
          "name": "_purchaseAmount",
          "type": "uint256"
        },
        {
          "name": "_receiveAToken",
          "type": "bool"
        }
      ],
      "name": "liquidationCall",
      "outputs": [
        {
          "name": "",
          "type": "uint256"
        },
        {
          "name": "",
          "type": "string"
        }
      ],
      "payable": true,
      "stateMutability": "payable",
      "type": "function"
    }
  ],
  "bytecode": "0x608060405260016000819055506123da8061001b6000396000f3fe6080604052600436106100285760003560e01c8062a718a91461002d578063c72c4d1014610147575b600080fd5b6100c5600480360360a081101561004357600080fd5b81019080803573ffffffffffffffffffffffffffffffffffffffff169060200190929190803573ffffffffffffffffffffffffffffffffffffffff169060200190929190803573ffffffffffffffffffffffffffffffffffffffff1690602001909291908035906020019092919080351515906020019092919050505061019e565b6040518083815260200180602001828103825283818151815260200191508051906020019080838360005b8381101561010b5780820151818401526020810190506100f0565b50505050905090810190601f1680156101385780820380516001836020036101000a031916815260200191505b50935050505060405180910390f35b34801561015357600080fd5b5061015c611b86565b604051808273ffffffffffffffffffffffffffffffffffffffff1673ffffffffffffffffffffffffffffffffffffffff16815260200191505060405180910390f35b600060606101aa612252565b600360009054906101000a900473ffffffffffffffffffffffffffffffffffffffff1673ffffffffffffffffffffffffffffffffffffffff16632c6d0e9b876040518263ffffffff1660e01b8152600401808273ffffffffffffffffffffffffffffffffffffffff1673ffffffffffffffffffffffffffffffffffffffff16815260200191505060c06040518083038186803b15801561024957600080fd5b505afa15801561025d573d6000803e3d6000fd5b505050506040513d60c081101561027357600080fd5b810190808051906020019092919080519060200190929190805190602001909291908051906020019092919080519060200190929190805190602001909291905050509091929394509091929350909192509091509050816000018181525050600360009054906101000a900473ffffffffffffffffffffffffffffffffffffffff1673ffffffffffffffffffffffffffffffffffffffff16633e44bee86040518163ffffffff1660e01b815260040160206040518083038186803b15801561033b57600080fd5b505afa15801561034f573d6000803e3d6000fd5b505050506040513d602081101561036557600080fd5b81019080805190602001909291905050508160000151106103b0576004600581111561038d57fe5b60405180606001604052806028815260200161235d602891399250925050611b7c565b600360009054906101000a900473ffffffffffffffffffffffffffffffffffffffff1673ffffffffffffffffffffffffffffffffffffffff166318a4dbca89886040518363ffffffff1660e01b8152600401808373ffffffffffffffffffffffffffffffffffffffff1673ffffffffffffffffffffffffffffffffffffffff1681526020018273ffffffffffffffffffffffffffffffffffffffff1673ffffffffffffffffffffffffffffffffffffffff1681526020019250505060206040518083038186803b15801561048357600080fd5b505afa158015610497573d6000803e3d6000fd5b505050506040513d60208110156104ad57600080fd5b810190808051906020019092919050505081602001818152505060008160200151141561052157600160058111156104e157fe5b6040518060400160405280601f81526020017f496e76616c696420636f6c6c61746572616c20746f206c6971756964617465008152509250925050611b7c565b600260009054906101000a900473ffffffffffffffffffffffffffffffffffffffff1673ffffffffffffffffffffffffffffffffffffffff166318f9bbae896040518263ffffffff1660e01b8152600401808273ffffffffffffffffffffffffffffffffffffffff1673ffffffffffffffffffffffffffffffffffffffff16815260200191505060206040518083038186803b1580156105c057600080fd5b505afa1580156105d4573d6000803e3d6000fd5b505050506040513d60208110156105ea57600080fd5b8101908080519060200190929190505050806107115750600260009054906101000a900473ffffffffffffffffffffffffffffffffffffffff1673ffffffffffffffffffffffffffffffffffffffff16639e3c4f3b89886040518363ffffffff1660e01b8152600401808373ffffffffffffffffffffffffffffffffffffffff1673ffffffffffffffffffffffffffffffffffffffff1681526020018273ffffffffffffffffffffffffffffffffffffffff1673ffffffffffffffffffffffffffffffffffffffff1681526020019250505060206040518083038186803b1580156106d457600080fd5b505afa1580156106e8573d6000803e3d6000fd5b505050506040513d60208110156106fe57600080fd5b8101908080519060200190929190505050155b8161014001901515908115158152505080610140015161075b576002600581111561073857fe5b6040518060600160405280602b81526020016122de602b91399250925050611b7c565b600260009054906101000a900473ffffffffffffffffffffffffffffffffffffffff1673ffffffffffffffffffffffffffffffffffffffff16639fb8afcd88886040518363ffffffff1660e01b8152600401808373ffffffffffffffffffffffffffffffffffffffff1673ffffffffffffffffffffffffffffffffffffffff1681526020018273ffffffffffffffffffffffffffffffffffffffff1673ffffffffffffffffffffffffffffffffffffffff1681526020019250505060606040518083038186803b15801561082e57600080fd5b505afa158015610842573d6000803e3d6000fd5b505050506040513d606081101561085857600080fd5b810190808051906020019092919080519060200190929190805190602001909291905050509091508260400183606001828152508281525050506000816040015114156108cf57600360058111156108ac57fe5b6040518060600160405280602a8152602001612385602a91399250925050611b7c565b6108fa60646108ec60328460400151611bac90919063ffffffff16565b611c3290919063ffffffff16565b81608001818152505080608001518511610914578461091a565b80608001515b8160a001818152505060008061093a8a8a8560a001518660200151611c7c565b915091508260a0015181101561095557808360a00181815250505b85610a73576000600260009054906101000a900473ffffffffffffffffffffffffffffffffffffffff1673ffffffffffffffffffffffffffffffffffffffff1663e24030198c6040518263ffffffff1660e01b8152600401808273ffffffffffffffffffffffffffffffffffffffff1673ffffffffffffffffffffffffffffffffffffffff16815260200191505060206040518083038186803b1580156109fb57600080fd5b505afa158015610a0f573d6000803e3d6000fd5b505050506040513d6020811015610a2557600080fd5b81019080805190602001909291905050509050828110610a7157600580811115610a4b57fe5b60405180606001604052806033815260200161232a603391399550955050505050611b7c565b505b600260009054906101000a900473ffffffffffffffffffffffffffffffffffffffff1673ffffffffffffffffffffffffffffffffffffffff166348dfc16e8a6040518263ffffffff1660e01b8152600401808273ffffffffffffffffffffffffffffffffffffffff1673ffffffffffffffffffffffffffffffffffffffff168152602001915050600060405180830381600087803b158015610b1457600080fd5b505af1158015610b28573d6000803e3d6000fd5b505050506000600260009054906101000a900473ffffffffffffffffffffffffffffffffffffffff1673ffffffffffffffffffffffffffffffffffffffff16631ca19f198b8b6040518363ffffffff1660e01b8152600401808373ffffffffffffffffffffffffffffffffffffffff1673ffffffffffffffffffffffffffffffffffffffff1681526020018273ffffffffffffffffffffffffffffffffffffffff1673ffffffffffffffffffffffffffffffffffffffff1681526020019250505060206040518083038186803b158015610c0157600080fd5b505afa158015610c15573d6000803e3d6000fd5b505050506040513d6020811015610c2b57600080fd5b81019080805190602001909291905050509050600260009054906101000a900473ffffffffffffffffffffffffffffffffffffffff1673ffffffffffffffffffffffffffffffffffffffff16638e65a6b08b86606001516040518363ffffffff1660e01b8152600401808373ffffffffffffffffffffffffffffffffffffffff1673ffffffffffffffffffffffffffffffffffffffff16815260200182815260200192505050600060405180830381600087803b158015610ceb57600080fd5b505af1158015610cff573d6000803e3d6000fd5b5050505060006001811115610d1057fe5b816001811115610d1c57fe5b1415610f1d576000600260009054906101000a900473ffffffffffffffffffffffffffffffffffffffff1673ffffffffffffffffffffffffffffffffffffffff166344e636b78c8c6040518363ffffffff1660e01b8152600401808373ffffffffffffffffffffffffffffffffffffffff1673ffffffffffffffffffffffffffffffffffffffff1681526020018273ffffffffffffffffffffffffffffffffffffffff1673ffffffffffffffffffffffffffffffffffffffff1681526020019250505060206040518083038186803b158015610df757600080fd5b505afa158015610e0b573d6000803e3d6000fd5b505050506040513d6020811015610e2157600080fd5b81019080805190602001909291905050509050600260009054906101000a900473ffffffffffffffffffffffffffffffffffffffff1673ffffffffffffffffffffffffffffffffffffffff1663b6e1f7028c610e8e88606001518960a0015161208290919063ffffffff16565b846040518463ffffffff1660e01b8152600401808473ffffffffffffffffffffffffffffffffffffffff1673ffffffffffffffffffffffffffffffffffffffff1681526020018381526020018281526020019350505050600060405180830381600087803b158015610eff57600080fd5b505af1158015610f13573d6000803e3d6000fd5b5050505050610ff9565b600260009054906101000a900473ffffffffffffffffffffffffffffffffffffffff1673ffffffffffffffffffffffffffffffffffffffff1663cc6ae7638b610f7787606001518860a0015161208290919063ffffffff16565b6040518363ffffffff1660e01b8152600401808373ffffffffffffffffffffffffffffffffffffffff1673ffffffffffffffffffffffffffffffffffffffff16815260200182815260200192505050600060405180830381600087803b158015610fe057600080fd5b505af1158015610ff4573d6000803e3d6000fd5b505050505b600260009054906101000a900473ffffffffffffffffffffffffffffffffffffffff1673ffffffffffffffffffffffffffffffffffffffff166342bbd6538b6040518263ffffffff1660e01b8152600401808273ffffffffffffffffffffffffffffffffffffffff1673ffffffffffffffffffffffffffffffffffffffff168152602001915050600060405180830381600087803b15801561109a57600080fd5b505af11580156110ae573d6000803e3d6000fd5b50505050600260009054906101000a900473ffffffffffffffffffffffffffffffffffffffff1673ffffffffffffffffffffffffffffffffffffffff16632717cbfb8b6040518263ffffffff1660e01b8152600401808273ffffffffffffffffffffffffffffffffffffffff1673ffffffffffffffffffffffffffffffffffffffff168152602001915050600060405180830381600087803b15801561115357600080fd5b505af1158015611167573d6000803e3d6000fd5b50505050600260009054906101000a900473ffffffffffffffffffffffffffffffffffffffff1673ffffffffffffffffffffffffffffffffffffffff1663a37b19578b8b6111c688606001518960a0015161208290919063ffffffff16565b6040518463ffffffff1660e01b8152600401808473ffffffffffffffffffffffffffffffffffffffff1673ffffffffffffffffffffffffffffffffffffffff1681526020018373ffffffffffffffffffffffffffffffffffffffff1673ffffffffffffffffffffffffffffffffffffffff1681526020018281526020019350505050600060405180830381600087803b15801561126257600080fd5b505af1158015611276573d6000803e3d6000fd5b50505050600260009054906101000a900473ffffffffffffffffffffffffffffffffffffffff1673ffffffffffffffffffffffffffffffffffffffff1663405300df8b8b6040518363ffffffff1660e01b8152600401808373ffffffffffffffffffffffffffffffffffffffff1673ffffffffffffffffffffffffffffffffffffffff1681526020018273ffffffffffffffffffffffffffffffffffffffff1673ffffffffffffffffffffffffffffffffffffffff16815260200192505050600060405180830381600087803b15801561134f57600080fd5b505af1158015611363573d6000803e3d6000fd5b50505050600260009054906101000a900473ffffffffffffffffffffffffffffffffffffffff1673ffffffffffffffffffffffffffffffffffffffff166348dfc16e8c6040518263ffffffff1660e01b8152600401808273ffffffffffffffffffffffffffffffffffffffff1673ffffffffffffffffffffffffffffffffffffffff168152602001915050600060405180830381600087803b15801561140857600080fd5b505af115801561141c573d6000803e3d6000fd5b505050506000600260009054906101000a900473ffffffffffffffffffffffffffffffffffffffff1673ffffffffffffffffffffffffffffffffffffffff166334b3beee8d6040518263ffffffff1660e01b8152600401808273ffffffffffffffffffffffffffffffffffffffff1673ffffffffffffffffffffffffffffffffffffffff16815260200191505060206040518083038186803b1580156114c157600080fd5b505afa1580156114d5573d6000803e3d6000fd5b505050506040513d60208110156114eb57600080fd5b8101908080519060200190929190505050905060008173ffffffffffffffffffffffffffffffffffffffff1663b32d4610866040518263ffffffff1660e01b81526004018082815260200191505060206040518083038186803b15801561155157600080fd5b505afa158015611565573d6000803e3d6000fd5b505050506040513d602081101561157b57600080fd5b81019080805190602001909291905050509050881561166c578173ffffffffffffffffffffffffffffffffffffffff1663f866c3198c33846040518463ffffffff1660e01b8152600401808473ffffffffffffffffffffffffffffffffffffffff1673ffffffffffffffffffffffffffffffffffffffff1681526020018373ffffffffffffffffffffffffffffffffffffffff1673ffffffffffffffffffffffffffffffffffffffff1681526020018281526020019350505050600060405180830381600087803b15801561164f57600080fd5b505af1158015611663573d6000803e3d6000fd5b5050505061197b565b8173ffffffffffffffffffffffffffffffffffffffff16633edb7cb88c836040518363ffffffff1660e01b8152600401808373ffffffffffffffffffffffffffffffffffffffff1673ffffffffffffffffffffffffffffffffffffffff16815260200182815260200192505050600060405180830381600087803b1580156116f357600080fd5b505af1158015611707573d6000803e3d6000fd5b50505050600260009054906101000a900473ffffffffffffffffffffffffffffffffffffffff1673ffffffffffffffffffffffffffffffffffffffff1663352ed9d48e876040518363ffffffff1660e01b8152600401808373ffffffffffffffffffffffffffffffffffffffff1673ffffffffffffffffffffffffffffffffffffffff16815260200182815260200192505050600060405180830381600087803b1580156117b457600080fd5b505af11580156117c8573d6000803e3d6000fd5b50505050600260009054906101000a900473ffffffffffffffffffffffffffffffffffffffff1673ffffffffffffffffffffffffffffffffffffffff166342bbd6538e6040518263ffffffff1660e01b8152600401808273ffffffffffffffffffffffffffffffffffffffff1673ffffffffffffffffffffffffffffffffffffffff168152602001915050600060405180830381600087803b15801561186d57600080fd5b505af1158015611881573d6000803e3d6000fd5b50505050600260009054906101000a900473ffffffffffffffffffffffffffffffffffffffff1673ffffffffffffffffffffffffffffffffffffffff1663fa93b2a58e33886040518463ffffffff1660e01b8152600401808473ffffffffffffffffffffffffffffffffffffffff1673ffffffffffffffffffffffffffffffffffffffff1681526020018373ffffffffffffffffffffffffffffffffffffffff1673ffffffffffffffffffffffffffffffffffffffff1681526020018281526020019350505050600060405180830381600087803b15801561196257600080fd5b505af1158015611976573d6000803e3d6000fd5b505050505b600260009054906101000a900473ffffffffffffffffffffffffffffffffffffffff1673ffffffffffffffffffffffffffffffffffffffff16632717cbfb8e6040518263ffffffff1660e01b8152600401808273ffffffffffffffffffffffffffffffffffffffff1673ffffffffffffffffffffffffffffffffffffffff168152602001915050600060405180830381600087803b158015611a1c57600080fd5b505af1158015611a30573d6000803e3d6000fd5b50505050600260009054906101000a900473ffffffffffffffffffffffffffffffffffffffff1673ffffffffffffffffffffffffffffffffffffffff166328fcf4d3348e338a60a001516040518563ffffffff1660e01b8152600401808473ffffffffffffffffffffffffffffffffffffffff1673ffffffffffffffffffffffffffffffffffffffff1681526020018373ffffffffffffffffffffffffffffffffffffffff1673ffffffffffffffffffffffffffffffffffffffff16815260200182815260200193505050506000604051808303818588803b158015611b1557600080fd5b505af1158015611b29573d6000803e3d6000fd5b505050505060006005811115611b3b57fe5b6040518060400160405280600981526020017f4e6f206572726f72730000000000000000000000000000000000000000000000815250975097505050505050505b9550959350505050565b600160009054906101000a900473ffffffffffffffffffffffffffffffffffffffff1681565b600080831415611bbf5760009050611c2c565b6000828402905082848281611bd057fe5b0414611c27576040517f08c379a00000000000000000000000000000000000000000000000000000000081526004018080602001828103825260218152602001806123096021913960400191505060405180910390fd5b809150505b92915050565b6000611c7483836040518060400160405280601a81526020017f536166654d6174683a206469766973696f6e206279207a65726f0000000000008152506120cc565b905092915050565b60008060009150600090506000600160009054906101000a900473ffffffffffffffffffffffffffffffffffffffff1673ffffffffffffffffffffffffffffffffffffffff1663fca513a86040518163ffffffff1660e01b815260040160206040518083038186803b158015611cf157600080fd5b505afa158015611d05573d6000803e3d6000fd5b505050506040513d6020811015611d1b57600080fd5b81019080805190602001909291905050509050611d366122ae565b8173ffffffffffffffffffffffffffffffffffffffff1663b3596f07896040518263ffffffff1660e01b8152600401808273ffffffffffffffffffffffffffffffffffffffff1673ffffffffffffffffffffffffffffffffffffffff16815260200191505060206040518083038186803b158015611db357600080fd5b505afa158015611dc7573d6000803e3d6000fd5b505050506040513d6020811015611ddd57600080fd5b81019080805190602001909291905050508160400181815250508173ffffffffffffffffffffffffffffffffffffffff1663b3596f07886040518263ffffffff1660e01b8152600401808273ffffffffffffffffffffffffffffffffffffffff1673ffffffffffffffffffffffffffffffffffffffff16815260200191505060206040518083038186803b158015611e7457600080fd5b505afa158015611e88573d6000803e3d6000fd5b505050506040513d6020811015611e9e57600080fd5b8101908080519060200190929190505050816060018181525050600260009054906101000a900473ffffffffffffffffffffffffffffffffffffffff1673ffffffffffffffffffffffffffffffffffffffff1663b77b1958896040518263ffffffff1660e01b8152600401808273ffffffffffffffffffffffffffffffffffffffff1673ffffffffffffffffffffffffffffffffffffffff16815260200191505060206040518083038186803b158015611f5757600080fd5b505afa158015611f6b573d6000803e3d6000fd5b505050506040513d6020811015611f8157600080fd5b8101908080519060200190929190505050816020018181525050611ff16064611fe38360200151611fd58560400151611fc78c8860600151611bac90919063ffffffff16565b611c3290919063ffffffff16565b611bac90919063ffffffff16565b611c3290919063ffffffff16565b81608001818152505084816080015111156120665784935061205f8160200151612051606461204385606001516120358a8860400151611bac90919063ffffffff16565b611c3290919063ffffffff16565b611bac90919063ffffffff16565b611c3290919063ffffffff16565b9250612071565b806080015193508592505b838393509350505094509492505050565b60006120c483836040518060400160405280601e81526020017f536166654d6174683a207375627472616374696f6e206f766572666c6f770000815250612192565b905092915050565b60008083118290612178576040517f08c379a00000000000000000000000000000000000000000000000000000000081526004018080602001828103825283818151815260200191508051906020019080838360005b8381101561213d578082015181840152602081019050612122565b50505050905090810190601f16801561216a5780820380516001836020036101000a031916815260200191505b509250505060405180910390fd5b50600083858161218457fe5b049050809150509392505050565b600083831115829061223f576040517f08c379a00000000000000000000000000000000000000000000000000000000081526004018080602001828103825283818151815260200191508051906020019080838360005b838110156122045780820151818401526020810190506121e9565b50505050905090810190601f1680156122315780820380516001836020036101000a031916815260200191505b509250505060405180910390fd5b5060008385039050809150509392505050565b604051806101600160405280600081526020016000815260200160008152602001600081526020016000815260200160008152602001600081526020016000815260200160008152602001600081526020016000151581525090565b6040518060a001604052806000815260200160008152602001600081526020016000815260200160008152509056fe54686520636f6c6c61746572616c2063686f73656e2063616e6e6f74206265206c69757175696461746564536166654d6174683a206d756c7469706c69636174696f6e206f766572666c6f7754686572652069736e277420656e6f756768206c697175696469747920617661696c61626c6520746f206c69717569646174654865616c746820666163746f72206973206e6f742062656c6f7720746865207468726573686f6c645573657220646964206e6f7420626f72726f7720746865207370656369666965642063757272656e6379a165627a7a72305820d0d19ed836a5e8b1a519ebd841d422340c7c9e4227eb7b8854518c2f2802a3030029",
  "source": "pragma solidity ^0.5.0;\n\n\nimport \"openzeppelin-solidity/contracts/math/SafeMath.sol\";\nimport \"openzeppelin-solidity/contracts/utils/ReentrancyGuard.sol\";\nimport \"openzeppelin-solidity/contracts/utils/Address.sol\";\nimport \"openzeppelin-solidity/contracts/token/ERC20/IERC20.sol\";\n\nimport \"../configuration/LendingPoolAddressesProvider.sol\";\nimport \"../configuration/LendingPoolParametersProvider.sol\";\nimport \"../configuration/NetworkMetadataProvider.sol\";\nimport \"../tokenization/AToken.sol\";\nimport \"../libraries/CoreLibrary.sol\";\nimport \"../libraries/WadRayMath.sol\";\nimport \"../interfaces/IFeeProvider.sol\";\nimport \"../flashloan/interfaces/IFlashLoanReceiver.sol\";\nimport \"./LendingPoolCore.sol\";\nimport \"./LendingPoolDataProvider.sol\";\n\n\n\n/*************************************************************************************\n@title LiquidationManager contract\n@author Aave\n@notice Implements the actions of the LendingPool, and exposes accessory methods to access the core information\n *************************************************************************************/\n\n\ncontract LendingPoolLiquidationManager is ReentrancyGuard {\n\n    using SafeMath for uint256;\n    using WadRayMath for uint256;\n    using Address for address payable;\n\n    LendingPoolAddressesProvider public addressesProvider;\n    LendingPoolCore core;\n    LendingPoolDataProvider dataProvider;\n    LendingPoolParametersProvider parametersProvider;\n\n\n    uint256 constant LIQUIDATION_CLOSE_FACTOR_PERCENT = 50;\n    enum LiquidationErrors {\n        NO_ERROR,\n        NO_COLLATERAL_AVAILABLE,\n        COLLATERAL_CANNOT_BE_LIQUIDATED,\n        CURRRENCY_NOT_BORROWED,\n        HEALTH_FACTOR_ABOVE_THRESHOLD,\n        NOT_ENOUGH_LIQUIDITY\n    }\n\n    event LiquidationCompleted();\n\n    struct LiquidationCallLocalVars{\n        uint256 healthFactor;\n        uint256 userCollateralBalance;\n        uint256 userCompoundedBorrowBalance;\n        uint256 borrowBalanceIncrease;\n        uint256 maxPrincipalAmountToLiquidate;\n        uint256 actualAmountToLiquidate;\n        uint256 liquidationRatio;\n        uint256 collateralPrice;\n        uint256 principalCurrencyPrice;\n        uint256 maxAmountCollateralToLiquidate;\n        bool isCollateralEnabled;\n\n    }\n\n   /**\n    * @notice implements loan liquidation\n    * @dev _receiveAToken allows the liquidators to receive the aTokens, instead of the underlying asset.\n    */\n    function liquidationCall(address _collateral, address _reserve, address _user, uint256 _purchaseAmount, bool _receiveAToken)\n       external\n        payable\n        returns(uint256, string memory)\n    {\n        LiquidationCallLocalVars memory vars;\n\n        (,,,,,vars.healthFactor) = dataProvider.calculateUserGlobalData(_user);\n\n        if(vars.healthFactor >= dataProvider.getHealthFactorLiquidationThreshold()){\n            return (uint256(LiquidationErrors.HEALTH_FACTOR_ABOVE_THRESHOLD), \"Health factor is not below the threshold\");\n        }\n\n        vars.userCollateralBalance = dataProvider.getUserUnderlyingAssetBalance(_collateral, _user);\n\n        //if _user hasn't deposited this specific collateral, nothing can be liquidated\n        if(vars.userCollateralBalance == 0) {\n            return (uint256(LiquidationErrors.NO_COLLATERAL_AVAILABLE), \"Invalid collateral to liquidate\");\n        }\n\n        vars.isCollateralEnabled = core.isReserveUsageAsCollateralEnabled(_collateral) ||\n            !core.isUserUseReserveAsCollateralEnabled(_collateral, _user);\n\n        //if _collateral isn't enabled as collateral by _user, it cannot be liquidated\n        if(!vars.isCollateralEnabled) {\n            return (uint256(LiquidationErrors.COLLATERAL_CANNOT_BE_LIQUIDATED), \"The collateral chosen cannot be liuquidated\");\n        }\n\n        //if the user hasn't borrowed the specific currency defined by _reserve, it cannot be liquidated\n        (,vars.userCompoundedBorrowBalance,vars.borrowBalanceIncrease) = core.getUserBorrowBalances(_reserve, _user);\n\n        if(vars.userCompoundedBorrowBalance == 0){\n            return (uint256(LiquidationErrors.CURRRENCY_NOT_BORROWED), \"User did not borrow the specified currency\");\n        }\n\n        //all clear - calculate the max principal amount that can be liquidated\n        vars.maxPrincipalAmountToLiquidate = vars.userCompoundedBorrowBalance.mul(LIQUIDATION_CLOSE_FACTOR_PERCENT).div(100);\n\n        vars.actualAmountToLiquidate = _purchaseAmount > vars.maxPrincipalAmountToLiquidate\n            ?\n            vars.maxPrincipalAmountToLiquidate\n            :\n            _purchaseAmount;\n\n        (uint256 maxCollateralToLiquidate,\n        uint256 principalAmountNeeded) = calculateAvailableCollateralToLiquidate(_collateral, _reserve, vars.actualAmountToLiquidate, vars.userCollateralBalance);\n\n        //if principalAmountNeeded < vars.ActualAmountToLiquidate, there isn't enough\n        //of _collateral to cover the actual amount that is being liquidated, hence we liquidate\n        //a smaller amount\n\n        if(principalAmountNeeded < vars.actualAmountToLiquidate){\n            vars.actualAmountToLiquidate = principalAmountNeeded;\n        }\n\n        //if liquidator reclaims the underlying asset, we make sure there is enough available collateral in the reserve\n        if(!_receiveAToken){\n            uint256 currentAvailableCollateral = core.getReserveAvailableLiquidity(_collateral);\n            if(currentAvailableCollateral >= maxCollateralToLiquidate){\n                return (uint256(LiquidationErrors.NOT_ENOUGH_LIQUIDITY), \"There isn't enough liquidity available to liquidate\");\n            }\n        }\n\n        //update principal reserve data\n        core.updateReserveCumulativeIndexes(_reserve);\n\n        CoreLibrary.InterestRateMode borrowRateMode = core.getUserCurrentBorrowRateMode(_reserve,_user);\n\n        core.increaseReserveTotalLiquidity(_reserve, vars.borrowBalanceIncrease);\n\n        if (borrowRateMode == CoreLibrary.InterestRateMode.FIXED) {\n            uint256 currentFixedRate = core.getUserCurrentFixedBorrowRate(_reserve, _user);\n            core.decreaseReserveTotalBorrowsFixedAndUpdateAverageRate(_reserve, vars.actualAmountToLiquidate.sub(vars.borrowBalanceIncrease), currentFixedRate);\n        } else {\n            core.decreaseReserveTotalBorrowsVariable(_reserve, vars.actualAmountToLiquidate.sub(vars.borrowBalanceIncrease));\n        }\n\n        core.updateReserveInterestRates(_reserve);\n        core.setReserveLastUpdate(_reserve);\n        //step 3: update user borrow data\n        core.decreaseUserPrincipalBorrowBalance(_reserve, _user, vars.actualAmountToLiquidate.sub(vars.borrowBalanceIncrease));\n        core.setUserLastUpdate(_reserve,_user);\n\n        //update collateral reserve\n        core.updateReserveCumulativeIndexes(_collateral);\n        AToken collateralAtoken = AToken(core.getReserveATokenAddress(_collateral));\n\n        //calculating aToken equivalent amount from vars.\n        uint256 aTokenCollateralToLiquidate = collateralAtoken.underlyingAmountToATokenAmount(maxCollateralToLiquidate);\n\n        //if liquidator reclaims the aToken, he receives the equivalent atoken amount\n        if(_receiveAToken) {\n            collateralAtoken.transferOnLiquidation(_user, msg.sender, aTokenCollateralToLiquidate);\n        }\n        else { //otherwise receives the underlying asset\n            //burn the equivalent amount of atoken\n            collateralAtoken.burnOnLiquidation(_user, aTokenCollateralToLiquidate);\n            core.decreaseReserveTotalLiquidity(_collateral, maxCollateralToLiquidate);\n            core.updateReserveInterestRates(_collateral);\n            core.transferToUser(_collateral, msg.sender, maxCollateralToLiquidate);\n         }\n\n        core.setReserveLastUpdate(_collateral);\n\n        //transfers the principal currency to the pool\n\n        core.transferToReserve.value(msg.value)(_reserve, msg.sender, vars.actualAmountToLiquidate);\n\n        return (uint256(LiquidationErrors.NO_ERROR), \"No errors\");\n    }\n\n\n\n    struct AvailableCollateralToLiquidateLocalVars{\n        uint256 userCompoundedBorrowBalance;\n        uint256 liquidationDiscount;\n        uint256 collateralPrice;\n        uint256 principalCurrencyPrice;\n        uint256 maxAmountCollateralToLiquidate;\n    }\n\n    /**\n    * @notice calculates how much of a specific collateral can be liquidated, given\n    * a certain amount of principal currency.\n    * @dev this function needs to be called after all the checks to validate the liquidation\n    * have been performed, otherwise it might fail.\n     */\n    function calculateAvailableCollateralToLiquidate(\n        address _collateral,\n        address _principal,\n        uint256 _purchaseAmount,\n        uint256 _userCollateralBalance) internal view returns(uint256 collateralAmount, uint256 principalAmountNeeded) {\n\n        collateralAmount = 0;\n        principalAmountNeeded = 0;\n        IPriceOracle oracle = IPriceOracle(addressesProvider.getPriceOracle());\n\n        AvailableCollateralToLiquidateLocalVars memory vars;\n\n        vars.collateralPrice = oracle.getAssetPrice(_collateral);\n        vars.principalCurrencyPrice = oracle.getAssetPrice(_principal);\n        vars.liquidationDiscount = core.getReserveLiquidationDiscount(_collateral);\n\n        //this is the maximum possible amount of the selected collateral that can be liquidated, given the\n        //max amount of principal currency that is available for liquidation.\n        vars.maxAmountCollateralToLiquidate = vars.principalCurrencyPrice.mul(_purchaseAmount)\n            .div(vars.collateralPrice)\n            .mul(vars.liquidationDiscount)\n            .div(100);\n\n        if(vars.maxAmountCollateralToLiquidate > _userCollateralBalance) {\n            collateralAmount = _userCollateralBalance;\n            principalAmountNeeded = vars.collateralPrice\n                .mul(collateralAmount)\n                .div(vars.principalCurrencyPrice)\n                .mul(100)\n                .div(vars.liquidationDiscount);\n        }\n        else{\n            collateralAmount = vars.maxAmountCollateralToLiquidate;\n            principalAmountNeeded = _purchaseAmount;\n        }\n\n        return (collateralAmount, principalAmountNeeded);\n    }\n}",
  "sourcePath": "/Users/jg/Documents/aaveBot/contracts/lendingpool/LendingPoolLiquidationManager.sol",
  "compiler": {
    "name": "solc",
    "version": "0.5.8+commit.23d335f2.Emscripten.clang"
  },
  "schemaVersion": "3.0.16",
  "updatedAt": "2019-11-07T20:00:22.344Z",
  "devdoc": {
    "author": "Aave",
    "methods": {
      "liquidationCall(address,address,address,uint256,bool)": {
        "details": "_receiveAToken allows the liquidators to receive the aTokens, instead of the underlying asset."
      }
    },
    "title": "LiquidationManager contract"
  },
  "userdoc": {
    "methods": {
      "liquidationCall(address,address,address,uint256,bool)": {
        "notice": "implements loan liquidation"
      }
    },
    "notice": "***********************************************************************************Implements the actions of the LendingPool, and exposes accessory methods to access the core information************************************************************************************"
  }
}