{
  "contractName": "LendingPoolCore",
  "abi": [
    {
      "constant": true,
      "inputs": [
        {
          "name": "",
          "type": "uint256"
        }
      ],
      "name": "reservesList",
      "outputs": [
        {
          "name": "",
          "type": "address"
        }
      ],
      "payable": false,
      "stateMutability": "view",
      "type": "function"
    },
    {
      "constant": false,
      "inputs": [],
      "name": "renounceOwnership",
      "outputs": [],
      "payable": false,
      "stateMutability": "nonpayable",
      "type": "function"
    },
    {
      "constant": true,
      "inputs": [],
      "name": "owner",
      "outputs": [
        {
          "name": "",
          "type": "address"
        }
      ],
      "payable": false,
      "stateMutability": "view",
      "type": "function"
    },
    {
      "constant": true,
      "inputs": [],
      "name": "isOwner",
      "outputs": [
        {
          "name": "",
          "type": "bool"
        }
      ],
      "payable": false,
      "stateMutability": "view",
      "type": "function"
    },
    {
      "constant": true,
      "inputs": [],
      "name": "addressesProvider",
      "outputs": [
        {
          "name": "",
          "type": "address"
        }
      ],
      "payable": false,
      "stateMutability": "view",
      "type": "function"
    },
    {
      "constant": false,
      "inputs": [
        {
          "name": "newOwner",
          "type": "address"
        }
      ],
      "name": "transferOwnership",
      "outputs": [],
      "payable": false,
      "stateMutability": "nonpayable",
      "type": "function"
    },
    {
      "inputs": [
        {
          "name": "_addressesProvider",
          "type": "address"
        }
      ],
      "payable": false,
      "stateMutability": "nonpayable",
      "type": "constructor"
    },
    {
      "payable": true,
      "stateMutability": "payable",
      "type": "fallback"
    },
    {
      "anonymous": false,
      "inputs": [
        {
          "indexed": true,
          "name": "previousOwner",
          "type": "address"
        },
        {
          "indexed": true,
          "name": "newOwner",
          "type": "address"
        }
      ],
      "name": "OwnershipTransferred",
      "type": "event"
    },
    {
      "constant": false,
      "inputs": [
        {
          "name": "_reserve",
          "type": "address"
        }
      ],
      "name": "updateReserveCumulativeIndexes",
      "outputs": [],
      "payable": false,
      "stateMutability": "nonpayable",
      "type": "function"
    },
    {
      "constant": false,
      "inputs": [
        {
          "name": "_reserve",
          "type": "address"
        },
        {
          "name": "_amount",
          "type": "uint256"
        }
      ],
      "name": "cumulateLiquidityToReserveLiquidityIndex",
      "outputs": [],
      "payable": false,
      "stateMutability": "nonpayable",
      "type": "function"
    },
    {
      "constant": false,
      "inputs": [
        {
          "name": "_reserve",
          "type": "address"
        }
      ],
      "name": "updateReserveInterestRates",
      "outputs": [],
      "payable": false,
      "stateMutability": "nonpayable",
      "type": "function"
    },
    {
      "constant": false,
      "inputs": [
        {
          "name": "_reserve",
          "type": "address"
        },
        {
          "name": "_amount",
          "type": "uint256"
        }
      ],
      "name": "increaseReserveTotalLiquidity",
      "outputs": [],
      "payable": false,
      "stateMutability": "nonpayable",
      "type": "function"
    },
    {
      "constant": false,
      "inputs": [
        {
          "name": "_reserve",
          "type": "address"
        },
        {
          "name": "_amount",
          "type": "uint256"
        }
      ],
      "name": "decreaseReserveTotalLiquidity",
      "outputs": [],
      "payable": false,
      "stateMutability": "nonpayable",
      "type": "function"
    },
    {
      "constant": false,
      "inputs": [
        {
          "name": "_reserve",
          "type": "address"
        },
        {
          "name": "_amount",
          "type": "uint256"
        },
        {
          "name": "_rate",
          "type": "uint256"
        }
      ],
      "name": "increaseReserveTotalBorrowsFixedAndUpdateAverageRate",
      "outputs": [],
      "payable": false,
      "stateMutability": "nonpayable",
      "type": "function"
    },
    {
      "constant": false,
      "inputs": [
        {
          "name": "_reserve",
          "type": "address"
        },
        {
          "name": "_amount",
          "type": "uint256"
        },
        {
          "name": "_rate",
          "type": "uint256"
        }
      ],
      "name": "decreaseReserveTotalBorrowsFixedAndUpdateAverageRate",
      "outputs": [],
      "payable": false,
      "stateMutability": "nonpayable",
      "type": "function"
    },
    {
      "constant": false,
      "inputs": [
        {
          "name": "_reserve",
          "type": "address"
        },
        {
          "name": "_amount",
          "type": "uint256"
        }
      ],
      "name": "increaseReserveTotalBorrowsVariable",
      "outputs": [],
      "payable": false,
      "stateMutability": "nonpayable",
      "type": "function"
    },
    {
      "constant": false,
      "inputs": [
        {
          "name": "_reserve",
          "type": "address"
        },
        {
          "name": "_amount",
          "type": "uint256"
        }
      ],
      "name": "decreaseReserveTotalBorrowsVariable",
      "outputs": [],
      "payable": false,
      "stateMutability": "nonpayable",
      "type": "function"
    },
    {
      "constant": false,
      "inputs": [
        {
          "name": "_reserve",
          "type": "address"
        },
        {
          "name": "_user",
          "type": "address"
        },
        {
          "name": "_principalBalance",
          "type": "uint256"
        },
        {
          "name": "_balanceIncrease",
          "type": "uint256"
        },
        {
          "name": "_newBorrowRateMode",
          "type": "uint8"
        },
        {
          "name": "_fixedRate",
          "type": "uint256"
        }
      ],
      "name": "updateReserveTotalBorrowsByRateMode",
      "outputs": [],
      "payable": false,
      "stateMutability": "nonpayable",
      "type": "function"
    },
    {
      "constant": false,
      "inputs": [
        {
          "name": "_reserve",
          "type": "address"
        }
      ],
      "name": "setReserveLastUpdate",
      "outputs": [],
      "payable": false,
      "stateMutability": "nonpayable",
      "type": "function"
    },
    {
      "constant": false,
      "inputs": [
        {
          "name": "_reserve",
          "type": "address"
        },
        {
          "name": "_user",
          "type": "address"
        }
      ],
      "name": "updateUserLastVariableBorrowCumulativeIndex",
      "outputs": [],
      "payable": false,
      "stateMutability": "nonpayable",
      "type": "function"
    },
    {
      "constant": false,
      "inputs": [
        {
          "name": "_reserve",
          "type": "address"
        },
        {
          "name": "_user",
          "type": "address"
        },
        {
          "name": "_amount",
          "type": "uint256"
        }
      ],
      "name": "increaseUserOriginationFee",
      "outputs": [],
      "payable": false,
      "stateMutability": "nonpayable",
      "type": "function"
    },
    {
      "constant": false,
      "inputs": [
        {
          "name": "_reserve",
          "type": "address"
        },
        {
          "name": "_user",
          "type": "address"
        },
        {
          "name": "_amount",
          "type": "uint256"
        }
      ],
      "name": "decreaseUserOriginationFee",
      "outputs": [],
      "payable": false,
      "stateMutability": "nonpayable",
      "type": "function"
    },
    {
      "constant": false,
      "inputs": [
        {
          "name": "_reserve",
          "type": "address"
        },
        {
          "name": "_user",
          "type": "address"
        },
        {
          "name": "_amount",
          "type": "uint256"
        }
      ],
      "name": "increaseUserPrincipalBorrowBalance",
      "outputs": [],
      "payable": false,
      "stateMutability": "nonpayable",
      "type": "function"
    },
    {
      "constant": false,
      "inputs": [
        {
          "name": "_reserve",
          "type": "address"
        },
        {
          "name": "_user",
          "type": "address"
        },
        {
          "name": "_amount",
          "type": "uint256"
        }
      ],
      "name": "decreaseUserPrincipalBorrowBalance",
      "outputs": [],
      "payable": false,
      "stateMutability": "nonpayable",
      "type": "function"
    },
    {
      "constant": false,
      "inputs": [
        {
          "name": "_reserve",
          "type": "address"
        },
        {
          "name": "_user",
          "type": "address"
        },
        {
          "name": "_useAsCollateral",
          "type": "bool"
        }
      ],
      "name": "setUserUseReserveAsCollateral",
      "outputs": [],
      "payable": false,
      "stateMutability": "nonpayable",
      "type": "function"
    },
    {
      "constant": false,
      "inputs": [
        {
          "name": "_reserve",
          "type": "address"
        },
        {
          "name": "_user",
          "type": "address"
        }
      ],
      "name": "setUserLastUpdate",
      "outputs": [],
      "payable": false,
      "stateMutability": "nonpayable",
      "type": "function"
    },
    {
      "constant": false,
      "inputs": [
        {
          "name": "_reserve",
          "type": "address"
        },
        {
          "name": "_user",
          "type": "address"
        }
      ],
      "name": "updateUserFixedBorrowRate",
      "outputs": [],
      "payable": false,
      "stateMutability": "nonpayable",
      "type": "function"
    },
    {
      "constant": false,
      "inputs": [
        {
          "name": "_reserve",
          "type": "address"
        },
        {
          "name": "_user",
          "type": "address"
        }
      ],
      "name": "resetUserFixedBorrowRate",
      "outputs": [],
      "payable": false,
      "stateMutability": "nonpayable",
      "type": "function"
    },
    {
      "constant": true,
      "inputs": [
        {
          "name": "_reserve",
          "type": "address"
        }
      ],
      "name": "getReserveInterestRateStrategyAddress",
      "outputs": [
        {
          "name": "",
          "type": "address"
        }
      ],
      "payable": false,
      "stateMutability": "view",
      "type": "function"
    },
    {
      "constant": true,
      "inputs": [
        {
          "name": "_reserve",
          "type": "address"
        }
      ],
      "name": "getReserveATokenAddress",
      "outputs": [
        {
          "name": "",
          "type": "address"
        }
      ],
      "payable": false,
      "stateMutability": "view",
      "type": "function"
    },
    {
      "constant": true,
      "inputs": [
        {
          "name": "_reserve",
          "type": "address"
        }
      ],
      "name": "getReserveAvailableLiquidity",
      "outputs": [
        {
          "name": "",
          "type": "uint256"
        }
      ],
      "payable": false,
      "stateMutability": "view",
      "type": "function"
    },
    {
      "constant": true,
      "inputs": [
        {
          "name": "_reserve",
          "type": "address"
        }
      ],
      "name": "getReserveTotalLiquidity",
      "outputs": [
        {
          "name": "",
          "type": "uint256"
        }
      ],
      "payable": false,
      "stateMutability": "view",
      "type": "function"
    },
    {
      "constant": true,
      "inputs": [
        {
          "name": "_reserve",
          "type": "address"
        }
      ],
      "name": "getReserveNormalizedIncome",
      "outputs": [
        {
          "name": "",
          "type": "uint256"
        }
      ],
      "payable": false,
      "stateMutability": "view",
      "type": "function"
    },
    {
      "constant": true,
      "inputs": [
        {
          "name": "_reserve",
          "type": "address"
        }
      ],
      "name": "getReserveTotalBorrows",
      "outputs": [
        {
          "name": "",
          "type": "uint256"
        }
      ],
      "payable": false,
      "stateMutability": "view",
      "type": "function"
    },
    {
      "constant": true,
      "inputs": [
        {
          "name": "_reserve",
          "type": "address"
        }
      ],
      "name": "getReserveTotalBorrowsFixed",
      "outputs": [
        {
          "name": "",
          "type": "uint256"
        }
      ],
      "payable": false,
      "stateMutability": "view",
      "type": "function"
    },
    {
      "constant": true,
      "inputs": [
        {
          "name": "_reserve",
          "type": "address"
        }
      ],
      "name": "getReserveTotalBorrowsVariable",
      "outputs": [
        {
          "name": "",
          "type": "uint256"
        }
      ],
      "payable": false,
      "stateMutability": "view",
      "type": "function"
    },
    {
      "constant": true,
      "inputs": [
        {
          "name": "_reserve",
          "type": "address"
        }
      ],
      "name": "getReserveLiquidationThreshold",
      "outputs": [
        {
          "name": "",
          "type": "uint256"
        }
      ],
      "payable": false,
      "stateMutability": "view",
      "type": "function"
    },
    {
      "constant": true,
      "inputs": [
        {
          "name": "_reserve",
          "type": "address"
        }
      ],
      "name": "getReserveLiquidationDiscount",
      "outputs": [
        {
          "name": "",
          "type": "uint256"
        }
      ],
      "payable": false,
      "stateMutability": "view",
      "type": "function"
    },
    {
      "constant": true,
      "inputs": [
        {
          "name": "_reserve",
          "type": "address"
        }
      ],
      "name": "getReserveCurrentVariableBorrowRate",
      "outputs": [
        {
          "name": "",
          "type": "uint256"
        }
      ],
      "payable": false,
      "stateMutability": "view",
      "type": "function"
    },
    {
      "constant": true,
      "inputs": [
        {
          "name": "_reserve",
          "type": "address"
        }
      ],
      "name": "getReserveCurrentFixedBorrowRate",
      "outputs": [
        {
          "name": "",
          "type": "uint256"
        }
      ],
      "payable": false,
      "stateMutability": "view",
      "type": "function"
    },
    {
      "constant": true,
      "inputs": [
        {
          "name": "_reserve",
          "type": "address"
        }
      ],
      "name": "getReserveCurrentAverageFixedBorrowRate",
      "outputs": [
        {
          "name": "",
          "type": "uint256"
        }
      ],
      "payable": false,
      "stateMutability": "view",
      "type": "function"
    },
    {
      "constant": true,
      "inputs": [
        {
          "name": "_reserve",
          "type": "address"
        }
      ],
      "name": "getReserveCurrentLiquidityRate",
      "outputs": [
        {
          "name": "",
          "type": "uint256"
        }
      ],
      "payable": false,
      "stateMutability": "view",
      "type": "function"
    },
    {
      "constant": true,
      "inputs": [
        {
          "name": "_reserve",
          "type": "address"
        }
      ],
      "name": "getReserveLiquidityCumulativeIndex",
      "outputs": [
        {
          "name": "",
          "type": "uint256"
        }
      ],
      "payable": false,
      "stateMutability": "view",
      "type": "function"
    },
    {
      "constant": true,
      "inputs": [
        {
          "name": "_reserve",
          "type": "address"
        }
      ],
      "name": "getReserveVariableBorrowsCumulativeIndex",
      "outputs": [
        {
          "name": "",
          "type": "uint256"
        }
      ],
      "payable": false,
      "stateMutability": "view",
      "type": "function"
    },
    {
      "constant": true,
      "inputs": [
        {
          "name": "_reserve",
          "type": "address"
        }
      ],
      "name": "getReserveConfiguration",
      "outputs": [
        {
          "name": "decimals",
          "type": "uint256"
        },
        {
          "name": "baseLTVasCollateral",
          "type": "uint256"
        },
        {
          "name": "liquidationThreshold",
          "type": "uint256"
        },
        {
          "name": "usageAsCollateralEnabled",
          "type": "bool"
        },
        {
          "name": "fixedBorrowRateEnabled",
          "type": "bool"
        },
        {
          "name": "borrowingEnabled",
          "type": "bool"
        }
      ],
      "payable": false,
      "stateMutability": "view",
      "type": "function"
    },
    {
      "constant": true,
      "inputs": [
        {
          "name": "_reserve",
          "type": "address"
        }
      ],
      "name": "isReserveBorrowingEnabled",
      "outputs": [
        {
          "name": "",
          "type": "bool"
        }
      ],
      "payable": false,
      "stateMutability": "view",
      "type": "function"
    },
    {
      "constant": true,
      "inputs": [
        {
          "name": "_reserve",
          "type": "address"
        }
      ],
      "name": "isReserveUsageAsCollateralEnabled",
      "outputs": [
        {
          "name": "",
          "type": "bool"
        }
      ],
      "payable": false,
      "stateMutability": "view",
      "type": "function"
    },
    {
      "constant": true,
      "inputs": [
        {
          "name": "_reserve",
          "type": "address"
        }
      ],
      "name": "getReserveIsFixedBorrowRateEnabled",
      "outputs": [
        {
          "name": "",
          "type": "bool"
        }
      ],
      "payable": false,
      "stateMutability": "view",
      "type": "function"
    },
    {
      "constant": true,
      "inputs": [
        {
          "name": "_reserve",
          "type": "address"
        }
      ],
      "name": "getReserveIsActive",
      "outputs": [
        {
          "name": "",
          "type": "bool"
        }
      ],
      "payable": false,
      "stateMutability": "view",
      "type": "function"
    },
    {
      "constant": true,
      "inputs": [
        {
          "name": "_reserve",
          "type": "address"
        }
      ],
      "name": "getReserveLastUpdate",
      "outputs": [
        {
          "name": "timestamp",
          "type": "uint40"
        }
      ],
      "payable": false,
      "stateMutability": "view",
      "type": "function"
    },
    {
      "constant": true,
      "inputs": [
        {
          "name": "_reserve",
          "type": "address"
        },
        {
          "name": "_user",
          "type": "address"
        }
      ],
      "name": "isUserUseReserveAsCollateralEnabled",
      "outputs": [
        {
          "name": "",
          "type": "bool"
        }
      ],
      "payable": false,
      "stateMutability": "view",
      "type": "function"
    },
    {
      "constant": true,
      "inputs": [
        {
          "name": "_reserve",
          "type": "address"
        },
        {
          "name": "_user",
          "type": "address"
        }
      ],
      "name": "getUserOriginationFee",
      "outputs": [
        {
          "name": "",
          "type": "uint256"
        }
      ],
      "payable": false,
      "stateMutability": "view",
      "type": "function"
    },
    {
      "constant": true,
      "inputs": [
        {
          "name": "_reserve",
          "type": "address"
        },
        {
          "name": "_user",
          "type": "address"
        }
      ],
      "name": "getUserCurrentBorrowRateMode",
      "outputs": [
        {
          "name": "",
          "type": "uint8"
        }
      ],
      "payable": false,
      "stateMutability": "view",
      "type": "function"
    },
    {
      "constant": true,
      "inputs": [
        {
          "name": "_reserve",
          "type": "address"
        },
        {
          "name": "_user",
          "type": "address"
        }
      ],
      "name": "getUserCurrentFixedBorrowRate",
      "outputs": [
        {
          "name": "",
          "type": "uint256"
        }
      ],
      "payable": false,
      "stateMutability": "view",
      "type": "function"
    },
    {
      "constant": true,
      "inputs": [
        {
          "name": "_reserve",
          "type": "address"
        },
        {
          "name": "_user",
          "type": "address"
        }
      ],
      "name": "getUserBorrowBalances",
      "outputs": [
        {
          "name": "principalBorrowBalance",
          "type": "uint256"
        },
        {
          "name": "compoundedBorrowBalance",
          "type": "uint256"
        },
        {
          "name": "compoundedAmount",
          "type": "uint256"
        }
      ],
      "payable": false,
      "stateMutability": "view",
      "type": "function"
    },
    {
      "constant": true,
      "inputs": [
        {
          "name": "_reserve",
          "type": "address"
        },
        {
          "name": "_user",
          "type": "address"
        }
      ],
      "name": "getUserVariableBorrowCumulativeIndex",
      "outputs": [
        {
          "name": "",
          "type": "uint256"
        }
      ],
      "payable": false,
      "stateMutability": "view",
      "type": "function"
    },
    {
      "constant": true,
      "inputs": [
        {
          "name": "_reserve",
          "type": "address"
        },
        {
          "name": "_user",
          "type": "address"
        }
      ],
      "name": "getUserLastUpdate",
      "outputs": [
        {
          "name": "timestamp",
          "type": "uint256"
        }
      ],
      "payable": false,
      "stateMutability": "view",
      "type": "function"
    },
    {
      "constant": true,
      "inputs": [
        {
          "name": "_reserve",
          "type": "address"
        }
      ],
      "name": "getReserveUtilizationRate",
      "outputs": [
        {
          "name": "",
          "type": "uint256"
        }
      ],
      "payable": false,
      "stateMutability": "view",
      "type": "function"
    },
    {
      "constant": true,
      "inputs": [],
      "name": "getReserves",
      "outputs": [
        {
          "name": "",
          "type": "address[]"
        }
      ],
      "payable": false,
      "stateMutability": "view",
      "type": "function"
    },
    {
      "constant": false,
      "inputs": [
        {
          "name": "_addressesProvider",
          "type": "address"
        }
      ],
      "name": "setAddressesProvider",
      "outputs": [],
      "payable": false,
      "stateMutability": "nonpayable",
      "type": "function"
    },
    {
      "constant": false,
      "inputs": [],
      "name": "refreshConfiguration",
      "outputs": [],
      "payable": false,
      "stateMutability": "nonpayable",
      "type": "function"
    },
    {
      "constant": false,
      "inputs": [
        {
          "name": "_reserve",
          "type": "address"
        },
        {
          "name": "_aTokenAddress",
          "type": "address"
        },
        {
          "name": "_decimals",
          "type": "uint256"
        },
        {
          "name": "_interestRateStrategyAddress",
          "type": "address"
        }
      ],
      "name": "initReserve",
      "outputs": [],
      "payable": false,
      "stateMutability": "nonpayable",
      "type": "function"
    },
    {
      "constant": false,
      "inputs": [
        {
          "name": "_reserve",
          "type": "address"
        },
        {
          "name": "_rateStrategyAddress",
          "type": "address"
        }
      ],
      "name": "setReserveInterestRateStrategyAddress",
      "outputs": [],
      "payable": false,
      "stateMutability": "nonpayable",
      "type": "function"
    },
    {
      "constant": false,
      "inputs": [
        {
          "name": "_reserve",
          "type": "address"
        },
        {
          "name": "_fixedBorrowRateEnabled",
          "type": "bool"
        }
      ],
      "name": "enableBorrowingOnReserve",
      "outputs": [],
      "payable": false,
      "stateMutability": "nonpayable",
      "type": "function"
    },
    {
      "constant": false,
      "inputs": [
        {
          "name": "_reserve",
          "type": "address"
        }
      ],
      "name": "disableBorrowingOnReserve",
      "outputs": [],
      "payable": false,
      "stateMutability": "nonpayable",
      "type": "function"
    },
    {
      "constant": false,
      "inputs": [
        {
          "name": "_reserve",
          "type": "address"
        },
        {
          "name": "_baseLTVasCollateral",
          "type": "uint256"
        },
        {
          "name": "_liquidationThreshold",
          "type": "uint256"
        }
      ],
      "name": "enableReserveAsCollateral",
      "outputs": [],
      "payable": false,
      "stateMutability": "nonpayable",
      "type": "function"
    },
    {
      "constant": false,
      "inputs": [
        {
          "name": "_reserve",
          "type": "address"
        }
      ],
      "name": "disableReserveAsCollateral",
      "outputs": [],
      "payable": false,
      "stateMutability": "nonpayable",
      "type": "function"
    },
    {
      "constant": false,
      "inputs": [
        {
          "name": "_reserve",
          "type": "address"
        }
      ],
      "name": "enableReserveFixedBorrowRate",
      "outputs": [],
      "payable": false,
      "stateMutability": "nonpayable",
      "type": "function"
    },
    {
      "constant": false,
      "inputs": [
        {
          "name": "_reserve",
          "type": "address"
        }
      ],
      "name": "disableReserveFixedBorrowRate",
      "outputs": [],
      "payable": false,
      "stateMutability": "nonpayable",
      "type": "function"
    },
    {
      "constant": false,
      "inputs": [
        {
          "name": "_reserve",
          "type": "address"
        }
      ],
      "name": "activateReserve",
      "outputs": [],
      "payable": false,
      "stateMutability": "nonpayable",
      "type": "function"
    },
    {
      "constant": false,
      "inputs": [
        {
          "name": "_reserve",
          "type": "address"
        }
      ],
      "name": "deactivateReserve",
      "outputs": [],
      "payable": false,
      "stateMutability": "nonpayable",
      "type": "function"
    },
    {
      "constant": false,
      "inputs": [
        {
          "name": "_reserve",
          "type": "address"
        },
        {
          "name": "_ltv",
          "type": "uint256"
        }
      ],
      "name": "setReserveBaseLTVasCollateral",
      "outputs": [],
      "payable": false,
      "stateMutability": "nonpayable",
      "type": "function"
    },
    {
      "constant": false,
      "inputs": [
        {
          "name": "_reserve",
          "type": "address"
        },
        {
          "name": "_threshold",
          "type": "uint256"
        }
      ],
      "name": "setReserveLiquidationThreshold",
      "outputs": [],
      "payable": false,
      "stateMutability": "nonpayable",
      "type": "function"
    },
    {
      "constant": false,
      "inputs": [
        {
          "name": "_reserve",
          "type": "address"
        },
        {
          "name": "_discount",
          "type": "uint256"
        }
      ],
      "name": "setReserveLiquidationDiscount",
      "outputs": [],
      "payable": false,
      "stateMutability": "nonpayable",
      "type": "function"
    },
    {
      "constant": false,
      "inputs": [
        {
          "name": "_reserve",
          "type": "address"
        },
        {
          "name": "_user",
          "type": "address"
        },
        {
          "name": "_amount",
          "type": "uint256"
        }
      ],
      "name": "transferToUser",
      "outputs": [],
      "payable": false,
      "stateMutability": "nonpayable",
      "type": "function"
    },
    {
      "constant": false,
      "inputs": [
        {
          "name": "_token",
          "type": "address"
        },
        {
          "name": "_user",
          "type": "address"
        },
        {
          "name": "_amount",
          "type": "uint256"
        },
        {
          "name": "destination",
          "type": "address"
        }
      ],
      "name": "transferToFeeCollectionAddress",
      "outputs": [],
      "payable": true,
      "stateMutability": "payable",
      "type": "function"
    },
    {
      "constant": false,
      "inputs": [
        {
          "name": "_reserve",
          "type": "address"
        },
        {
          "name": "_user",
          "type": "address"
        },
        {
          "name": "_amount",
          "type": "uint256"
        }
      ],
      "name": "transferToReserve",
      "outputs": [],
      "payable": true,
      "stateMutability": "payable",
      "type": "function"
    }
  ],
  "bytecode": "0x60806040523480156200001157600080fd5b5060405160208062008d26833981018060405260208110156200003357600080fd5b8101908080519060200190929190505050620000546200016760201b60201c565b6000806101000a81548173ffffffffffffffffffffffffffffffffffffffff021916908373ffffffffffffffffffffffffffffffffffffffff1602179055506000809054906101000a900473ffffffffffffffffffffffffffffffffffffffff1673ffffffffffffffffffffffffffffffffffffffff16600073ffffffffffffffffffffffffffffffffffffffff167f8be0079c531659141344cd1fd0a4f28419497f9722a3daafe3b4186f6b6457e060405160405180910390a380600360006101000a81548173ffffffffffffffffffffffffffffffffffffffff021916908373ffffffffffffffffffffffffffffffffffffffff160217905550620001606200016f60201b60201c565b50620003c0565b600033905090565b600360009054906101000a900473ffffffffffffffffffffffffffffffffffffffff1673ffffffffffffffffffffffffffffffffffffffff1663b5722bb56040518163ffffffff1660e01b815260040160206040518083038186803b158015620001d857600080fd5b505afa158015620001ed573d6000803e3d6000fd5b505050506040513d60208110156200020457600080fd5b810190808051906020019092919050505073ffffffffffffffffffffffffffffffffffffffff166317bfdd576040518163ffffffff1660e01b815260040160206040518083038186803b1580156200025b57600080fd5b505afa15801562000270573d6000803e3d6000fd5b505050506040513d60208110156200028757600080fd5b8101908080519060200190929190505050600160006101000a81548173ffffffffffffffffffffffffffffffffffffffff021916908373ffffffffffffffffffffffffffffffffffffffff160217905550600360009054906101000a900473ffffffffffffffffffffffffffffffffffffffff1673ffffffffffffffffffffffffffffffffffffffff16630261bf8b6040518163ffffffff1660e01b815260040160206040518083038186803b1580156200034157600080fd5b505afa15801562000356573d6000803e3d6000fd5b505050506040513d60208110156200036d57600080fd5b8101908080519060200190929190505050600260006101000a81548173ffffffffffffffffffffffffffffffffffffffff021916908373ffffffffffffffffffffffffffffffffffffffff160217905550565b61895680620003d06000396000f3fe60806040526004361061043c5760003560e01c80638e65a6b011610234578063c540148e1161012e578063e6d18190116100b6578063f2fde38b1161007a578063f2fde38b146120f7578063f6ea8d7614612148578063fa51854c146121cd578063fa93b2a51461224a578063feab31ac146122c55761043c565b8063e6d1819014611f0e578063e8ae2f5b14611f73578063eede87c114611fc4578063f03e79ff14612021578063f054ab46146120925761043c565b8063d15e0053116100fd578063d15e005314611d1d578063d466016f14611d82578063d7e0758114611ddd578063da2f787914611e2e578063e240301914611ea95761043c565b8063c540148e14611b78578063c72c4d1014611bdd578063c7d1423714611c34578063cc6ae76314611cc25761043c565b8063a37b1957116101bc578063b75d6f3411610180578063b75d6f3414611993578063b77b1958146119e4578063bd7fd79a14611a49578063bfacad8414611aae578063c33cfd9014611b135761043c565b8063a37b1957146117a2578063a8dc0f451461181d578063b46a4b341461186e578063b6e1f702146118c9578063b701d0931461192e5761043c565b806398bd47371161020357806398bd4737146115415780639e3c4f3b146115a65780639e7d3b961461162f5780639fb8afcd14611694578063a0fca839146117275761043c565b80638e65a6b0146114015780638f32d59b1461145c578063906c0a411461148b5780639789b68a146114f05761043c565b8063405300df1161034557806353cf36e8116102cd5780636722997a116102915780636722997a1461124c5780636ae144161461129d578063715018a61461132e5780637269e853146113455780638da5cb5b146113aa5761043c565b806353cf36e81461104a5780635cf2e656146110b35780635fc526ff1461111c57806364681083146111b057806366d103f3146111c75761043c565b806348dfc16e1161031457806348dfc16e14610e4b5780634aaa347a14610e9c5780634d79c1c214610f015780634f14460914610f5c5780634fe7a6e514610fcf5761043c565b8063405300df14610c6957806342bbd65314610cda57806344e636b714610d2b57806345330a4014610db05761043c565b806328fcf4d3116103c857806334b3beee1161039757806334b3beee14610a1f578063352ed9d414610ab0578063385c91b014610b0b5780633e72a45414610b7c5780633ef563ad14610bcd5761043c565b806328fcf4d31461088c57806329a17868146108fa578063308f9d551461095f5780633443a14b146109c45761043c565b80631b70fba11161040f5780631b70fba11461064b5780631ca19f19146106bc5780631d2118f91461074f57806320840f6b146107c05780632717cbfb1461083b5761043c565b806305075d6e146104b25780630902f1ac1461051b57806318f9bbae146105875780631a95129f146105f0575b61045b3373ffffffffffffffffffffffffffffffffffffffff1661234a565b6104b0576040517f08c379a00000000000000000000000000000000000000000000000000000000081526004018080602001828103825260368152602001806186d56036913960400191505060405180910390fd5b005b3480156104be57600080fd5b50610501600480360360208110156104d557600080fd5b81019080803573ffffffffffffffffffffffffffffffffffffffff169060200190929190505050612395565b604051808215151515815260200191505060405180910390f35b34801561052757600080fd5b506105306123f3565b6040518080602001828103825283818151815260200191508051906020019060200280838360005b83811015610573578082015181840152602081019050610558565b505050509050019250505060405180910390f35b34801561059357600080fd5b506105d6600480360360208110156105aa57600080fd5b81019080803573ffffffffffffffffffffffffffffffffffffffff169060200190929190505050612481565b604051808215151515815260200191505060405180910390f35b3480156105fc57600080fd5b506106496004803603604081101561061357600080fd5b81019080803573ffffffffffffffffffffffffffffffffffffffff169060200190929190803590602001909291905050506124df565b005b34801561065757600080fd5b506106ba6004803603604081101561066e57600080fd5b81019080803573ffffffffffffffffffffffffffffffffffffffff169060200190929190803573ffffffffffffffffffffffffffffffffffffffff1690602001909291905050506125da565b005b3480156106c857600080fd5b5061072b600480360360408110156106df57600080fd5b81019080803573ffffffffffffffffffffffffffffffffffffffff169060200190929190803573ffffffffffffffffffffffffffffffffffffffff169060200190929190505050612756565b6040518082600181111561073b57fe5b60ff16815260200191505060405180910390f35b34801561075b57600080fd5b506107be6004803603604081101561077257600080fd5b81019080803573ffffffffffffffffffffffffffffffffffffffff169060200190929190803573ffffffffffffffffffffffffffffffffffffffff1690602001909291905050506127f6565b005b3480156107cc57600080fd5b50610839600480360360608110156107e357600080fd5b81019080803573ffffffffffffffffffffffffffffffffffffffff169060200190929190803573ffffffffffffffffffffffffffffffffffffffff169060200190929190803590602001909291905050506129a1565b005b34801561084757600080fd5b5061088a6004803603602081101561085e57600080fd5b81019080803573ffffffffffffffffffffffffffffffffffffffff169060200190929190505050612b93565b005b6108f8600480360360608110156108a257600080fd5b81019080803573ffffffffffffffffffffffffffffffffffffffff169060200190929190803573ffffffffffffffffffffffffffffffffffffffff16906020019092919080359060200190929190505050612c83565b005b34801561090657600080fd5b5061095d6004803603606081101561091d57600080fd5b81019080803573ffffffffffffffffffffffffffffffffffffffff1690602001909291908035906020019092919080359060200190929190505050612f94565b005b34801561096b57600080fd5b506109ae6004803603602081101561098257600080fd5b81019080803573ffffffffffffffffffffffffffffffffffffffff169060200190929190505050613176565b6040518082815260200191505060405180910390f35b3480156109d057600080fd5b50610a1d600480360360408110156109e757600080fd5b81019080803573ffffffffffffffffffffffffffffffffffffffff169060200190929190803590602001909291905050506131c7565b005b348015610a2b57600080fd5b50610a6e60048036036020811015610a4257600080fd5b81019080803573ffffffffffffffffffffffffffffffffffffffff16906020019092919050505061333e565b604051808273ffffffffffffffffffffffffffffffffffffffff1673ffffffffffffffffffffffffffffffffffffffff16815260200191505060405180910390f35b348015610abc57600080fd5b50610b0960048036036040811015610ad357600080fd5b81019080803573ffffffffffffffffffffffffffffffffffffffff169060200190929190803590602001909291905050506133af565b005b348015610b1757600080fd5b50610b7a60048036036040811015610b2e57600080fd5b81019080803573ffffffffffffffffffffffffffffffffffffffff169060200190929190803573ffffffffffffffffffffffffffffffffffffffff1690602001909291905050506134bc565b005b348015610b8857600080fd5b50610bcb60048036036020811015610b9f57600080fd5b81019080803573ffffffffffffffffffffffffffffffffffffffff1690602001909291905050506135f8565b005b348015610bd957600080fd5b50610c67600480360360c0811015610bf057600080fd5b81019080803573ffffffffffffffffffffffffffffffffffffffff169060200190929190803573ffffffffffffffffffffffffffffffffffffffff1690602001909291908035906020019092919080359060200190929190803560ff16906020019092919080359060200190929190505050613782565b005b348015610c7557600080fd5b50610cd860048036036040811015610c8c57600080fd5b81019080803573ffffffffffffffffffffffffffffffffffffffff169060200190929190803573ffffffffffffffffffffffffffffffffffffffff169060200190929190505050613a63565b005b348015610ce657600080fd5b50610d2960048036036020811015610cfd57600080fd5b81019080803573ffffffffffffffffffffffffffffffffffffffff169060200190929190505050613bb3565b005b348015610d3757600080fd5b50610d9a60048036036040811015610d4e57600080fd5b81019080803573ffffffffffffffffffffffffffffffffffffffff169060200190929190803573ffffffffffffffffffffffffffffffffffffffff169060200190929190505050613de8565b6040518082815260200191505060405180910390f35b348015610dbc57600080fd5b50610e4960048036036080811015610dd357600080fd5b81019080803573ffffffffffffffffffffffffffffffffffffffff169060200190929190803573ffffffffffffffffffffffffffffffffffffffff16906020019092919080359060200190929190803573ffffffffffffffffffffffffffffffffffffffff169060200190929190505050613e77565b005b348015610e5757600080fd5b50610e9a60048036036020811015610e6e57600080fd5b81019080803573ffffffffffffffffffffffffffffffffffffffff1690602001909291905050506140c3565b005b348015610ea857600080fd5b50610eff60048036036060811015610ebf57600080fd5b81019080803573ffffffffffffffffffffffffffffffffffffffff16906020019092919080359060200190929190803590602001909291905050506141b3565b005b348015610f0d57600080fd5b50610f5a60048036036040811015610f2457600080fd5b81019080803573ffffffffffffffffffffffffffffffffffffffff169060200190929190803590602001909291905050506143af565b005b348015610f6857600080fd5b50610fab60048036036020811015610f7f57600080fd5b81019080803573ffffffffffffffffffffffffffffffffffffffff1690602001909291905050506145a8565b604051808264ffffffffff1664ffffffffff16815260200191505060405180910390f35b348015610fdb57600080fd5b5061100860048036036020811015610ff257600080fd5b810190808035906020019092919050505061460a565b604051808273ffffffffffffffffffffffffffffffffffffffff1673ffffffffffffffffffffffffffffffffffffffff16815260200191505060405180910390f35b34801561105657600080fd5b506110996004803603602081101561106d57600080fd5b81019080803573ffffffffffffffffffffffffffffffffffffffff169060200190929190505050614646565b604051808215151515815260200191505060405180910390f35b3480156110bf57600080fd5b50611102600480360360208110156110d657600080fd5b81019080803573ffffffffffffffffffffffffffffffffffffffff1690602001909291905050506146a4565b604051808215151515815260200191505060405180910390f35b34801561112857600080fd5b5061116b6004803603602081101561113f57600080fd5b81019080803573ffffffffffffffffffffffffffffffffffffffff169060200190929190505050614702565b60405180878152602001868152602001858152602001841515151581526020018315151515815260200182151515158152602001965050505050505060405180910390f35b3480156111bc57600080fd5b506111c56147a9565b005b3480156111d357600080fd5b50611236600480360360408110156111ea57600080fd5b81019080803573ffffffffffffffffffffffffffffffffffffffff169060200190929190803573ffffffffffffffffffffffffffffffffffffffff1690602001909291905050506148d9565b6040518082815260200191505060405180910390f35b34801561125857600080fd5b5061129b6004803603602081101561126f57600080fd5b81019080803573ffffffffffffffffffffffffffffffffffffffff169060200190929190505050614980565b005b3480156112a957600080fd5b506112ec600480360360208110156112c057600080fd5b81019080803573ffffffffffffffffffffffffffffffffffffffff169060200190929190505050614af2565b604051808273ffffffffffffffffffffffffffffffffffffffff1673ffffffffffffffffffffffffffffffffffffffff16815260200191505060405180910390f35b34801561133a57600080fd5b50611343614b63565b005b34801561135157600080fd5b506113946004803603602081101561136857600080fd5b81019080803573ffffffffffffffffffffffffffffffffffffffff169060200190929190505050614c9c565b6040518082815260200191505060405180910390f35b3480156113b657600080fd5b506113bf614ced565b604051808273ffffffffffffffffffffffffffffffffffffffff1673ffffffffffffffffffffffffffffffffffffffff16815260200191505060405180910390f35b34801561140d57600080fd5b5061145a6004803603604081101561142457600080fd5b81019080803573ffffffffffffffffffffffffffffffffffffffff16906020019092919080359060200190929190505050614d16565b005b34801561146857600080fd5b50611471614f21565b604051808215151515815260200191505060405180910390f35b34801561149757600080fd5b506114da600480360360208110156114ae57600080fd5b81019080803573ffffffffffffffffffffffffffffffffffffffff169060200190929190505050614f7f565b6040518082815260200191505060405180910390f35b3480156114fc57600080fd5b5061153f6004803603602081101561151357600080fd5b81019080803573ffffffffffffffffffffffffffffffffffffffff16906020019092919050505061508b565b005b34801561154d57600080fd5b506115906004803603602081101561156457600080fd5b81019080803573ffffffffffffffffffffffffffffffffffffffff169060200190929190505050615215565b6040518082815260200191505060405180910390f35b3480156115b257600080fd5b50611615600480360360408110156115c957600080fd5b81019080803573ffffffffffffffffffffffffffffffffffffffff169060200190929190803573ffffffffffffffffffffffffffffffffffffffff169060200190929190505050615266565b604051808215151515815260200191505060405180910390f35b34801561163b57600080fd5b5061167e6004803603602081101561165257600080fd5b81019080803573ffffffffffffffffffffffffffffffffffffffff169060200190929190505050615302565b6040518082815260200191505060405180910390f35b3480156116a057600080fd5b50611703600480360360408110156116b757600080fd5b81019080803573ffffffffffffffffffffffffffffffffffffffff169060200190929190803573ffffffffffffffffffffffffffffffffffffffff1690602001909291905050506154ca565b60405180848152602001838152602001828152602001935050505060405180910390f35b34801561173357600080fd5b506117a06004803603606081101561174a57600080fd5b81019080803573ffffffffffffffffffffffffffffffffffffffff169060200190929190803573ffffffffffffffffffffffffffffffffffffffff169060200190929190803590602001909291905050506155c2565b005b3480156117ae57600080fd5b5061181b600480360360608110156117c557600080fd5b81019080803573ffffffffffffffffffffffffffffffffffffffff169060200190929190803573ffffffffffffffffffffffffffffffffffffffff1690602001909291908035906020019092919050505061570d565b005b34801561182957600080fd5b5061186c6004803603602081101561184057600080fd5b81019080803573ffffffffffffffffffffffffffffffffffffffff1690602001909291905050506158d2565b005b34801561187a57600080fd5b506118c76004803603604081101561189157600080fd5b81019080803573ffffffffffffffffffffffffffffffffffffffff16906020019092919080359060200190929190505050615aa2565b005b3480156118d557600080fd5b5061192c600480360360608110156118ec57600080fd5b81019080803573ffffffffffffffffffffffffffffffffffffffff1690602001909291908035906020019092919080359060200190929190505050615c19565b005b34801561193a57600080fd5b5061197d6004803603602081101561195157600080fd5b81019080803573ffffffffffffffffffffffffffffffffffffffff169060200190929190505050615d17565b6040518082815260200191505060405180910390f35b34801561199f57600080fd5b506119e2600480360360208110156119b657600080fd5b81019080803573ffffffffffffffffffffffffffffffffffffffff169060200190929190505050615d68565b005b3480156119f057600080fd5b50611a3360048036036020811015611a0757600080fd5b81019080803573ffffffffffffffffffffffffffffffffffffffff169060200190929190505050615f5f565b6040518082815260200191505060405180910390f35b348015611a5557600080fd5b50611a9860048036036020811015611a6c57600080fd5b81019080803573ffffffffffffffffffffffffffffffffffffffff169060200190929190505050615fb0565b6040518082815260200191505060405180910390f35b348015611aba57600080fd5b50611afd60048036036020811015611ad157600080fd5b81019080803573ffffffffffffffffffffffffffffffffffffffff169060200190929190505050616001565b6040518082815260200191505060405180910390f35b348015611b1f57600080fd5b50611b6260048036036020811015611b3657600080fd5b81019080803573ffffffffffffffffffffffffffffffffffffffff169060200190929190505050616051565b6040518082815260200191505060405180910390f35b348015611b8457600080fd5b50611bc760048036036020811015611b9b57600080fd5b81019080803573ffffffffffffffffffffffffffffffffffffffff1690602001909291905050506160a2565b6040518082815260200191505060405180910390f35b348015611be957600080fd5b50611bf26160f3565b604051808273ffffffffffffffffffffffffffffffffffffffff1673ffffffffffffffffffffffffffffffffffffffff16815260200191505060405180910390f35b611cc060048036036080811015611c4a57600080fd5b81019080803573ffffffffffffffffffffffffffffffffffffffff169060200190929190803573ffffffffffffffffffffffffffffffffffffffff16906020019092919080359060200190929190803573ffffffffffffffffffffffffffffffffffffffff169060200190929190505050616119565b005b348015611cce57600080fd5b50611d1b60048036036040811015611ce557600080fd5b81019080803573ffffffffffffffffffffffffffffffffffffffff169060200190929190803590602001909291905050506162f3565b005b348015611d2957600080fd5b50611d6c60048036036020811015611d4057600080fd5b81019080803573ffffffffffffffffffffffffffffffffffffffff1690602001909291905050506163ee565b6040518082815260200191505060405180910390f35b348015611d8e57600080fd5b50611ddb60048036036040811015611da557600080fd5b81019080803573ffffffffffffffffffffffffffffffffffffffff16906020019092919080359060200190929190505050616443565b005b348015611de957600080fd5b50611e2c60048036036020811015611e0057600080fd5b81019080803573ffffffffffffffffffffffffffffffffffffffff1690602001909291905050506165ba565b005b348015611e3a57600080fd5b50611ea760048036036060811015611e5157600080fd5b81019080803573ffffffffffffffffffffffffffffffffffffffff169060200190929190803573ffffffffffffffffffffffffffffffffffffffff16906020019092919080359060200190929190505050616744565b005b348015611eb557600080fd5b50611ef860048036036020811015611ecc57600080fd5b81019080803573ffffffffffffffffffffffffffffffffffffffff16906020019092919050505061688f565b6040518082815260200191505060405180910390f35b348015611f1a57600080fd5b50611f5d60048036036020811015611f3157600080fd5b81019080803573ffffffffffffffffffffffffffffffffffffffff1690602001909291905050506168fa565b6040518082815260200191505060405180910390f35b348015611f7f57600080fd5b50611fc260048036036020811015611f9657600080fd5b81019080803573ffffffffffffffffffffffffffffffffffffffff16906020019092919050505061694a565b005b348015611fd057600080fd5b5061201f60048036036040811015611fe757600080fd5b81019080803573ffffffffffffffffffffffffffffffffffffffff169060200190929190803515159060200190929190505050616b1a565b005b34801561202d57600080fd5b506120906004803603604081101561204457600080fd5b81019080803573ffffffffffffffffffffffffffffffffffffffff169060200190929190803573ffffffffffffffffffffffffffffffffffffffff169060200190929190505050616cf7565b005b34801561209e57600080fd5b506120e1600480360360208110156120b557600080fd5b81019080803573ffffffffffffffffffffffffffffffffffffffff169060200190929190505050616e2c565b6040518082815260200191505060405180910390f35b34801561210357600080fd5b506121466004803603602081101561211a57600080fd5b81019080803573ffffffffffffffffffffffffffffffffffffffff169060200190929190505050616e7d565b005b34801561215457600080fd5b506121b76004803603604081101561216b57600080fd5b81019080803573ffffffffffffffffffffffffffffffffffffffff169060200190929190803573ffffffffffffffffffffffffffffffffffffffff169060200190929190505050616f03565b6040518082815260200191505060405180910390f35b3480156121d957600080fd5b50612248600480360360608110156121f057600080fd5b81019080803573ffffffffffffffffffffffffffffffffffffffff169060200190929190803573ffffffffffffffffffffffffffffffffffffffff169060200190929190803515159060200190929190505050616f92565b005b34801561225657600080fd5b506122c36004803603606081101561226d57600080fd5b81019080803573ffffffffffffffffffffffffffffffffffffffff169060200190929190803573ffffffffffffffffffffffffffffffffffffffff169060200190929190803590602001909291905050506170da565b005b3480156122d157600080fd5b50612334600480360360408110156122e857600080fd5b81019080803573ffffffffffffffffffffffffffffffffffffffff169060200190929190803573ffffffffffffffffffffffffffffffffffffffff169060200190929190505050617252565b6040518082815260200191505060405180910390f35b60008060007fc5d2460186f7233c927e7db2dcc703c0e500b653ca82273b7bfad8045d85a47060001b9050833f91506000801b821415801561238c5750808214155b92505050919050565b600080600460008473ffffffffffffffffffffffffffffffffffffffff1673ffffffffffffffffffffffffffffffffffffffff168152602001908152602001600020905080600e01601c9054906101000a900460ff16915050919050565b6060600680548060200260200160405190810160405280929190818152602001828054801561247757602002820191906000526020600020905b8160009054906101000a900473ffffffffffffffffffffffffffffffffffffffff1673ffffffffffffffffffffffffffffffffffffffff168152602001906001019080831161242d575b5050505050905090565b600080600460008473ffffffffffffffffffffffffffffffffffffffff1673ffffffffffffffffffffffffffffffffffffffff168152602001908152602001600020905080600e01601a9054906101000a900460ff16915050919050565b3373ffffffffffffffffffffffffffffffffffffffff16600260009054906101000a900473ffffffffffffffffffffffffffffffffffffffff1673ffffffffffffffffffffffffffffffffffffffff1614612585576040517f08c379a000000000000000000000000000000000000000000000000000000000815260040180806020018281038252602a81526020018061889f602a913960400191505060405180910390fd5b6125d681600460008573ffffffffffffffffffffffffffffffffffffffff1673ffffffffffffffffffffffffffffffffffffffff1681526020019081526020016000206172e190919063ffffffff16565b5050565b3373ffffffffffffffffffffffffffffffffffffffff16600260009054906101000a900473ffffffffffffffffffffffffffffffffffffffff1673ffffffffffffffffffffffffffffffffffffffff1614612680576040517f08c379a000000000000000000000000000000000000000000000000000000000815260040180806020018281038252602a81526020018061889f602a913960400191505060405180910390fd5b6000600560008373ffffffffffffffffffffffffffffffffffffffff1673ffffffffffffffffffffffffffffffffffffffff16815260200190815260200160002060008473ffffffffffffffffffffffffffffffffffffffff1673ffffffffffffffffffffffffffffffffffffffff16815260200190815260200160002090506000600460008573ffffffffffffffffffffffffffffffffffffffff1673ffffffffffffffffffffffffffffffffffffffff16815260200190815260200160002090508060080154826001018190555050505050565b600080600560008473ffffffffffffffffffffffffffffffffffffffff1673ffffffffffffffffffffffffffffffffffffffff16815260200190815260200160002060008573ffffffffffffffffffffffffffffffffffffffff1673ffffffffffffffffffffffffffffffffffffffff168152602001908152602001600020905060008160030154116127ea5760016127ed565b60005b91505092915050565b3373ffffffffffffffffffffffffffffffffffffffff16600360009054906101000a900473ffffffffffffffffffffffffffffffffffffffff1673ffffffffffffffffffffffffffffffffffffffff166385c858b16040518163ffffffff1660e01b815260040160206040518083038186803b15801561287557600080fd5b505afa158015612889573d6000803e3d6000fd5b505050506040513d602081101561289f57600080fd5b810190808051906020019092919050505073ffffffffffffffffffffffffffffffffffffffff161461291c576040517f08c379a00000000000000000000000000000000000000000000000000000000081526004018080602001828103825260378152602001806187bb6037913960400191505060405180910390fd5b80600460008473ffffffffffffffffffffffffffffffffffffffff1673ffffffffffffffffffffffffffffffffffffffff168152602001908152602001600020600e0160006101000a81548173ffffffffffffffffffffffffffffffffffffffff021916908373ffffffffffffffffffffffffffffffffffffffff1602179055505050565b3373ffffffffffffffffffffffffffffffffffffffff16600260009054906101000a900473ffffffffffffffffffffffffffffffffffffffff1673ffffffffffffffffffffffffffffffffffffffff1614612a47576040517f08c379a000000000000000000000000000000000000000000000000000000000815260040180806020018281038252602a81526020018061889f602a913960400191505060405180910390fd5b82600460008273ffffffffffffffffffffffffffffffffffffffff1673ffffffffffffffffffffffffffffffffffffffff168152602001908152602001600020600e0160199054906101000a900460ff16612aed576040517f08c379a000000000000000000000000000000000000000000000000000000000815260040180806020018281038252602481526020018061867c6024913960400191505060405180910390fd5b6000600560008573ffffffffffffffffffffffffffffffffffffffff1673ffffffffffffffffffffffffffffffffffffffff16815260200190815260200160002060008673ffffffffffffffffffffffffffffffffffffffff1673ffffffffffffffffffffffffffffffffffffffff1681526020019081526020016000209050612b8483826000015461734f90919063ffffffff16565b81600001819055505050505050565b3373ffffffffffffffffffffffffffffffffffffffff16600260009054906101000a900473ffffffffffffffffffffffffffffffffffffffff1673ffffffffffffffffffffffffffffffffffffffff1614612c39576040517f08c379a000000000000000000000000000000000000000000000000000000000815260040180806020018281038252602a81526020018061889f602a913960400191505060405180910390fd5b612c80600460008373ffffffffffffffffffffffffffffffffffffffff1673ffffffffffffffffffffffffffffffffffffffff1681526020019081526020016000206173d7565b50565b3373ffffffffffffffffffffffffffffffffffffffff16600260009054906101000a900473ffffffffffffffffffffffffffffffffffffffff1673ffffffffffffffffffffffffffffffffffffffff1614612d29576040517f08c379a000000000000000000000000000000000000000000000000000000000815260040180806020018281038252602a81526020018061889f602a913960400191505060405180910390fd5b6000600460008573ffffffffffffffffffffffffffffffffffffffff1673ffffffffffffffffffffffffffffffffffffffff168152602001908152602001600020905080600e01601a9054906101000a900460ff1680612d97575080600e0160199054906101000a900460ff165b612dec576040517f08c379a00000000000000000000000000000000000000000000000000000000081526004018080602001828103825260388152602001806188f36038913960400191505060405180910390fd5b600160009054906101000a900473ffffffffffffffffffffffffffffffffffffffff1673ffffffffffffffffffffffffffffffffffffffff168473ffffffffffffffffffffffffffffffffffffffff1614612ecc5760003414612e9a576040517f08c379a000000000000000000000000000000000000000000000000000000000815260040180806020018281038252605f81526020018061870b605f913960600191505060405180910390fd5b612ec78330848773ffffffffffffffffffffffffffffffffffffffff166173ff909392919063ffffffff16565b612f8e565b81341015612f25576040517f08c379a00000000000000000000000000000000000000000000000000000000081526004018080602001828103825260358152602001806186a06035913960400191505060405180910390fd5b81341115612f8d576000612f42833461750590919063ffffffff16565b90508373ffffffffffffffffffffffffffffffffffffffff166108fc829081150290604051600060405180830381858888f19350505050158015612f8a573d6000803e3d6000fd5b50505b5b50505050565b3373ffffffffffffffffffffffffffffffffffffffff16600360009054906101000a900473ffffffffffffffffffffffffffffffffffffffff1673ffffffffffffffffffffffffffffffffffffffff166385c858b16040518163ffffffff1660e01b815260040160206040518083038186803b15801561301357600080fd5b505afa158015613027573d6000803e3d6000fd5b505050506040513d602081101561303d57600080fd5b810190808051906020019092919050505073ffffffffffffffffffffffffffffffffffffffff16146130ba576040517f08c379a00000000000000000000000000000000000000000000000000000000081526004018080602001828103825260378152602001806187bb6037913960400191505060405180910390fd5b600460008473ffffffffffffffffffffffffffffffffffffffff1673ffffffffffffffffffffffffffffffffffffffff16815260200190815260200160002073__CoreLibrary___________________________632eb0d006909184846040518463ffffffff1660e01b815260040180848152602001838152602001828152602001935050505060006040518083038186803b15801561315957600080fd5b505af415801561316d573d6000803e3d6000fd5b50505050505050565b600080600460008473ffffffffffffffffffffffffffffffffffffffff1673ffffffffffffffffffffffffffffffffffffffff16815260200190815260200160002090508060030154915050919050565b3373ffffffffffffffffffffffffffffffffffffffff16600360009054906101000a900473ffffffffffffffffffffffffffffffffffffffff1673ffffffffffffffffffffffffffffffffffffffff166385c858b16040518163ffffffff1660e01b815260040160206040518083038186803b15801561324657600080fd5b505afa15801561325a573d6000803e3d6000fd5b505050506040513d602081101561327057600080fd5b810190808051906020019092919050505073ffffffffffffffffffffffffffffffffffffffff16146132ed576040517f08c379a00000000000000000000000000000000000000000000000000000000081526004018080602001828103825260378152602001806187bb6037913960400191505060405180910390fd5b6000600460008473ffffffffffffffffffffffffffffffffffffffff1673ffffffffffffffffffffffffffffffffffffffff16815260200190815260200160002090508181600a0181905550505050565b600080600460008473ffffffffffffffffffffffffffffffffffffffff1673ffffffffffffffffffffffffffffffffffffffff168152602001908152602001600020905080600d0160009054906101000a900473ffffffffffffffffffffffffffffffffffffffff16915050919050565b3373ffffffffffffffffffffffffffffffffffffffff16600260009054906101000a900473ffffffffffffffffffffffffffffffffffffffff1673ffffffffffffffffffffffffffffffffffffffff1614613455576040517f08c379a000000000000000000000000000000000000000000000000000000000815260040180806020018281038252602a81526020018061889f602a913960400191505060405180910390fd5b6000600460008473ffffffffffffffffffffffffffffffffffffffff1673ffffffffffffffffffffffffffffffffffffffff16815260200190815260200160002090506134af82826000015461750590919063ffffffff16565b8160000181905550505050565b3373ffffffffffffffffffffffffffffffffffffffff16600260009054906101000a900473ffffffffffffffffffffffffffffffffffffffff1673ffffffffffffffffffffffffffffffffffffffff1614613562576040517f08c379a000000000000000000000000000000000000000000000000000000000815260040180806020018281038252602a81526020018061889f602a913960400191505060405180910390fd5b6000600560008373ffffffffffffffffffffffffffffffffffffffff1673ffffffffffffffffffffffffffffffffffffffff16815260200190815260200160002060008473ffffffffffffffffffffffffffffffffffffffff1673ffffffffffffffffffffffffffffffffffffffff16815260200190815260200160002090506135eb83615302565b8160030181905550505050565b3373ffffffffffffffffffffffffffffffffffffffff16600360009054906101000a900473ffffffffffffffffffffffffffffffffffffffff1673ffffffffffffffffffffffffffffffffffffffff166385c858b16040518163ffffffff1660e01b815260040160206040518083038186803b15801561367757600080fd5b505afa15801561368b573d6000803e3d6000fd5b505050506040513d60208110156136a157600080fd5b810190808051906020019092919050505073ffffffffffffffffffffffffffffffffffffffff161461371e576040517f08c379a00000000000000000000000000000000000000000000000000000000081526004018080602001828103825260378152602001806187bb6037913960400191505060405180910390fd5b6000600460008373ffffffffffffffffffffffffffffffffffffffff1673ffffffffffffffffffffffffffffffffffffffff1681526020019081526020016000209050600081600e01601c6101000a81548160ff0219169083151502179055505050565b3373ffffffffffffffffffffffffffffffffffffffff16600260009054906101000a900473ffffffffffffffffffffffffffffffffffffffff1673ffffffffffffffffffffffffffffffffffffffff1614613828576040517f08c379a000000000000000000000000000000000000000000000000000000000815260040180806020018281038252602a81526020018061889f602a913960400191505060405180910390fd5b60006138348787612756565b90506000600460008973ffffffffffffffffffffffffffffffffffffffff1673ffffffffffffffffffffffffffffffffffffffff16815260200190815260200160002090506000600181111561388657fe5b82600181111561389257fe5b14156139c7576000600560008973ffffffffffffffffffffffffffffffffffffffff1673ffffffffffffffffffffffffffffffffffffffff16815260200190815260200160002060008a73ffffffffffffffffffffffffffffffffffffffff1673ffffffffffffffffffffffffffffffffffffffff16815260200190815260200160002090506139318782600301548461754f9092919063ffffffff16565b6000600181111561393e57fe5b85600181111561394a57fe5b141561397c57613977613966878961734f90919063ffffffff16565b85846176eb9092919063ffffffff16565b6139c1565b60018081111561398857fe5b85600181111561399457fe5b14156139c0576139bf6139b0878961734f90919063ffffffff16565b8361779690919063ffffffff16565b5b5b50613a59565b600060018111156139d457fe5b8460018111156139e057fe5b1415613a25576139f986826177b990919063ffffffff16565b613a20613a0f868861734f90919063ffffffff16565b84836176eb9092919063ffffffff16565b613a58565b600180811115613a3157fe5b846001811115613a3d57fe5b1415613a5757613a56858261779690919063ffffffff16565b5b5b5b5050505050505050565b3373ffffffffffffffffffffffffffffffffffffffff16600260009054906101000a900473ffffffffffffffffffffffffffffffffffffffff1673ffffffffffffffffffffffffffffffffffffffff1614613b09576040517f08c379a000000000000000000000000000000000000000000000000000000000815260040180806020018281038252602a81526020018061889f602a913960400191505060405180910390fd5b6000600560008373ffffffffffffffffffffffffffffffffffffffff1673ffffffffffffffffffffffffffffffffffffffff16815260200190815260200160002060008473ffffffffffffffffffffffffffffffffffffffff1673ffffffffffffffffffffffffffffffffffffffff1681526020019081526020016000209050428160040160006101000a81548164ffffffffff021916908364ffffffffff160217905550505050565b3373ffffffffffffffffffffffffffffffffffffffff16600260009054906101000a900473ffffffffffffffffffffffffffffffffffffffff1673ffffffffffffffffffffffffffffffffffffffff1614613c59576040517f08c379a000000000000000000000000000000000000000000000000000000000815260040180806020018281038252602a81526020018061889f602a913960400191505060405180910390fd5b6000600460008373ffffffffffffffffffffffffffffffffffffffff1673ffffffffffffffffffffffffffffffffffffffff168152602001908152602001600020905080600e0160009054906101000a900473ffffffffffffffffffffffffffffffffffffffff1673ffffffffffffffffffffffffffffffffffffffff166357e37af083613ce684617839565b8460030154856004015486600701546040518663ffffffff1660e01b8152600401808673ffffffffffffffffffffffffffffffffffffffff1673ffffffffffffffffffffffffffffffffffffffff1681526020018581526020018481526020018381526020018281526020019550505050505060606040518083038186803b158015613d7157600080fd5b505afa158015613d85573d6000803e3d6000fd5b505050506040513d6060811015613d9b57600080fd5b810190808051906020019092919080519060200190929190805190602001909291905050508360020160008560060160008760050160008691905055859190505584919050555050505050565b600080600560008473ffffffffffffffffffffffffffffffffffffffff1673ffffffffffffffffffffffffffffffffffffffff16815260200190815260200160002060008573ffffffffffffffffffffffffffffffffffffffff1673ffffffffffffffffffffffffffffffffffffffff1681526020019081526020016000209050806003015491505092915050565b3373ffffffffffffffffffffffffffffffffffffffff16600360009054906101000a900473ffffffffffffffffffffffffffffffffffffffff1673ffffffffffffffffffffffffffffffffffffffff166385c858b16040518163ffffffff1660e01b815260040160206040518083038186803b158015613ef657600080fd5b505afa158015613f0a573d6000803e3d6000fd5b505050506040513d6020811015613f2057600080fd5b810190808051906020019092919050505073ffffffffffffffffffffffffffffffffffffffff1614613f9d576040517f08c379a00000000000000000000000000000000000000000000000000000000081526004018080602001828103825260378152602001806187bb6037913960400191505060405180910390fd5b600460008573ffffffffffffffffffffffffffffffffffffffff1673ffffffffffffffffffffffffffffffffffffffff16815260200190815260200160002073__CoreLibrary___________________________6313769cd490918585856040518563ffffffff1660e01b8152600401808581526020018473ffffffffffffffffffffffffffffffffffffffff1673ffffffffffffffffffffffffffffffffffffffff1681526020018381526020018273ffffffffffffffffffffffffffffffffffffffff1673ffffffffffffffffffffffffffffffffffffffff16815260200194505050505060006040518083038186803b15801561409c57600080fd5b505af41580156140b0573d6000803e3d6000fd5b505050506140bd8461788f565b50505050565b3373ffffffffffffffffffffffffffffffffffffffff16600260009054906101000a900473ffffffffffffffffffffffffffffffffffffffff1673ffffffffffffffffffffffffffffffffffffffff1614614169576040517f08c379a000000000000000000000000000000000000000000000000000000000815260040180806020018281038252602a81526020018061889f602a913960400191505060405180910390fd5b6141b0600460008373ffffffffffffffffffffffffffffffffffffffff1673ffffffffffffffffffffffffffffffffffffffff168152602001908152602001600020617995565b50565b3373ffffffffffffffffffffffffffffffffffffffff16600260009054906101000a900473ffffffffffffffffffffffffffffffffffffffff1673ffffffffffffffffffffffffffffffffffffffff1614614259576040517f08c379a000000000000000000000000000000000000000000000000000000000815260040180806020018281038252602a81526020018061889f602a913960400191505060405180910390fd5b82600460008273ffffffffffffffffffffffffffffffffffffffff1673ffffffffffffffffffffffffffffffffffffffff168152602001908152602001600020600e0160199054906101000a900460ff16806143015750600460008273ffffffffffffffffffffffffffffffffffffffff1673ffffffffffffffffffffffffffffffffffffffff168152602001908152602001600020600e01601a9054906101000a900460ff165b614356576040517f08c379a000000000000000000000000000000000000000000000000000000000815260040180806020018281038252604481526020018061885b6044913960600191505060405180910390fd5b6143a98383600460008873ffffffffffffffffffffffffffffffffffffffff1673ffffffffffffffffffffffffffffffffffffffff1681526020019081526020016000206176eb9092919063ffffffff16565b50505050565b3373ffffffffffffffffffffffffffffffffffffffff16600260009054906101000a900473ffffffffffffffffffffffffffffffffffffffff1673ffffffffffffffffffffffffffffffffffffffff1614614455576040517f08c379a000000000000000000000000000000000000000000000000000000000815260040180806020018281038252602a81526020018061889f602a913960400191505060405180910390fd5b81600460008273ffffffffffffffffffffffffffffffffffffffff1673ffffffffffffffffffffffffffffffffffffffff168152602001908152602001600020600e0160199054906101000a900460ff16806144fd5750600460008273ffffffffffffffffffffffffffffffffffffffff1673ffffffffffffffffffffffffffffffffffffffff168152602001908152602001600020600e01601a9054906101000a900460ff165b614552576040517f08c379a000000000000000000000000000000000000000000000000000000000815260040180806020018281038252604481526020018061885b6044913960600191505060405180910390fd5b6145a382600460008673ffffffffffffffffffffffffffffffffffffffff1673ffffffffffffffffffffffffffffffffffffffff16815260200190815260200160002061779690919063ffffffff16565b505050565b600080600460008473ffffffffffffffffffffffffffffffffffffffff1673ffffffffffffffffffffffffffffffffffffffff168152602001908152602001600020905080600e0160149054906101000a900464ffffffffff16915050919050565b6006818154811061461757fe5b906000526020600020016000915054906101000a900473ffffffffffffffffffffffffffffffffffffffff1681565b600080600460008473ffffffffffffffffffffffffffffffffffffffff1673ffffffffffffffffffffffffffffffffffffffff168152602001908152602001600020905080600e01601b9054906101000a900460ff16915050919050565b600080600460008473ffffffffffffffffffffffffffffffffffffffff1673ffffffffffffffffffffffffffffffffffffffff168152602001908152602001600020905080600e0160199054906101000a900460ff16915050919050565b6000806000806000806000600460008973ffffffffffffffffffffffffffffffffffffffff1673ffffffffffffffffffffffffffffffffffffffff168152602001908152602001600020905080600c015496508060090154955080600a0154945080600e01601a9054906101000a900460ff16935080600e01601b9054906101000a900460ff16925080600e0160199054906101000a900460ff1691505091939550919395565b3373ffffffffffffffffffffffffffffffffffffffff16600360009054906101000a900473ffffffffffffffffffffffffffffffffffffffff1673ffffffffffffffffffffffffffffffffffffffff166385c858b16040518163ffffffff1660e01b815260040160206040518083038186803b15801561482857600080fd5b505afa15801561483c573d6000803e3d6000fd5b505050506040513d602081101561485257600080fd5b810190808051906020019092919050505073ffffffffffffffffffffffffffffffffffffffff16146148cf576040517f08c379a00000000000000000000000000000000000000000000000000000000081526004018080602001828103825260378152602001806187bb6037913960400191505060405180910390fd5b6148d7617a3e565b565b600080600560008473ffffffffffffffffffffffffffffffffffffffff1673ffffffffffffffffffffffffffffffffffffffff16815260200190815260200160002060008573ffffffffffffffffffffffffffffffffffffffff1673ffffffffffffffffffffffffffffffffffffffff16815260200190815260200160002090508060040160009054906101000a900464ffffffffff1664ffffffffff1691505092915050565b3373ffffffffffffffffffffffffffffffffffffffff16600360009054906101000a900473ffffffffffffffffffffffffffffffffffffffff1673ffffffffffffffffffffffffffffffffffffffff166385c858b16040518163ffffffff1660e01b815260040160206040518083038186803b1580156149ff57600080fd5b505afa158015614a13573d6000803e3d6000fd5b505050506040513d6020811015614a2957600080fd5b810190808051906020019092919050505073ffffffffffffffffffffffffffffffffffffffff1614614aa6576040517f08c379a00000000000000000000000000000000000000000000000000000000081526004018080602001828103825260378152602001806187bb6037913960400191505060405180910390fd5b80600360006101000a81548173ffffffffffffffffffffffffffffffffffffffff021916908373ffffffffffffffffffffffffffffffffffffffff160217905550614aef617a3e565b50565b600080600460008473ffffffffffffffffffffffffffffffffffffffff1673ffffffffffffffffffffffffffffffffffffffff168152602001908152602001600020905080600e0160009054906101000a900473ffffffffffffffffffffffffffffffffffffffff16915050919050565b614b6b614f21565b614bdd576040517f08c379a00000000000000000000000000000000000000000000000000000000081526004018080602001828103825260208152602001807f4f776e61626c653a2063616c6c6572206973206e6f7420746865206f776e657281525060200191505060405180910390fd5b600073ffffffffffffffffffffffffffffffffffffffff166000809054906101000a900473ffffffffffffffffffffffffffffffffffffffff1673ffffffffffffffffffffffffffffffffffffffff167f8be0079c531659141344cd1fd0a4f28419497f9722a3daafe3b4186f6b6457e060405160405180910390a360008060006101000a81548173ffffffffffffffffffffffffffffffffffffffff021916908373ffffffffffffffffffffffffffffffffffffffff160217905550565b600080600460008473ffffffffffffffffffffffffffffffffffffffff1673ffffffffffffffffffffffffffffffffffffffff16815260200190815260200160002090508060070154915050919050565b60008060009054906101000a900473ffffffffffffffffffffffffffffffffffffffff16905090565b3373ffffffffffffffffffffffffffffffffffffffff16600260009054906101000a900473ffffffffffffffffffffffffffffffffffffffff1673ffffffffffffffffffffffffffffffffffffffff1614614dbc576040517f08c379a000000000000000000000000000000000000000000000000000000000815260040180806020018281038252602a81526020018061889f602a913960400191505060405180910390fd5b81600460008273ffffffffffffffffffffffffffffffffffffffff1673ffffffffffffffffffffffffffffffffffffffff168152602001908152602001600020600e0160199054906101000a900460ff1680614e645750600460008273ffffffffffffffffffffffffffffffffffffffff1673ffffffffffffffffffffffffffffffffffffffff168152602001908152602001600020600e01601a9054906101000a900460ff165b614eb9576040517f08c379a000000000000000000000000000000000000000000000000000000000815260040180806020018281038252604481526020018061885b6044913960600191505060405180910390fd5b6000600460008573ffffffffffffffffffffffffffffffffffffffff1673ffffffffffffffffffffffffffffffffffffffff1681526020019081526020016000209050614f1383826000015461734f90919063ffffffff16565b816000018190555050505050565b60008060009054906101000a900473ffffffffffffffffffffffffffffffffffffffff1673ffffffffffffffffffffffffffffffffffffffff16614f63617c86565b73ffffffffffffffffffffffffffffffffffffffff1614905090565b600080600460008473ffffffffffffffffffffffffffffffffffffffff1673ffffffffffffffffffffffffffffffffffffffff168152602001908152602001600020905060008160050154141561507d5780600e0160009054906101000a900473ffffffffffffffffffffffffffffffffffffffff1673ffffffffffffffffffffffffffffffffffffffff166334762ca56040518163ffffffff1660e01b815260040160206040518083038186803b15801561503a57600080fd5b505afa15801561504e573d6000803e3d6000fd5b505050506040513d602081101561506457600080fd5b8101908080519060200190929190505050915050615086565b80600501549150505b919050565b3373ffffffffffffffffffffffffffffffffffffffff16600360009054906101000a900473ffffffffffffffffffffffffffffffffffffffff1673ffffffffffffffffffffffffffffffffffffffff166385c858b16040518163ffffffff1660e01b815260040160206040518083038186803b15801561510a57600080fd5b505afa15801561511e573d6000803e3d6000fd5b505050506040513d602081101561513457600080fd5b810190808051906020019092919050505073ffffffffffffffffffffffffffffffffffffffff16146151b1576040517f08c379a00000000000000000000000000000000000000000000000000000000081526004018080602001828103825260378152602001806187bb6037913960400191505060405180910390fd5b6000600460008373ffffffffffffffffffffffffffffffffffffffff1673ffffffffffffffffffffffffffffffffffffffff1681526020019081526020016000209050600181600e01601b6101000a81548160ff0219169083151502179055505050565b600080600460008473ffffffffffffffffffffffffffffffffffffffff1673ffffffffffffffffffffffffffffffffffffffff16815260200190815260200160002090508060040154915050919050565b600080600560008473ffffffffffffffffffffffffffffffffffffffff1673ffffffffffffffffffffffffffffffffffffffff16815260200190815260200160002060008573ffffffffffffffffffffffffffffffffffffffff1673ffffffffffffffffffffffffffffffffffffffff16815260200190815260200160002090508060040160059054906101000a900460ff1691505092915050565b600080600460008473ffffffffffffffffffffffffffffffffffffffff1673ffffffffffffffffffffffffffffffffffffffff16815260200190815260200160002090506000600360009054906101000a900473ffffffffffffffffffffffffffffffffffffffff1673ffffffffffffffffffffffffffffffffffffffff16633618abba6040518163ffffffff1660e01b815260040160206040518083038186803b1580156153b057600080fd5b505afa1580156153c4573d6000803e3d6000fd5b505050506040513d60208110156153da57600080fd5b810190808051906020019092919050505090506000826006015414156154bb578073ffffffffffffffffffffffffffffffffffffffff1663bb85c0bb856040518263ffffffff1660e01b8152600401808273ffffffffffffffffffffffffffffffffffffffff1673ffffffffffffffffffffffffffffffffffffffff16815260200191505060206040518083038186803b15801561547757600080fd5b505afa15801561548b573d6000803e3d6000fd5b505050506040513d60208110156154a157600080fd5b8101908080519060200190929190505050925050506154c5565b8160060154925050505b919050565b600080600080600560008673ffffffffffffffffffffffffffffffffffffffff1673ffffffffffffffffffffffffffffffffffffffff16815260200190815260200160002060008773ffffffffffffffffffffffffffffffffffffffff1673ffffffffffffffffffffffffffffffffffffffff16815260200190815260200160002090506000600460008873ffffffffffffffffffffffffffffffffffffffff1673ffffffffffffffffffffffffffffffffffffffff1681526020019081526020016000209050816000015494506155a28282617c8e565b93506155b7858561750590919063ffffffff16565b925050509250925092565b3373ffffffffffffffffffffffffffffffffffffffff16600260009054906101000a900473ffffffffffffffffffffffffffffffffffffffff1673ffffffffffffffffffffffffffffffffffffffff1614615668576040517f08c379a000000000000000000000000000000000000000000000000000000000815260040180806020018281038252602a81526020018061889f602a913960400191505060405180910390fd5b6000600560008473ffffffffffffffffffffffffffffffffffffffff1673ffffffffffffffffffffffffffffffffffffffff16815260200190815260200160002060008573ffffffffffffffffffffffffffffffffffffffff1673ffffffffffffffffffffffffffffffffffffffff16815260200190815260200160002090506156ff82826002015461750590919063ffffffff16565b816002018190555050505050565b3373ffffffffffffffffffffffffffffffffffffffff16600260009054906101000a900473ffffffffffffffffffffffffffffffffffffffff1673ffffffffffffffffffffffffffffffffffffffff16146157b3576040517f08c379a000000000000000000000000000000000000000000000000000000000815260040180806020018281038252602a81526020018061889f602a913960400191505060405180910390fd5b6000600560008473ffffffffffffffffffffffffffffffffffffffff1673ffffffffffffffffffffffffffffffffffffffff16815260200190815260200160002060008573ffffffffffffffffffffffffffffffffffffffff1673ffffffffffffffffffffffffffffffffffffffff168152602001908152602001600020905081816000015410156158ad576040517f08c379a000000000000000000000000000000000000000000000000000000000815260040180806020018281038252601d8152602001807f54686520626f72726f772062616c616e636520697320746f6f206c6f7700000081525060200191505060405180910390fd5b6158c482826000015461750590919063ffffffff16565b816000018190555050505050565b3373ffffffffffffffffffffffffffffffffffffffff16600360009054906101000a900473ffffffffffffffffffffffffffffffffffffffff1673ffffffffffffffffffffffffffffffffffffffff166385c858b16040518163ffffffff1660e01b815260040160206040518083038186803b15801561595157600080fd5b505afa158015615965573d6000803e3d6000fd5b505050506040513d602081101561597b57600080fd5b810190808051906020019092919050505073ffffffffffffffffffffffffffffffffffffffff16146159f8576040517f08c379a00000000000000000000000000000000000000000000000000000000081526004018080602001828103825260378152602001806187bb6037913960400191505060405180910390fd5b600460008273ffffffffffffffffffffffffffffffffffffffff1673ffffffffffffffffffffffffffffffffffffffff16815260200190815260200160002073__CoreLibrary___________________________63e5df56a690916040518263ffffffff1660e01b81526004018082815260200191505060006040518083038186803b158015615a8757600080fd5b505af4158015615a9b573d6000803e3d6000fd5b5050505050565b3373ffffffffffffffffffffffffffffffffffffffff16600360009054906101000a900473ffffffffffffffffffffffffffffffffffffffff1673ffffffffffffffffffffffffffffffffffffffff166385c858b16040518163ffffffff1660e01b815260040160206040518083038186803b158015615b2157600080fd5b505afa158015615b35573d6000803e3d6000fd5b505050506040513d6020811015615b4b57600080fd5b810190808051906020019092919050505073ffffffffffffffffffffffffffffffffffffffff1614615bc8576040517f08c379a00000000000000000000000000000000000000000000000000000000081526004018080602001828103825260378152602001806187bb6037913960400191505060405180910390fd5b6000600460008473ffffffffffffffffffffffffffffffffffffffff1673ffffffffffffffffffffffffffffffffffffffff16815260200190815260200160002090508181600b0181905550505050565b3373ffffffffffffffffffffffffffffffffffffffff16600260009054906101000a900473ffffffffffffffffffffffffffffffffffffffff1673ffffffffffffffffffffffffffffffffffffffff1614615cbf576040517f08c379a000000000000000000000000000000000000000000000000000000000815260040180806020018281038252602a81526020018061889f602a913960400191505060405180910390fd5b615d128282600460008773ffffffffffffffffffffffffffffffffffffffff1673ffffffffffffffffffffffffffffffffffffffff16815260200190815260200160002061754f9092919063ffffffff16565b505050565b600080600460008473ffffffffffffffffffffffffffffffffffffffff1673ffffffffffffffffffffffffffffffffffffffff16815260200190815260200160002090508060080154915050919050565b3373ffffffffffffffffffffffffffffffffffffffff16600360009054906101000a900473ffffffffffffffffffffffffffffffffffffffff1673ffffffffffffffffffffffffffffffffffffffff166385c858b16040518163ffffffff1660e01b815260040160206040518083038186803b158015615de757600080fd5b505afa158015615dfb573d6000803e3d6000fd5b505050506040513d6020811015615e1157600080fd5b810190808051906020019092919050505073ffffffffffffffffffffffffffffffffffffffff1614615e8e576040517f08c379a00000000000000000000000000000000000000000000000000000000081526004018080602001828103825260378152602001806187bb6037913960400191505060405180910390fd5b6000600460008373ffffffffffffffffffffffffffffffffffffffff1673ffffffffffffffffffffffffffffffffffffffff168152602001908152602001600020905060008160010154118015615ee9575060008160080154115b615f3e576040517f08c379a00000000000000000000000000000000000000000000000000000000081526004018080602001828103825260248152602001806187f26024913960400191505060405180910390fd5b600181600e01601c6101000a81548160ff0219169083151502179055505050565b600080600460008473ffffffffffffffffffffffffffffffffffffffff1673ffffffffffffffffffffffffffffffffffffffff168152602001908152602001600020905080600b0154915050919050565b600080600460008473ffffffffffffffffffffffffffffffffffffffff1673ffffffffffffffffffffffffffffffffffffffff16815260200190815260200160002090508060010154915050919050565b600061604a600460008473ffffffffffffffffffffffffffffffffffffffff1673ffffffffffffffffffffffffffffffffffffffff168152602001908152602001600020617839565b9050919050565b600080600460008473ffffffffffffffffffffffffffffffffffffffff1673ffffffffffffffffffffffffffffffffffffffff16815260200190815260200160002090508060000154915050919050565b600080600460008473ffffffffffffffffffffffffffffffffffffffff1673ffffffffffffffffffffffffffffffffffffffff16815260200190815260200160002090508060020154915050919050565b600360009054906101000a900473ffffffffffffffffffffffffffffffffffffffff1681565b3373ffffffffffffffffffffffffffffffffffffffff16600260009054906101000a900473ffffffffffffffffffffffffffffffffffffffff1673ffffffffffffffffffffffffffffffffffffffff16146161bf576040517f08c379a000000000000000000000000000000000000000000000000000000000815260040180806020018281038252602a81526020018061889f602a913960400191505060405180910390fd5b6000819050600160009054906101000a900473ffffffffffffffffffffffffffffffffffffffff1673ffffffffffffffffffffffffffffffffffffffff168573ffffffffffffffffffffffffffffffffffffffff161461624b576162468482858873ffffffffffffffffffffffffffffffffffffffff166173ff909392919063ffffffff16565b6162ec565b823410156162a4576040517f08c379a00000000000000000000000000000000000000000000000000000000081526004018080602001828103825260358152602001806186a06035913960400191505060405180910390fd5b8073ffffffffffffffffffffffffffffffffffffffff166108fc849081150290604051600060405180830381858888f193505050501580156162ea573d6000803e3d6000fd5b505b5050505050565b3373ffffffffffffffffffffffffffffffffffffffff16600260009054906101000a900473ffffffffffffffffffffffffffffffffffffffff1673ffffffffffffffffffffffffffffffffffffffff1614616399576040517f08c379a000000000000000000000000000000000000000000000000000000000815260040180806020018281038252602a81526020018061889f602a913960400191505060405180910390fd5b6163ea81600460008573ffffffffffffffffffffffffffffffffffffffff1673ffffffffffffffffffffffffffffffffffffffff1681526020019081526020016000206177b990919063ffffffff16565b5050565b600080600460008473ffffffffffffffffffffffffffffffffffffffff1673ffffffffffffffffffffffffffffffffffffffff168152602001908152602001600020905061643b81617da1565b915050919050565b3373ffffffffffffffffffffffffffffffffffffffff16600360009054906101000a900473ffffffffffffffffffffffffffffffffffffffff1673ffffffffffffffffffffffffffffffffffffffff166385c858b16040518163ffffffff1660e01b815260040160206040518083038186803b1580156164c257600080fd5b505afa1580156164d6573d6000803e3d6000fd5b505050506040513d60208110156164ec57600080fd5b810190808051906020019092919050505073ffffffffffffffffffffffffffffffffffffffff1614616569576040517f08c379a00000000000000000000000000000000000000000000000000000000081526004018080602001828103825260378152602001806187bb6037913960400191505060405180910390fd5b6000600460008473ffffffffffffffffffffffffffffffffffffffff1673ffffffffffffffffffffffffffffffffffffffff1681526020019081526020016000209050818160090181905550505050565b3373ffffffffffffffffffffffffffffffffffffffff16600360009054906101000a900473ffffffffffffffffffffffffffffffffffffffff1673ffffffffffffffffffffffffffffffffffffffff166385c858b16040518163ffffffff1660e01b815260040160206040518083038186803b15801561663957600080fd5b505afa15801561664d573d6000803e3d6000fd5b505050506040513d602081101561666357600080fd5b810190808051906020019092919050505073ffffffffffffffffffffffffffffffffffffffff16146166e0576040517f08c379a00000000000000000000000000000000000000000000000000000000081526004018080602001828103825260378152602001806187bb6037913960400191505060405180910390fd5b6000600460008373ffffffffffffffffffffffffffffffffffffffff1673ffffffffffffffffffffffffffffffffffffffff1681526020019081526020016000209050600081600e01601b6101000a81548160ff0219169083151502179055505050565b3373ffffffffffffffffffffffffffffffffffffffff16600260009054906101000a900473ffffffffffffffffffffffffffffffffffffffff1673ffffffffffffffffffffffffffffffffffffffff16146167ea576040517f08c379a000000000000000000000000000000000000000000000000000000000815260040180806020018281038252602a81526020018061889f602a913960400191505060405180910390fd5b6000600560008473ffffffffffffffffffffffffffffffffffffffff1673ffffffffffffffffffffffffffffffffffffffff16815260200190815260200160002060008573ffffffffffffffffffffffffffffffffffffffff1673ffffffffffffffffffffffffffffffffffffffff168152602001908152602001600020905061688182826002015461734f90919063ffffffff16565b816002018190555050505050565b600080600460008473ffffffffffffffffffffffffffffffffffffffff1673ffffffffffffffffffffffffffffffffffffffff16815260200190815260200160002090506168f26168df846168fa565b826000015461750590919063ffffffff16565b915050919050565b6000616943600460008473ffffffffffffffffffffffffffffffffffffffff1673ffffffffffffffffffffffffffffffffffffffff168152602001908152602001600020617de8565b9050919050565b3373ffffffffffffffffffffffffffffffffffffffff16600360009054906101000a900473ffffffffffffffffffffffffffffffffffffffff1673ffffffffffffffffffffffffffffffffffffffff166385c858b16040518163ffffffff1660e01b815260040160206040518083038186803b1580156169c957600080fd5b505afa1580156169dd573d6000803e3d6000fd5b505050506040513d60208110156169f357600080fd5b810190808051906020019092919050505073ffffffffffffffffffffffffffffffffffffffff1614616a70576040517f08c379a00000000000000000000000000000000000000000000000000000000081526004018080602001828103825260378152602001806187bb6037913960400191505060405180910390fd5b600460008273ffffffffffffffffffffffffffffffffffffffff1673ffffffffffffffffffffffffffffffffffffffff16815260200190815260200160002073__CoreLibrary___________________________6383c165a090916040518263ffffffff1660e01b81526004018082815260200191505060006040518083038186803b158015616aff57600080fd5b505af4158015616b13573d6000803e3d6000fd5b5050505050565b3373ffffffffffffffffffffffffffffffffffffffff16600360009054906101000a900473ffffffffffffffffffffffffffffffffffffffff1673ffffffffffffffffffffffffffffffffffffffff166385c858b16040518163ffffffff1660e01b815260040160206040518083038186803b158015616b9957600080fd5b505afa158015616bad573d6000803e3d6000fd5b505050506040513d6020811015616bc357600080fd5b810190808051906020019092919050505073ffffffffffffffffffffffffffffffffffffffff1614616c40576040517f08c379a00000000000000000000000000000000000000000000000000000000081526004018080602001828103825260378152602001806187bb6037913960400191505060405180910390fd5b600460008373ffffffffffffffffffffffffffffffffffffffff1673ffffffffffffffffffffffffffffffffffffffff16815260200190815260200160002073__CoreLibrary___________________________63f63babbe9091836040518363ffffffff1660e01b815260040180838152602001821515151581526020019250505060006040518083038186803b158015616cdb57600080fd5b505af4158015616cef573d6000803e3d6000fd5b505050505050565b3373ffffffffffffffffffffffffffffffffffffffff16600260009054906101000a900473ffffffffffffffffffffffffffffffffffffffff1673ffffffffffffffffffffffffffffffffffffffff1614616d9d576040517f08c379a000000000000000000000000000000000000000000000000000000000815260040180806020018281038252602a81526020018061889f602a913960400191505060405180910390fd5b6000600560008373ffffffffffffffffffffffffffffffffffffffff1673ffffffffffffffffffffffffffffffffffffffff16815260200190815260200160002060008473ffffffffffffffffffffffffffffffffffffffff1673ffffffffffffffffffffffffffffffffffffffff168152602001908152602001600020905060008160030181905550505050565b600080600460008473ffffffffffffffffffffffffffffffffffffffff1673ffffffffffffffffffffffffffffffffffffffff168152602001908152602001600020905080600a0154915050919050565b616e85614f21565b616ef7576040517f08c379a00000000000000000000000000000000000000000000000000000000081526004018080602001828103825260208152602001807f4f776e61626c653a2063616c6c6572206973206e6f7420746865206f776e657281525060200191505060405180910390fd5b616f0081617e0c565b50565b600080600560008473ffffffffffffffffffffffffffffffffffffffff1673ffffffffffffffffffffffffffffffffffffffff16815260200190815260200160002060008573ffffffffffffffffffffffffffffffffffffffff1673ffffffffffffffffffffffffffffffffffffffff1681526020019081526020016000209050806001015491505092915050565b3373ffffffffffffffffffffffffffffffffffffffff16600260009054906101000a900473ffffffffffffffffffffffffffffffffffffffff1673ffffffffffffffffffffffffffffffffffffffff1614617038576040517f08c379a000000000000000000000000000000000000000000000000000000000815260040180806020018281038252602a81526020018061889f602a913960400191505060405180910390fd5b6000600560008473ffffffffffffffffffffffffffffffffffffffff1673ffffffffffffffffffffffffffffffffffffffff16815260200190815260200160002060008573ffffffffffffffffffffffffffffffffffffffff1673ffffffffffffffffffffffffffffffffffffffff1681526020019081526020016000209050818160040160056101000a81548160ff02191690831515021790555050505050565b3373ffffffffffffffffffffffffffffffffffffffff16600260009054906101000a900473ffffffffffffffffffffffffffffffffffffffff1673ffffffffffffffffffffffffffffffffffffffff1614617180576040517f08c379a000000000000000000000000000000000000000000000000000000000815260040180806020018281038252602a81526020018061889f602a913960400191505060405180910390fd5b600160009054906101000a900473ffffffffffffffffffffffffffffffffffffffff1673ffffffffffffffffffffffffffffffffffffffff168373ffffffffffffffffffffffffffffffffffffffff16146172055761720082828573ffffffffffffffffffffffffffffffffffffffff16617f509092919063ffffffff16565b61724d565b8173ffffffffffffffffffffffffffffffffffffffff166108fc829081150290604051600060405180830381858888f1935050505015801561724b573d6000803e3d6000fd5b505b505050565b600080600560008473ffffffffffffffffffffffffffffffffffffffff1673ffffffffffffffffffffffffffffffffffffffff16815260200190815260200160002060008573ffffffffffffffffffffffffffffffffffffffff1673ffffffffffffffffffffffffffffffffffffffff1681526020019081526020016000209050806002015491505092915050565b600061730a6172f38460000154618021565b6172fc84618021565b61804190919063ffffffff16565b9050600061732861731961809d565b8361734f90919063ffffffff16565b90506173418460010154826180b190919063ffffffff16565b846001018190555050505050565b6000808284019050838110156173cd576040517f08c379a000000000000000000000000000000000000000000000000000000000815260040180806020018281038252601b8152602001807f536166654d6174683a206164646974696f6e206f766572666c6f77000000000081525060200191505060405180910390fd5b8091505092915050565b4281600e0160146101000a81548164ffffffffff021916908364ffffffffff16021790555050565b6174ff848573ffffffffffffffffffffffffffffffffffffffff166323b872dd905060e01b858585604051602401808473ffffffffffffffffffffffffffffffffffffffff1673ffffffffffffffffffffffffffffffffffffffff1681526020018373ffffffffffffffffffffffffffffffffffffffff1673ffffffffffffffffffffffffffffffffffffffff1681526020018281526020019350505050604051602081830303815290604052907bffffffffffffffffffffffffffffffffffffffffffffffffffffffff19166020820180517bffffffffffffffffffffffffffffffffffffffffffffffffffffffff8381831617835250505050618114565b50505050565b600061754783836040518060400160405280601e81526020017f536166654d6174683a207375627472616374696f6e206f766572666c6f77000081525061835f565b905092915050565b81836003015410156175c9576040517f08c379a000000000000000000000000000000000000000000000000000000000815260040180806020018281038252601a8152602001807f496e76616c696420616d6f756e7420746f20646563726561736500000000000081525060200191505060405180910390fd5b6000836003015490506175e983856003015461750590919063ffffffff16565b846003018190555060008460030154141561760e5760008460070181905550506176e6565b600061762b8361761d86618021565b6180b190919063ffffffff16565b9050600061764e866007015461764085618021565b6180b190919063ffffffff16565b9050818110156176a9576040517f08c379a00000000000000000000000000000000000000000000000000000000081526004018080602001828103825260248152602001806188166024913960400191505060405180910390fd5b6176da6176b98760030154618021565b6176cc848461750590919063ffffffff16565b61804190919063ffffffff16565b86600701819055505050505b505050565b60008360030154905061770b83856003015461734f90919063ffffffff16565b846003018190555060006177308361772286618021565b6180b190919063ffffffff16565b90506000617753866007015461774585618021565b6180b190919063ffffffff16565b90506177866177658760030154618021565b617778838561734f90919063ffffffff16565b61804190919063ffffffff16565b8660070181905550505050505050565b6177ad81836004015461734f90919063ffffffff16565b82600401819055505050565b8082600401541015617816576040517f08c379a000000000000000000000000000000000000000000000000000000000815260040180806020018281038252605181526020018061876a6051913960600191505060405180910390fd5b61782d81836004015461750590919063ffffffff16565b82600401819055505050565b60008082600001541415617850576000905061788a565b600061786d8360040154846003015461734f90919063ffffffff16565b905061788683600001548261804190919063ffffffff16565b9150505b919050565b600080905060008090505b600680549050811015617924578273ffffffffffffffffffffffffffffffffffffffff16600682815481106178cb57fe5b9060005260206000200160009054906101000a900473ffffffffffffffffffffffffffffffffffffffff1673ffffffffffffffffffffffffffffffffffffffff16141561791757600191505b808060010191505061789a565b50806179915760068290806001815401808255809150509060018203906000526020600020016000909192909190916101000a81548173ffffffffffffffffffffffffffffffffffffffff021916908373ffffffffffffffffffffffffffffffffffffffff160217905550505b5050565b60006179a082617839565b90506000811115617a3a5760006179d0836002015484600e0160149054906101000a900464ffffffffff1661841f565b90506179e98360010154826180b190919063ffffffff16565b83600101819055506000617a16846005015485600e0160149054906101000a900464ffffffffff1661841f565b9050617a2f8460080154826180b190919063ffffffff16565b846008018190555050505b5050565b600360009054906101000a900473ffffffffffffffffffffffffffffffffffffffff1673ffffffffffffffffffffffffffffffffffffffff1663b5722bb56040518163ffffffff1660e01b815260040160206040518083038186803b158015617aa657600080fd5b505afa158015617aba573d6000803e3d6000fd5b505050506040513d6020811015617ad057600080fd5b810190808051906020019092919050505073ffffffffffffffffffffffffffffffffffffffff166317bfdd576040518163ffffffff1660e01b815260040160206040518083038186803b158015617b2657600080fd5b505afa158015617b3a573d6000803e3d6000fd5b505050506040513d6020811015617b5057600080fd5b8101908080519060200190929190505050600160006101000a81548173ffffffffffffffffffffffffffffffffffffffff021916908373ffffffffffffffffffffffffffffffffffffffff160217905550600360009054906101000a900473ffffffffffffffffffffffffffffffffffffffff1673ffffffffffffffffffffffffffffffffffffffff16630261bf8b6040518163ffffffff1660e01b815260040160206040518083038186803b158015617c0957600080fd5b505afa158015617c1d573d6000803e3d6000fd5b505050506040513d6020811015617c3357600080fd5b8101908080519060200190929190505050600260006101000a81548173ffffffffffffffffffffffffffffffffffffffff021916908373ffffffffffffffffffffffffffffffffffffffff160217905550565b600033905090565b60008083600001541415617ca55760009050617d9b565b6000617cb48460000154618021565b905060008090506000809050600086600301541115617cf757617cf086600301548760040160009054906101000a900464ffffffffff1661841f565b9050617d49565b617d468660010154617d388760080154617d2a89600501548a600e0160149054906101000a900464ffffffffff1661841f565b6180b190919063ffffffff16565b61804190919063ffffffff16565b90505b617d64617d5f82856180b190919063ffffffff16565b61849f565b91508560000154821415617d9457617d8a6001876000015461734f90919063ffffffff16565b9350505050617d9b565b8193505050505b92915050565b600080617ddd8360010154617dcf856002015486600e0160149054906101000a900464ffffffffff1661841f565b6180b190919063ffffffff16565b905080915050919050565b6000617e058260040154836003015461734f90919063ffffffff16565b9050919050565b600073ffffffffffffffffffffffffffffffffffffffff168173ffffffffffffffffffffffffffffffffffffffff161415617e92576040517f08c379a00000000000000000000000000000000000000000000000000000000081526004018080602001828103825260268152602001806186566026913960400191505060405180910390fd5b8073ffffffffffffffffffffffffffffffffffffffff166000809054906101000a900473ffffffffffffffffffffffffffffffffffffffff1673ffffffffffffffffffffffffffffffffffffffff167f8be0079c531659141344cd1fd0a4f28419497f9722a3daafe3b4186f6b6457e060405160405180910390a3806000806101000a81548173ffffffffffffffffffffffffffffffffffffffff021916908373ffffffffffffffffffffffffffffffffffffffff16021790555050565b61801c838473ffffffffffffffffffffffffffffffffffffffff1663a9059cbb905060e01b8484604051602401808373ffffffffffffffffffffffffffffffffffffffff1673ffffffffffffffffffffffffffffffffffffffff16815260200182815260200192505050604051602081830303815290604052907bffffffffffffffffffffffffffffffffffffffffffffffffffffffff19166020820180517bffffffffffffffffffffffffffffffffffffffffffffffffffffffff8381831617835250505050618114565b505050565b600061803a633b9aca00836184bf90919063ffffffff16565b9050919050565b6000806002838161804e57fe5b049050618094836180866180776b033b2e3c9fd0803ce8000000886184bf90919063ffffffff16565b8461734f90919063ffffffff16565b61854590919063ffffffff16565b91505092915050565b60006b033b2e3c9fd0803ce8000000905090565b600061810c6b033b2e3c9fd0803ce80000006180fe6180d985876184bf90919063ffffffff16565b60026b033b2e3c9fd0803ce8000000816180ef57fe5b0461734f90919063ffffffff16565b61854590919063ffffffff16565b905092915050565b6181338273ffffffffffffffffffffffffffffffffffffffff1661234a565b6181a5576040517f08c379a000000000000000000000000000000000000000000000000000000000815260040180806020018281038252601f8152602001807f5361666545524332303a2063616c6c20746f206e6f6e2d636f6e74726163740081525060200191505060405180910390fd5b600060608373ffffffffffffffffffffffffffffffffffffffff16836040518082805190602001908083835b602083106181f457805182526020820191506020810190506020830392506181d1565b6001836020036101000a0380198251168184511680821785525050505050509050019150506000604051808303816000865af19150503d8060008114618256576040519150601f19603f3d011682016040523d82523d6000602084013e61825b565b606091505b5091509150816182d3576040517f08c379a00000000000000000000000000000000000000000000000000000000081526004018080602001828103825260208152602001807f5361666545524332303a206c6f772d6c6576656c2063616c6c206661696c656481525060200191505060405180910390fd5b600081511115618359578080602001905160208110156182f257600080fd5b8101908080519060200190929190505050618358576040517f08c379a000000000000000000000000000000000000000000000000000000000815260040180806020018281038252602a8152602001806188c9602a913960400191505060405180910390fd5b5b50505050565b600083831115829061840c576040517f08c379a00000000000000000000000000000000000000000000000000000000081526004018080602001828103825283818151815260200191508051906020019080838360005b838110156183d15780820151818401526020810190506183b6565b50505050905090810190601f1680156183fe5780820380516001836020036101000a031916815260200191505b509250505060405180910390fd5b5060008385039050809150509392505050565b60008061843c8364ffffffffff164261750590919063ffffffff16565b905060006184676184506301e13380618021565b61845984618021565b61804190919063ffffffff16565b905061849561847461809d565b61848783886180b190919063ffffffff16565b61734f90919063ffffffff16565b9250505092915050565b60006184b8633b9aca008361854590919063ffffffff16565b9050919050565b6000808314156184d2576000905061853f565b60008284029050828482816184e357fe5b041461853a576040517f08c379a000000000000000000000000000000000000000000000000000000000815260040180806020018281038252602181526020018061883a6021913960400191505060405180910390fd5b809150505b92915050565b600061858783836040518060400160405280601a81526020017f536166654d6174683a206469766973696f6e206279207a65726f00000000000081525061858f565b905092915050565b6000808311829061863b576040517f08c379a00000000000000000000000000000000000000000000000000000000081526004018080602001828103825283818151815260200191508051906020019080838360005b838110156186005780820151818401526020810190506185e5565b50505050905090810190601f16801561862d5780820380516001836020036101000a031916815260200191505b509250505060405180910390fd5b50600083858161864757fe5b04905080915050939250505056fe4f776e61626c653a206e6577206f776e657220697320746865207a65726f206164647265737352657365727665206973206e6f7420656e61626c656420666f7220626f72726f77696e6754686520616d6f756e7420616e64207468652076616c75652073656e7420746f206465706f73697420646f206e6f74206d617463684f6e6c7920636f6e7472616374732063616e2073656e6420657468657220746f20746865204c656e64696e6720706f6f6c20636f7265557365722069732073656e64696e672045544820616c6f6e67207769746820746865204552433230207472616e736665722e20436865636b207468652076616c756520617474726962757465206f6620746865207472616e73616374696f6e54686520616d6f756e742074686174206973206265696e672073756273747261637465642066726f6d20746865207661726961626c6520746f74616c20626f72726f777320697320696e636f72726563745468652063616c6c6572206d7573742062652061206c656e64696e6720706f6f6c20636f6e666967757261746f7220636f6e74726163745265736572766520686173206e6f74206265656e20696e697469616c697a65642079657454686520616d6f756e747320746f2073756273747261637420646f6e2774206d61746368536166654d6174683a206d756c7469706c69636174696f6e206f766572666c6f7752657365727665206973206e6f7420656e61626c656420666f7220626f72726f77696e67206f7220666f72206265696e67207573656420617320636f6c6c61746572616c5468652063616c6c6572206d7573742062652061206c656e64696e6720706f6f6c20636f6e74726163745361666545524332303a204552433230206f7065726174696f6e20646964206e6f74207375636365656454686520726573657276652069736e277420656e61626c656420666f7220626f72726f77696e67206f7220617320636f6c6c61746572616ca165627a7a723058205a01ee47bede87331f5605293ad6bf3266377c99197ce551361bb321e7c18f170029",
  "source": "pragma solidity ^0.5.0;\n\nimport \"openzeppelin-solidity/contracts/ownership/Ownable.sol\";\nimport \"openzeppelin-solidity/contracts/math/SafeMath.sol\";\nimport \"openzeppelin-solidity/contracts/token/ERC20/SafeERC20.sol\";\nimport \"openzeppelin-solidity/contracts/token/ERC20/ERC20.sol\";\nimport \"openzeppelin-solidity/contracts/utils/Address.sol\";\nimport \"../libraries/CoreLibrary.sol\";\nimport \"../configuration/LendingPoolAddressesProvider.sol\";\nimport \"../interfaces/IPriceOracle.sol\";\nimport \"../interfaces/ILendingRateOracle.sol\";\nimport \"../interfaces/IReserveInterestRateStrategy.sol\";\nimport \"../interfaces/INetworkMetadataProvider.sol\";\nimport \"../libraries/WadRayMath.sol\";\n\n\n/*************************************************************************************\n@title LendingPoolCore contract\n@author Aave\n@notice Contains all the data and the funds deposited into a lending pool\n *************************************************************************************/\n\ncontract LendingPoolCore is Ownable {\n\n    using SafeMath for uint256;\n    using WadRayMath for uint256;\n    using CoreLibrary for CoreLibrary.ReserveData;\n    using SafeERC20 for ERC20;\n    using Address for address payable;\n\n   /**\n   @dev ethereumAddress represents a ERC20 contract address with which the pool identifies ETH\n    */\n    address ethereumAddress;\n\n    address lendingPoolAddress;\n\n\n    LendingPoolAddressesProvider public addressesProvider;\n\n    /**\n    @dev only lending pools can use functions affected by this modifier\n     */\n    modifier onlyLendingPool {\n        require(lendingPoolAddress == msg.sender, \"The caller must be a lending pool contract\");\n        _;\n    }\n\n    /**\n    @dev only lending pools configurator can use functions affected by this modifier\n     */\n    modifier onlyLendingPoolConfigurator {\n        require(\n            addressesProvider.getLendingPoolConfigurator() == msg.sender,\n            \"The caller must be a lending pool configurator contract\"\n        );\n        _;\n    }\n\n\n    /**\n    @dev functions affected by this modifier can only be invoked if a reserve is enabled for borrowing and/or collateral\n     */\n    modifier onlyReserveWithEnabledBorrowingOrCollateral(address _reserve) {\n        require(\n            reserves[_reserve].borrowingEnabled || reserves[_reserve].usageAsCollateralEnabled,\n            \"Reserve is not enabled for borrowing or for being used as collateral\"\n        );\n        _;\n    }\n\n    /**\n    @dev functions affected by this modifier can only be invoked if a reserve is enabled for borrowing\n     */\n    modifier onlyReserveWithEnabledBorrowing(address _reserve) {\n        require(reserves[_reserve].borrowingEnabled, \"Reserve is not enabled for borrowing\");\n        _;\n    }\n\n    mapping(address => CoreLibrary.ReserveData) reserves;\n    mapping(address => mapping(address => CoreLibrary.UserReserveData)) usersReserveData;\n    \n    address[] public reservesList;\n\n    constructor(LendingPoolAddressesProvider _addressesProvider) public {\n        addressesProvider = _addressesProvider;\n        refreshConfigInternal();\n    }\n\n    /**\n    @dev functions to update reserves data\n     */\n\n    /**\n    @notice Updates the reserve Liquidity cumulative interest Ci and the Variable borrows cumulative index Bvc. Please refer to the\n    whitepaper for further information.\n     */\n    function updateReserveCumulativeIndexes(address _reserve) external onlyLendingPool {\n        reserves[_reserve].updateCumulativeIndexes();\n    }\n\n    /**\n    @notice cumulates a fixed amount of liquidity to the reserve, considered as a specific interest accrued in one block. Please refer\n    to the whitepaper for further information.\n    */\n\n    function cumulateLiquidityToReserveLiquidityIndex(address _reserve, uint256 _amount) external onlyLendingPool {\n        reserves[_reserve].cumulateToLiquidityIndex(_amount);\n    }\n\n    /**\n    @notice Updates the reserve current fixed borrow rate Rf, the current variable borrow rate Rv and the current liquidity rate Rl.\n    Please refer to the whitepaper for further information.\n     */\n\n    function updateReserveInterestRates(address _reserve) external onlyLendingPool {\n\n        CoreLibrary.ReserveData storage reserve = reserves[_reserve];\n        (reserve.currentLiquidityRate,\n        reserve.currentFixedBorrowRate,\n        reserve.currentVariableBorrowRate) = IReserveInterestRateStrategy(reserve.interestRateStrategyAddress).\n            calculateInterestRates(\n            _reserve,\n            reserve.getReserveUtilizationRate(),\n            reserve.totalBorrowsFixed,\n            reserve.totalBorrowsVariable,\n            reserve.currentAverageFixedBorrowRate\n            );\n    }\n\n    /**\n    @notice increases the total liquidity Lt of a reserve\n     */\n\n    function increaseReserveTotalLiquidity(address _reserve, uint256 _amount)\n        external\n        onlyLendingPool\n        onlyReserveWithEnabledBorrowingOrCollateral(_reserve)\n    {\n        CoreLibrary.ReserveData storage reserve = reserves[_reserve];\n        reserve.totalLiquidity = reserve.totalLiquidity.add(_amount);\n\n    }\n\n    /**\n    @notice decreases the total liquidity Lt of a reserve\n     */\n\n    function decreaseReserveTotalLiquidity(address _reserve, uint256 _amount) external onlyLendingPool {\n        CoreLibrary.ReserveData storage reserve = reserves[_reserve];\n        reserve.totalLiquidity = reserve.totalLiquidity.sub(_amount);\n    }\n\n    /**\n    @notice increases the total borrow fixed of a reserve Bf and updates the average fixed borrow rate Raf. Please refer to the whitepaper\n    for further information.\n     */\n\n    function increaseReserveTotalBorrowsFixedAndUpdateAverageRate(address _reserve, uint256 _amount, uint256 _rate)\n        external\n        onlyLendingPool\n        onlyReserveWithEnabledBorrowingOrCollateral(_reserve)\n    {\n        reserves[_reserve].increaseTotalBorrowsFixedAndUpdateAverageRate(_amount, _rate);\n    }\n\n\n    /**\n    @notice decreases the total borrow fixed of a reserve Bf and updates the average fixed borrow rate Raf. Please refer to the whitepaper\n    for further information.\n     */\n\n\n    function decreaseReserveTotalBorrowsFixedAndUpdateAverageRate(address _reserve, uint256 _amount, uint256 _rate)\n        external\n        onlyLendingPool\n    {\n        reserves[_reserve].decreaseTotalBorrowsFixedAndUpdateAverageRate(_amount, _rate);\n\n    }\n    /**\n    @notice increases the the total borrow variable of a reserve Bv.\n     */\n\n    function increaseReserveTotalBorrowsVariable(address _reserve, uint256 _amount)\n        external\n        onlyLendingPool\n        onlyReserveWithEnabledBorrowingOrCollateral(_reserve)\n    {\n        reserves[_reserve].increaseTotalBorrowsVariable(_amount);\n    }\n\n        /**\n    @notice decreases the the total borrow variable of a reserve Bv.\n     */\n\n\n    function decreaseReserveTotalBorrowsVariable(address _reserve, uint256 _amount) external onlyLendingPool {\n        reserves[_reserve].decreaseTotalBorrowsVariable(_amount);\n    }\n\n    /***************\n    @dev increases the proper total borrows on a reserve depending on the type of interest rate chosen by the user\n     ***************/\n\n    function updateReserveTotalBorrowsByRateMode(\n        address _reserve,\n        address _user,\n        uint256 _principalBalance,\n        uint256 _balanceIncrease,\n        CoreLibrary.InterestRateMode _newBorrowRateMode,\n        uint256 _fixedRate\n    ) external onlyLendingPool {\n        CoreLibrary.InterestRateMode currentRateMode = getUserCurrentBorrowRateMode(_reserve, _user);\n        CoreLibrary.ReserveData storage reserve = reserves[_reserve];\n\n\n        if (currentRateMode == CoreLibrary.InterestRateMode.FIXED) {\n            // there was no previous borrow or previous borrow was fixed\n            CoreLibrary.UserReserveData storage user = usersReserveData[_user][_reserve];\n            reserve.decreaseTotalBorrowsFixedAndUpdateAverageRate(_principalBalance, user.fixedBorrowRate);\n\n            if (_newBorrowRateMode == CoreLibrary.InterestRateMode.FIXED) {\n                reserve.increaseTotalBorrowsFixedAndUpdateAverageRate(_principalBalance.add(_balanceIncrease), _fixedRate);\n            }  else if (_newBorrowRateMode == CoreLibrary.InterestRateMode.VARIABLE) {\n                //switching the whole amount borrowed to variable\n                reserve.increaseTotalBorrowsVariable(_principalBalance.add(_balanceIncrease));\n            }\n        } else {\n            // previous borrow was variable\n            if (_newBorrowRateMode == CoreLibrary.InterestRateMode.FIXED) {\n                reserve.decreaseTotalBorrowsVariable(_principalBalance);\n                reserve.increaseTotalBorrowsFixedAndUpdateAverageRate(_principalBalance.add(_balanceIncrease), _fixedRate);\n            } else if (_newBorrowRateMode == CoreLibrary.InterestRateMode.VARIABLE) {\n                //switching the whole amount borrowed to variable\n                reserve.increaseTotalBorrowsVariable(_balanceIncrease);\n            }\n        }\n    }\n\n    /**\n    @notice refreshes reserve last updated block number Bl\n     */\n    function setReserveLastUpdate(address _reserve) external onlyLendingPool {\n        reserves[_reserve].setLastUpdate();\n    }\n\n\n    /***************\n    @dev functions to update users reserve data\n     */\n\n    function updateUserLastVariableBorrowCumulativeIndex(address _reserve, address _user) external onlyLendingPool {\n        CoreLibrary.UserReserveData storage user = usersReserveData[_user][_reserve];\n        CoreLibrary.ReserveData storage reserve = reserves[_reserve];\n\n        user.lastVariableBorrowCumulativeIndex = reserve.lastVariableBorrowCumulativeIndex;\n    }\n\n    function increaseUserOriginationFee(address _reserve, address _user, uint256 _amount) external onlyLendingPool {\n        CoreLibrary.UserReserveData storage user = usersReserveData[_user][_reserve];\n        user.originationFee = user.originationFee.add(_amount);\n    }\n\n    function decreaseUserOriginationFee(address _reserve, address _user, uint256 _amount) external onlyLendingPool {\n        CoreLibrary.UserReserveData storage user = usersReserveData[_user][_reserve];\n        user.originationFee = user.originationFee.sub(_amount);\n    }\n\n    function increaseUserPrincipalBorrowBalance(address _reserve, address _user, uint256 _amount)\n        external\n        onlyLendingPool\n        onlyReserveWithEnabledBorrowing(_reserve)\n    {\n        CoreLibrary.UserReserveData storage user = usersReserveData[_user][_reserve];\n        user.principalBorrowBalance = user.principalBorrowBalance.add(_amount);\n    }\n\n    function decreaseUserPrincipalBorrowBalance(address _reserve, address _user, uint256 _amount)\n        external\n        onlyLendingPool\n    {\n        CoreLibrary.UserReserveData storage user = usersReserveData[_user][_reserve];\n        require(user.principalBorrowBalance >= _amount, \"The borrow balance is too low\");\n        user.principalBorrowBalance = user.principalBorrowBalance.sub(_amount);\n    }\n\n    function setUserUseReserveAsCollateral(address _reserve, address _user, bool _useAsCollateral) external onlyLendingPool {\n        CoreLibrary.UserReserveData storage user = usersReserveData[_user][_reserve];\n        user.useAsCollateral = _useAsCollateral;\n    }\n\n    function setUserLastUpdate(address _reserve, address _user) external onlyLendingPool {\n        CoreLibrary.UserReserveData storage user = usersReserveData[_user][_reserve];\n\n        //solium-disable-next-line\n        user.lastUpdateTimestamp = uint40(block.timestamp);\n    }\n\n    /******************\n    @dev updates the fixed borrow rate for the user\n    *******************/\n    function updateUserFixedBorrowRate(address _reserve, address _user) external onlyLendingPool {\n        CoreLibrary.UserReserveData storage user = usersReserveData[_user][_reserve];\n\n        user.fixedBorrowRate = getReserveCurrentFixedBorrowRate(_reserve);\n    }\n\n    function resetUserFixedBorrowRate(address _reserve, address _user) external onlyLendingPool {\n        CoreLibrary.UserReserveData storage user = usersReserveData[_user][_reserve];\n        user.fixedBorrowRate = 0;\n    }\n\n    /*********************\n    @dev reserve accessors\n     *********************/\n\n    function getReserveInterestRateStrategyAddress(address _reserve) public view returns (address) {\n        CoreLibrary.ReserveData storage reserve = reserves[_reserve];\n        return reserve.interestRateStrategyAddress;\n    }\n\n    function getReserveATokenAddress(address _reserve) public view returns (address) {\n        CoreLibrary.ReserveData storage reserve = reserves[_reserve];\n        return reserve.aTokenAddress;\n    }\n\n    function getReserveAvailableLiquidity(address _reserve) public view returns (uint256) {\n        CoreLibrary.ReserveData storage reserve = reserves[_reserve];\n        return reserve.totalLiquidity.sub(getReserveTotalBorrows(_reserve));\n    }\n\n    function getReserveTotalLiquidity(address _reserve) external view returns (uint256) {\n        CoreLibrary.ReserveData storage reserve = reserves[_reserve];\n        return reserve.totalLiquidity;\n    }\n\n    function getReserveNormalizedIncome(address _reserve) external view returns (uint256) {\n        CoreLibrary.ReserveData storage reserve = reserves[_reserve];\n        return reserve.getNormalizedIncome();\n    }\n\n    function getReserveTotalBorrows(address _reserve) public view returns (uint256) {\n        return reserves[_reserve].getTotalBorrows();\n    }\n\n    function getReserveTotalBorrowsFixed(address _reserve) external view returns (uint256) {\n        CoreLibrary.ReserveData storage reserve = reserves[_reserve];\n        return reserve.totalBorrowsFixed;\n    }\n\n    function getReserveTotalBorrowsVariable(address _reserve) external view returns (uint256) {\n        CoreLibrary.ReserveData storage reserve = reserves[_reserve];\n        return reserve.totalBorrowsVariable;\n    }\n\n    function getReserveLiquidationThreshold(address _reserve) external view returns (uint256) {\n        CoreLibrary.ReserveData storage reserve = reserves[_reserve];\n        return reserve.liquidationThreshold;\n    }\n\n    function getReserveLiquidationDiscount(address _reserve) external view returns (uint256) {\n        CoreLibrary.ReserveData storage reserve = reserves[_reserve];\n        return reserve.liquidationDiscount;\n    }\n\n    function getReserveCurrentVariableBorrowRate(address _reserve) external view returns (uint256) {\n        CoreLibrary.ReserveData storage reserve = reserves[_reserve];\n\n        if(reserve.currentVariableBorrowRate == 0) {\n            return IReserveInterestRateStrategy(reserve.interestRateStrategyAddress)\n                .getBaseVariableBorrowRate();\n        }\n        return reserve.currentVariableBorrowRate;\n    }\n\n    function getReserveCurrentFixedBorrowRate(address _reserve) public view returns (uint256) {\n        CoreLibrary.ReserveData storage reserve = reserves[_reserve];\n        ILendingRateOracle oracle = ILendingRateOracle(addressesProvider.getLendingRateOracle());\n\n        if (reserve.currentFixedBorrowRate == 0) {\n            //no fixed rate borrows yet\n            return oracle.getMarketBorrowRate(_reserve);\n        }\n\n        return reserve.currentFixedBorrowRate;\n    }\n\n    function getReserveCurrentAverageFixedBorrowRate(address _reserve) external view returns (uint256) {\n        CoreLibrary.ReserveData storage reserve = reserves[_reserve];\n        return reserve.currentAverageFixedBorrowRate;\n    }\n\n    function getReserveCurrentLiquidityRate(address _reserve) external view returns (uint256) {\n        CoreLibrary.ReserveData storage reserve = reserves[_reserve];\n        return reserve.currentLiquidityRate;\n    }\n\n    function getReserveLiquidityCumulativeIndex(address _reserve) external view returns (uint256) {\n        CoreLibrary.ReserveData storage reserve = reserves[_reserve];\n        return reserve.lastLiquidityCumulativeIndex;\n    }\n\n    function getReserveVariableBorrowsCumulativeIndex(address _reserve) external view returns (uint256) {\n        CoreLibrary.ReserveData storage reserve = reserves[_reserve];\n        return reserve.lastVariableBorrowCumulativeIndex;\n    }\n\n    /**\n    * @dev this function aggregates the configuration parameters of the reserve.\n    *      It's used in the LendingPoolDataProvider specifically to save gas, and avoid\n    *      multiple external contract calls to fetch the same data.\n     */\n\n    function getReserveConfiguration(address _reserve)\n        external\n        view\n        returns (uint256 decimals,\n        uint256 baseLTVasCollateral,\n        uint256 liquidationThreshold,\n        bool usageAsCollateralEnabled,\n        bool fixedBorrowRateEnabled,\n        bool borrowingEnabled) {\n        CoreLibrary.ReserveData storage reserve = reserves[_reserve];\n        decimals = reserve.decimals;\n        baseLTVasCollateral = reserve.baseLTVasCollateral;\n        liquidationThreshold = reserve.liquidationThreshold;\n        usageAsCollateralEnabled = reserve.usageAsCollateralEnabled;\n        fixedBorrowRateEnabled = reserve.isFixedBorrowRateEnabled;\n        borrowingEnabled = reserve.borrowingEnabled;\n    }\n\n    function isReserveBorrowingEnabled(address _reserve) external view returns (bool) {\n        CoreLibrary.ReserveData storage reserve = reserves[_reserve];\n        return reserve.borrowingEnabled;\n    }\n\n    function isReserveUsageAsCollateralEnabled(address _reserve) external view returns (bool) {\n        CoreLibrary.ReserveData storage reserve = reserves[_reserve];\n        return reserve.usageAsCollateralEnabled;\n    }\n\n    function getReserveIsFixedBorrowRateEnabled(address _reserve) external view returns (bool) {\n        CoreLibrary.ReserveData storage reserve = reserves[_reserve];\n        return reserve.isFixedBorrowRateEnabled;\n    }\n\n    function getReserveIsActive(address _reserve) external view returns(bool) {\n        CoreLibrary.ReserveData storage reserve = reserves[_reserve];\n        return reserve.isActive;\n    }\n\n\n    function getReserveLastUpdate(address _reserve) external view returns (uint40 timestamp) {\n        CoreLibrary.ReserveData storage reserve = reserves[_reserve];\n        timestamp = reserve.lastUpdateTimestamp;\n    }\n\n    /******************\n    @dev user accessors\n     ******************/\n\n    function isUserUseReserveAsCollateralEnabled(address _reserve, address _user) external view returns (bool) {\n        CoreLibrary.UserReserveData storage user = usersReserveData[_user][_reserve];\n        return user.useAsCollateral;\n    }\n    function getUserOriginationFee(address _reserve, address _user) external view returns (uint256) {\n        CoreLibrary.UserReserveData storage user = usersReserveData[_user][_reserve];\n        return user.originationFee;\n    }\n\n    function getUserCurrentBorrowRateMode(address _reserve, address _user)\n        public\n        view\n        returns (CoreLibrary.InterestRateMode)\n    {\n        CoreLibrary.UserReserveData storage user = usersReserveData[_user][_reserve];\n        return user.fixedBorrowRate > 0 ? CoreLibrary.InterestRateMode.FIXED : CoreLibrary.InterestRateMode.VARIABLE;\n    }\n\n    function getUserCurrentFixedBorrowRate(address _reserve, address _user) external view returns (uint256) {\n        CoreLibrary.UserReserveData storage user = usersReserveData[_user][_reserve];\n        return user.fixedBorrowRate;\n    }\n\n    function getUserBorrowBalances(\n        address _reserve,\n        address _user)\n        external view returns (\n            uint256 principalBorrowBalance,\n            uint256 compoundedBorrowBalance,\n            uint256 compoundedAmount) {\n\n        CoreLibrary.UserReserveData storage user = usersReserveData[_user][_reserve];\n        CoreLibrary.ReserveData storage reserve = reserves[_reserve];\n\n        principalBorrowBalance = user.principalBorrowBalance;\n        compoundedBorrowBalance = CoreLibrary.getCompoundedBorrowBalance(\n                user,\n                reserve\n            );\n\n        compoundedAmount = compoundedBorrowBalance.sub(principalBorrowBalance);\n    }\n\n    function getUserVariableBorrowCumulativeIndex(address _reserve, address _user) external view returns (uint256) {\n        CoreLibrary.UserReserveData storage user = usersReserveData[_user][_reserve];\n        return user.lastVariableBorrowCumulativeIndex;\n    }\n\n    function getUserLastUpdate(address _reserve, address _user)\n        external\n        view\n        returns (uint256 timestamp)\n    {\n        CoreLibrary.UserReserveData storage user = usersReserveData[_user][_reserve];\n        timestamp = user.lastUpdateTimestamp;\n    }\n\n    /**\n    @dev utility functions\n     */\n\n    function getReserveUtilizationRate(address _reserve) external view returns (uint256) {\n        return reserves[_reserve].getReserveUtilizationRate();\n    }\n\n    function getReserves() external view returns (address[] memory) {\n        return reservesList;\n    }\n\n    /**\n    @dev Core configuration functions\n     */\n\n    function setAddressesProvider(address _addressesProvider ) external onlyLendingPoolConfigurator {\n\n        addressesProvider = LendingPoolAddressesProvider(_addressesProvider);\n        refreshConfigInternal();\n    }\n\n    function refreshConfiguration() external onlyLendingPoolConfigurator {\n        refreshConfigInternal();\n    }\n\n    function initReserve(address _reserve, address _aTokenAddress, uint256 _decimals, address _interestRateStrategyAddress)\n        external\n        onlyLendingPoolConfigurator\n    {\n        reserves[_reserve].init(_aTokenAddress, _decimals, _interestRateStrategyAddress);\n        addReserveToListInternal(_reserve);\n\n    }\n\n    function setReserveInterestRateStrategyAddress(address _reserve, address _rateStrategyAddress) external onlyLendingPoolConfigurator {\n        reserves[_reserve].interestRateStrategyAddress = _rateStrategyAddress;\n    }\n\n    function enableBorrowingOnReserve(\n        address _reserve,\n        bool _fixedBorrowRateEnabled\n    ) external onlyLendingPoolConfigurator {\n        reserves[_reserve].enableBorrowing(_fixedBorrowRateEnabled);\n    }\n\n    function disableBorrowingOnReserve(address _reserve) external onlyLendingPoolConfigurator {\n        reserves[_reserve].disableBorrowing();\n    }\n\n    function enableReserveAsCollateral(address _reserve, uint256 _baseLTVasCollateral, uint256 _liquidationThreshold)\n        external\n        onlyLendingPoolConfigurator\n    {\n        reserves[_reserve].enableAsCollateral(_baseLTVasCollateral, _liquidationThreshold);\n    }\n\n    function disableReserveAsCollateral(address _reserve) external onlyLendingPoolConfigurator {\n        reserves[_reserve].disableAsCollateral();\n    }\n\n    function enableReserveFixedBorrowRate(address _reserve) external onlyLendingPoolConfigurator {\n        CoreLibrary.ReserveData storage reserve = reserves[_reserve];\n        reserve.isFixedBorrowRateEnabled = true;\n    }\n\n    function disableReserveFixedBorrowRate(address _reserve) external onlyLendingPoolConfigurator {\n        CoreLibrary.ReserveData storage reserve = reserves[_reserve];\n        reserve.isFixedBorrowRateEnabled = false;\n    }\n\n    function activateReserve(address _reserve) external onlyLendingPoolConfigurator {\n        CoreLibrary.ReserveData storage reserve = reserves[_reserve];\n\n        require(\n            reserve.lastLiquidityCumulativeIndex > 0 &&\n            reserve.lastVariableBorrowCumulativeIndex > 0,\n            \"Reserve has not been initialized yet\"\n        );\n        reserve.isActive = true;\n    }\n\n    function deactivateReserve(address _reserve) external onlyLendingPoolConfigurator {\n        CoreLibrary.ReserveData storage reserve = reserves[_reserve];\n        reserve.isActive = false;\n    }\n\n\n    /***************\n    @dev functions to update available collaterals\n    @dev the interest rate and the ltv are expressed in percentage\n     */\n\n    function setReserveBaseLTVasCollateral(address _reserve, uint256 _ltv)\n        external\n        onlyLendingPoolConfigurator {\n        CoreLibrary.ReserveData storage reserve = reserves[_reserve];\n        reserve.baseLTVasCollateral = _ltv;\n    }\n\n    function setReserveLiquidationThreshold(address _reserve, uint256 _threshold)\n        external\n        onlyLendingPoolConfigurator\n    {\n        CoreLibrary.ReserveData storage reserve = reserves[_reserve];\n        reserve.liquidationThreshold = _threshold;\n    }\n\n    function setReserveLiquidationDiscount(address _reserve, uint256 _discount)\n        external\n        onlyLendingPoolConfigurator\n    {\n        CoreLibrary.ReserveData storage reserve = reserves[_reserve];\n        reserve.liquidationDiscount = _discount;\n    }\n\n    /**\n    @notice ETH/token transfer functions\n     */\n    function() external payable {\n        //only contracts can send ETH to the core\n        require(msg.sender.isContract(), \"Only contracts can send ether to the Lending pool core\");\n\n    }\n\n    function transferToUser(address _reserve, address payable _user, uint256 _amount) external onlyLendingPool {\n        if (_reserve != ethereumAddress){\n            ERC20(_reserve).safeTransfer(_user, _amount);\n        }\n        else {\n            _user.transfer(_amount);\n        }\n    }\n\n    function transferToFeeCollectionAddress(address _token, address _user, uint256 _amount, address destination)\n        external\n        payable\n        onlyLendingPool\n    {\n        address payable feeAddress = address(uint160(destination)); //cast the address to payable\n\n        if (_token != ethereumAddress) {\n            ERC20(_token).safeTransferFrom(_user, feeAddress, _amount);\n        } else {\n            require(msg.value >= _amount, \"The amount and the value sent to deposit do not match\");\n            feeAddress.transfer(_amount);\n        }\n    }\n\n    function transferToReserve(address _reserve, address payable _user, uint256 _amount) external payable onlyLendingPool {\n        CoreLibrary.ReserveData storage reserve = reserves[_reserve];\n\n        require(\n            reserve.usageAsCollateralEnabled || reserve.borrowingEnabled,\n            \"The reserve isn't enabled for borrowing or as collateral\"\n        );\n\n        if (_reserve != ethereumAddress){\n            require(msg.value == 0, \"User is sending ETH along with the ERC20 transfer. Check the value attribute of the transaction\");\n            ERC20(_reserve).safeTransferFrom(_user, address(this), _amount);\n\n        }\n        else {\n            require(msg.value >= _amount, \"The amount and the value sent to deposit do not match\");\n\n            if(msg.value > _amount) { //send back excess ETH\n                uint256 excessAmount = msg.value.sub(_amount);\n                _user.transfer(excessAmount);\n            }\n        }\n    }\n\n    /**\n    @notice internal functions\n     */\n\n\n    function refreshConfigInternal() internal {\n\n        ethereumAddress = INetworkMetadataProvider(addressesProvider.getNetworkMetadataProvider()).getEthereumAddress();\n        lendingPoolAddress = addressesProvider.getLendingPool();\n    }\n\n    function addReserveToListInternal(address _reserve) internal {\n        bool reserveAlreadyAdded = false;\n        for (uint256 i = 0; i < reservesList.length; i++)\n            if (reservesList[i] == _reserve) {\n                reserveAlreadyAdded = true;\n            }\n        if (!reserveAlreadyAdded) reservesList.push(_reserve);\n    }\n\n}\n",
  "sourcePath": "/Users/jg/Documents/aaveBot/contracts/lendingpool/LendingPoolCore.sol",
  "compiler": {
    "name": "solc",
    "version": "0.5.8+commit.23d335f2.Emscripten.clang"
  },
  "schemaVersion": "3.0.16",
  "updatedAt": "2019-11-07T20:00:22.289Z",
  "devdoc": {
    "author": "Aave",
    "methods": {
      "getReserveConfiguration(address)": {
        "details": "this function aggregates the configuration parameters of the reserve.     It's used in the LendingPoolDataProvider specifically to save gas, and avoid     multiple external contract calls to fetch the same data."
      },
      "getReserveInterestRateStrategyAddress(address)": {
        "details": "reserve accessors********************"
      },
      "getReserveUtilizationRate(address)": {
        "details": "utility functions"
      },
      "isOwner()": {
        "details": "Returns true if the caller is the current owner."
      },
      "isUserUseReserveAsCollateralEnabled(address,address)": {
        "details": "user accessors*****************"
      },
      "owner()": {
        "details": "Returns the address of the current owner."
      },
      "renounceOwnership()": {
        "details": "Leaves the contract without owner. It will not be possible to call `onlyOwner` functions anymore. Can only be called by the current owner.     * NOTE: Renouncing ownership will leave the contract without an owner, thereby removing any functionality that is only available to the owner."
      },
      "setAddressesProvider(address)": {
        "details": "Core configuration functions"
      },
      "setReserveBaseLTVasCollateral(address,uint256)": {
        "details": "functions to update available collateralsthe interest rate and the ltv are expressed in percentage"
      },
      "transferOwnership(address)": {
        "details": "Transfers ownership of the contract to a new account (`newOwner`). Can only be called by the current owner."
      },
      "updateReserveTotalBorrowsByRateMode(address,address,uint256,uint256,uint8,uint256)": {
        "details": "increases the proper total borrows on a reserve depending on the type of interest rate chosen by the user**************"
      },
      "updateUserFixedBorrowRate(address,address)": {
        "details": "updates the fixed borrow rate for the user******************"
      },
      "updateUserLastVariableBorrowCumulativeIndex(address,address)": {
        "details": "functions to update users reserve data"
      }
    },
    "title": "LendingPoolCore contract"
  },
  "userdoc": {
    "methods": {
      "cumulateLiquidityToReserveLiquidityIndex(address,uint256)": {
        "notice": "cumulates a fixed amount of liquidity to the reserve, considered as a specific interest accrued in one block. Please refer to the whitepaper for further information."
      },
      "decreaseReserveTotalBorrowsFixedAndUpdateAverageRate(address,uint256,uint256)": {
        "notice": "decreases the total borrow fixed of a reserve Bf and updates the average fixed borrow rate Raf. Please refer to the whitepaper for further information."
      },
      "decreaseReserveTotalBorrowsVariable(address,uint256)": {
        "notice": "decreases the the total borrow variable of a reserve Bv."
      },
      "decreaseReserveTotalLiquidity(address,uint256)": {
        "notice": "decreases the total liquidity Lt of a reserve"
      },
      "getReserveInterestRateStrategyAddress(address)": {
        "notice": "*******************"
      },
      "increaseReserveTotalBorrowsFixedAndUpdateAverageRate(address,uint256,uint256)": {
        "notice": "increases the total borrow fixed of a reserve Bf and updates the average fixed borrow rate Raf. Please refer to the whitepaper for further information."
      },
      "increaseReserveTotalBorrowsVariable(address,uint256)": {
        "notice": "increases the the total borrow variable of a reserve Bv."
      },
      "increaseReserveTotalLiquidity(address,uint256)": {
        "notice": "increases the total liquidity Lt of a reserve"
      },
      "isUserUseReserveAsCollateralEnabled(address,address)": {
        "notice": "****************"
      },
      "setReserveBaseLTVasCollateral(address,uint256)": {
        "notice": "*************"
      },
      "setReserveLastUpdate(address)": {
        "notice": "refreshes reserve last updated block number Bl"
      },
      "updateReserveCumulativeIndexes(address)": {
        "notice": "Updates the reserve Liquidity cumulative interest Ci and the Variable borrows cumulative index Bvc. Please refer to the whitepaper for further information."
      },
      "updateReserveInterestRates(address)": {
        "notice": "Updates the reserve current fixed borrow rate Rf, the current variable borrow rate Rv and the current liquidity rate Rl. Please refer to the whitepaper for further information."
      },
      "updateReserveTotalBorrowsByRateMode(address,address,uint256,uint256,uint8,uint256)": {
        "notice": "*************"
      },
      "updateUserFixedBorrowRate(address,address)": {
        "notice": "****************"
      },
      "updateUserLastVariableBorrowCumulativeIndex(address,address)": {
        "notice": "*************"
      }
    },
    "notice": "***********************************************************************************Contains all the data and the funds deposited into a lending pool************************************************************************************"
  }
}