{
  "contractName": "LendingRateOracle",
  "abi": [
    {
      "constant": true,
      "inputs": [
        {
          "name": "_asset",
          "type": "address"
        }
      ],
      "name": "getMarketBorrowRate",
      "outputs": [
        {
          "name": "",
          "type": "uint256"
        }
      ],
      "payable": false,
      "stateMutability": "view",
      "type": "function"
    },
    {
      "constant": false,
      "inputs": [
        {
          "name": "_asset",
          "type": "address"
        },
        {
          "name": "_rate",
          "type": "uint256"
        }
      ],
      "name": "setMarketBorrowRate",
      "outputs": [],
      "payable": false,
      "stateMutability": "nonpayable",
      "type": "function"
    },
    {
      "constant": true,
      "inputs": [
        {
          "name": "_asset",
          "type": "address"
        }
      ],
      "name": "getMarketLiquidityRate",
      "outputs": [
        {
          "name": "",
          "type": "uint256"
        }
      ],
      "payable": false,
      "stateMutability": "view",
      "type": "function"
    },
    {
      "constant": false,
      "inputs": [
        {
          "name": "_asset",
          "type": "address"
        },
        {
          "name": "_rate",
          "type": "uint256"
        }
      ],
      "name": "setMarketLiquidityRate",
      "outputs": [],
      "payable": false,
      "stateMutability": "nonpayable",
      "type": "function"
    }
  ],
  "bytecode": "0x608060405234801561001057600080fd5b506102e9806100206000396000f3fe608060405234801561001057600080fd5b506004361061004c5760003560e01c806372eb293d146100515780639f86a0ee1461009f578063bb85c0bb146100ed578063fbe5ba1e14610145575b600080fd5b61009d6004803603604081101561006757600080fd5b81019080803573ffffffffffffffffffffffffffffffffffffffff1690602001909291908035906020019092919050505061019d565b005b6100eb600480360360408110156100b557600080fd5b81019080803573ffffffffffffffffffffffffffffffffffffffff169060200190929190803590602001909291905050506101e4565b005b61012f6004803603602081101561010357600080fd5b81019080803573ffffffffffffffffffffffffffffffffffffffff16906020019092919050505061022c565b6040518082815260200191505060405180910390f35b6101876004803603602081101561015b57600080fd5b81019080803573ffffffffffffffffffffffffffffffffffffffff169060200190929190505050610274565b6040518082815260200191505060405180910390f35b806000808473ffffffffffffffffffffffffffffffffffffffff1673ffffffffffffffffffffffffffffffffffffffff168152602001908152602001600020819055505050565b80600160008473ffffffffffffffffffffffffffffffffffffffff1673ffffffffffffffffffffffffffffffffffffffff168152602001908152602001600020819055505050565b60008060008373ffffffffffffffffffffffffffffffffffffffff1673ffffffffffffffffffffffffffffffffffffffff168152602001908152602001600020549050919050565b6000600160008373ffffffffffffffffffffffffffffffffffffffff1673ffffffffffffffffffffffffffffffffffffffff16815260200190815260200160002054905091905056fea165627a7a72305820f72f45c6e7589a487040b277c8a7aac1ac792c7e99baadd1404044f3d9983d320029",
  "source": "pragma solidity ^0.5.0;\n\nimport \"../../interfaces/ILendingRateOracle.sol\";\n\n\ncontract LendingRateOracle is ILendingRateOracle {\n\n    mapping(address => uint) borrowRates;\n    mapping(address => uint) liquidityRates;\n\n\n    function getMarketBorrowRate(address _asset) external view returns(uint) {\n        return borrowRates[_asset];\n    }\n\n    function setMarketBorrowRate(address _asset, uint _rate) external {\n        borrowRates[_asset] = _rate;\n    }\n\n    function getMarketLiquidityRate(address _asset) external view returns(uint) {\n        return liquidityRates[_asset];\n    }\n\n    function setMarketLiquidityRate(address _asset, uint _rate) external {\n        liquidityRates[_asset] = _rate;\n    }\n}",
  "sourcePath": "/Users/jg/Documents/aaveBot/contracts/mocks/Oracle/LendingRateOracle.sol",
  "compiler": {
    "name": "solc",
    "version": "0.5.8+commit.23d335f2.Emscripten.clang"
  },
  "schemaVersion": "3.0.16",
  "updatedAt": "2019-11-07T20:00:22.380Z",
  "devdoc": {
    "methods": {}
  },
  "userdoc": {
    "methods": {}
  }
}