{
  "contractName": "LendingPoolAddressesProvider",
  "abi": [
    {
      "constant": true,
      "inputs": [
        {
          "name": "_key",
          "type": "bytes32"
        }
      ],
      "name": "getAddress",
      "outputs": [
        {
          "name": "",
          "type": "address"
        }
      ],
      "payable": false,
      "stateMutability": "view",
      "type": "function"
    },
    {
      "anonymous": false,
      "inputs": [
        {
          "indexed": true,
          "name": "newAddress",
          "type": "address"
        }
      ],
      "name": "LendingPoolUpdated",
      "type": "event"
    },
    {
      "anonymous": false,
      "inputs": [
        {
          "indexed": true,
          "name": "newAddress",
          "type": "address"
        }
      ],
      "name": "LendingPoolCoreUpdated",
      "type": "event"
    },
    {
      "anonymous": false,
      "inputs": [
        {
          "indexed": true,
          "name": "newAddress",
          "type": "address"
        }
      ],
      "name": "LendingPoolParametersProviderUpdated",
      "type": "event"
    },
    {
      "anonymous": false,
      "inputs": [
        {
          "indexed": true,
          "name": "newAddress",
          "type": "address"
        }
      ],
      "name": "LendingPoolManagerUpdated",
      "type": "event"
    },
    {
      "anonymous": false,
      "inputs": [
        {
          "indexed": true,
          "name": "newAddress",
          "type": "address"
        }
      ],
      "name": "LendingPoolConfiguratorUpdated",
      "type": "event"
    },
    {
      "anonymous": false,
      "inputs": [
        {
          "indexed": true,
          "name": "newAddress",
          "type": "address"
        }
      ],
      "name": "LendingPoolLiquidationManagerUpdated",
      "type": "event"
    },
    {
      "anonymous": false,
      "inputs": [
        {
          "indexed": true,
          "name": "newAddress",
          "type": "address"
        }
      ],
      "name": "LendingPoolDataProviderUpdated",
      "type": "event"
    },
    {
      "anonymous": false,
      "inputs": [
        {
          "indexed": true,
          "name": "newAddress",
          "type": "address"
        }
      ],
      "name": "LendingPoolNetworkMetadataProviderUpdated",
      "type": "event"
    },
    {
      "anonymous": false,
      "inputs": [
        {
          "indexed": true,
          "name": "newAddress",
          "type": "address"
        }
      ],
      "name": "PriceOracleUpdated",
      "type": "event"
    },
    {
      "anonymous": false,
      "inputs": [
        {
          "indexed": true,
          "name": "newAddress",
          "type": "address"
        }
      ],
      "name": "LendingRateOracleUpdated",
      "type": "event"
    },
    {
      "anonymous": false,
      "inputs": [
        {
          "indexed": true,
          "name": "newAddress",
          "type": "address"
        }
      ],
      "name": "FeeProviderUpdated",
      "type": "event"
    },
    {
      "anonymous": false,
      "inputs": [
        {
          "indexed": true,
          "name": "newAddress",
          "type": "address"
        }
      ],
      "name": "InterestRrateStrategyUpdated",
      "type": "event"
    },
    {
      "constant": true,
      "inputs": [],
      "name": "getLendingPool",
      "outputs": [
        {
          "name": "",
          "type": "address"
        }
      ],
      "payable": false,
      "stateMutability": "view",
      "type": "function"
    },
    {
      "constant": false,
      "inputs": [
        {
          "name": "_pool",
          "type": "address"
        }
      ],
      "name": "setLendingPool",
      "outputs": [],
      "payable": false,
      "stateMutability": "nonpayable",
      "type": "function"
    },
    {
      "constant": true,
      "inputs": [],
      "name": "getInterestRateStrategy",
      "outputs": [
        {
          "name": "",
          "type": "address"
        }
      ],
      "payable": false,
      "stateMutability": "view",
      "type": "function"
    },
    {
      "constant": false,
      "inputs": [
        {
          "name": "_strategy",
          "type": "address"
        }
      ],
      "name": "setInterestRateStrategy",
      "outputs": [],
      "payable": false,
      "stateMutability": "nonpayable",
      "type": "function"
    },
    {
      "constant": true,
      "inputs": [],
      "name": "getLendingPoolCore",
      "outputs": [
        {
          "name": "",
          "type": "address"
        }
      ],
      "payable": false,
      "stateMutability": "view",
      "type": "function"
    },
    {
      "constant": false,
      "inputs": [
        {
          "name": "_lendingPoolCore",
          "type": "address"
        }
      ],
      "name": "setLendingPoolCore",
      "outputs": [],
      "payable": false,
      "stateMutability": "nonpayable",
      "type": "function"
    },
    {
      "constant": true,
      "inputs": [],
      "name": "getLendingPoolConfigurator",
      "outputs": [
        {
          "name": "",
          "type": "address"
        }
      ],
      "payable": false,
      "stateMutability": "view",
      "type": "function"
    },
    {
      "constant": false,
      "inputs": [
        {
          "name": "_configurator",
          "type": "address"
        }
      ],
      "name": "setLendingPoolConfigurator",
      "outputs": [],
      "payable": false,
      "stateMutability": "nonpayable",
      "type": "function"
    },
    {
      "constant": true,
      "inputs": [],
      "name": "getLendingPoolManager",
      "outputs": [
        {
          "name": "",
          "type": "address"
        }
      ],
      "payable": false,
      "stateMutability": "view",
      "type": "function"
    },
    {
      "constant": false,
      "inputs": [
        {
          "name": "_lendingPoolManager",
          "type": "address"
        }
      ],
      "name": "setLendingPoolManager",
      "outputs": [],
      "payable": false,
      "stateMutability": "nonpayable",
      "type": "function"
    },
    {
      "constant": true,
      "inputs": [],
      "name": "getLendingPoolDataProvider",
      "outputs": [
        {
          "name": "",
          "type": "address"
        }
      ],
      "payable": false,
      "stateMutability": "view",
      "type": "function"
    },
    {
      "constant": false,
      "inputs": [
        {
          "name": "_provider",
          "type": "address"
        }
      ],
      "name": "setLendingPoolDataProvider",
      "outputs": [],
      "payable": false,
      "stateMutability": "nonpayable",
      "type": "function"
    },
    {
      "constant": true,
      "inputs": [],
      "name": "getNetworkMetadataProvider",
      "outputs": [
        {
          "name": "",
          "type": "address"
        }
      ],
      "payable": false,
      "stateMutability": "view",
      "type": "function"
    },
    {
      "constant": false,
      "inputs": [
        {
          "name": "_networkMetadataProvider",
          "type": "address"
        }
      ],
      "name": "setNetworkMetadataProvider",
      "outputs": [],
      "payable": false,
      "stateMutability": "nonpayable",
      "type": "function"
    },
    {
      "constant": true,
      "inputs": [],
      "name": "getLendingPoolParametersProvider",
      "outputs": [
        {
          "name": "",
          "type": "address"
        }
      ],
      "payable": false,
      "stateMutability": "view",
      "type": "function"
    },
    {
      "constant": false,
      "inputs": [
        {
          "name": "_parametersProvider",
          "type": "address"
        }
      ],
      "name": "setLendingPoolParametersProvider",
      "outputs": [],
      "payable": false,
      "stateMutability": "nonpayable",
      "type": "function"
    },
    {
      "constant": true,
      "inputs": [],
      "name": "getPriceOracle",
      "outputs": [
        {
          "name": "",
          "type": "address"
        }
      ],
      "payable": false,
      "stateMutability": "view",
      "type": "function"
    },
    {
      "constant": false,
      "inputs": [
        {
          "name": "_priceOracle",
          "type": "address"
        }
      ],
      "name": "setPriceOracle",
      "outputs": [],
      "payable": false,
      "stateMutability": "nonpayable",
      "type": "function"
    },
    {
      "constant": true,
      "inputs": [],
      "name": "getLendingRateOracle",
      "outputs": [
        {
          "name": "",
          "type": "address"
        }
      ],
      "payable": false,
      "stateMutability": "view",
      "type": "function"
    },
    {
      "constant": false,
      "inputs": [
        {
          "name": "_lendingRateOracle",
          "type": "address"
        }
      ],
      "name": "setLendingRateOracle",
      "outputs": [],
      "payable": false,
      "stateMutability": "nonpayable",
      "type": "function"
    },
    {
      "constant": true,
      "inputs": [],
      "name": "getFeeProvider",
      "outputs": [
        {
          "name": "",
          "type": "address"
        }
      ],
      "payable": false,
      "stateMutability": "view",
      "type": "function"
    },
    {
      "constant": false,
      "inputs": [
        {
          "name": "_feeProvider",
          "type": "address"
        }
      ],
      "name": "setFeeProvider",
      "outputs": [],
      "payable": false,
      "stateMutability": "nonpayable",
      "type": "function"
    },
    {
      "constant": true,
      "inputs": [],
      "name": "getLendingPoolLiquidationManager",
      "outputs": [
        {
          "name": "",
          "type": "address"
        }
      ],
      "payable": false,
      "stateMutability": "view",
      "type": "function"
    },
    {
      "constant": false,
      "inputs": [
        {
          "name": "_manager",
          "type": "address"
        }
      ],
      "name": "setLendingPoolLiquidationManager",
      "outputs": [],
      "payable": false,
      "stateMutability": "nonpayable",
      "type": "function"
    }
  ],
  "bytecode": "0x608060405234801561001057600080fd5b506110d0806100206000396000f3fe608060405234801561001057600080fd5b50600436106101735760003560e01c80635834eb9a116100de578063b5722bb511610097578063ed6ff76011610071578063ed6ff76014610766578063f529a5d0146107b0578063fbeefc3c146107fa578063fca513a81461084457610173565b8063b5722bb514610694578063c64bdf5a146106de578063ed1ce3251461072257610173565b80635834eb9a146104f05780637f65c2ff1461053a578063820d12741461057e57806385c858b1146105c257806387707c221461060c578063acaf79ac1461065057610173565b80632f58b80d116101305780632f58b80d1461034657806333128d59146103905780633618abba146103da57806340fdcadc1461042457806344ce375b14610468578063530e784f146104ac57610173565b80630261bf8b14610178578063026e76da146101c257806304061d8e14610206578063113aa8b11461025057806321f8a721146102945780632a5ad15914610302575b600080fd5b61018061088e565b604051808273ffffffffffffffffffffffffffffffffffffffff1673ffffffffffffffffffffffffffffffffffffffff16815260200191505060405180910390f35b610204600480360360208110156101d857600080fd5b81019080803573ffffffffffffffffffffffffffffffffffffffff1690602001909291905050506108be565b005b61020e61092e565b604051808273ffffffffffffffffffffffffffffffffffffffff1673ffffffffffffffffffffffffffffffffffffffff16815260200191505060405180910390f35b6102926004803603602081101561026657600080fd5b81019080803573ffffffffffffffffffffffffffffffffffffffff16906020019092919050505061095e565b005b6102c0600480360360208110156102aa57600080fd5b81019080803590602001909291905050506109ce565b604051808273ffffffffffffffffffffffffffffffffffffffff1673ffffffffffffffffffffffffffffffffffffffff16815260200191505060405180910390f35b6103446004803603602081101561031857600080fd5b81019080803573ffffffffffffffffffffffffffffffffffffffff169060200190929190505050610a0a565b005b61034e610a7a565b604051808273ffffffffffffffffffffffffffffffffffffffff1673ffffffffffffffffffffffffffffffffffffffff16815260200191505060405180910390f35b610398610aaa565b604051808273ffffffffffffffffffffffffffffffffffffffff1673ffffffffffffffffffffffffffffffffffffffff16815260200191505060405180910390f35b6103e2610ada565b604051808273ffffffffffffffffffffffffffffffffffffffff1673ffffffffffffffffffffffffffffffffffffffff16815260200191505060405180910390f35b6104666004803603602081101561043a57600080fd5b81019080803573ffffffffffffffffffffffffffffffffffffffff169060200190929190505050610b0a565b005b6104aa6004803603602081101561047e57600080fd5b81019080803573ffffffffffffffffffffffffffffffffffffffff169060200190929190505050610b7a565b005b6104ee600480360360208110156104c257600080fd5b81019080803573ffffffffffffffffffffffffffffffffffffffff169060200190929190505050610bea565b005b6104f8610c5a565b604051808273ffffffffffffffffffffffffffffffffffffffff1673ffffffffffffffffffffffffffffffffffffffff16815260200191505060405180910390f35b61057c6004803603602081101561055057600080fd5b81019080803573ffffffffffffffffffffffffffffffffffffffff169060200190929190505050610c8a565b005b6105c06004803603602081101561059457600080fd5b81019080803573ffffffffffffffffffffffffffffffffffffffff169060200190929190505050610cfa565b005b6105ca610d6a565b604051808273ffffffffffffffffffffffffffffffffffffffff1673ffffffffffffffffffffffffffffffffffffffff16815260200191505060405180910390f35b61064e6004803603602081101561062257600080fd5b81019080803573ffffffffffffffffffffffffffffffffffffffff169060200190929190505050610d9a565b005b6106926004803603602081101561066657600080fd5b81019080803573ffffffffffffffffffffffffffffffffffffffff169060200190929190505050610e0a565b005b61069c610e7a565b604051808273ffffffffffffffffffffffffffffffffffffffff1673ffffffffffffffffffffffffffffffffffffffff16815260200191505060405180910390f35b610720600480360360208110156106f457600080fd5b81019080803573ffffffffffffffffffffffffffffffffffffffff169060200190929190505050610eaa565b005b6107646004803603602081101561073857600080fd5b81019080803573ffffffffffffffffffffffffffffffffffffffff169060200190929190505050610f1a565b005b61076e610f8a565b604051808273ffffffffffffffffffffffffffffffffffffffff1673ffffffffffffffffffffffffffffffffffffffff16815260200191505060405180910390f35b6107b8610fbf565b604051808273ffffffffffffffffffffffffffffffffffffffff1673ffffffffffffffffffffffffffffffffffffffff16815260200191505060405180910390f35b610802610fef565b604051808273ffffffffffffffffffffffffffffffffffffffff1673ffffffffffffffffffffffffffffffffffffffff16815260200191505060405180910390f35b61084c61101f565b604051808273ffffffffffffffffffffffffffffffffffffffff1673ffffffffffffffffffffffffffffffffffffffff16815260200191505060405180910390f35b60006108b97f4c454e44494e475f504f4f4c00000000000000000000000000000000000000006109ce565b905090565b6108e87f504152414d45544552535f50524f5649444552000000000000000000000000008261104f565b8073ffffffffffffffffffffffffffffffffffffffff167fce16ea9b2fd7cadddd0f7359971028f50b5ddba33dfae1a9bdea956fabb1e28060405160405180910390a250565b60006109597f504152414d45544552535f50524f5649444552000000000000000000000000006109ce565b905090565b6109887f4c454e44494e475f504f4f4c00000000000000000000000000000000000000008261104f565b8073ffffffffffffffffffffffffffffffffffffffff167fc4e6c6cdf28d0edbd8bcf071d724d33cc2e7a30be7d06443925656e9cb492aa460405160405180910390a250565b600080600083815260200190815260200160002060009054906101000a900473ffffffffffffffffffffffffffffffffffffffff169050919050565b610a347f494e5445524553545f524154455f5354524154454759000000000000000000008261104f565b8073ffffffffffffffffffffffffffffffffffffffff167fd25a3cb0b081c9728496d44769e25abdeec68adff4cef1b5e7748b8918c8e23960405160405180910390a250565b6000610aa57f444154415f50524f5649444552000000000000000000000000000000000000006109ce565b905090565b6000610ad57f4c454e44494e475f504f4f4c5f4d414e414745520000000000000000000000006109ce565b905090565b6000610b057f4c454e44494e475f524154455f4f5241434c45000000000000000000000000006109ce565b905090565b610b347f4c454e44494e475f504f4f4c5f4d414e414745520000000000000000000000008261104f565b8073ffffffffffffffffffffffffffffffffffffffff167fd5280c51185a38d36f7a0f5e56cac6248312bb70d0974782fa5a595127e0e08e60405160405180910390a250565b610ba47f4c49515549444154494f4e5f4d414e41474552000000000000000000000000008261104f565b8073ffffffffffffffffffffffffffffffffffffffff167f1a76cb769b814bc038223da86932b099b20aae03473683e6d98f5c3554e2606460405160405180910390a250565b610c147f50524943455f4f5241434c4500000000000000000000000000000000000000008261104f565b8073ffffffffffffffffffffffffffffffffffffffff167fefe8ab924ca486283a79dc604baa67add51afb82af1db8ac386ebbba643cdffd60405160405180910390a250565b6000610c857f4c49515549444154494f4e5f4d414e41474552000000000000000000000000006109ce565b905090565b610cb47f4e4554574f524b5f4d455441444154415f50524f5649444552000000000000008261104f565b8073ffffffffffffffffffffffffffffffffffffffff167fad2e24f28868b4296c2b1dac9efe6e376dd3395af5e7ecf00715b5bcdb3db51260405160405180910390a250565b610d247f4c454e44494e475f524154455f4f5241434c45000000000000000000000000008261104f565b8073ffffffffffffffffffffffffffffffffffffffff167f5c29179aba6942020a8a2d38f65de02fb6b7f784e7f049ed3a3cab97621859b560405160405180910390a250565b6000610d957f4c454e44494e475f504f4f4c5f434f4e464947555241544f52000000000000006109ce565b905090565b610dc47f4c454e44494e475f504f4f4c5f434f52450000000000000000000000000000008261104f565b8073ffffffffffffffffffffffffffffffffffffffff167f71c226bb2879778ca1298196bf7cc1256baee9d05b496c31ee627d35a471b5b760405160405180910390a250565b610e347f4c454e44494e475f504f4f4c5f434f4e464947555241544f52000000000000008261104f565b8073ffffffffffffffffffffffffffffffffffffffff167fdfabe479bad36782fb1e77fbfddd4e382671713527e4786cfc93a022ae76372960405160405180910390a250565b6000610ea57f4e4554574f524b5f4d455441444154415f50524f5649444552000000000000006109ce565b905090565b610ed47f4645455f50524f564944455200000000000000000000000000000000000000008261104f565b8073ffffffffffffffffffffffffffffffffffffffff167f18e1a55b8eff9c93921eecfa1462d6a8cbb80b3988db3eb14c039e43fdb2266160405160405180910390a250565b610f447f444154415f50524f5649444552000000000000000000000000000000000000008261104f565b8073ffffffffffffffffffffffffffffffffffffffff167f07890d7d10db37434d76ee4f2928fb2dc66227c3b3391206aced4f7bcb59cdb060405160405180910390a250565b600080610fb67f4c454e44494e475f504f4f4c5f434f52450000000000000000000000000000006109ce565b90508091505090565b6000610fea7f494e5445524553545f524154455f5354524154454759000000000000000000006109ce565b905090565b600061101a7f4645455f50524f564944455200000000000000000000000000000000000000006109ce565b905090565b600061104a7f50524943455f4f5241434c4500000000000000000000000000000000000000006109ce565b905090565b8060008084815260200190815260200160002060006101000a81548173ffffffffffffffffffffffffffffffffffffffff021916908373ffffffffffffffffffffffffffffffffffffffff160217905550505056fea165627a7a723058209e8049541c77c5ebe54f2b8fc1daa0ffb4312e0cb14738a3765a32258c32d8a20029",
  "source": "pragma solidity ^0.5.0;\n\nimport \"./AddressStorage.sol\";\nimport \"../interfaces/ILendingPoolAddressesProvider.sol\";\n\ncontract LendingPoolAddressesProvider is ILendingPoolAddressesProvider, AddressStorage {\n\n    //events\n    event LendingPoolUpdated(address indexed newAddress);\n    event LendingPoolCoreUpdated(address indexed newAddress);\n    event LendingPoolParametersProviderUpdated(address indexed newAddress);\n    event LendingPoolManagerUpdated(address indexed newAddress);\n    event LendingPoolConfiguratorUpdated(address indexed newAddress);\n    event LendingPoolLiquidationManagerUpdated(address indexed newAddress);\n    event LendingPoolDataProviderUpdated(address indexed newAddress);\n    event LendingPoolNetworkMetadataProviderUpdated(address indexed newAddress);\n    event PriceOracleUpdated(address indexed newAddress);\n    event LendingRateOracleUpdated(address indexed newAddress);\n    event FeeProviderUpdated(address indexed newAddress);\n    event InterestRrateStrategyUpdated(address indexed newAddress);\n\n\n    bytes32 private constant LENDING_POOL = \"LENDING_POOL\";\n    bytes32 private constant LENDING_POOL_CORE = \"LENDING_POOL_CORE\";\n    bytes32 private constant LENDING_POOL_CONFIGURATOR = \"LENDING_POOL_CONFIGURATOR\";\n    bytes32 private constant LENDING_POOL_PARAMETERS_PROVIDER = \"PARAMETERS_PROVIDER\";\n    bytes32 private constant LENDING_POOL_MANAGER = \"LENDING_POOL_MANAGER\";\n    bytes32 private constant LENDING_POOL_LIQUIDATION_MANAGER = \"LIQUIDATION_MANAGER\";\n    bytes32 private constant DATA_PROVIDER = \"DATA_PROVIDER\";\n    bytes32 private constant NETWORK_METADATA_PROVIDER = \"NETWORK_METADATA_PROVIDER\";\n    bytes32 private constant PRICE_ORACLE = \"PRICE_ORACLE\";\n    bytes32 private constant LENDING_RATE_ORACLE = \"LENDING_RATE_ORACLE\";\n    bytes32 private constant FEE_PROVIDER = \"FEE_PROVIDER\";\n    bytes32 private constant INTEREST_RATE_STRATEGY = \"INTEREST_RATE_STRATEGY\";\n    bytes32 private constant WALLET_BALANCE_PROVIDER = \"WALLET_BALANCE_PROVIDER\";\n\n    function getLendingPool() public view returns (address) {\n        return getAddress(LENDING_POOL);\n    }\n\n    // TODO: add access control rules under DAO\n    function setLendingPool(address _pool) public {\n        _setAddress(LENDING_POOL, _pool);\n        emit LendingPoolUpdated(_pool);\n    }\n\n    function getInterestRateStrategy() public view returns (address) {\n        return getAddress(INTEREST_RATE_STRATEGY);\n    }\n\n    // TODO: add access control rules under DAO\n    function setInterestRateStrategy(address _strategy) public {\n        _setAddress(INTEREST_RATE_STRATEGY, _strategy);\n        emit InterestRrateStrategyUpdated(_strategy);\n    }\n\n    function getLendingPoolCore() public view returns (address payable) {\n        address payable core = address(uint160(getAddress(LENDING_POOL_CORE)));\n        return core;\n    }\n\n    // TODO: add access control rules under DAO\n    function setLendingPoolCore(address _lendingPoolCore) public {\n        _setAddress(LENDING_POOL_CORE, _lendingPoolCore);\n        emit LendingPoolCoreUpdated(_lendingPoolCore);\n    }\n\n    function getLendingPoolConfigurator() public view returns (address) {\n        return getAddress(LENDING_POOL_CONFIGURATOR);\n    }\n\n    // TODO: add access control rules under DAO\n    function setLendingPoolConfigurator(address _configurator) public {\n        _setAddress(LENDING_POOL_CONFIGURATOR, _configurator);\n        emit LendingPoolConfiguratorUpdated(_configurator);\n    }\n\n    function getLendingPoolManager() public view returns (address) {\n        return getAddress(LENDING_POOL_MANAGER);\n    }\n\n    // TODO: add access control rules under DAO\n    function setLendingPoolManager(address _lendingPoolManager) public {\n        _setAddress(LENDING_POOL_MANAGER, _lendingPoolManager);\n        emit LendingPoolManagerUpdated(_lendingPoolManager);\n    }\n\n    function getLendingPoolDataProvider() public view returns (address) {\n        return getAddress(DATA_PROVIDER);\n    }\n\n    // TODO: add access control rules under DAO\n    function setLendingPoolDataProvider(address _provider) public {\n        _setAddress(DATA_PROVIDER, _provider);\n        emit LendingPoolDataProviderUpdated(_provider);\n    }\n\n    function getNetworkMetadataProvider() public view returns (address) {\n        return getAddress(NETWORK_METADATA_PROVIDER);\n    }\n\n    // TODO: add access control rules under DAO\n    function setNetworkMetadataProvider(address _networkMetadataProvider) public {\n        _setAddress(NETWORK_METADATA_PROVIDER, _networkMetadataProvider);\n        emit LendingPoolNetworkMetadataProviderUpdated(_networkMetadataProvider);\n    }\n\n    function getLendingPoolParametersProvider() public view returns (address) {\n        return getAddress(LENDING_POOL_PARAMETERS_PROVIDER);\n    }\n\n    // TODO: add access control rules under DAO\n    function setLendingPoolParametersProvider(address _parametersProvider) public {\n        _setAddress(LENDING_POOL_PARAMETERS_PROVIDER, _parametersProvider);\n        emit LendingPoolParametersProviderUpdated(_parametersProvider);\n    }\n\n\n    function getPriceOracle() public view returns (address) {\n        return getAddress(PRICE_ORACLE);\n    }\n\n    // TODO: add access control rules under DAO\n    function setPriceOracle(address _priceOracle) public {\n        _setAddress(PRICE_ORACLE, _priceOracle);\n        emit PriceOracleUpdated(_priceOracle);\n    }\n\n    function getLendingRateOracle() public view returns (address) {\n        return getAddress(LENDING_RATE_ORACLE);\n    }\n\n    // TODO: add access control rules under DAO\n    function setLendingRateOracle(address _lendingRateOracle) public {\n        _setAddress(LENDING_RATE_ORACLE, _lendingRateOracle);\n        emit LendingRateOracleUpdated(_lendingRateOracle);\n    }\n\n    function getFeeProvider() public view returns (address) {\n        return getAddress(FEE_PROVIDER);\n    }\n\n    // TODO: add access control rules under DAO\n    function setFeeProvider(address _feeProvider) public {\n        _setAddress(FEE_PROVIDER, _feeProvider);\n        emit FeeProviderUpdated(_feeProvider);\n    }\n\n    function getLendingPoolLiquidationManager() public view returns (address) {\n        return getAddress(LENDING_POOL_LIQUIDATION_MANAGER);\n    }\n\n    // TODO: add access control rules under DAO\n    function setLendingPoolLiquidationManager(address _manager) public {\n        _setAddress(LENDING_POOL_LIQUIDATION_MANAGER, _manager);\n        emit LendingPoolLiquidationManagerUpdated(_manager);\n    }\n}\n",
  "sourcePath": "/Users/jg/Documents/aaveBot/contracts/configuration/LendingPoolAddressesProvider.sol",
  "compiler": {
    "name": "solc",
    "version": "0.5.8+commit.23d335f2.Emscripten.clang"
  },
  "schemaVersion": "3.0.16",
  "updatedAt": "2019-11-07T20:00:22.173Z",
  "devdoc": {
    "methods": {}
  },
  "userdoc": {
    "methods": {}
  }
}