{
  "contractName": "LendingPoolConfigurator",
  "abi": [
    {
      "constant": false,
      "inputs": [],
      "name": "renounceOwnership",
      "outputs": [],
      "payable": false,
      "stateMutability": "nonpayable",
      "type": "function"
    },
    {
      "constant": true,
      "inputs": [],
      "name": "poolAddressesProvider",
      "outputs": [
        {
          "name": "",
          "type": "address"
        }
      ],
      "payable": false,
      "stateMutability": "view",
      "type": "function"
    },
    {
      "constant": true,
      "inputs": [],
      "name": "owner",
      "outputs": [
        {
          "name": "",
          "type": "address"
        }
      ],
      "payable": false,
      "stateMutability": "view",
      "type": "function"
    },
    {
      "constant": true,
      "inputs": [],
      "name": "isOwner",
      "outputs": [
        {
          "name": "",
          "type": "bool"
        }
      ],
      "payable": false,
      "stateMutability": "view",
      "type": "function"
    },
    {
      "constant": false,
      "inputs": [
        {
          "name": "newOwner",
          "type": "address"
        }
      ],
      "name": "transferOwnership",
      "outputs": [],
      "payable": false,
      "stateMutability": "nonpayable",
      "type": "function"
    },
    {
      "inputs": [
        {
          "name": "_poolAddressesProvider",
          "type": "address"
        }
      ],
      "payable": false,
      "stateMutability": "nonpayable",
      "type": "constructor"
    },
    {
      "anonymous": false,
      "inputs": [
        {
          "indexed": true,
          "name": "_reserve",
          "type": "address"
        },
        {
          "indexed": true,
          "name": "_aToken",
          "type": "address"
        },
        {
          "indexed": false,
          "name": "_initialExchangeRate",
          "type": "uint256"
        },
        {
          "indexed": false,
          "name": "_interestRateStrategyAddress",
          "type": "address"
        }
      ],
      "name": "ReserveInitialized",
      "type": "event"
    },
    {
      "anonymous": false,
      "inputs": [
        {
          "indexed": false,
          "name": "_reserve",
          "type": "address"
        },
        {
          "indexed": false,
          "name": "_fixedRateEnabled",
          "type": "bool"
        }
      ],
      "name": "BorrowingEnabledOnReserve",
      "type": "event"
    },
    {
      "anonymous": false,
      "inputs": [
        {
          "indexed": true,
          "name": "_reserve",
          "type": "address"
        }
      ],
      "name": "BorrowingDisabledOnReserve",
      "type": "event"
    },
    {
      "anonymous": false,
      "inputs": [
        {
          "indexed": true,
          "name": "_reserve",
          "type": "address"
        },
        {
          "indexed": false,
          "name": "_ltv",
          "type": "uint256"
        },
        {
          "indexed": false,
          "name": "_liquidationThreshold",
          "type": "uint256"
        }
      ],
      "name": "ReserveEnabledAsCollateral",
      "type": "event"
    },
    {
      "anonymous": false,
      "inputs": [
        {
          "indexed": true,
          "name": "_reserve",
          "type": "address"
        }
      ],
      "name": "ReserveDisabledAsCollateral",
      "type": "event"
    },
    {
      "anonymous": false,
      "inputs": [
        {
          "indexed": true,
          "name": "_reserve",
          "type": "address"
        }
      ],
      "name": "FixedRateEnabledOnReserve",
      "type": "event"
    },
    {
      "anonymous": false,
      "inputs": [
        {
          "indexed": true,
          "name": "_reserve",
          "type": "address"
        }
      ],
      "name": "FixedRateDisabledOnReserve",
      "type": "event"
    },
    {
      "anonymous": false,
      "inputs": [
        {
          "indexed": true,
          "name": "_reserve",
          "type": "address"
        }
      ],
      "name": "ReserveActivated",
      "type": "event"
    },
    {
      "anonymous": false,
      "inputs": [
        {
          "indexed": true,
          "name": "_reserve",
          "type": "address"
        }
      ],
      "name": "ReserveDeactivated",
      "type": "event"
    },
    {
      "anonymous": false,
      "inputs": [
        {
          "indexed": true,
          "name": "previousOwner",
          "type": "address"
        },
        {
          "indexed": true,
          "name": "newOwner",
          "type": "address"
        }
      ],
      "name": "OwnershipTransferred",
      "type": "event"
    },
    {
      "constant": false,
      "inputs": [
        {
          "name": "_reserve",
          "type": "address"
        },
        {
          "name": "_aTokenInitialExchangeRate",
          "type": "uint256"
        },
        {
          "name": "_underlyingAssetDecimals",
          "type": "uint256"
        },
        {
          "name": "_interestRateStrategyAddress",
          "type": "address"
        }
      ],
      "name": "initReserve",
      "outputs": [],
      "payable": false,
      "stateMutability": "nonpayable",
      "type": "function"
    },
    {
      "constant": false,
      "inputs": [
        {
          "name": "_reserve",
          "type": "address"
        },
        {
          "name": "aTokenName",
          "type": "string"
        },
        {
          "name": "aTokenSymbol",
          "type": "string"
        },
        {
          "name": "_aTokenInitialExchangeRate",
          "type": "uint256"
        },
        {
          "name": "_underlyingAssetDecimals",
          "type": "uint256"
        },
        {
          "name": "_interestRateStrategyAddress",
          "type": "address"
        }
      ],
      "name": "initReserveWithData",
      "outputs": [],
      "payable": false,
      "stateMutability": "nonpayable",
      "type": "function"
    },
    {
      "constant": false,
      "inputs": [
        {
          "name": "_reserve",
          "type": "address"
        },
        {
          "name": "_fixedBorrowRateEnabled",
          "type": "bool"
        }
      ],
      "name": "enableBorrowingOnReserve",
      "outputs": [],
      "payable": false,
      "stateMutability": "nonpayable",
      "type": "function"
    },
    {
      "constant": false,
      "inputs": [
        {
          "name": "_reserve",
          "type": "address"
        }
      ],
      "name": "disableBorrowingOnReserve",
      "outputs": [],
      "payable": false,
      "stateMutability": "nonpayable",
      "type": "function"
    },
    {
      "constant": false,
      "inputs": [
        {
          "name": "_reserve",
          "type": "address"
        },
        {
          "name": "_baseLTVasCollateral",
          "type": "uint256"
        },
        {
          "name": "_liquidationThreshold",
          "type": "uint256"
        }
      ],
      "name": "enableReserveAsCollateral",
      "outputs": [],
      "payable": false,
      "stateMutability": "nonpayable",
      "type": "function"
    },
    {
      "constant": false,
      "inputs": [
        {
          "name": "_reserve",
          "type": "address"
        }
      ],
      "name": "disableReserveAsCollateral",
      "outputs": [],
      "payable": false,
      "stateMutability": "nonpayable",
      "type": "function"
    },
    {
      "constant": false,
      "inputs": [
        {
          "name": "_reserve",
          "type": "address"
        }
      ],
      "name": "enableReserveFixedBorrowRate",
      "outputs": [],
      "payable": false,
      "stateMutability": "nonpayable",
      "type": "function"
    },
    {
      "constant": false,
      "inputs": [
        {
          "name": "_reserve",
          "type": "address"
        }
      ],
      "name": "disableReserveFixedBorrowRate",
      "outputs": [],
      "payable": false,
      "stateMutability": "nonpayable",
      "type": "function"
    },
    {
      "constant": false,
      "inputs": [
        {
          "name": "_reserve",
          "type": "address"
        }
      ],
      "name": "activateReserve",
      "outputs": [],
      "payable": false,
      "stateMutability": "nonpayable",
      "type": "function"
    },
    {
      "constant": false,
      "inputs": [
        {
          "name": "_reserve",
          "type": "address"
        }
      ],
      "name": "deactivateReserve",
      "outputs": [],
      "payable": false,
      "stateMutability": "nonpayable",
      "type": "function"
    },
    {
      "constant": false,
      "inputs": [
        {
          "name": "_reserve",
          "type": "address"
        },
        {
          "name": "_ltv",
          "type": "uint256"
        }
      ],
      "name": "setReserveBaseLTVasCollateral",
      "outputs": [],
      "payable": false,
      "stateMutability": "nonpayable",
      "type": "function"
    },
    {
      "constant": false,
      "inputs": [
        {
          "name": "_reserve",
          "type": "address"
        },
        {
          "name": "_threshold",
          "type": "uint256"
        }
      ],
      "name": "setReserveLiquidationThreshold",
      "outputs": [],
      "payable": false,
      "stateMutability": "nonpayable",
      "type": "function"
    },
    {
      "constant": false,
      "inputs": [
        {
          "name": "_reserve",
          "type": "address"
        },
        {
          "name": "_threshold",
          "type": "uint256"
        }
      ],
      "name": "setReserveLiquidationDiscount",
      "outputs": [],
      "payable": false,
      "stateMutability": "nonpayable",
      "type": "function"
    },
    {
      "constant": false,
      "inputs": [
        {
          "name": "_reserve",
          "type": "address"
        },
        {
          "name": "_rateStrategyAddress",
          "type": "address"
        }
      ],
      "name": "setReserveInterestRateStrategyAddress",
      "outputs": [],
      "payable": false,
      "stateMutability": "nonpayable",
      "type": "function"
    },
    {
      "constant": false,
      "inputs": [
        {
          "name": "_provider",
          "type": "address"
        }
      ],
      "name": "setLendingPoolCoreAddressesProvider",
      "outputs": [],
      "payable": false,
      "stateMutability": "nonpayable",
      "type": "function"
    },
    {
      "constant": false,
      "inputs": [],
      "name": "refreshLendingPoolCoreConfiguration",
      "outputs": [],
      "payable": false,
      "stateMutability": "nonpayable",
      "type": "function"
    }
  ],
  "bytecode": "0x60806040523480156200001157600080fd5b506040516020806200684d833981018060405260208110156200003357600080fd5b8101908080519060200190929190505050620000546200015760201b60201c565b6000806101000a81548173ffffffffffffffffffffffffffffffffffffffff021916908373ffffffffffffffffffffffffffffffffffffffff1602179055506000809054906101000a900473ffffffffffffffffffffffffffffffffffffffff1673ffffffffffffffffffffffffffffffffffffffff16600073ffffffffffffffffffffffffffffffffffffffff167f8be0079c531659141344cd1fd0a4f28419497f9722a3daafe3b4186f6b6457e060405160405180910390a380600160006101000a81548173ffffffffffffffffffffffffffffffffffffffff021916908373ffffffffffffffffffffffffffffffffffffffff160217905550506200015f565b600033905090565b6166de806200016f6000396000f3fe60806040523480156200001157600080fd5b5060043610620001545760003560e01c8063a17166f111620000c9578063d466016f1162000087578063d466016f1462000712578063d7e075811462000763578063e12dcc6c14620007aa578063e8ae2f5b14620007b6578063eede87c114620007fd578063f2fde38b14620008505762000154565b8063a17166f1146200043d578063a8dc0f4514620005ec578063a9ef33e91462000633578063b46a4b34146200067a578063b75d6f3414620006cb5762000154565b8063715018a61162000117578063715018a6146200032e57806380e17d87146200033a5780638da5cb5b14620003865780638f32d59b14620003d25780639789b68a14620003f65762000154565b80631d2118f9146200015957806329a1786814620001c05780633443a14b146200021b5780633e72a454146200026c5780635f674c8714620002b3575b600080fd5b620001be600480360360408110156200017157600080fd5b81019080803573ffffffffffffffffffffffffffffffffffffffff169060200190929190803573ffffffffffffffffffffffffffffffffffffffff16906020019092919050505062000897565b005b6200021960048036036060811015620001d857600080fd5b81019080803573ffffffffffffffffffffffffffffffffffffffff169060200190929190803590602001909291908035906020019092919050505062000b3e565b005b6200026a600480360360408110156200023357600080fd5b81019080803573ffffffffffffffffffffffffffffffffffffffff1690602001909291908035906020019092919050505062000e18565b005b620002b1600480360360208110156200028457600080fd5b81019080803573ffffffffffffffffffffffffffffffffffffffff16906020019092919050505062001093565b005b6200032c60048036036080811015620002cb57600080fd5b81019080803573ffffffffffffffffffffffffffffffffffffffff1690602001909291908035906020019092919080359060200190929190803573ffffffffffffffffffffffffffffffffffffffff16906020019092919050505062001348565b005b620003386200177b565b005b62000344620018b7565b604051808273ffffffffffffffffffffffffffffffffffffffff1673ffffffffffffffffffffffffffffffffffffffff16815260200191505060405180910390f35b62000390620018dd565b604051808273ffffffffffffffffffffffffffffffffffffffff1673ffffffffffffffffffffffffffffffffffffffff16815260200191505060405180910390f35b620003dc62001906565b604051808215151515815260200191505060405180910390f35b6200043b600480360360208110156200040e57600080fd5b81019080803573ffffffffffffffffffffffffffffffffffffffff16906020019092919050505062001966565b005b620005ea600480360360c08110156200045557600080fd5b81019080803573ffffffffffffffffffffffffffffffffffffffff169060200190929190803590602001906401000000008111156200049357600080fd5b820183602082011115620004a657600080fd5b80359060200191846001830284011164010000000083111715620004c957600080fd5b91908080601f016020809104026020016040519081016040528093929190818152602001838380828437600081840152601f19601f820116905080830192505050505050509192919290803590602001906401000000008111156200052d57600080fd5b8201836020820111156200054057600080fd5b803590602001918460018302840111640100000000831117156200056357600080fd5b91908080601f016020809104026020016040519081016040528093929190818152602001838380828437600081840152601f19601f8201169050808301925050505050505091929192908035906020019092919080359060200190929190803573ffffffffffffffffffffffffffffffffffffffff16906020019092919050505062001c1b565b005b62000631600480360360208110156200060457600080fd5b81019080803573ffffffffffffffffffffffffffffffffffffffff16906020019092919050505062002155565b005b62000678600480360360208110156200064b57600080fd5b81019080803573ffffffffffffffffffffffffffffffffffffffff1690602001909291905050506200240a565b005b620006c9600480360360408110156200069257600080fd5b81019080803573ffffffffffffffffffffffffffffffffffffffff169060200190929190803590602001909291905050506200267c565b005b6200071060048036036020811015620006e357600080fd5b81019080803573ffffffffffffffffffffffffffffffffffffffff169060200190929190505050620028f7565b005b62000761600480360360408110156200072a57600080fd5b81019080803573ffffffffffffffffffffffffffffffffffffffff1690602001909291908035906020019092919050505062002bac565b005b620007a8600480360360208110156200077b57600080fd5b81019080803573ffffffffffffffffffffffffffffffffffffffff16906020019092919050505062002e27565b005b620007b4620030dc565b005b620007fb60048036036020811015620007ce57600080fd5b81019080803573ffffffffffffffffffffffffffffffffffffffff16906020019092919050505062003316565b005b6200084e600480360360408110156200081557600080fd5b81019080803573ffffffffffffffffffffffffffffffffffffffff169060200190929190803515159060200190929190505050620035cb565b005b62000895600480360360208110156200086857600080fd5b81019080803573ffffffffffffffffffffffffffffffffffffffff169060200190929190505050620038b9565b005b3373ffffffffffffffffffffffffffffffffffffffff16600160009054906101000a900473ffffffffffffffffffffffffffffffffffffffff1673ffffffffffffffffffffffffffffffffffffffff166333128d596040518163ffffffff1660e01b815260040160206040518083038186803b1580156200091757600080fd5b505afa1580156200092c573d6000803e3d6000fd5b505050506040513d60208110156200094357600080fd5b810190808051906020019092919050505073ffffffffffffffffffffffffffffffffffffffff1614620009c2576040517f08c379a00000000000000000000000000000000000000000000000000000000081526004018080602001828103825260298152602001806200668a6029913960400191505060405180910390fd5b6000600160009054906101000a900473ffffffffffffffffffffffffffffffffffffffff1673ffffffffffffffffffffffffffffffffffffffff1663ed6ff7606040518163ffffffff1660e01b815260040160206040518083038186803b15801562000a2d57600080fd5b505afa15801562000a42573d6000803e3d6000fd5b505050506040513d602081101562000a5957600080fd5b810190808051906020019092919050505090508073ffffffffffffffffffffffffffffffffffffffff16631d2118f984846040518363ffffffff1660e01b8152600401808373ffffffffffffffffffffffffffffffffffffffff1673ffffffffffffffffffffffffffffffffffffffff1681526020018273ffffffffffffffffffffffffffffffffffffffff1673ffffffffffffffffffffffffffffffffffffffff16815260200192505050600060405180830381600087803b15801562000b2057600080fd5b505af115801562000b35573d6000803e3d6000fd5b50505050505050565b3373ffffffffffffffffffffffffffffffffffffffff16600160009054906101000a900473ffffffffffffffffffffffffffffffffffffffff1673ffffffffffffffffffffffffffffffffffffffff166333128d596040518163ffffffff1660e01b815260040160206040518083038186803b15801562000bbe57600080fd5b505afa15801562000bd3573d6000803e3d6000fd5b505050506040513d602081101562000bea57600080fd5b810190808051906020019092919050505073ffffffffffffffffffffffffffffffffffffffff161462000c69576040517f08c379a00000000000000000000000000000000000000000000000000000000081526004018080602001828103825260298152602001806200668a6029913960400191505060405180910390fd5b6000600160009054906101000a900473ffffffffffffffffffffffffffffffffffffffff1673ffffffffffffffffffffffffffffffffffffffff1663ed6ff7606040518163ffffffff1660e01b815260040160206040518083038186803b15801562000cd457600080fd5b505afa15801562000ce9573d6000803e3d6000fd5b505050506040513d602081101562000d0057600080fd5b810190808051906020019092919050505090508073ffffffffffffffffffffffffffffffffffffffff166329a178688585856040518463ffffffff1660e01b8152600401808473ffffffffffffffffffffffffffffffffffffffff1673ffffffffffffffffffffffffffffffffffffffff1681526020018381526020018281526020019350505050600060405180830381600087803b15801562000da357600080fd5b505af115801562000db8573d6000803e3d6000fd5b505050508373ffffffffffffffffffffffffffffffffffffffff167f0b2f4ddd80e34a38c71a6c5f953a99dc8b45c79b8c563d301c2bb2267b9dbc348484604051808381526020018281526020019250505060405180910390a250505050565b3373ffffffffffffffffffffffffffffffffffffffff16600160009054906101000a900473ffffffffffffffffffffffffffffffffffffffff1673ffffffffffffffffffffffffffffffffffffffff166333128d596040518163ffffffff1660e01b815260040160206040518083038186803b15801562000e9857600080fd5b505afa15801562000ead573d6000803e3d6000fd5b505050506040513d602081101562000ec457600080fd5b810190808051906020019092919050505073ffffffffffffffffffffffffffffffffffffffff161462000f43576040517f08c379a00000000000000000000000000000000000000000000000000000000081526004018080602001828103825260298152602001806200668a6029913960400191505060405180910390fd5b6000600160009054906101000a900473ffffffffffffffffffffffffffffffffffffffff1673ffffffffffffffffffffffffffffffffffffffff1663ed6ff7606040518163ffffffff1660e01b815260040160206040518083038186803b15801562000fae57600080fd5b505afa15801562000fc3573d6000803e3d6000fd5b505050506040513d602081101562000fda57600080fd5b810190808051906020019092919050505090508073ffffffffffffffffffffffffffffffffffffffff16633443a14b84846040518363ffffffff1660e01b8152600401808373ffffffffffffffffffffffffffffffffffffffff1673ffffffffffffffffffffffffffffffffffffffff16815260200182815260200192505050600060405180830381600087803b1580156200107557600080fd5b505af11580156200108a573d6000803e3d6000fd5b50505050505050565b3373ffffffffffffffffffffffffffffffffffffffff16600160009054906101000a900473ffffffffffffffffffffffffffffffffffffffff1673ffffffffffffffffffffffffffffffffffffffff166333128d596040518163ffffffff1660e01b815260040160206040518083038186803b1580156200111357600080fd5b505afa15801562001128573d6000803e3d6000fd5b505050506040513d60208110156200113f57600080fd5b810190808051906020019092919050505073ffffffffffffffffffffffffffffffffffffffff1614620011be576040517f08c379a00000000000000000000000000000000000000000000000000000000081526004018080602001828103825260298152602001806200668a6029913960400191505060405180910390fd5b6000600160009054906101000a900473ffffffffffffffffffffffffffffffffffffffff1673ffffffffffffffffffffffffffffffffffffffff1663ed6ff7606040518163ffffffff1660e01b815260040160206040518083038186803b1580156200122957600080fd5b505afa1580156200123e573d6000803e3d6000fd5b505050506040513d60208110156200125557600080fd5b810190808051906020019092919050505090508073ffffffffffffffffffffffffffffffffffffffff16633e72a454836040518263ffffffff1660e01b8152600401808273ffffffffffffffffffffffffffffffffffffffff1673ffffffffffffffffffffffffffffffffffffffff168152602001915050600060405180830381600087803b158015620012e857600080fd5b505af1158015620012fd573d6000803e3d6000fd5b505050508173ffffffffffffffffffffffffffffffffffffffff167f6f60cf8bd0f218cabe1ea3150bd07b0b758c35c4cfdf7138017a283e65564d5e60405160405180910390a25050565b3373ffffffffffffffffffffffffffffffffffffffff16600160009054906101000a900473ffffffffffffffffffffffffffffffffffffffff1673ffffffffffffffffffffffffffffffffffffffff166333128d596040518163ffffffff1660e01b815260040160206040518083038186803b158015620013c857600080fd5b505afa158015620013dd573d6000803e3d6000fd5b505050506040513d6020811015620013f457600080fd5b810190808051906020019092919050505073ffffffffffffffffffffffffffffffffffffffff161462001473576040517f08c379a00000000000000000000000000000000000000000000000000000000081526004018080602001828103825260298152602001806200668a6029913960400191505060405180910390fd5b600084905060608173ffffffffffffffffffffffffffffffffffffffff166306fdde036040518163ffffffff1660e01b815260040160006040518083038186803b158015620014c157600080fd5b505afa158015620014d6573d6000803e3d6000fd5b505050506040513d6000823e3d601f19601f8201168201806040525060208110156200150157600080fd5b8101908080516401000000008111156200151a57600080fd5b828101905060208101848111156200153157600080fd5b81518560018202830111640100000000821117156200154f57600080fd5b505092919050505060405160200180807f4161766520496e7465726573742062656172696e67200000000000000000000081525060160182805190602001908083835b60208310620015b7578051825260208201915060208101905060208303925062001592565b6001836020036101000a038019825116818451168082178552505050505050905001915050604051602081830303815290604052905060608273ffffffffffffffffffffffffffffffffffffffff166395d89b416040518163ffffffff1660e01b815260040160006040518083038186803b1580156200163657600080fd5b505afa1580156200164b573d6000803e3d6000fd5b505050506040513d6000823e3d601f19601f8201168201806040525060208110156200167657600080fd5b8101908080516401000000008111156200168f57600080fd5b82810190506020810184811115620016a657600080fd5b8151856001820283011164010000000082111715620016c457600080fd5b505092919050505060405160200180807f610000000000000000000000000000000000000000000000000000000000000081525060010182805190602001908083835b602083106200172c578051825260208201915060208101905060208303925062001707565b6001836020036101000a03801982511681845116808217855250505050505090500191505060405160208183030381529060405290506200177287838389898962001c1b565b50505050505050565b6200178562001906565b620017f8576040517f08c379a00000000000000000000000000000000000000000000000000000000081526004018080602001828103825260208152602001807f4f776e61626c653a2063616c6c6572206973206e6f7420746865206f776e657281525060200191505060405180910390fd5b600073ffffffffffffffffffffffffffffffffffffffff166000809054906101000a900473ffffffffffffffffffffffffffffffffffffffff1673ffffffffffffffffffffffffffffffffffffffff167f8be0079c531659141344cd1fd0a4f28419497f9722a3daafe3b4186f6b6457e060405160405180910390a360008060006101000a81548173ffffffffffffffffffffffffffffffffffffffff021916908373ffffffffffffffffffffffffffffffffffffffff160217905550565b600160009054906101000a900473ffffffffffffffffffffffffffffffffffffffff1681565b60008060009054906101000a900473ffffffffffffffffffffffffffffffffffffffff16905090565b60008060009054906101000a900473ffffffffffffffffffffffffffffffffffffffff1673ffffffffffffffffffffffffffffffffffffffff166200194a62003944565b73ffffffffffffffffffffffffffffffffffffffff1614905090565b3373ffffffffffffffffffffffffffffffffffffffff16600160009054906101000a900473ffffffffffffffffffffffffffffffffffffffff1673ffffffffffffffffffffffffffffffffffffffff166333128d596040518163ffffffff1660e01b815260040160206040518083038186803b158015620019e657600080fd5b505afa158015620019fb573d6000803e3d6000fd5b505050506040513d602081101562001a1257600080fd5b810190808051906020019092919050505073ffffffffffffffffffffffffffffffffffffffff161462001a91576040517f08c379a00000000000000000000000000000000000000000000000000000000081526004018080602001828103825260298152602001806200668a6029913960400191505060405180910390fd5b6000600160009054906101000a900473ffffffffffffffffffffffffffffffffffffffff1673ffffffffffffffffffffffffffffffffffffffff1663ed6ff7606040518163ffffffff1660e01b815260040160206040518083038186803b15801562001afc57600080fd5b505afa15801562001b11573d6000803e3d6000fd5b505050506040513d602081101562001b2857600080fd5b810190808051906020019092919050505090508073ffffffffffffffffffffffffffffffffffffffff16639789b68a836040518263ffffffff1660e01b8152600401808273ffffffffffffffffffffffffffffffffffffffff1673ffffffffffffffffffffffffffffffffffffffff168152602001915050600060405180830381600087803b15801562001bbb57600080fd5b505af115801562001bd0573d6000803e3d6000fd5b505050508173ffffffffffffffffffffffffffffffffffffffff167f3785f652b18f48a8a4c505037390f85f5b89bfe105384b964138f8a947ae89c660405160405180910390a25050565b3373ffffffffffffffffffffffffffffffffffffffff16600160009054906101000a900473ffffffffffffffffffffffffffffffffffffffff1673ffffffffffffffffffffffffffffffffffffffff166333128d596040518163ffffffff1660e01b815260040160206040518083038186803b15801562001c9b57600080fd5b505afa15801562001cb0573d6000803e3d6000fd5b505050506040513d602081101562001cc757600080fd5b810190808051906020019092919050505073ffffffffffffffffffffffffffffffffffffffff161462001d46576040517f08c379a00000000000000000000000000000000000000000000000000000000081526004018080602001828103825260298152602001806200668a6029913960400191505060405180910390fd5b6000600160009054906101000a900473ffffffffffffffffffffffffffffffffffffffff1673ffffffffffffffffffffffffffffffffffffffff1663ed6ff7606040518163ffffffff1660e01b815260040160206040518083038186803b15801562001db157600080fd5b505afa15801562001dc6573d6000803e3d6000fd5b505050506040513d602081101562001ddd57600080fd5b810190808051906020019092919050505090506000600160009054906101000a900473ffffffffffffffffffffffffffffffffffffffff168885898960128a60405162001e2a9062003a92565b808873ffffffffffffffffffffffffffffffffffffffff1673ffffffffffffffffffffffffffffffffffffffff1681526020018773ffffffffffffffffffffffffffffffffffffffff1673ffffffffffffffffffffffffffffffffffffffff16815260200186815260200180602001806020018560ff168152602001848152602001838103835287818151815260200191508051906020019080838360005b8381101562001ee657808201518184015260208101905062001ec9565b50505050905090810190601f16801562001f145780820380516001836020036101000a031916815260200191505b50838103825286818151815260200191508051906020019080838360005b8381101562001f4f57808201518184015260208101905062001f32565b50505050905090810190601f16801562001f7d5780820380516001836020036101000a031916815260200191505b509950505050505050505050604051809103906000f08015801562001fa6573d6000803e3d6000fd5b5090508173ffffffffffffffffffffffffffffffffffffffff166345330a40898387876040518563ffffffff1660e01b8152600401808573ffffffffffffffffffffffffffffffffffffffff1673ffffffffffffffffffffffffffffffffffffffff1681526020018473ffffffffffffffffffffffffffffffffffffffff1673ffffffffffffffffffffffffffffffffffffffff1681526020018381526020018273ffffffffffffffffffffffffffffffffffffffff1673ffffffffffffffffffffffffffffffffffffffff168152602001945050505050600060405180830381600087803b1580156200209957600080fd5b505af1158015620020ae573d6000803e3d6000fd5b505050508073ffffffffffffffffffffffffffffffffffffffff168873ffffffffffffffffffffffffffffffffffffffff167f9c6373c8d8364b6e1acd1bcb5895e6aee73dc8128782869914d27d7e54a938988786604051808381526020018273ffffffffffffffffffffffffffffffffffffffff1673ffffffffffffffffffffffffffffffffffffffff1681526020019250505060405180910390a35050505050505050565b3373ffffffffffffffffffffffffffffffffffffffff16600160009054906101000a900473ffffffffffffffffffffffffffffffffffffffff1673ffffffffffffffffffffffffffffffffffffffff166333128d596040518163ffffffff1660e01b815260040160206040518083038186803b158015620021d557600080fd5b505afa158015620021ea573d6000803e3d6000fd5b505050506040513d60208110156200220157600080fd5b810190808051906020019092919050505073ffffffffffffffffffffffffffffffffffffffff161462002280576040517f08c379a00000000000000000000000000000000000000000000000000000000081526004018080602001828103825260298152602001806200668a6029913960400191505060405180910390fd5b6000600160009054906101000a900473ffffffffffffffffffffffffffffffffffffffff1673ffffffffffffffffffffffffffffffffffffffff1663ed6ff7606040518163ffffffff1660e01b815260040160206040518083038186803b158015620022eb57600080fd5b505afa15801562002300573d6000803e3d6000fd5b505050506040513d60208110156200231757600080fd5b810190808051906020019092919050505090508073ffffffffffffffffffffffffffffffffffffffff1663a8dc0f45836040518263ffffffff1660e01b8152600401808273ffffffffffffffffffffffffffffffffffffffff1673ffffffffffffffffffffffffffffffffffffffff168152602001915050600060405180830381600087803b158015620023aa57600080fd5b505af1158015620023bf573d6000803e3d6000fd5b505050508173ffffffffffffffffffffffffffffffffffffffff167fe9a7e5fd4fc8ea18e602350324bf48e8f05d12434af0ce0be05743e6a5fdcb9e60405160405180910390a25050565b3373ffffffffffffffffffffffffffffffffffffffff16600160009054906101000a900473ffffffffffffffffffffffffffffffffffffffff1673ffffffffffffffffffffffffffffffffffffffff166333128d596040518163ffffffff1660e01b815260040160206040518083038186803b1580156200248a57600080fd5b505afa1580156200249f573d6000803e3d6000fd5b505050506040513d6020811015620024b657600080fd5b810190808051906020019092919050505073ffffffffffffffffffffffffffffffffffffffff161462002535576040517f08c379a00000000000000000000000000000000000000000000000000000000081526004018080602001828103825260298152602001806200668a6029913960400191505060405180910390fd5b6000600160009054906101000a900473ffffffffffffffffffffffffffffffffffffffff1673ffffffffffffffffffffffffffffffffffffffff1663ed6ff7606040518163ffffffff1660e01b815260040160206040518083038186803b158015620025a057600080fd5b505afa158015620025b5573d6000803e3d6000fd5b505050506040513d6020811015620025cc57600080fd5b810190808051906020019092919050505090508073ffffffffffffffffffffffffffffffffffffffff16636722997a836040518263ffffffff1660e01b8152600401808273ffffffffffffffffffffffffffffffffffffffff1673ffffffffffffffffffffffffffffffffffffffff168152602001915050600060405180830381600087803b1580156200265f57600080fd5b505af115801562002674573d6000803e3d6000fd5b505050505050565b3373ffffffffffffffffffffffffffffffffffffffff16600160009054906101000a900473ffffffffffffffffffffffffffffffffffffffff1673ffffffffffffffffffffffffffffffffffffffff166333128d596040518163ffffffff1660e01b815260040160206040518083038186803b158015620026fc57600080fd5b505afa15801562002711573d6000803e3d6000fd5b505050506040513d60208110156200272857600080fd5b810190808051906020019092919050505073ffffffffffffffffffffffffffffffffffffffff1614620027a7576040517f08c379a00000000000000000000000000000000000000000000000000000000081526004018080602001828103825260298152602001806200668a6029913960400191505060405180910390fd5b6000600160009054906101000a900473ffffffffffffffffffffffffffffffffffffffff1673ffffffffffffffffffffffffffffffffffffffff1663ed6ff7606040518163ffffffff1660e01b815260040160206040518083038186803b1580156200281257600080fd5b505afa15801562002827573d6000803e3d6000fd5b505050506040513d60208110156200283e57600080fd5b810190808051906020019092919050505090508073ffffffffffffffffffffffffffffffffffffffff1663b46a4b3484846040518363ffffffff1660e01b8152600401808373ffffffffffffffffffffffffffffffffffffffff1673ffffffffffffffffffffffffffffffffffffffff16815260200182815260200192505050600060405180830381600087803b158015620028d957600080fd5b505af1158015620028ee573d6000803e3d6000fd5b50505050505050565b3373ffffffffffffffffffffffffffffffffffffffff16600160009054906101000a900473ffffffffffffffffffffffffffffffffffffffff1673ffffffffffffffffffffffffffffffffffffffff166333128d596040518163ffffffff1660e01b815260040160206040518083038186803b1580156200297757600080fd5b505afa1580156200298c573d6000803e3d6000fd5b505050506040513d6020811015620029a357600080fd5b810190808051906020019092919050505073ffffffffffffffffffffffffffffffffffffffff161462002a22576040517f08c379a00000000000000000000000000000000000000000000000000000000081526004018080602001828103825260298152602001806200668a6029913960400191505060405180910390fd5b6000600160009054906101000a900473ffffffffffffffffffffffffffffffffffffffff1673ffffffffffffffffffffffffffffffffffffffff1663ed6ff7606040518163ffffffff1660e01b815260040160206040518083038186803b15801562002a8d57600080fd5b505afa15801562002aa2573d6000803e3d6000fd5b505050506040513d602081101562002ab957600080fd5b810190808051906020019092919050505090508073ffffffffffffffffffffffffffffffffffffffff1663b75d6f34836040518263ffffffff1660e01b8152600401808273ffffffffffffffffffffffffffffffffffffffff1673ffffffffffffffffffffffffffffffffffffffff168152602001915050600060405180830381600087803b15801562002b4c57600080fd5b505af115801562002b61573d6000803e3d6000fd5b505050508173ffffffffffffffffffffffffffffffffffffffff167f35b80cd8ea3440e9a8454f116fa658b858da1b64c86c48451f4559cefcdfb56c60405160405180910390a25050565b3373ffffffffffffffffffffffffffffffffffffffff16600160009054906101000a900473ffffffffffffffffffffffffffffffffffffffff1673ffffffffffffffffffffffffffffffffffffffff166333128d596040518163ffffffff1660e01b815260040160206040518083038186803b15801562002c2c57600080fd5b505afa15801562002c41573d6000803e3d6000fd5b505050506040513d602081101562002c5857600080fd5b810190808051906020019092919050505073ffffffffffffffffffffffffffffffffffffffff161462002cd7576040517f08c379a00000000000000000000000000000000000000000000000000000000081526004018080602001828103825260298152602001806200668a6029913960400191505060405180910390fd5b6000600160009054906101000a900473ffffffffffffffffffffffffffffffffffffffff1673ffffffffffffffffffffffffffffffffffffffff1663ed6ff7606040518163ffffffff1660e01b815260040160206040518083038186803b15801562002d4257600080fd5b505afa15801562002d57573d6000803e3d6000fd5b505050506040513d602081101562002d6e57600080fd5b810190808051906020019092919050505090508073ffffffffffffffffffffffffffffffffffffffff1663d466016f84846040518363ffffffff1660e01b8152600401808373ffffffffffffffffffffffffffffffffffffffff1673ffffffffffffffffffffffffffffffffffffffff16815260200182815260200192505050600060405180830381600087803b15801562002e0957600080fd5b505af115801562002e1e573d6000803e3d6000fd5b50505050505050565b3373ffffffffffffffffffffffffffffffffffffffff16600160009054906101000a900473ffffffffffffffffffffffffffffffffffffffff1673ffffffffffffffffffffffffffffffffffffffff166333128d596040518163ffffffff1660e01b815260040160206040518083038186803b15801562002ea757600080fd5b505afa15801562002ebc573d6000803e3d6000fd5b505050506040513d602081101562002ed357600080fd5b810190808051906020019092919050505073ffffffffffffffffffffffffffffffffffffffff161462002f52576040517f08c379a00000000000000000000000000000000000000000000000000000000081526004018080602001828103825260298152602001806200668a6029913960400191505060405180910390fd5b6000600160009054906101000a900473ffffffffffffffffffffffffffffffffffffffff1673ffffffffffffffffffffffffffffffffffffffff1663ed6ff7606040518163ffffffff1660e01b815260040160206040518083038186803b15801562002fbd57600080fd5b505afa15801562002fd2573d6000803e3d6000fd5b505050506040513d602081101562002fe957600080fd5b810190808051906020019092919050505090508073ffffffffffffffffffffffffffffffffffffffff1663d7e07581836040518263ffffffff1660e01b8152600401808273ffffffffffffffffffffffffffffffffffffffff1673ffffffffffffffffffffffffffffffffffffffff168152602001915050600060405180830381600087803b1580156200307c57600080fd5b505af115801562003091573d6000803e3d6000fd5b505050508173ffffffffffffffffffffffffffffffffffffffff167fd4fb373808cfe3d293bd3d3826c216194001d776dff64c75ae047dfda7f564de60405160405180910390a25050565b3373ffffffffffffffffffffffffffffffffffffffff16600160009054906101000a900473ffffffffffffffffffffffffffffffffffffffff1673ffffffffffffffffffffffffffffffffffffffff166333128d596040518163ffffffff1660e01b815260040160206040518083038186803b1580156200315c57600080fd5b505afa15801562003171573d6000803e3d6000fd5b505050506040513d60208110156200318857600080fd5b810190808051906020019092919050505073ffffffffffffffffffffffffffffffffffffffff161462003207576040517f08c379a00000000000000000000000000000000000000000000000000000000081526004018080602001828103825260298152602001806200668a6029913960400191505060405180910390fd5b6000600160009054906101000a900473ffffffffffffffffffffffffffffffffffffffff1673ffffffffffffffffffffffffffffffffffffffff1663ed6ff7606040518163ffffffff1660e01b815260040160206040518083038186803b1580156200327257600080fd5b505afa15801562003287573d6000803e3d6000fd5b505050506040513d60208110156200329e57600080fd5b810190808051906020019092919050505090508073ffffffffffffffffffffffffffffffffffffffff1663646810836040518163ffffffff1660e01b8152600401600060405180830381600087803b158015620032fa57600080fd5b505af11580156200330f573d6000803e3d6000fd5b5050505050565b3373ffffffffffffffffffffffffffffffffffffffff16600160009054906101000a900473ffffffffffffffffffffffffffffffffffffffff1673ffffffffffffffffffffffffffffffffffffffff166333128d596040518163ffffffff1660e01b815260040160206040518083038186803b1580156200339657600080fd5b505afa158015620033ab573d6000803e3d6000fd5b505050506040513d6020811015620033c257600080fd5b810190808051906020019092919050505073ffffffffffffffffffffffffffffffffffffffff161462003441576040517f08c379a00000000000000000000000000000000000000000000000000000000081526004018080602001828103825260298152602001806200668a6029913960400191505060405180910390fd5b6000600160009054906101000a900473ffffffffffffffffffffffffffffffffffffffff1673ffffffffffffffffffffffffffffffffffffffff1663ed6ff7606040518163ffffffff1660e01b815260040160206040518083038186803b158015620034ac57600080fd5b505afa158015620034c1573d6000803e3d6000fd5b505050506040513d6020811015620034d857600080fd5b810190808051906020019092919050505090508073ffffffffffffffffffffffffffffffffffffffff1663e8ae2f5b836040518263ffffffff1660e01b8152600401808273ffffffffffffffffffffffffffffffffffffffff1673ffffffffffffffffffffffffffffffffffffffff168152602001915050600060405180830381600087803b1580156200356b57600080fd5b505af115801562003580573d6000803e3d6000fd5b505050508173ffffffffffffffffffffffffffffffffffffffff167f9cc75e4cafc9a556a369bc53468649075680eb554d225d5918f199453824796d60405160405180910390a25050565b3373ffffffffffffffffffffffffffffffffffffffff16600160009054906101000a900473ffffffffffffffffffffffffffffffffffffffff1673ffffffffffffffffffffffffffffffffffffffff166333128d596040518163ffffffff1660e01b815260040160206040518083038186803b1580156200364b57600080fd5b505afa15801562003660573d6000803e3d6000fd5b505050506040513d60208110156200367757600080fd5b810190808051906020019092919050505073ffffffffffffffffffffffffffffffffffffffff1614620036f6576040517f08c379a00000000000000000000000000000000000000000000000000000000081526004018080602001828103825260298152602001806200668a6029913960400191505060405180910390fd5b6000600160009054906101000a900473ffffffffffffffffffffffffffffffffffffffff1673ffffffffffffffffffffffffffffffffffffffff1663ed6ff7606040518163ffffffff1660e01b815260040160206040518083038186803b1580156200376157600080fd5b505afa15801562003776573d6000803e3d6000fd5b505050506040513d60208110156200378d57600080fd5b810190808051906020019092919050505090508073ffffffffffffffffffffffffffffffffffffffff1663eede87c184846040518363ffffffff1660e01b8152600401808373ffffffffffffffffffffffffffffffffffffffff1673ffffffffffffffffffffffffffffffffffffffff1681526020018215151515815260200192505050600060405180830381600087803b1580156200382c57600080fd5b505af115801562003841573d6000803e3d6000fd5b505050507fab2f7f9e5ca2772fafa94f355c1842a80ae6b9e41f83083098d81f67d7a0b5088383604051808373ffffffffffffffffffffffffffffffffffffffff1673ffffffffffffffffffffffffffffffffffffffff168152602001821515151581526020019250505060405180910390a1505050565b620038c362001906565b62003936576040517f08c379a00000000000000000000000000000000000000000000000000000000081526004018080602001828103825260208152602001807f4f776e61626c653a2063616c6c6572206973206e6f7420746865206f776e657281525060200191505060405180910390fd5b62003941816200394c565b50565b600033905090565b600073ffffffffffffffffffffffffffffffffffffffff168173ffffffffffffffffffffffffffffffffffffffff161415620039d4576040517f08c379a0000000000000000000000000000000000000000000000000000000008152600401808060200182810382526026815260200180620066646026913960400191505060405180910390fd5b8073ffffffffffffffffffffffffffffffffffffffff166000809054906101000a900473ffffffffffffffffffffffffffffffffffffffff1673ffffffffffffffffffffffffffffffffffffffff167f8be0079c531659141344cd1fd0a4f28419497f9722a3daafe3b4186f6b6457e060405160405180910390a3806000806101000a81548173ffffffffffffffffffffffffffffffffffffffff021916908373ffffffffffffffffffffffffffffffffffffffff16021790555050565b612bc38062003aa18339019056fe60806040523480156200001157600080fd5b5060405162002bc338038062002bc3833981018060405260e08110156200003757600080fd5b8101908080519060200190929190805190602001909291908051906020019092919080516401000000008111156200006e57600080fd5b828101905060208101848111156200008557600080fd5b8151856001820283011164010000000082111715620000a357600080fd5b50509291906020018051640100000000811115620000c057600080fd5b82810190506020810184811115620000d757600080fd5b8151856001820283011164010000000082111715620000f557600080fd5b5050929190602001805190602001909291908051906020019092919050505083838382600390805190602001906200012f929190620002ea565b50816004908051906020019062000148929190620002ea565b5080600560006101000a81548160ff021916908360ff16021790555050505086600860006101000a81548173ffffffffffffffffffffffffffffffffffffffff021916908373ffffffffffffffffffffffffffffffffffffffff160217905550600860009054906101000a900473ffffffffffffffffffffffffffffffffffffffff1673ffffffffffffffffffffffffffffffffffffffff1663ed6ff7606040518163ffffffff1660e01b815260040160206040518083038186803b1580156200021157600080fd5b505afa15801562000226573d6000803e3d6000fd5b505050506040513d60208110156200023d57600080fd5b8101908080519060200190929190505050600960006101000a81548173ffffffffffffffffffffffffffffffffffffffff021916908373ffffffffffffffffffffffffffffffffffffffff1602179055508060078190555085600560016101000a81548173ffffffffffffffffffffffffffffffffffffffff021916908373ffffffffffffffffffffffffffffffffffffffff160217905550846006819055505050505050505062000399565b828054600181600116156101000203166002900490600052602060002090601f016020900481019282601f106200032d57805160ff19168380011785556200035e565b828001600101855582156200035e579182015b828111156200035d57825182559160200191906001019062000340565b5b5090506200036d919062000371565b5090565b6200039691905b808211156200039257600081600090555060010162000378565b5090565b90565b61281a80620003a96000396000f3fe608060405234801561001057600080fd5b506004361061014d5760003560e01c806370a08231116100c3578063a9059cbb1161007c578063a9059cbb146106cc578063b32d461014610732578063db006a7514610774578063dd62ed3e146107a2578063e6aa216c1461081a578063f866c319146108385761014d565b806370a08231146104d557806389d1a0fc1461052d57806394362e8b1461057757806395d89b41146105c55780639a32c20714610648578063a457c2d7146106665761014d565b8063313ce56711610115578063313ce5671461032157806339509351146103455780633af9e669146103ab5780633edb7cb8146104035780635eae177c146104515780636d019f35146104b75761014d565b806306fdde0314610152578063095ea7b3146101d55780630ece1a5f1461023b57806318160ddd1461027d57806323b872dd1461029b575b600080fd5b61015a6108a6565b6040518080602001828103825283818151815260200191508051906020019080838360005b8381101561019a57808201518184015260208101905061017f565b50505050905090810190601f1680156101c75780820380516001836020036101000a031916815260200191505b509250505060405180910390f35b610221600480360360408110156101eb57600080fd5b81019080803573ffffffffffffffffffffffffffffffffffffffff16906020019092919080359060200190929190505050610948565b604051808215151515815260200191505060405180910390f35b6102676004803603602081101561025157600080fd5b8101908080359060200190929190505050610966565b6040518082815260200191505060405180910390f35b6102856109e7565b6040518082815260200191505060405180910390f35b610307600480360360608110156102b157600080fd5b81019080803573ffffffffffffffffffffffffffffffffffffffff169060200190929190803573ffffffffffffffffffffffffffffffffffffffff169060200190929190803590602001909291905050506109f1565b604051808215151515815260200191505060405180910390f35b610329610aca565b604051808260ff1660ff16815260200191505060405180910390f35b6103916004803603604081101561035b57600080fd5b81019080803573ffffffffffffffffffffffffffffffffffffffff16906020019092919080359060200190929190505050610ae1565b604051808215151515815260200191505060405180910390f35b6103ed600480360360208110156103c157600080fd5b81019080803573ffffffffffffffffffffffffffffffffffffffff169060200190929190505050610b94565b6040518082815260200191505060405180910390f35b61044f6004803603604081101561041957600080fd5b81019080803573ffffffffffffffffffffffffffffffffffffffff16906020019092919080359060200190929190505050610bae565b005b61049d6004803603604081101561046757600080fd5b81019080803573ffffffffffffffffffffffffffffffffffffffff16906020019092919080359060200190929190505050610d50565b604051808215151515815260200191505060405180910390f35b6104bf610f25565b6040518082815260200191505060405180910390f35b610517600480360360208110156104eb57600080fd5b81019080803573ffffffffffffffffffffffffffffffffffffffff169060200190929190505050610f2b565b6040518082815260200191505060405180910390f35b610535610f73565b604051808273ffffffffffffffffffffffffffffffffffffffff1673ffffffffffffffffffffffffffffffffffffffff16815260200191505060405180910390f35b6105c36004803603604081101561058d57600080fd5b81019080803573ffffffffffffffffffffffffffffffffffffffff16906020019092919080359060200190929190505050610f99565b005b6105cd611141565b6040518080602001828103825283818151815260200191508051906020019080838360005b8381101561060d5780820151818401526020810190506105f2565b50505050905090810190601f16801561063a5780820380516001836020036101000a031916815260200191505b509250505060405180910390f35b6106506111e3565b6040518082815260200191505060405180910390f35b6106b26004803603604081101561067c57600080fd5b81019080803573ffffffffffffffffffffffffffffffffffffffff169060200190929190803590602001909291905050506111e9565b604051808215151515815260200191505060405180910390f35b610718600480360360408110156106e257600080fd5b81019080803573ffffffffffffffffffffffffffffffffffffffff169060200190929190803590602001909291905050506112b6565b604051808215151515815260200191505060405180910390f35b61075e6004803603602081101561074857600080fd5b81019080803590602001909291905050506112d4565b6040518082815260200191505060405180910390f35b6107a06004803603602081101561078a57600080fd5b8101908080359060200190929190505050611328565b005b610804600480360360408110156107b857600080fd5b81019080803573ffffffffffffffffffffffffffffffffffffffff169060200190929190803573ffffffffffffffffffffffffffffffffffffffff1690602001909291905050506115c6565b6040518082815260200191505060405180910390f35b61082261164d565b6040518082815260200191505060405180910390f35b6108a46004803603606081101561084e57600080fd5b81019080803573ffffffffffffffffffffffffffffffffffffffff169060200190929190803573ffffffffffffffffffffffffffffffffffffffff16906020019092919080359060200190929190505050611769565b005b606060038054600181600116156101000203166002900480601f01602080910402602001604051908101604052809291908181526020018280546001816001161561010002031660029004801561093e5780601f106109135761010080835404028352916020019161093e565b820191906000526020600020905b81548152906001019060200180831161092157829003601f168201915b5050505050905090565b600061095c610955611934565b848461193c565b6001905092915050565b60008082141561097957600090506109e2565b6000610983610aca565b60ff16600a0a90506109de6109d9826109cb600654600a0a6109bd6109a661164d565b6109af8a611b33565b611b5390919063ffffffff16565b611baf90919063ffffffff16565b611c3590919063ffffffff16565b611c7f565b9150505b919050565b6000600254905090565b60006109fe848484611c9f565b610abf84610a0a611934565b610aba8560405180606001604052806028815260200161273860289139600160008b73ffffffffffffffffffffffffffffffffffffffff1673ffffffffffffffffffffffffffffffffffffffff1681526020019081526020016000206000610a70611934565b73ffffffffffffffffffffffffffffffffffffffff1673ffffffffffffffffffffffffffffffffffffffff16815260200190815260200160002054611dc49092919063ffffffff16565b61193c565b600190509392505050565b6000600560009054906101000a900460ff16905090565b6000610b8a610aee611934565b84610b858560016000610aff611934565b73ffffffffffffffffffffffffffffffffffffffff1673ffffffffffffffffffffffffffffffffffffffff16815260200190815260200160002060008973ffffffffffffffffffffffffffffffffffffffff1673ffffffffffffffffffffffffffffffffffffffff16815260200190815260200160002054611e8490919063ffffffff16565b61193c565b6001905092915050565b6000610ba7610ba283610f2b565b610966565b9050919050565b600860009054906101000a900473ffffffffffffffffffffffffffffffffffffffff1673ffffffffffffffffffffffffffffffffffffffff16630261bf8b6040518163ffffffff1660e01b815260040160206040518083038186803b158015610c1657600080fd5b505afa158015610c2a573d6000803e3d6000fd5b505050506040513d6020811015610c4057600080fd5b810190808051906020019092919050505073ffffffffffffffffffffffffffffffffffffffff163373ffffffffffffffffffffffffffffffffffffffff1614610cd4576040517f08c379a00000000000000000000000000000000000000000000000000000000081526004018080602001828103825260368152602001806127026036913960400191505060405180910390fd5b610cde8282611f0c565b8173ffffffffffffffffffffffffffffffffffffffff167f90e5d3d68ec162d9c7de393037a3ede04dd44f68e051bf2ace4a73c299dbc4db82610d2084610966565b610d2986610f2b565b60405180848152602001838152602001828152602001935050505060405180910390a25050565b600080600860009054906101000a900473ffffffffffffffffffffffffffffffffffffffff1673ffffffffffffffffffffffffffffffffffffffff16632f58b80d6040518163ffffffff1660e01b815260040160206040518083038186803b158015610dbb57600080fd5b505afa158015610dcf573d6000803e3d6000fd5b505050506040513d6020811015610de557600080fd5b810190808051906020019092919050505090506000610e0384610966565b90508173ffffffffffffffffffffffffffffffffffffffff166376e9d615600560019054906101000a900473ffffffffffffffffffffffffffffffffffffffff1687846040518463ffffffff1660e01b8152600401808473ffffffffffffffffffffffffffffffffffffffff1673ffffffffffffffffffffffffffffffffffffffff1681526020018373ffffffffffffffffffffffffffffffffffffffff1673ffffffffffffffffffffffffffffffffffffffff168152602001828152602001935050505060206040518083038186803b158015610ee057600080fd5b505afa158015610ef4573d6000803e3d6000fd5b505050506040513d6020811015610f0a57600080fd5b81019080805190602001909291905050509250505092915050565b60075481565b60008060008373ffffffffffffffffffffffffffffffffffffffff1673ffffffffffffffffffffffffffffffffffffffff168152602001908152602001600020549050919050565b600560019054906101000a900473ffffffffffffffffffffffffffffffffffffffff1681565b600860009054906101000a900473ffffffffffffffffffffffffffffffffffffffff1673ffffffffffffffffffffffffffffffffffffffff16630261bf8b6040518163ffffffff1660e01b815260040160206040518083038186803b15801561100157600080fd5b505afa158015611015573d6000803e3d6000fd5b505050506040513d602081101561102b57600080fd5b810190808051906020019092919050505073ffffffffffffffffffffffffffffffffffffffff163373ffffffffffffffffffffffffffffffffffffffff16146110bf576040517f08c379a00000000000000000000000000000000000000000000000000000000081526004018080602001828103825260368152602001806127026036913960400191505060405180910390fd5b60006110ca826112d4565b90506110d683826120c4565b8273ffffffffffffffffffffffffffffffffffffffff167fbe7799898ca2d813ff902b487c1b434ab45b47edd8f38b77ad5e99aae8341b7a828461111987610f2b565b60405180848152602001838152602001828152602001935050505060405180910390a2505050565b606060048054600181600116156101000203166002900480601f0160208091040260200160405190810160405280929190818152602001828054600181600116156101000203166002900480156111d95780601f106111ae576101008083540402835291602001916111d9565b820191906000526020600020905b8154815290600101906020018083116111bc57829003601f168201915b5050505050905090565b60065481565b60006112ac6111f6611934565b846112a7856040518060600160405280602581526020016127ca6025913960016000611220611934565b73ffffffffffffffffffffffffffffffffffffffff1673ffffffffffffffffffffffffffffffffffffffff16815260200190815260200160002060008a73ffffffffffffffffffffffffffffffffffffffff1673ffffffffffffffffffffffffffffffffffffffff16815260200190815260200160002054611dc49092919063ffffffff16565b61193c565b6001905092915050565b60006112ca6112c3611934565b8484611c9f565b6001905092915050565b6000808214156112e75760009050611323565b61132061131b600654600a0a61130d6112fe61164d565b86611baf90919063ffffffff16565b611c3590919063ffffffff16565b611c7f565b90505b919050565b33816113348282610d50565b6113a6576040517f08c379a000000000000000000000000000000000000000000000000000000000815260040180806020018281038252601b8152602001807f5472616e736665722063616e6e6f7420626520616c6c6f7765642e000000000081525060200191505060405180910390fd5b60006113b184610966565b90506113bd338561227f565b6000600860009054906101000a900473ffffffffffffffffffffffffffffffffffffffff1673ffffffffffffffffffffffffffffffffffffffff16630261bf8b6040518163ffffffff1660e01b815260040160206040518083038186803b15801561142757600080fd5b505afa15801561143b573d6000803e3d6000fd5b505050506040513d602081101561145157600080fd5b810190808051906020019092919050505090508073ffffffffffffffffffffffffffffffffffffffff1663935642cf600560019054906101000a900473ffffffffffffffffffffffffffffffffffffffff1633856040518463ffffffff1660e01b8152600401808473ffffffffffffffffffffffffffffffffffffffff1673ffffffffffffffffffffffffffffffffffffffff1681526020018373ffffffffffffffffffffffffffffffffffffffff1673ffffffffffffffffffffffffffffffffffffffff1681526020018281526020019350505050600060405180830381600087803b15801561154157600080fd5b505af1158015611555573d6000803e3d6000fd5b505050503373ffffffffffffffffffffffffffffffffffffffff167fbd5034ffbd47e4e72a94baa2cdb74c6fad73cb3bcdc13036b72ec8306f5a7646868461159c33610f2b565b60405180848152602001838152602001828152602001935050505060405180910390a25050505050565b6000600160008473ffffffffffffffffffffffffffffffffffffffff1673ffffffffffffffffffffffffffffffffffffffff16815260200190815260200160002060008373ffffffffffffffffffffffffffffffffffffffff1673ffffffffffffffffffffffffffffffffffffffff16815260200190815260200160002054905092915050565b600080600960009054906101000a900473ffffffffffffffffffffffffffffffffffffffff1673ffffffffffffffffffffffffffffffffffffffff1663d15e0053600560019054906101000a900473ffffffffffffffffffffffffffffffffffffffff166040518263ffffffff1660e01b8152600401808273ffffffffffffffffffffffffffffffffffffffff1673ffffffffffffffffffffffffffffffffffffffff16815260200191505060206040518083038186803b15801561171157600080fd5b505afa158015611725573d6000803e3d6000fd5b505050506040513d602081101561173b57600080fd5b8101908080519060200190929190505050905061176381600754611b5390919063ffffffff16565b91505090565b600860009054906101000a900473ffffffffffffffffffffffffffffffffffffffff1673ffffffffffffffffffffffffffffffffffffffff16630261bf8b6040518163ffffffff1660e01b815260040160206040518083038186803b1580156117d157600080fd5b505afa1580156117e5573d6000803e3d6000fd5b505050506040513d60208110156117fb57600080fd5b810190808051906020019092919050505073ffffffffffffffffffffffffffffffffffffffff163373ffffffffffffffffffffffffffffffffffffffff161461188f576040517f08c379a00000000000000000000000000000000000000000000000000000000081526004018080602001828103825260368152602001806127026036913960400191505060405180910390fd5b61189a83838361228d565b8173ffffffffffffffffffffffffffffffffffffffff168373ffffffffffffffffffffffffffffffffffffffff167f2c335084544f8f7476a1c2e460962cd7e50d03d52a940d3d09e6f25894c75df3836118f385610966565b6118fc88610f2b565b61190588610f2b565b6040518085815260200184815260200183815260200182815260200194505050505060405180910390a3505050565b600033905090565b600073ffffffffffffffffffffffffffffffffffffffff168373ffffffffffffffffffffffffffffffffffffffff1614156119c2576040517f08c379a00000000000000000000000000000000000000000000000000000000081526004018080602001828103825260248152602001806127a66024913960400191505060405180910390fd5b600073ffffffffffffffffffffffffffffffffffffffff168273ffffffffffffffffffffffffffffffffffffffff161415611a48576040517f08c379a00000000000000000000000000000000000000000000000000000000081526004018080602001828103825260228152602001806126996022913960400191505060405180910390fd5b80600160008573ffffffffffffffffffffffffffffffffffffffff1673ffffffffffffffffffffffffffffffffffffffff16815260200190815260200160002060008473ffffffffffffffffffffffffffffffffffffffff1673ffffffffffffffffffffffffffffffffffffffff168152602001908152602001600020819055508173ffffffffffffffffffffffffffffffffffffffff168373ffffffffffffffffffffffffffffffffffffffff167f8c5be1e5ebec7d5bd14f71427d1e84f3dd0314c0f7b2291e5b200ac8c7c3b925836040518082815260200191505060405180910390a3505050565b6000611b4c633b9aca0083611baf90919063ffffffff16565b9050919050565b60008060028381611b6057fe5b049050611ba683611b98611b896b033b2e3c9fd0803ce800000088611baf90919063ffffffff16565b84611e8490919063ffffffff16565b611c3590919063ffffffff16565b91505092915050565b600080831415611bc25760009050611c2f565b6000828402905082848281611bd357fe5b0414611c2a576040517f08c379a00000000000000000000000000000000000000000000000000000000081526004018080602001828103825260218152602001806126e16021913960400191505060405180910390fd5b809150505b92915050565b6000611c7783836040518060400160405280601a81526020017f536166654d6174683a206469766973696f6e206279207a65726f000000000000815250612543565b905092915050565b6000611c98633b9aca0083611c3590919063ffffffff16565b9050919050565b8281611cab8282610d50565b611d1d576040517f08c379a000000000000000000000000000000000000000000000000000000000815260040180806020018281038252601b8152602001807f5472616e736665722063616e6e6f7420626520616c6c6f7765642e000000000081525060200191505060405180910390fd5b611d2885858561228d565b8373ffffffffffffffffffffffffffffffffffffffff168573ffffffffffffffffffffffffffffffffffffffff167fbf553f39591e51c9524a30865d4a5590424976ba75d2046a6c7ce15d6321b62485611d8187610966565b611d8a8a610f2b565b611d938a610f2b565b6040518085815260200184815260200183815260200182815260200194505050505060405180910390a35050505050565b6000838311158290611e71576040517f08c379a00000000000000000000000000000000000000000000000000000000081526004018080602001828103825283818151815260200191508051906020019080838360005b83811015611e36578082015181840152602081019050611e1b565b50505050905090810190601f168015611e635780820380516001836020036101000a031916815260200191505b509250505060405180910390fd5b5060008385039050809150509392505050565b600080828401905083811015611f02576040517f08c379a000000000000000000000000000000000000000000000000000000000815260040180806020018281038252601b8152602001807f536166654d6174683a206164646974696f6e206f766572666c6f77000000000081525060200191505060405180910390fd5b8091505092915050565b600073ffffffffffffffffffffffffffffffffffffffff168273ffffffffffffffffffffffffffffffffffffffff161415611f92576040517f08c379a00000000000000000000000000000000000000000000000000000000081526004018080602001828103825260218152602001806127606021913960400191505060405180910390fd5b611ffd81604051806060016040528060228152602001612677602291396000808673ffffffffffffffffffffffffffffffffffffffff1673ffffffffffffffffffffffffffffffffffffffff16815260200190815260200160002054611dc49092919063ffffffff16565b6000808473ffffffffffffffffffffffffffffffffffffffff1673ffffffffffffffffffffffffffffffffffffffff168152602001908152602001600020819055506120548160025461260990919063ffffffff16565b600281905550600073ffffffffffffffffffffffffffffffffffffffff168273ffffffffffffffffffffffffffffffffffffffff167fddf252ad1be2c89b69c2b068fc378daa952ba7f163c4a11628f55a4df523b3ef836040518082815260200191505060405180910390a35050565b600073ffffffffffffffffffffffffffffffffffffffff168273ffffffffffffffffffffffffffffffffffffffff161415612167576040517f08c379a000000000000000000000000000000000000000000000000000000000815260040180806020018281038252601f8152602001807f45524332303a206d696e7420746f20746865207a65726f20616464726573730081525060200191505060405180910390fd5b61217c81600254611e8490919063ffffffff16565b6002819055506121d3816000808573ffffffffffffffffffffffffffffffffffffffff1673ffffffffffffffffffffffffffffffffffffffff16815260200190815260200160002054611e8490919063ffffffff16565b6000808473ffffffffffffffffffffffffffffffffffffffff1673ffffffffffffffffffffffffffffffffffffffff168152602001908152602001600020819055508173ffffffffffffffffffffffffffffffffffffffff16600073ffffffffffffffffffffffffffffffffffffffff167fddf252ad1be2c89b69c2b068fc378daa952ba7f163c4a11628f55a4df523b3ef836040518082815260200191505060405180910390a35050565b6122898282611f0c565b5050565b600073ffffffffffffffffffffffffffffffffffffffff168373ffffffffffffffffffffffffffffffffffffffff161415612313576040517f08c379a00000000000000000000000000000000000000000000000000000000081526004018080602001828103825260258152602001806127816025913960400191505060405180910390fd5b600073ffffffffffffffffffffffffffffffffffffffff168273ffffffffffffffffffffffffffffffffffffffff161415612399576040517f08c379a00000000000000000000000000000000000000000000000000000000081526004018080602001828103825260238152602001806126546023913960400191505060405180910390fd5b612404816040518060600160405280602681526020016126bb602691396000808773ffffffffffffffffffffffffffffffffffffffff1673ffffffffffffffffffffffffffffffffffffffff16815260200190815260200160002054611dc49092919063ffffffff16565b6000808573ffffffffffffffffffffffffffffffffffffffff1673ffffffffffffffffffffffffffffffffffffffff16815260200190815260200160002081905550612497816000808573ffffffffffffffffffffffffffffffffffffffff1673ffffffffffffffffffffffffffffffffffffffff16815260200190815260200160002054611e8490919063ffffffff16565b6000808473ffffffffffffffffffffffffffffffffffffffff1673ffffffffffffffffffffffffffffffffffffffff168152602001908152602001600020819055508173ffffffffffffffffffffffffffffffffffffffff168373ffffffffffffffffffffffffffffffffffffffff167fddf252ad1be2c89b69c2b068fc378daa952ba7f163c4a11628f55a4df523b3ef836040518082815260200191505060405180910390a3505050565b600080831182906125ef576040517f08c379a00000000000000000000000000000000000000000000000000000000081526004018080602001828103825283818151815260200191508051906020019080838360005b838110156125b4578082015181840152602081019050612599565b50505050905090810190601f1680156125e15780820380516001836020036101000a031916815260200191505b509250505060405180910390fd5b5060008385816125fb57fe5b049050809150509392505050565b600061264b83836040518060400160405280601e81526020017f536166654d6174683a207375627472616374696f6e206f766572666c6f770000815250611dc4565b90509291505056fe45524332303a207472616e7366657220746f20746865207a65726f206164647265737345524332303a206275726e20616d6f756e7420657863656564732062616c616e636545524332303a20617070726f766520746f20746865207a65726f206164647265737345524332303a207472616e7366657220616d6f756e7420657863656564732062616c616e6365536166654d6174683a206d756c7469706c69636174696f6e206f766572666c6f775468652063616c6c6572206f6620746869732066756e6374696f6e2063616e206f6e6c792062652061206c656e64696e6720706f6f6c45524332303a207472616e7366657220616d6f756e74206578636565647320616c6c6f77616e636545524332303a206275726e2066726f6d20746865207a65726f206164647265737345524332303a207472616e736665722066726f6d20746865207a65726f206164647265737345524332303a20617070726f76652066726f6d20746865207a65726f206164647265737345524332303a2064656372656173656420616c6c6f77616e63652062656c6f77207a65726fa165627a7a723058204a0bed3ae55c5673e00e38acc740d939f148a1b9c8a8f608b3b3212a756b939800294f776e61626c653a206e6577206f776e657220697320746865207a65726f20616464726573735468652063616c6c6572206d7573742062652061206c656e64696e6720706f6f6c206d616e61676572a165627a7a72305820a202c6e9d935e8f08041e242ce25c0fedfbd7ec22255bef08bbd56a1b49ca1660029",
  "source": "pragma solidity ^0.5.0;\n\nimport \"openzeppelin-solidity/contracts/ownership/Ownable.sol\";\nimport \"openzeppelin-solidity/contracts/math/SafeMath.sol\";\nimport \"openzeppelin-solidity/contracts/token/ERC20/ERC20Detailed.sol\";\nimport \"../libraries/CoreLibrary.sol\";\nimport \"../configuration/LendingPoolAddressesProvider.sol\";\nimport \"./LendingPoolCore.sol\";\nimport \"../interfaces/IFeeProvider.sol\";\nimport \"../tokenization/AToken.sol\";\n\n\n\n/*************************************************************************************\n@title LendingPoolConfigurator contract\n@author Aave\n@notice Executes configuration methods on the LendingPoolCore contract. Allows to enable/disable reserves,\nand set different protocol parameters.\n *************************************************************************************/\n\ncontract LendingPoolConfigurator is Ownable {\n\n    using SafeMath for uint256;\n\n    event ReserveInitialized(\n    address indexed _reserve,\n    address indexed _aToken,\n    uint256 _initialExchangeRate,\n    address _interestRateStrategyAddress);\n\n    event BorrowingEnabledOnReserve(\n        address _reserve,\n        bool _fixedRateEnabled\n    );\n\n    /**\n    @dev events\n     */\n    event BorrowingDisabledOnReserve(address indexed _reserve);\n    event ReserveEnabledAsCollateral(address indexed _reserve, uint256 _ltv, uint256 _liquidationThreshold);\n    event ReserveDisabledAsCollateral(address indexed _reserve);\n    event FixedRateEnabledOnReserve(address indexed _reserve);\n    event FixedRateDisabledOnReserve(address indexed _reserve);\n    event ReserveActivated(address indexed _reserve);\n    event ReserveDeactivated(address indexed _reserve);\n\n    LendingPoolAddressesProvider public poolAddressesProvider;\n    /**\n    @dev only lending pools can use functions affected by this modifier\n     */\n    modifier onlyLendingPoolManager {\n        require(\n            poolAddressesProvider.getLendingPoolManager() == msg.sender,\n            \"The caller must be a lending pool manager\"\n        );\n        _;\n    }\n\n    constructor(LendingPoolAddressesProvider _poolAddressesProvider)\n        public\n    {\n        poolAddressesProvider = _poolAddressesProvider;\n    }\n\n    /******************************************\n    @dev pool core managment functions\n     ******************************************/\n\n    function initReserve(\n        address _reserve,\n        uint256 _aTokenInitialExchangeRate,\n        uint256 _underlyingAssetDecimals,\n        address _interestRateStrategyAddress)\n        external\n        onlyLendingPoolManager\n    {\n        ERC20Detailed asset = ERC20Detailed(_reserve);\n\n        string memory aTokenName = string(abi.encodePacked(\"Aave Interest bearing \", asset.name()));\n        string memory aTokenSymbol = string(abi.encodePacked(\"a\", asset.symbol()));\n\n        initReserveWithData(\n            _reserve,\n            aTokenName,\n            aTokenSymbol,\n            _aTokenInitialExchangeRate,\n            _underlyingAssetDecimals,\n            _interestRateStrategyAddress);\n\n    }\n\n\n    /**\n    @notice initialises the reserve and instantiates the specific aToken with the specified initial exchange rate.\n     */\n    function initReserveWithData(\n        address _reserve,\n        string memory aTokenName,\n        string memory aTokenSymbol,\n        uint256 _aTokenInitialExchangeRate,\n        uint256 _underlyingAssetDecimals,\n        address _interestRateStrategyAddress)\n        public\n        onlyLendingPoolManager\n    {\n        LendingPoolCore core = LendingPoolCore(poolAddressesProvider.getLendingPoolCore());\n\n        AToken aTokenInstance = new AToken(\n            poolAddressesProvider,\n            _reserve,\n            _underlyingAssetDecimals,\n            aTokenName,\n            aTokenSymbol,\n            18,\n            _aTokenInitialExchangeRate\n        );\n        core.initReserve(_reserve, address(aTokenInstance), _underlyingAssetDecimals, _interestRateStrategyAddress);\n\n        emit ReserveInitialized(_reserve, address(aTokenInstance), _aTokenInitialExchangeRate, _interestRateStrategyAddress);\n    }\n\n\n    /**\n    @notice functions to enable/disable borrowing on reserve.\n     */\n    function enableBorrowingOnReserve(\n        address _reserve,\n        bool _fixedBorrowRateEnabled\n    ) external onlyLendingPoolManager {\n        LendingPoolCore core = LendingPoolCore(poolAddressesProvider.getLendingPoolCore());\n        core.enableBorrowingOnReserve(_reserve, _fixedBorrowRateEnabled);\n        emit BorrowingEnabledOnReserve(_reserve, _fixedBorrowRateEnabled);\n    }\n\n    function disableBorrowingOnReserve(address _reserve) external onlyLendingPoolManager {\n        LendingPoolCore core = LendingPoolCore(poolAddressesProvider.getLendingPoolCore());\n        core.disableBorrowingOnReserve(_reserve);\n\n        emit BorrowingDisabledOnReserve(_reserve);\n    }\n\n    /**\n    @notice functions to enable/disable usage of the reserve as collateral.\n     */\n\n\n    function enableReserveAsCollateral(address _reserve, uint256 _baseLTVasCollateral, uint256 _liquidationThreshold)\n        external\n        onlyLendingPoolManager\n    {\n        LendingPoolCore core = LendingPoolCore(poolAddressesProvider.getLendingPoolCore());\n        core.enableReserveAsCollateral(_reserve, _baseLTVasCollateral, _liquidationThreshold);\n        emit ReserveEnabledAsCollateral(_reserve, _baseLTVasCollateral, _liquidationThreshold);\n    }\n\n    function disableReserveAsCollateral(address _reserve) external onlyLendingPoolManager {\n        LendingPoolCore core = LendingPoolCore(poolAddressesProvider.getLendingPoolCore());\n        core.disableReserveAsCollateral(_reserve);\n\n        emit ReserveDisabledAsCollateral(_reserve);\n    }\n\n    /**\n    @notice functions to enable/disable fixed borrow rate mode on a reserve.\n     */\n\n\n    function enableReserveFixedBorrowRate(address _reserve) external onlyLendingPoolManager {\n        LendingPoolCore core = LendingPoolCore(poolAddressesProvider.getLendingPoolCore());\n        core.enableReserveFixedBorrowRate(_reserve);\n\n        emit FixedRateEnabledOnReserve(_reserve);\n    }\n\n    function disableReserveFixedBorrowRate(address _reserve) external onlyLendingPoolManager {\n        LendingPoolCore core = LendingPoolCore(poolAddressesProvider.getLendingPoolCore());\n        core.disableReserveFixedBorrowRate(_reserve);\n\n        emit FixedRateDisabledOnReserve(_reserve);\n    }\n\n    function activateReserve(address _reserve) external onlyLendingPoolManager {\n        LendingPoolCore core = LendingPoolCore(poolAddressesProvider.getLendingPoolCore());\n        core.activateReserve(_reserve);\n\n        emit ReserveActivated(_reserve);\n    }\n\n    function deactivateReserve(address _reserve) external onlyLendingPoolManager {\n        LendingPoolCore core = LendingPoolCore(poolAddressesProvider.getLendingPoolCore());\n        core.deactivateReserve(_reserve);\n\n        emit ReserveDeactivated(_reserve);\n    }\n\n\n    /***************\n    @dev functions to update available collaterals\n    @dev the interest rate and the ltv are expressed in percentage\n     ***************/\n\n    function setReserveBaseLTVasCollateral(address _reserve, uint256 _ltv) external onlyLendingPoolManager {\n        LendingPoolCore core = LendingPoolCore(poolAddressesProvider.getLendingPoolCore());\n        core.setReserveBaseLTVasCollateral(_reserve, _ltv);\n    }\n\n    function setReserveLiquidationThreshold(address _reserve, uint256 _threshold)\n        external\n        onlyLendingPoolManager\n    {\n        LendingPoolCore core = LendingPoolCore(poolAddressesProvider.getLendingPoolCore());\n        core.setReserveLiquidationThreshold(_reserve, _threshold);\n    }\n\n    function setReserveLiquidationDiscount(address _reserve, uint256 _threshold)\n        external\n        onlyLendingPoolManager\n    {\n        LendingPoolCore core = LendingPoolCore(poolAddressesProvider.getLendingPoolCore());\n        core.setReserveLiquidationDiscount(_reserve, _threshold);\n    }\n\n\n    function setReserveInterestRateStrategyAddress( address _reserve, address _rateStrategyAddress) external onlyLendingPoolManager {\n        LendingPoolCore core = LendingPoolCore(poolAddressesProvider.getLendingPoolCore());\n        core.setReserveInterestRateStrategyAddress(_reserve, _rateStrategyAddress);\n    }\n\n    function setLendingPoolCoreAddressesProvider(address _provider) external onlyLendingPoolManager {\n        LendingPoolCore core = LendingPoolCore(poolAddressesProvider.getLendingPoolCore());\n        core.setAddressesProvider(_provider);\n    }\n\n    function refreshLendingPoolCoreConfiguration() external onlyLendingPoolManager {\n        LendingPoolCore core = LendingPoolCore(poolAddressesProvider.getLendingPoolCore());\n        core.refreshConfiguration();\n    }\n}\n",
  "sourcePath": "/Users/jg/Documents/aaveBot/contracts/lendingpool/LendingPoolConfigurator.sol",
  "compiler": {
    "name": "solc",
    "version": "0.5.8+commit.23d335f2.Emscripten.clang"
  },
  "schemaVersion": "3.0.16",
  "updatedAt": "2019-11-07T20:00:22.267Z",
  "devdoc": {
    "author": "Aave",
    "methods": {
      "initReserve(address,uint256,uint256,address)": {
        "details": "pool core managment functions*****************************************"
      },
      "isOwner()": {
        "details": "Returns true if the caller is the current owner."
      },
      "owner()": {
        "details": "Returns the address of the current owner."
      },
      "renounceOwnership()": {
        "details": "Leaves the contract without owner. It will not be possible to call `onlyOwner` functions anymore. Can only be called by the current owner.     * NOTE: Renouncing ownership will leave the contract without an owner, thereby removing any functionality that is only available to the owner."
      },
      "setReserveBaseLTVasCollateral(address,uint256)": {
        "details": "functions to update available collateralsthe interest rate and the ltv are expressed in percentage**************"
      },
      "transferOwnership(address)": {
        "details": "Transfers ownership of the contract to a new account (`newOwner`). Can only be called by the current owner."
      }
    },
    "title": "LendingPoolConfigurator contract"
  },
  "userdoc": {
    "methods": {
      "enableBorrowingOnReserve(address,bool)": {
        "notice": "functions to enable/disable borrowing on reserve."
      },
      "enableReserveAsCollateral(address,uint256,uint256)": {
        "notice": "functions to enable/disable usage of the reserve as collateral."
      },
      "enableReserveFixedBorrowRate(address)": {
        "notice": "functions to enable/disable fixed borrow rate mode on a reserve."
      },
      "initReserve(address,uint256,uint256,address)": {
        "notice": "****************************************"
      },
      "initReserveWithData(address,string,string,uint256,uint256,address)": {
        "notice": "initialises the reserve and instantiates the specific aToken with the specified initial exchange rate."
      },
      "setReserveBaseLTVasCollateral(address,uint256)": {
        "notice": "*************"
      }
    },
    "notice": "***********************************************************************************Executes configuration methods on the LendingPoolCore contract. Allows to enable/disable reserves, and set different protocol parameters.************************************************************************************"
  }
}