{
  "contractName": "PriceOracle",
  "abi": [
    {
      "constant": true,
      "inputs": [
        {
          "name": "_asset",
          "type": "address"
        }
      ],
      "name": "getAssetPrice",
      "outputs": [
        {
          "name": "",
          "type": "uint256"
        }
      ],
      "payable": false,
      "stateMutability": "view",
      "type": "function"
    },
    {
      "constant": false,
      "inputs": [
        {
          "name": "_asset",
          "type": "address"
        },
        {
          "name": "_price",
          "type": "uint256"
        }
      ],
      "name": "setAssetPrice",
      "outputs": [],
      "payable": false,
      "stateMutability": "nonpayable",
      "type": "function"
    },
    {
      "constant": true,
      "inputs": [],
      "name": "getEthUsdPrice",
      "outputs": [
        {
          "name": "",
          "type": "uint256"
        }
      ],
      "payable": false,
      "stateMutability": "view",
      "type": "function"
    },
    {
      "constant": false,
      "inputs": [
        {
          "name": "_price",
          "type": "uint256"
        }
      ],
      "name": "setEthUsdPrice",
      "outputs": [],
      "payable": false,
      "stateMutability": "nonpayable",
      "type": "function"
    }
  ],
  "bytecode": "0x608060405234801561001057600080fd5b50610212806100206000396000f3fe608060405234801561001057600080fd5b506004361061004c5760003560e01c806351323f7214610051578063a0a8045e1461009f578063b3596f07146100bd578063b951883a14610115575b600080fd5b61009d6004803603604081101561006757600080fd5b81019080803573ffffffffffffffffffffffffffffffffffffffff16906020019092919080359060200190929190505050610143565b005b6100a761018a565b6040518082815260200191505060405180910390f35b6100ff600480360360208110156100d357600080fd5b81019080803573ffffffffffffffffffffffffffffffffffffffff169060200190929190505050610194565b6040518082815260200191505060405180910390f35b6101416004803603602081101561012b57600080fd5b81019080803590602001909291905050506101dc565b005b806000808473ffffffffffffffffffffffffffffffffffffffff1673ffffffffffffffffffffffffffffffffffffffff168152602001908152602001600020819055505050565b6000600154905090565b60008060008373ffffffffffffffffffffffffffffffffffffffff1673ffffffffffffffffffffffffffffffffffffffff168152602001908152602001600020549050919050565b806001819055505056fea165627a7a72305820834db48efbaf5f23b30b109aab929489665ee414514535528bc272ad18b88f6b0029",
  "source": "pragma solidity ^0.5.0;\n\nimport \"../../interfaces/IPriceOracle.sol\";\n\n\ncontract PriceOracle is IPriceOracle {\n\n    mapping(address => uint) prices;\n    uint ethPriceUsd;\n\n    function getAssetPrice(address _asset) external view returns(uint) {\n        return prices[_asset];\n    }\n\n    function setAssetPrice(address _asset, uint _price) external {\n        prices[_asset] = _price;\n    }\n\n    function getEthUsdPrice() external view returns(uint) {\n        return ethPriceUsd;\n    }\n\n    function setEthUsdPrice(uint _price) external {\n        ethPriceUsd = _price;\n    }\n}",
  "sourcePath": "/Users/jg/Documents/aaveBot/contracts/mocks/Oracle/PriceOracle.sol",
  "compiler": {
    "name": "solc",
    "version": "0.5.8+commit.23d335f2.Emscripten.clang"
  },
  "schemaVersion": "3.0.16",
  "updatedAt": "2019-11-07T20:00:22.382Z",
  "devdoc": {
    "methods": {}
  },
  "userdoc": {
    "methods": {}
  }
}