{
  "contractName": "RinkebyArbContract",
  "abi": [
    {
      "constant": true,
      "inputs": [],
      "name": "owner",
      "outputs": [
        {
          "name": "",
          "type": "address"
        }
      ],
      "payable": false,
      "stateMutability": "view",
      "type": "function"
    },
    {
      "inputs": [],
      "payable": false,
      "stateMutability": "nonpayable",
      "type": "constructor"
    },
    {
      "anonymous": false,
      "inputs": [
        {
          "indexed": false,
          "name": "trader",
          "type": "address"
        },
        {
          "indexed": false,
          "name": "eth",
          "type": "uint256"
        },
        {
          "indexed": false,
          "name": "tokens",
          "type": "uint256"
        },
        {
          "indexed": false,
          "name": "token_bought",
          "type": "uint256"
        }
      ],
      "name": "ethToToken",
      "type": "event"
    },
    {
      "anonymous": false,
      "inputs": [
        {
          "indexed": false,
          "name": "trader",
          "type": "address"
        },
        {
          "indexed": false,
          "name": "sell_eth_value",
          "type": "uint256"
        },
        {
          "indexed": false,
          "name": "max_sell_tokens",
          "type": "uint256"
        },
        {
          "indexed": false,
          "name": "tokens_sold",
          "type": "uint256"
        }
      ],
      "name": "tokenToEth",
      "type": "event"
    },
    {
      "constant": false,
      "inputs": [
        {
          "name": "tokenAddress",
          "type": "address"
        },
        {
          "name": "exchangeAddress",
          "type": "address"
        },
        {
          "name": "amount",
          "type": "uint256"
        }
      ],
      "name": "approveToken",
      "outputs": [],
      "payable": false,
      "stateMutability": "nonpayable",
      "type": "function"
    },
    {
      "constant": false,
      "inputs": [
        {
          "name": "uniSwapExchangeAddr",
          "type": "address"
        },
        {
          "name": "min_buy_tokens",
          "type": "uint256"
        },
        {
          "name": "buy_deadline",
          "type": "uint256"
        },
        {
          "name": "buy_eth_value",
          "type": "uint256"
        },
        {
          "name": "max_sell_tokens",
          "type": "uint256"
        },
        {
          "name": "sell_deadline",
          "type": "uint256"
        },
        {
          "name": "sell_eth_value",
          "type": "uint256"
        }
      ],
      "name": "trade",
      "outputs": [],
      "payable": true,
      "stateMutability": "payable",
      "type": "function"
    },
    {
      "constant": false,
      "inputs": [
        {
          "name": "uniSwapExchangeAddr",
          "type": "address"
        },
        {
          "name": "min_buy_tokens",
          "type": "uint256"
        },
        {
          "name": "buy_deadline",
          "type": "uint256"
        },
        {
          "name": "buy_eth_value",
          "type": "uint256"
        }
      ],
      "name": "tradeEthToToken",
      "outputs": [],
      "payable": true,
      "stateMutability": "payable",
      "type": "function"
    },
    {
      "constant": false,
      "inputs": [
        {
          "name": "uniSwapExchangeAddr",
          "type": "address"
        },
        {
          "name": "max_sell_tokens",
          "type": "uint256"
        },
        {
          "name": "sell_deadline",
          "type": "uint256"
        },
        {
          "name": "sell_eth_value",
          "type": "uint256"
        }
      ],
      "name": "tradeTokenToEth",
      "outputs": [],
      "payable": false,
      "stateMutability": "nonpayable",
      "type": "function"
    },
    {
      "constant": true,
      "inputs": [],
      "name": "getBalance",
      "outputs": [
        {
          "name": "",
          "type": "uint256"
        }
      ],
      "payable": false,
      "stateMutability": "view",
      "type": "function"
    }
  ],
  "bytecode": "0x608060405234801561001057600080fd5b50336000806101000a81548173ffffffffffffffffffffffffffffffffffffffff021916908373ffffffffffffffffffffffffffffffffffffffff160217905550610a8b806100606000396000f3fe6080604052600436106100555760003560e01c806312065fe01461005a578063691c6a051461008557806369ef92be146101055780636efd905c146101675780638da5cb5b146101d6578063da3e33971461022d575b600080fd5b34801561006657600080fd5b5061006f6102a8565b6040518082815260200191505060405180910390f35b610103600480360360e081101561009b57600080fd5b81019080803573ffffffffffffffffffffffffffffffffffffffff1690602001909291908035906020019092919080359060200190929190803590602001909291908035906020019092919080359060200190929190803590602001909291905050506102c7565b005b6101656004803603608081101561011b57600080fd5b81019080803573ffffffffffffffffffffffffffffffffffffffff1690602001909291908035906020019092919080359060200190929190803590602001909291905050506105b4565b005b34801561017357600080fd5b506101d46004803603608081101561018a57600080fd5b81019080803573ffffffffffffffffffffffffffffffffffffffff16906020019092919080359060200190929190803590602001909291908035906020019092919050505061074c565b005b3480156101e257600080fd5b506101eb6108aa565b604051808273ffffffffffffffffffffffffffffffffffffffff1673ffffffffffffffffffffffffffffffffffffffff16815260200191505060405180910390f35b34801561023957600080fd5b506102a66004803603606081101561025057600080fd5b81019080803573ffffffffffffffffffffffffffffffffffffffff169060200190929190803573ffffffffffffffffffffffffffffffffffffffff169060200190929190803590602001909291905050506108cf565b005b60003073ffffffffffffffffffffffffffffffffffffffff1631905090565b8334101561033d576040517f08c379a00000000000000000000000000000000000000000000000000000000081526004018080602001828103825260138152602001807f4e6f7420456e6f756768204574682053656e740000000000000000000000000081525060200191505060405180910390fd5b600087905060008173ffffffffffffffffffffffffffffffffffffffff1663f39b5b9b878a8a6040518463ffffffff1660e01b815260040180838152602001828152602001925050506020604051808303818588803b15801561039f57600080fd5b505af11580156103b3573d6000803e3d6000fd5b50505050506040513d60208110156103ca57600080fd5b810190808051906020019092919050505090507e54db9af6406356fb75e752b513e9bdf734056e92d4e263cb6b7e525773f22333878a84604051808573ffffffffffffffffffffffffffffffffffffffff1673ffffffffffffffffffffffffffffffffffffffff16815260200184815260200183815260200182815260200194505050505060405180910390a160008273ffffffffffffffffffffffffffffffffffffffff1663d4e4841d858888336040518563ffffffff1660e01b8152600401808581526020018481526020018381526020018273ffffffffffffffffffffffffffffffffffffffff1673ffffffffffffffffffffffffffffffffffffffff168152602001945050505050602060405180830381600087803b1580156104f057600080fd5b505af1158015610504573d6000803e3d6000fd5b505050506040513d602081101561051a57600080fd5b810190808051906020019092919050505090507fe9c245f1c1a4a7a621218231e7ed679594b1c02c80e4fe05a465ecb46dc37f4733858884604051808573ffffffffffffffffffffffffffffffffffffffff1673ffffffffffffffffffffffffffffffffffffffff16815260200184815260200183815260200182815260200194505050505060405180910390a150505050505050505050565b8034101561062a576040517f08c379a00000000000000000000000000000000000000000000000000000000081526004018080602001828103825260138152602001807f4e6f7420456e6f756768204574682053656e740000000000000000000000000081525060200191505060405180910390fd5b600084905060008173ffffffffffffffffffffffffffffffffffffffff1663f39b5b9b8487876040518463ffffffff1660e01b815260040180838152602001828152602001925050506020604051808303818588803b15801561068c57600080fd5b505af11580156106a0573d6000803e3d6000fd5b50505050506040513d60208110156106b757600080fd5b810190808051906020019092919050505090507e54db9af6406356fb75e752b513e9bdf734056e92d4e263cb6b7e525773f22333848784604051808573ffffffffffffffffffffffffffffffffffffffff1673ffffffffffffffffffffffffffffffffffffffff16815260200184815260200183815260200182815260200194505050505060405180910390a1505050505050565b600084905060008173ffffffffffffffffffffffffffffffffffffffff1663d4e4841d848787336040518563ffffffff1660e01b8152600401808581526020018481526020018381526020018273ffffffffffffffffffffffffffffffffffffffff1673ffffffffffffffffffffffffffffffffffffffff168152602001945050505050602060405180830381600087803b1580156107ea57600080fd5b505af11580156107fe573d6000803e3d6000fd5b505050506040513d602081101561081457600080fd5b810190808051906020019092919050505090507fe9c245f1c1a4a7a621218231e7ed679594b1c02c80e4fe05a465ecb46dc37f4733848784604051808573ffffffffffffffffffffffffffffffffffffffff1673ffffffffffffffffffffffffffffffffffffffff16815260200184815260200183815260200182815260200194505050505060405180910390a1505050505050565b6000809054906101000a900473ffffffffffffffffffffffffffffffffffffffff1681565b6000809054906101000a900473ffffffffffffffffffffffffffffffffffffffff1673ffffffffffffffffffffffffffffffffffffffff163373ffffffffffffffffffffffffffffffffffffffff1614610991576040517f08c379a00000000000000000000000000000000000000000000000000000000081526004018080602001828103825260168152602001807f4f6e6c79204f776e65722043616e20417070726f76650000000000000000000081525060200191505060405180910390fd5b60008390508073ffffffffffffffffffffffffffffffffffffffff1663095ea7b384846040518363ffffffff1660e01b8152600401808373ffffffffffffffffffffffffffffffffffffffff1673ffffffffffffffffffffffffffffffffffffffff16815260200182815260200192505050602060405180830381600087803b158015610a1d57600080fd5b505af1158015610a31573d6000803e3d6000fd5b505050506040513d6020811015610a4757600080fd5b8101908080519060200190929190505050505050505056fea165627a7a723058201b2ab4ea4ed47a9a851fc83b2a429804a657081f216d33f95eff80134efbc8c20029",
  "source": "pragma solidity ^0.5.0;\n\nimport \"./UniswapExchange.sol\";\nimport \"@openzeppelin/contracts/token/ERC20/ERC20.sol\";\n\ncontract RinkebyArbContract {\n\n  address public owner;\n\n  event ethToToken(address trader, uint256 eth, uint256 tokens, uint256 token_bought);\n  event tokenToEth(address trader, uint256 sell_eth_value, uint256 max_sell_tokens, uint256 tokens_sold);\n\n  constructor() public {\n    owner = msg.sender;\n  }\n\n  function approveToken(address tokenAddress, address exchangeAddress, uint amount) public {\n    require(msg.sender == owner, \"Only Owner Can Approve\");\n\n    ERC20 token = ERC20(tokenAddress);\n\n    token.approve(exchangeAddress, amount);\n  }\n\n  function trade(\n    address uniSwapExchangeAddr,\n    uint256 min_buy_tokens,\n    uint256 buy_deadline,\n    uint256 buy_eth_value,\n    uint256 max_sell_tokens,\n    uint256 sell_deadline,\n    uint256 sell_eth_value)\n    public payable {\n      require(msg.value >= buy_eth_value, \"Not Enough Eth Sent\");\n\n      UniswapExchange uniSwapExchange = UniswapExchange(uniSwapExchangeAddr);\n\n      uint256 token_bought = uniSwapExchange.ethToTokenSwapInput.value(buy_eth_value)(min_buy_tokens, buy_deadline);                    // Swap Eth to token in UniSwap\n      emit ethToToken(msg.sender, buy_eth_value, min_buy_tokens, token_bought);\n\n      uint256 tokens_sold = uniSwapExchange.tokenToEthTransferOutput(sell_eth_value, max_sell_tokens, sell_deadline, msg.sender);\n      emit tokenToEth(msg.sender, sell_eth_value, max_sell_tokens, tokens_sold);\n  }\n\n  function tradeEthToToken(\n    address uniSwapExchangeAddr,\n    uint256 min_buy_tokens,\n    uint256 buy_deadline,\n    uint256 buy_eth_value)\n    public payable {\n      require(msg.value >= buy_eth_value, \"Not Enough Eth Sent\");\n\n      UniswapExchange uniSwapExchange = UniswapExchange(uniSwapExchangeAddr);\n\n      uint256 token_bought = uniSwapExchange.ethToTokenSwapInput.value(buy_eth_value)(min_buy_tokens, buy_deadline);                    // Swap Eth to token in UniSwap\n      emit ethToToken(msg.sender, buy_eth_value, min_buy_tokens, token_bought);\n  }\n\n  function tradeTokenToEth(\n    address uniSwapExchangeAddr,\n    uint256 max_sell_tokens,\n    uint256 sell_deadline,\n    uint256 sell_eth_value)\n    public {\n      // Should check approval?\n\n      UniswapExchange uniSwapExchange = UniswapExchange(uniSwapExchangeAddr);\n\n      uint256 tokens_sold = uniSwapExchange.tokenToEthTransferOutput(sell_eth_value, max_sell_tokens, sell_deadline, msg.sender);\n\n      emit tokenToEth(msg.sender, sell_eth_value, max_sell_tokens, tokens_sold);\n  }\n\n  function getBalance() public view returns (uint256) {\n    return address(this).balance;\n  }\n}\n",
  "sourcePath": "/Users/jg/Documents/aaveBot/contracts/RinkebyArbContract.sol",
  "compiler": {
    "name": "solc",
    "version": "0.5.8+commit.23d335f2.Emscripten.clang"
  },
  "schemaVersion": "3.0.16",
  "updatedAt": "2019-11-08T10:19:44.771Z",
  "devdoc": {
    "methods": {}
  },
  "userdoc": {
    "methods": {}
  }
}