{
  "contractName": "UintStorage",
  "abi": [
    {
      "constant": true,
      "inputs": [
        {
          "name": "_key",
          "type": "bytes32"
        }
      ],
      "name": "getUint",
      "outputs": [
        {
          "name": "",
          "type": "uint256"
        }
      ],
      "payable": false,
      "stateMutability": "view",
      "type": "function"
    }
  ],
  "bytecode": "0x6080604052348015600f57600080fd5b5060b48061001e6000396000f3fe6080604052348015600f57600080fd5b506004361060285760003560e01c8063bd02d0f514602d575b600080fd5b605660048036036020811015604157600080fd5b8101908080359060200190929190505050606c565b6040518082815260200191505060405180910390f35b600080600083815260200190815260200160002054905091905056fea165627a7a72305820c5f85215846b86bf574a701bb744ce646725bb8b9dc22ade967160861329a1960029",
  "source": "pragma solidity ^0.5.0;\n\ncontract UintStorage {\n    mapping(bytes32 => uint256) private uints;\n\n    function getUint(bytes32 _key) public view returns (uint256) {\n        return uints[_key];\n    }\n\n    function _setUint(bytes32 _key, uint256 _value) internal {\n        uints[_key] = _value;\n    }\n\n}\n",
  "sourcePath": "/Users/jg/Documents/aaveBot/contracts/configuration/UintStorage.sol",
  "compiler": {
    "name": "solc",
    "version": "0.5.8+commit.23d335f2.Emscripten.clang"
  },
  "schemaVersion": "3.0.16",
  "updatedAt": "2019-11-07T20:00:22.180Z",
  "devdoc": {
    "methods": {}
  },
  "userdoc": {
    "methods": {}
  }
}