{
  "contractName": "UniswapExchange",
  "abi": [
    {
      "constant": false,
      "inputs": [
        {
          "name": "min_tokens",
          "type": "uint256"
        },
        {
          "name": "deadline",
          "type": "uint256"
        }
      ],
      "name": "ethToTokenSwapInput",
      "outputs": [
        {
          "name": "tokens_bought",
          "type": "uint256"
        }
      ],
      "payable": true,
      "stateMutability": "payable",
      "type": "function"
    },
    {
      "constant": false,
      "inputs": [
        {
          "name": "tokens_sold",
          "type": "uint256"
        },
        {
          "name": "min_eth",
          "type": "uint256"
        },
        {
          "name": "deadline",
          "type": "uint256"
        }
      ],
      "name": "tokenToEthSwapInput",
      "outputs": [
        {
          "name": "eth_bought",
          "type": "uint256"
        }
      ],
      "payable": false,
      "stateMutability": "nonpayable",
      "type": "function"
    },
    {
      "constant": false,
      "inputs": [
        {
          "name": "eth_bought",
          "type": "uint256"
        },
        {
          "name": "max_tokens",
          "type": "uint256"
        },
        {
          "name": "deadline",
          "type": "uint256"
        },
        {
          "name": "recipient",
          "type": "address"
        }
      ],
      "name": "tokenToEthTransferOutput",
      "outputs": [
        {
          "name": "tokens_sold",
          "type": "uint256"
        }
      ],
      "payable": false,
      "stateMutability": "nonpayable",
      "type": "function"
    },
    {
      "constant": false,
      "inputs": [],
      "name": "topUp",
      "outputs": [],
      "payable": true,
      "stateMutability": "payable",
      "type": "function"
    }
  ],
  "bytecode": "0x608060405234801561001057600080fd5b5061036a806100206000396000f3fe60806040526004361061003f5760003560e01c806395e3c50b14610044578063d4e4841d146100a7578063dc29f1de1461012a578063f39b5b9b14610134575b600080fd5b34801561005057600080fd5b506100916004803603606081101561006757600080fd5b81019080803590602001909291908035906020019092919080359060200190929190505050610180565b6040518082815260200191505060405180910390f35b3480156100b357600080fd5b50610114600480360360808110156100ca57600080fd5b81019080803590602001909291908035906020019092919080359060200190929190803573ffffffffffffffffffffffffffffffffffffffff169060200190929190505050610202565b6040518082815260200191505060405180910390f35b6101326102bb565b005b61016a6004803603604081101561014a57600080fd5b8101908080359060200190929190803590602001909291905050506102bd565b6040518082815260200191505060405180910390f35b6000601482116101f8576040517f08c379a00000000000000000000000000000000000000000000000000000000081526004018080602001828103825260198152602001807f546f6b656e20546f2045746820446561646c696e65204f75740000000000000081525060200191505060405180910390fd5b8290509392505050565b60006014831161027a576040517f08c379a00000000000000000000000000000000000000000000000000000000081526004018080602001828103825260198152602001807f546f6b656e20546f2045746820446561646c696e65204f75740000000000000081525060200191505060405180910390fd5b8173ffffffffffffffffffffffffffffffffffffffff166108fc869081150290604051600060405180830381858888f1935050505050839050949350505050565b565b600060148211610335576040517f08c379a00000000000000000000000000000000000000000000000000000000081526004018080602001828103825260198152602001807f45746820546f20546f6b656e20446561646c696e65204f75740000000000000081525060200191505060405180910390fd5b8290509291505056fea165627a7a72305820cced46a75fa4fa72dcee3b99358ae4b44f91d043b31264aea6d095919298a2d70029",
  "source": "pragma solidity ^0.5.0;\n// Solidity Interface\n// https://github.com/Uniswap/contracts-vyper/blob/master/contracts/uniswap_exchange.vy\n\ncontract UniswapExchange {\n\n  // Trade ETH to ERC20\n  function ethToTokenSwapInput(uint256 min_tokens, uint256 deadline) external payable returns (uint256  tokens_bought){\n    // THIS IS JUST A DEMO TO TEST VARIOUS FUNCTIONS WITHOUT LIVE MIGRATE\n    // assert deadline >= block.timestamp and (eth_sold > 0 and min_tokens > 0)\n    require(deadline > 20, \"Eth To Token Deadline Out\");     // This is just to make test for a revert\n\n    // assert tokens_bought >= min_tokens\n    // assert self.token.transfer(recipient, tokens_bought)\n\n    return min_tokens;\n  }\n\n  function tokenToEthSwapInput(uint256 tokens_sold, uint256 min_eth, uint256 deadline) external returns (uint256  eth_bought){\n    // THIS IS JUST A DEMO TO TEST VARIOUS FUNCTIONS WITHOUT LIVE MIGRATE\n    // assert deadline >= block.timestamp and (eth_sold > 0 and min_tokens > 0)\n    require(deadline > 20, \"Token To Eth Deadline Out\");     // This is just to make test for a revert\n\n    // assert tokens_bought >= min_tokens\n    // assert self.token.transfer(recipient, tokens_bought)\n\n    return min_eth;\n  }\n\n  function tokenToEthTransferOutput(uint256 eth_bought,\n    uint256 max_tokens,\n    uint256 deadline,\n    address payable recipient) external returns (uint256  tokens_sold){\n    // THIS IS JUST A DEMO TO TEST VARIOUS FUNCTIONS WITHOUT LIVE MIGRATE\n    // assert deadline >= block.timestamp and (eth_sold > 0 and min_tokens > 0)\n    require(deadline > 20, \"Token To Eth Deadline Out\");     // This is just to make test for a revert\n\n    // assert tokens_bought >= min_tokens\n    // assert self.token.transfer(recipient, tokens_bought)\n    recipient.send(eth_bought);\n    return max_tokens;\n  }\n\n  function topUp() public payable {\n\n  }\n\n}\n",
  "sourcePath": "/Users/jg/Documents/bot/contracts/UniswapExchange.sol",
  "compiler": {
    "name": "solc",
    "version": "0.5.8+commit.23d335f2.Emscripten.clang"
  },
  "schemaVersion": "3.0.16",
  "updatedAt": "2019-10-20T21:15:55.076Z",
  "devdoc": {
    "methods": {}
  },
  "userdoc": {
    "methods": {}
  }
}