{
  "contractName": "WalletBalanceProvider",
  "abi": [
    {
      "inputs": [
        {
          "name": "_provider",
          "type": "address"
        }
      ],
      "payable": false,
      "stateMutability": "nonpayable",
      "type": "constructor"
    },
    {
      "payable": true,
      "stateMutability": "payable",
      "type": "fallback"
    },
    {
      "constant": true,
      "inputs": [
        {
          "name": "_user",
          "type": "address"
        },
        {
          "name": "_token",
          "type": "address"
        }
      ],
      "name": "balanceOf",
      "outputs": [
        {
          "name": "",
          "type": "uint256"
        }
      ],
      "payable": false,
      "stateMutability": "view",
      "type": "function"
    },
    {
      "constant": true,
      "inputs": [
        {
          "name": "_user",
          "type": "address"
        }
      ],
      "name": "getUserWalletBalances",
      "outputs": [
        {
          "name": "",
          "type": "address[]"
        },
        {
          "name": "",
          "type": "uint256[]"
        }
      ],
      "payable": false,
      "stateMutability": "view",
      "type": "function"
    }
  ],
  "bytecode": "0x608060405234801561001057600080fd5b506040516020806107cf8339810180604052602081101561003057600080fd5b8101908080519060200190929190505050806000806101000a81548173ffffffffffffffffffffffffffffffffffffffff021916908373ffffffffffffffffffffffffffffffffffffffff1602179055505061073e806100916000396000f3fe6080604052600436106100295760003560e01c80639e3c93091461007a578063f7888aec14610168575b6040517f08c379a000000000000000000000000000000000000000000000000000000000815260040180806020018281038252602e8152602001806106e5602e913960400191505060405180910390fd5b34801561008657600080fd5b506100c96004803603602081101561009d57600080fd5b81019080803573ffffffffffffffffffffffffffffffffffffffff1690602001909291905050506101ed565b604051808060200180602001838103835285818151815260200191508051906020019060200280838360005b838110156101105780820151818401526020810190506100f5565b50505050905001838103825284818151815260200191508051906020019060200280838360005b83811015610152578082015181840152602081019050610137565b5050505090500194505050505060405180910390f35b34801561017457600080fd5b506101d76004803603604081101561018b57600080fd5b81019080803573ffffffffffffffffffffffffffffffffffffffff169060200190929190803573ffffffffffffffffffffffffffffffffffffffff1690602001909291905050506105a9565b6040518082815260200191505060405180910390f35b60608060008060009054906101000a900473ffffffffffffffffffffffffffffffffffffffff1673ffffffffffffffffffffffffffffffffffffffff1663ed6ff7606040518163ffffffff1660e01b815260040160206040518083038186803b15801561025957600080fd5b505afa15801561026d573d6000803e3d6000fd5b505050506040513d602081101561028357600080fd5b8101908080519060200190929190505050905060608173ffffffffffffffffffffffffffffffffffffffff16630902f1ac6040518163ffffffff1660e01b815260040160006040518083038186803b1580156102de57600080fd5b505afa1580156102f2573d6000803e3d6000fd5b505050506040513d6000823e3d601f19601f82011682018060405250602081101561031c57600080fd5b81019080805164010000000081111561033457600080fd5b8281019050602081018481111561034a57600080fd5b815185602082028301116401000000008211171561036757600080fd5b5050929190505050905060008060009054906101000a900473ffffffffffffffffffffffffffffffffffffffff1673ffffffffffffffffffffffffffffffffffffffff1663b5722bb56040518163ffffffff1660e01b815260040160206040518083038186803b1580156103da57600080fd5b505afa1580156103ee573d6000803e3d6000fd5b505050506040513d602081101561040457600080fd5b810190808051906020019092919050505073ffffffffffffffffffffffffffffffffffffffff166317bfdd576040518163ffffffff1660e01b815260040160206040518083038186803b15801561045a57600080fd5b505afa15801561046e573d6000803e3d6000fd5b505050506040513d602081101561048457600080fd5b81019080805190602001909291905050509050606082516040519080825280602002602001820160405280156104c95781602001602082028038833980820191505090505b50905060008090505b8351811015610599578273ffffffffffffffffffffffffffffffffffffffff168482815181106104fe57fe5b602002602001015173ffffffffffffffffffffffffffffffffffffffff161461055b5761053e8885838151811061053157fe5b60200260200101516105a9565b82828151811061054a57fe5b60200260200101818152505061058c565b8773ffffffffffffffffffffffffffffffffffffffff163182828151811061057f57fe5b6020026020010181815250505b80806001019150506104d2565b5082819550955050505050915091565b60006105ca8273ffffffffffffffffffffffffffffffffffffffff16610699565b1561068e578173ffffffffffffffffffffffffffffffffffffffff166370a08231846040518263ffffffff1660e01b8152600401808273ffffffffffffffffffffffffffffffffffffffff1673ffffffffffffffffffffffffffffffffffffffff16815260200191505060206040518083038186803b15801561064c57600080fd5b505afa158015610660573d6000803e3d6000fd5b505050506040513d602081101561067657600080fd5b81019080805190602001909291905050509050610693565b600090505b92915050565b60008060007fc5d2460186f7233c927e7db2dcc703c0e500b653ca82273b7bfad8045d85a47060001b9050833f91506000801b82141580156106db5750808214155b9250505091905056fe57616c6c657442616c616e636550726f766964657220646f6573206e6f7420616363657074207061796d656e7473a165627a7a7230582020d8dbac9c3dbc50396afd763ac033054a14b6e6db027d70ad60d0aa7ea6adcf0029",
  "source": "pragma solidity ^0.5.0;\n\nimport \"openzeppelin-solidity/contracts/utils/Address.sol\";\nimport \"openzeppelin-solidity/contracts/token/ERC20/IERC20.sol\";\n\nimport \"../configuration/LendingPoolAddressesProvider.sol\";\nimport \"../lendingpool/LendingPoolCore.sol\";\nimport \"../interfaces/INetworkMetadataProvider.sol\";\n\n\n/*************************************************************************************\n@title WalletBalanceProvider contract\n@author Aave, influenced by https://github.com/wbobeirne/eth-balance-checker/blob/master/contracts/BalanceChecker.sol\n@notice Implements a logic of getting multiple tokens balance for one user address\n\n@dev NOTE: THIS CONTRACT IS NOT USED WITHIN THE AAVE PROTOCOL. It's an accessory contract used to reduce the number of calls\ntowards the blockchain.\n\n *************************************************************************************/\n\n\ncontract WalletBalanceProvider {\n\n    using Address for address;\n\n    LendingPoolAddressesProvider provider;\n\n    constructor(LendingPoolAddressesProvider _provider) public {\n\n        provider = _provider;\n\n    }\n    /**\n    @dev Fallback function, don't accept any ETH\n    **/\n    function() external payable {\n        revert(\"WalletBalanceProvider does not accept payments\");\n    }\n\n    /**\n    @dev Check the token balance of a wallet in a token contract\n\n    Returns the balance of the token for user. Avoids possible errors:\n      - return 0 on non-contract address\n    **/\n    function balanceOf(address _user, address _token) public view returns (uint) {\n        // check if token is actually a contract\n        if (_token.isContract()) {\n            return IERC20(_token).balanceOf(_user);\n        } else {\n            return 0;\n        }\n    }\n\n\n    /**\n    @dev provides balances of user wallet for all reserves available on the pool\n    */\n    function getUserWalletBalances(address _user) public view returns (address[] memory, uint[] memory) {\n\n        LendingPoolCore core = LendingPoolCore(provider.getLendingPoolCore());\n\n        address[] memory reserves = core.getReserves();\n        address ethereumAddress = INetworkMetadataProvider(provider.getNetworkMetadataProvider()).getEthereumAddress();\n\n        uint[] memory balances = new uint[](reserves.length);\n\n        for (uint j = 0; j < reserves.length; j++) {\n            if (reserves[j] != ethereumAddress) {\n                balances[j] = balanceOf(_user, reserves[j]);\n            } else {\n                balances[j] = _user.balance; // ETH balance\n            }\n        }\n\n        return (reserves, balances);\n    }\n}",
  "sourcePath": "/Users/jg/Documents/aaveBot/contracts/misc/WalletBalanceProvider.sol",
  "compiler": {
    "name": "solc",
    "version": "0.5.8+commit.23d335f2.Emscripten.clang"
  },
  "schemaVersion": "3.0.16",
  "updatedAt": "2019-11-07T20:00:22.375Z",
  "devdoc": {
    "author": "Aave, influenced by https://github.com/wbobeirne/eth-balance-checker/blob/master/contracts/BalanceChecker.sol",
    "details": "NOTE: THIS CONTRACT IS NOT USED WITHIN THE AAVE PROTOCOL. It's an accessory contract used to reduce the number of calls towards the blockchain.************************************************************************************",
    "methods": {
      "balanceOf(address,address)": {
        "details": "Check the token balance of a wallet in a token contract Returns the balance of the token for user. Avoids possible errors: - return 0 on non-contract address*"
      },
      "getUserWalletBalances(address)": {
        "details": "provides balances of user wallet for all reserves available on the pool"
      }
    },
    "title": "WalletBalanceProvider contract"
  },
  "userdoc": {
    "methods": {},
    "notice": "***********************************************************************************Implements a logic of getting multiple tokens balance for one user address"
  }
}